:020000040000FA
:0400000077EF01F0A5
:020008001200E4
:0800180012000A6EF80BE8303B
:10002000E830E830E926D8B0EA2AD1EC00F00A6ED0
:10003000EF1474EF01F0076A066E018E270E056E4D
:10004000100E0CD8030E056EE80E08D8056A640E73
:1000500005D8056A0A0E02D806500BD0046E075068
:10006000036E0650026E38EC01F0E866019E01BE98
:100070001200300F086E20C0EAFF20C0E2FF1E50C1
:10008000E96E120FE16E090E096ED89007D808329A
:10009000092EFCD7D88002D874EF01F001A60BD04E
:1000A000EF501C1001A41C18EF6EE7501C10D8A0D4
:1000B0001C18E76E0AD0EF501C10D8A01C1801B411
:1000C0001C18EF6E1C1CE71600D00134060BEA0F5B
:1000D000F66EF76A000EF722F86A0900F550036E13
:1000E0000800F550000000EF01F0019D033D0064A1
:1000F0000D0120C0EAFF1EC0E9FF0E50026E0F5036
:10010000036E046A056A040020D80CE3E86A04065A
:10011000055AF9E20206035A17E3780E046E010E3F
:10012000056EF1D729D80A6A080E056E26D80DD8B3
:10013000D8B00A3E0432052EF9D70DAA0A6A0DBAC4
:10014000049E1BD8D88004501200120EE9261C50C1
:10015000EF121EC0E9FFEF140DBC1C18FF0F1200B8
:10016000D96E0B0603E2D88074EF01F06EEC01F05B
:10017000D8A01200DE6EF5D7018C0D501F0B000FBA
:10018000036E0C50100FD8B0032A01AC00EF01F041
:10019000019CD8900332E830D8900332E83000EF69
:1001A00001F0010E0AB0E8440AB2E8440AB2E84499
:1001B0000AB4E8381200A66AA680A850A94AAA2A5A
:1001C00074EF01F0E86AA86EA66AA684550EA76EC1
:1001D000AA0EA76EA682A6B2FED7A694A94AAA2AFC
:1001E00074EF01F0056A046EE86A0406055AD8A0A7
:1001F00074EF01F0030E036EE70E02D8F5D7036A21
:10020000FD0F026E01D00206040000D0E86A035A16
:10021000FAE21200046E020E0FD0046E030E0CD030
:10022000056A046E010E08D0046E060E05D0046E39
:10023000040E02D0046E050E0A6E0550035C02E146
:100240000450025C040ED8B0010ED8B4020E0A1499
:10025000D8A4FF0E74EF01F0E866FF0E0214D8A4D4
:10026000FF0E74EF01F00210D8A4FF0E74EF01F03E
:10027000076A066A100E086E033406360736045005
:10028000065E0550075A05E204500626055007226F
:10029000D89002360336082EEFD7025074EF01F0E3
:1002A00004500802F3CF06F0F4CF07F0055009021E
:1002B000F3CF02F0F4CF03F00802F3500726F45016
:1002C0000222E86A032204500902F3500726F45080
:1002D0000222E86A0322065074EF01F0E96EFB6A1D
:1002E0001350FA6E1250F96E000104001200E80E6D
:1002F000D36E800ED26E400E9B6EF26A616A0F0161
:10030000386B396B3A6B010E966E229222942296CC
:10031000000132EC15F09488938A93889382938439
:100320009380938E948E9386928A9484948C9388EF
:1003300094909290929294929496949A9296929487
:100340008290809080928094030E056EE80E4BDFC1
:10035000808492948082030E056EE80E44DF8092C2
:10036000939E810E1E6E0F0E206E800E1C6E060E6A
:10037000016E0C0E7FDE0A0E35DF810E1E6E0F0E33
:10038000206E800E1C6E060E016E0E0E73DE100EB9
:1003900071DE400E6FDE4D0E6DDE500E6BDE550EC3
:1003A00069DE2D0E67DE350E65DE780E63DE200E0B
:1003B00061DE280E5FDE410E5DDE440E5BDE4D0E1B
:1003C00059DE290E57DE200E55DE440E53DE650E33
:1003D00051DE760E4FDE2D0E4DDE310E4BDE340E2D
:1003E00049DE460E47DE810E1E6E0F0E206E800E19
:1003F0001C6E060E016E100E3DDE540E3BDE340EFA
:1004000039DE2F0E37DE340E35DE2F0E33DE320EA0
:1004100031DE300E2FDE310E2DDE380E2BDE938EC8
:10042000476A486AFA0EDEDE8280010E056E2C0EE7
:10043000DADE82900A0EE3DE8080010E056E2C0E5D
:10044000D2DE80900A0EDBDE8082010E056E2C0E5D
:10045000CADE80920A0ED3DE82800A0ED0DE82824D
:10046000010ECDDE8286010ECADE829A010EC7DE43
:100470008182010EC4DE8184010EC1DE8096D1EC42
:1004800007F073EC05F0CBEC07F062EC0FF01DEC1D
:100490000DF00A0EA7DEDEEC1AF02282B4EC05F0B5
:1004A000472A000E482282807BEF02F0939E810E45
:1004B0001E6E0F0E206E800E1C6E060E016E100E4C
:1004C0003AEC00F0400E3AEC00F0530E3AEC00F03B
:1004D000540E3AEC00F0410E3AEC00F04E0E3AECBD
:1004E00000F0440E3AEC00F0420E3AEC00F0590EE7
:1004F0003AEC00F0938E040080AA83EF02F022868B
:1005000035EC15F08DD7E86A81BAE868146EE86AB0
:1005100082B4E868166E14C002F01650A4DE166E9F
:10052000176E040016501710D8B462EF05F08290D1
:10053000C5EF02F0939E810E1E6E0F0E206E800E90
:100540001C6E060E016E100E3AEC00F0400E3AECF6
:1005500000F0520E3AEC00F0550E3AEC00F04E0E60
:100560003AEC00F0200E3AEC00F0540E3AEC00F0B9
:10057000450E3AEC00F0530E3AEC00F0540E3AEC13
:1005800000F03F0E3AEC00F0938E070E056ED00E91
:100590002ADEE86A81BAE868146EE86A82B4E8681C
:1005A000166E14C002F016505EDE166E176E040052
:1005B00016501710D8B40AEF05F0808020EF03F032
:1005C000939E810E1E6E0F0E206E800E1C6E060E08
:1005D000016E100E3AEC00F0400E3AEC00F0530EB3
:1005E0003AEC00F0450E3AEC00F04E0E3AEC00F01A
:1005F000440E3AEC00F0200E3AEC00F0440E3AECD7
:1006000000F0410E3AEC00F0540E3AEC00F0410ECE
:100610003AEC00F0200E3AEC00F0540E3AEC00F008
:100620004F0E3AEC00F0200E3AEC00F0500E3AEC8F
:1006300000F0430E3AEC00F03F0E3AEC00F0938EDF
:10064000070E056ED00EF3EC00F0E86A81BAE86898
:10065000146EE86A82B4E868166E14C002F0165090
:1006600002DE166E176E040016501710D8B4AFEFE6
:1006700004F0010EFFEC00F08082010EFFEC00F0B0
:1006800080908CEF03F0939E810E1E6E0F0E206EF5
:10069000800E1C6E060E016E100E3AEC00F0400E3D
:1006A0003AEC00F0450E3AEC00F0520E3AEC00F055
:1006B000410E3AEC00F0530E3AEC00F0450E3AECE5
:1006C00000F03F0E3AEC00F0200E3AEC00F0200E65
:1006D0003AEC00F0200E3AEC00F0200E3AEC00F07C
:1006E000200E3AEC00F0200E3AEC00F0200E3AEC2E
:1006F00000F0200E3AEC00F0200E3AEC00F0200E54
:100700003AEC00F0200E3AEC00F0200E3AEC00F04B
:10071000200E3AEC00F0938E070E056ED00EF3EC2F
:1007200000F0E86A81BAE868146EE86A82B4E868A2
:10073000166E14C002F0165033EC01F0166E176EF0
:10074000040016501710D8B4AFEF03F080928280E7
:1007500080809AEC0AF08BEF01F0ADEF04F080821C
:100760008280809008EF04F0DEEC1AF0939E810EF8
:100770001E6E0F0E206E800E1C6E060E016E100E89
:100780003AEC00F0400E3AEC00F0530E3AEC00F078
:10079000450E3AEC00F0430E3AEC00F0540E3AEC01
:1007A00000F04F0E3AEC00F0520E3AEC00F0200E42
:1007B0003AEC00F0450E3AEC00F0520E3AEC00F044
:1007C000410E3AEC00F0530E3AEC00F0450E3AECD4
:1007D00000F03F0E3AEC00F0200E3AEC00F0200E54
:1007E0003AEC00F0200E3AEC00F0200E3AEC00F06B
:1007F000200E3AEC00F0200E3AEC00F0200E3AEC1D
:1008000000F0200E3AEC00F0200E3AEC00F0938E4F
:10081000E86A81BAE868146EE86A82B4E868166E1D
:1008200014C002F0165033EC01F0166E176E04007F
:1008300016501710D8B41EEF04F0EAD782903D6A24
:100840003E6A3DC002F03EC003F0056A0C0E11EC9A
:1008500001F0D8A4A6EF04F0E86A81BAE868146E43
:10086000E86A82B4E868166E14C002F0165033ECE1
:1008700001F0166E176E040016501710D8B497EFDB
:1008800004F091EF04F0DEEC1AF0939E810E1E6EE0
:100890000F0E206E800E1C6E060E016E100E3AECCE
:1008A00000F0400E3AEC00F0420E3AEC00F0550E2B
:1008B0003AEC00F04C0E3AEC00F04B0E3AEC00F043
:1008C000200E3AEC00F0450E3AEC00F0520E3AECF5
:1008D00000F0410E3AEC00F0530E3AEC00F0490EF5
:1008E0003AEC00F04E0E3AEC00F0470E3AEC00F015
:1008F0003F0E3AEC00F0200E3AEC00F0200E3AECFD
:1009000000F0200E3AEC00F0200E3AEC00F0200E41
:100910003AEC00F0200E3AEC00F0200E3AEC00F039
:10092000938E8280808249EC09F0AAEF04F08082E5
:100930007D0EF2EC00F0809280807D0EF2EC00F0F3
:1009400080903D2A000E3E22D8A07BD782808082F4
:100950009EEC08F0809210EF02F008EF05F0829014
:10096000808001EF05F0DEEC1AF0939E810E1E6E82
:100970000F0E206E800E1C6E060E016E100E3AECED
:1009800000F0400E3AEC00F0530E3AEC00F0450E49
:100990003AEC00F04E0E3AEC00F0440E3AEC00F067
:1009A000490E3AEC00F04E0E3AEC00F0470E3AECED
:1009B00000F0200E3AEC00F0440E3AEC00F0410E4C
:1009C0003AEC00F0540E3AEC00F0410E3AEC00F034
:1009D000200E3AEC00F0540E3AEC00F04F0E3AECD8
:1009E00000F0200E3AEC00F0500E3AEC00F0430E0E
:1009F0003AEC00F0200E3AEC00F0200E3AEC00F059
:100A0000938EC8EC11F0DEEC1AF0809010EF02F03B
:100A100062EF05F05AEF05F0DEEC1AF0939E810EBE
:100A20001E6E0F0E206E800E1C6E060E016E100ED6
:100A30003AEC00F0400E3AEC00F0520E3AEC00F0C6
:100A4000550E3AEC00F04E0E3AEC00F04E0E3AEC39
:100A500000F0490E3AEC00F04E0E3AEC00F0470E72
:100A60003AEC00F0200E3AEC00F0540E3AEC00F0B4
:100A7000450E3AEC00F0530E3AEC00F0540E3AEC0E
:100A800000F0200E3AEC00F0200E3AEC00F0200EC0
:100A90003AEC00F0200E3AEC00F0200E3AEC00F0B8
:100AA000200E3AEC00F0200E3AEC00F0200E3AEC6A
:100AB00000F0938E35EC15F0DEEC1AF0DEEC1AF057
:100AC00010EF02F00300880E026E130E036E48C092
:100AD00005F047501AEC01F0D8A471EF05F08094AE
:100AE000929450EF02F093849382100E6D6E280E54
:100AF0006C6E6B6A696A110E6E6E82EC05F089ECA1
:100B000005F012006B8004006BA088EF05F0FBD7A6
:100B100012006B8404006BA48FEF05F0FBD712006A
:100B2000F1DF85C06FFF04006DA098EF05F0FBD7E3
:100B3000020EFFEC00F084C06FFF04006DA0A2EF76
:100B400005F0FBD7020EFFEC00F083C06FFF010E33
:100B5000FFEC00F004006DA0AFEF05F0FBD7020E34
:100B6000FFEC00F0D6DF120011EC06F050EC06F0BE
:100B700092EC06F021EC07F0D00E856F6B0E846FBF
:100B8000800E836FCDDF640EF2EC00F0D00E856F27
:100B90006B0E846F010E836FC3DFD00E856F6C0EFA
:100BA000846F836BBDDFD00E856F1A0E846F7EC09D
:100BB00083F0B6DFD00E856F1B0E846F7FC083F08D
:100BC000AFDFD00E856F1C0E846F5EC083F0A8DF90
:100BD000D00E856F1D0E846F5DC083F0A1DFD00E37
:100BE000856F370E846F120E836F9ADFD00E856F7C
:100BF0006A0E846F836B94DF0A0EF2EC00F0D00E65
:100C0000856F380E846F010E836F8ADF0A0EF2EC57
:100C100000F0D00E856F0A0E846F110E836F80DF97
:100C20001200020E026E036A28C005F027501AEC6B
:100C300001F0D8A420EF06F05E985E964FEF06F024
:100C4000040E026E036A28C005F027501AEC01F06A
:100C5000D8A42FEF06F05E985E864FEF06F0080EE0
:100C6000026E036A28C005F027501AEC01F0D8A4E0
:100C70003EEF06F05E885E964FEF06F0100E026EB5
:100C8000036A28C005F027501AEC01F0D8A44DEFF4
:100C900006F05E885E864FEF06F05E885E96120074
:100CA000FA0E026E036A3CC005F03B501AEC01F0EC
:100CB000D8A45FEF06F07F997F9791EF06F0F40ECE
:100CC000026E010E036E3CC005F03B501AEC01F0C1
:100CD000D8A46FEF06F07F997F8791EF06F0E80EBA
:100CE000026E030E036E3CC005F03B501AEC01F09F
:100CF000D8A47FEF06F07F897F9791EF06F0D00EA2
:100D0000026E070E036E3CC005F03B501AEC01F07A
:100D1000D8A48FEF06F07F897F8791EF06F07F9947
:100D20007F871200050E026E036A24C005F023506F
:100D30001AEC01F0D8A4A3EF06F05D865D845D8215
:100D40005D9020EF07F00A0E026E036A24C005F0E2
:100D500023501AEC01F0D8A4B4EF06F05D865D8450
:100D60005D925D8020EF07F0140E026E036A24C0CE
:100D700005F023501AEC01F0D8A4C5EF06F05D860B
:100D80005D845D925D9020EF07F0290E026E036A8C
:100D900024C005F023501AEC01F0D8A4D6EF06F0D9
:100DA0005D865D945D825D8020EF07F05C0E026ED3
:100DB000036A24C005F023501AEC01F0D8A4E7EF31
:100DC00006F05D865D945D825D9020EF07F0B80EC1
:100DD000026E036A24C005F023501AEC01F0D8A477
:100DE000F8EF06F05D865D945D925D8020EF07F080
:100DF000CC0E026E010E036E24C005F023501AECD7
:100E000001F0D8A40AEF07F05D865D945D925D90D5
:100E100020EF07F06A0E026E040E036E24C005F088
:100E200023501AEC01F0D8A41CEF07F05D965D94F6
:100E30005D925D9020EF07F05D865D945D825D9030
:100E40001200050E026E036A3AC005F039501AEC22
:100E500001F0D8A433EF07F07F837F817E857E8306
:100E60007E91CAEF07F00A0E026E036A3AC005F0DF
:100E700039501AEC01F0D8A445EF07F07F837F8149
:100E80007E857E937E81CAEF07F0140E026E036AA0
:100E90003AC005F039501AEC01F0D8A457EF07F02A
:100EA0007F837F817E857E937E91CAEF07F0290E36
:100EB000026E036A3AC005F039501AEC01F0D8A46A
:100EC00069EF07F07F837F817E957E837E81CAEF05
:100ED00007F05C0E026E036A3AC005F039501AEC56
:100EE00001F0D8A47BEF07F07F837F817E957E831E
:100EF0007E91CAEF07F0B80E026E036A3AC005F0A1
:100F000039501AEC01F0D8A48DEF07F07F837F8170
:100F10007E957E937E81CAEF07F0FA0E026E036A19
:100F20003AC005F039501AEC01F0D8A49FEF07F051
:100F30007F837F817E957E937E91CAEF07F0100EAE
:100F4000026E0E0E036E3AC005F039501AEC01F035
:100F5000D8A4B2EF07F07F937F817E957E937E9138
:100F6000CAEF07F0600E026E220E036E3AC005F063
:100F700039501AEC01F0D8A4C5EF07F07F937F91A8
:100F80007E957E937E91CAEF07F07F837F817E9569
:100F90007E837E911200C76A300EC66E100ECB6E35
:100FA000120036EC11F08292060EC96E010EFFECB3
:100FB00000F08282010EFFEC00F08292010EC96EF9
:100FC000010EFFEC00F0C96A010EFFEC00F0C96AE7
:100FD000010EFFEC00F0C00EC96E010EFFEC00F038
:100FE0008282030E056EE80EF3EC00F01200D3DFF0
:100FF0003D6A3E6A3DC002F03EC003F0056AFB0E4A
:1010000011EC01F0D8A411EF08F03D50A30FE96EE8
:10101000020E3E20EA6EEF6A3D2A000E3E22D8A064
:10102000E9D73D6A3E6A3DC002F03EC003F0056A62
:10103000FB0E11EC01F0D8A42AEF08F03D509F0FF1
:10104000E96E030E3E20EA6EEF6A3D2A000E3E2254
:10105000D8A0E9D78292130EC96E010EFFEC00F002
:101060006DC0C9FF010EFFEC00F06CC0C9FF010E9E
:10107000FFEC00F06FC0C9FF010EFFEC00F06EC086
:10108000C9FF010EFFEC00F03D6A3E6A3DC002F070
:101090003EC003F0056AFB0E11EC01F0D8A465EF29
:1010A00008F0C96A010EFFEC00F03D50A30FE96E95
:1010B000020E3E20EA6EC9CFEFFF010EFFEC00F0FA
:1010C0003D2A000E3E22D8A0E1D73D6A3E6A3DC0CF
:1010D00002F03EC003F0056AFB0E11EC01F0D8A44B
:1010E00086EF08F0C96A010EFFEC00F03D509F0F3B
:1010F000E96E030E3E20EA6EC9CFEFFF010EFFEC52
:1011000000F03D2A000E3E22D8A0E1D78282026A7A
:10111000FE0E036E6FC005F06E511AEC01F0D8A4FC
:1011200099EF08F06C2B000E6D236E6B6F6B9DEFCB
:1011300008F0000E6E27020E6F231200949E62ECE0
:101140000FF06C6B6D6B6E6B6F6B79C08DF0A0ECFC
:1011500009F078C08DF0A0EC09F07BC08DF0A0EC18
:1011600009F07AC08DF0A0EC09F094EC09F094EC51
:1011700009F06CC002F06DC003F079C005F0785141
:1011800011EC01F0D8A445EF09F06DC08DF0A0EC92
:1011900009F06CC08DF0A0EC09F06FC08DF0A0ECF0
:1011A00009F06EC08DF0A0EC09F094EC09F08A9182
:1011B0000400D8968AB1D886D8B623EF09F0829277
:1011C000010EFFEC00F0060EC96E010EFFEC00F000
:1011D0008282010EFFEC00F08292010EFFEC00F023
:1011E000D80EC96E010EFFEC00F06DC0C9FF010EF4
:1011F000FFEC00F06CC0C9FF010EFFEC00F06FC007
:10120000C9FF010EFFEC00F08282010EFFEC00F03E
:101210008292010EFFEC00F0050EC96E010EFFEC8C
:1012200000F0C96A010EFFEC00F0C9CF8AF0010E90
:10123000FFEC00F082828A818AC08DF0A0EC09F078
:1012400094EC09F0B5D70400D8968AA1D886D8B610
:101250003EEF09F08292010EFFEC00F0050EC96E20
:10126000010EFFEC00F0C96A010EFFEC00F0C9CFDF
:101270008AF0010EFFEC00F08282E5D7040E6C27A5
:10128000000E6D236E6B6F6B74D7496A4A6A948E39
:10129000120081DE8292060EC96E010EFFEC00F094
:1012A0008282010EFFEC00F08292600EC96E010E88
:1012B000FFEC00F08282030E056EE80EF3EC00F006
:1012C0008A810400D8968AA1D886D8B67BEF09F027
:1012D0008292050EC96E010EFFEC00F0C96A010E84
:1012E000FFEC00F0C9CF8AF08282030E056EE80E93
:1012F000F3EC00F0E6D7496A4A6A12003D6A3E6A9A
:101300003DC002F03EC003F0056A0A0E11EC01F088
:10131000D8A493EF09F08E6B66EC0AF03D2A000E1C
:101320003E22D8A0EDD712000D0E8E6F66EC0AF0AB
:10133000010EF2EC00F00A0E8E6F66EC0AF012005D
:10134000806B0400020E805DD8B065EF0AF00400E7
:1013500080510008D8A4B8EF09F08DC002F0036AEC
:10136000100E046E056A38EC01F0816FC2EF09F0CF
:101370008DC002F0036A100E046E056A38EC01F0AD
:1013800006C081F0040081510008D8A4CCEF09F018
:10139000300E8E6F60EF0AF0040081510108D8A46E
:1013A000D6EF09F0310E8E6F60EF0AF00400815124
:1013B0000208D8A4E0EF09F0320E8E6F60EF0AF059
:1013C000040081510308D8A4EAEF09F0330E8E6FB0
:1013D00060EF0AF0040081510408D8A4F4EF09F08A
:1013E000340E8E6F60EF0AF0040081510508D8A416
:1013F000FEEF09F0350E8E6F60EF0AF004008151A8
:101400000608D8A408EF0AF0360E8E6F60EF0AF0D7
:10141000040081510708D8A412EF0AF0370E8E6F2E
:1014200060EF0AF0040081510808D8A41CEF0AF00C
:10143000380E8E6F60EF0AF0040081510908D8A4BD
:1014400026EF0AF0390E8E6F60EF0AF0040081512A
:101450000A08D8A430EF0AF0410E8E6F60EF0AF050
:10146000040081510B08D8A43AEF0AF0420E8E6FA7
:1014700060EF0AF0040081510C08D8A444EF0AF090
:10148000430E8E6F60EF0AF0040081510D08D8A45E
:101490004EEF0AF0440E8E6F60EF0AF004008151A7
:1014A0000E08D8A458EF0AF0450E8E6F60EF0AF0D0
:1014B000040081510F08D8A460EF0AF0460E8E6F29
:1014C00066EC0AF0802BD8A03CD71200949E829E36
:1014D000020EFFEC00F099EC0AF099EC0AF05F6A5A
:1014E0000400080E5F5CD8B089EF0AF08E0EE96E3A
:1014F000EA6A5F50000F0DEC00F0D8B4829ED8A4C9
:10150000828E020EFFEC00F099EC0AF05F2AD8A060
:10151000E7D7030EFFEC00F0828E020EFFEC00F026
:1015200099EC0AF099EC0AF0948E020EFFEC00F0B0
:1015300012001200DEEF0AF0DEEC1AF0939E810E2C
:101540001E6E0F0E206E800E1C6E060E016E100EAB
:101550003AEC00F0400E3AEC00F0570E3AEC00F096
:10156000410E3AEC00F0490E3AEC00F0540E3AEC21
:1015700000F0490E3AEC00F04E0E3AEC00F0470E47
:101580003AEC00F0200E3AEC00F0460E3AEC00F097
:101590004F0E3AEC00F0520E3AEC00F0200E3AEC0E
:1015A00000F0440E3AEC00F0410E3AEC00F0540E1C
:1015B0003AEC00F0410E3AEC00F0938E810E1E6E74
:1015C0000F0E206E010E1C6E540E0C6E0D6A100E66
:1015D0000E6E270E0F6E79EC00F0D8A048EF0EF0DB
:1015E0005A08D8A4F8D71C0E0B6EF20E126E136AAE
:1015F000DA6A8F0EB0EC00F0D8A048EF0EF0816BE5
:101600006AEC0EF082C008F0096A046A100E056EDA
:1016100050EC01F0256E07C026F0010E816F6AECD8
:101620000EF082C008F0096A046A010E056E50ECE3
:1016300001F0146E07C015F014502526155026220F
:10164000020E816F6AEC0EF082C008F0096A100E7B
:10165000046E056A50EC01F0146E07C015F01450CA
:10166000252615502622030E816F6AEC0EF082515A
:101670002526E86A2622040E816F6AEC0EF082C0ED
:1016800008F0096A046A100E056E50EC01F0456E10
:1016900007C046F0050E816F6AEC0EF082C008F0BC
:1016A000096A046A010E056E50EC01F0146E07C061
:1016B00015F01450452615504622060E816F6AEC2F
:1016C0000EF082C008F0096A100E046E056A50EC34
:1016D00001F0146E07C015F014504526155046222F
:1016E000070E816F6AEC0EF082514526E86A4622A9
:1016F000080E816F6AEC0EF082C008F0096A046A75
:10170000100E056E50EC01F0726F07C073F0090EF9
:10171000816F6AEC0EF082C008F0096A046A010E5B
:10172000056E50EC01F0146E07C015F014507227CE
:10173000155073230A0E816F6AEC0EF082C008F018
:10174000096A100E046E056A50EC01F0146E07C0B1
:1017500015F014507227155073230B0E816F6AEC2D
:101760000EF082517227E86A73230C0E816F6AECC7
:101770000EF082C008F0096A046A100E056E50EC83
:1017800001F0276E07C028F00D0E816F6AEC0EF095
:1017900082C008F0096A046A010E056E50EC01F07F
:1017A000146E07C015F014502726155028220E0E6F
:1017B000816F6AEC0EF082C008F0096A100E046EA8
:1017C000056A50EC01F0146E07C015F0145027267E
:1017D000155028220F0E816F6AEC0EF082512726D9
:1017E000E86A2822100E816F6AEC0EF082C008F0C1
:1017F000096A046A100E056E50EC01F03B6E07C0DA
:101800003CF0110E816F6AEC0EF082C008F0096A9C
:10181000046A010E056E50EC01F0146E07C015F05D
:1018200014503B2615503C22120E816F6AEC0EF0CC
:1018300082C008F0096A100E046E056A50EC01F0CF
:10184000146E07C015F014503B2615503C22130EA1
:10185000816F6AEC0EF082513B26E86A3C22140E3E
:10186000816F6AEC0EF082C008F0096A046A100EFB
:10187000056E50EC01F0236E07C024F0150E816F49
:101880006AEC0EF082C008F0096A046A010E056E67
:1018900050EC01F0146E07C015F0145023261550BB
:1018A0002422160E816F6AEC0EF082C008F0096ADD
:1018B000100E046E056A50EC01F0146E07C015F0AE
:1018C0001450232615502422170E816F6AEC0EF057
:1018D00082512326E86A2422180E816F6AEC0EF0EA
:1018E00082C008F0096A046A100E056E50EC01F01F
:1018F000396E07C03AF0190E816F6AEC0EF082C0A3
:1019000008F0096A046A010E056E50EC01F0146ECD
:1019100007C015F01450392615503A221A0E816F5F
:101920006AEC0EF082C008F0096A100E046E056AB7
:1019300050EC01F0146E07C015F014503926155004
:101940003A221B0E816F6AEC0EF082513926E86A4A
:101950003A22A96AAA6A2550E3EC00F02650E3EC8B
:1019600000F00A0EF2EC00F0020EA96EAA6A4550D1
:10197000E3EC00F04650E3EC00F00A0EF2EC00F06D
:10198000040EA96EAA6A7251E3EC00F07351E3EC05
:1019900000F00A0EF2EC00F0060EA96EAA6A2750BB
:1019A000E3EC00F02850E3EC00F00A0EF2EC00F05B
:1019B000080EA96EAA6A3B50E3EC00F03C50E3EC41
:1019C00000F00A0EF2EC00F00A0EA96EAA6A23508B
:1019D000E3EC00F02450E3EC00F00A0EF2EC00F02F
:1019E0000C0EA96EAA6A3950E3EC00F03A50E3EC11
:1019F00000F00A0EF2EC00F0010E3D6E3E6A3DC0B2
:101A000002F03EC003F0056A040E11EC01F0D8A408
:101A10001BEF0DF08280010E056E5E0EF3EC00F000
:101A20008290010E056E5E0EF3EC00F03D2A000E72
:101A30003E22D8A0E4D780901200256A266A456A23
:101A4000466A726B736B276A286A3B6A3C6A236A30
:101A5000246A396A3A6AA96AAA6ADBEC00F0256E40
:101A6000DBEC00F0266E0A0EF2EC00F0020EA96E1E
:101A7000AA6ADBEC00F0456EDBEC00F0466E0A0E65
:101A8000F2EC00F0040EA96EAA6ADBEC00F0726FB3
:101A9000DBEC00F0736F0A0EF2EC00F0060EA96E9C
:101AA000AA6ADBEC00F0276EDBEC00F0286E0A0E71
:101AB000F2EC00F0080EA96EAA6ADBEC00F03B6EB7
:101AC000DBEC00F03C6E0A0EF2EC00F00A0EA96EA0
:101AD000AA6ADBEC00F0236EDBEC00F0246E0A0E49
:101AE000F2EC00F00C0EA96EAA6ADBEC00F0396E85
:101AF000DBEC00F03A6E0A0EF2EC00F0DEEC1AF0CD
:101B00000268036826C005F025501AEC01F0D8A43D
:101B10008DEF0DF0780E256E266A0268036846C0C8
:101B200005F045501AEC01F0D8A49AEF0DF0780EAC
:101B3000456E466A0268036873C005F072511AEC7C
:101B400001F0D8A4A7EF0DF01E0E726F736B026840
:101B5000036828C005F027501AEC01F0D8A4B4EFB0
:101B60000DF0100E276E286A026803683CC005F06D
:101B70003B501AEC01F0D8A4C2EF0DF0D00E3B6E32
:101B8000070E3C6E0268036824C005F023501AEC6F
:101B900001F0D8A4CFEF0DF05C0E236E246A02682A
:101BA00003683AC005F039501AEC01F0D8A4DCEF14
:101BB0000DF05C0E396E3A6A12003FDF87C08EF07E
:101BC00066EC0AF0050EFFEC00F026C08EF066EC25
:101BD0000AF0050EFFEC00F025C08EF066EC0AF06E
:101BE000050EFFEC00F046C08EF066EC0AF0050E24
:101BF000FFEC00F045C08EF066EC0AF0050EFFEC3D
:101C000000F073C08EF066EC0AF0050EFFEC00F0F9
:101C100072C08EF066EC0AF0050EFFEC00F028C0F2
:101C20008EF066EC0AF0050EFFEC00F027C08EF097
:101C300066EC0AF0050EFFEC00F03CC08EF066EC9E
:101C40000AF0050EFFEC00F03BC08EF066EC0AF0E7
:101C5000050EFFEC00F024C08EF066EC0AF0050ED5
:101C6000FFEC00F023C08EF066EC0AF0050EFFECEE
:101C700000F03AC08EF066EC0AF0050EFFEC00F0C2
:101C800039C08EF066EC0AF0050EFFEC00F0120091
:101C90008290010E3D6E3E6A3DC002F03EC003F0F0
:101CA000056A040E11EC01F0D8A468EF0EF08082F2
:101CB000010E056E5E0EF3EC00F08092010E056ED3
:101CC0005E0EF3EC00F03D2A000E3E22D8A0E4D7D1
:101CD00080901200146A156A81518F0FE96E000E10
:101CE000EA6AEA22EFCF14F0300E026E036A15C0E2
:101CF00005F014501AEC01F0D8A482EF0EF0826BBC
:101D000061EF0FF0310E026E036A15C005F014503A
:101D10001AEC01F0D8A491EF0EF0010E826F61EF82
:101D20000FF0320E026E036A15C005F014501AEC63
:101D300001F0D8A4A0EF0EF0020E826F61EF0FF059
:101D4000330E026E036A15C005F014501AEC01F050
:101D5000D8A4AFEF0EF0030E826F61EF0FF0340ED8
:101D6000026E036A15C005F014501AEC01F0D8A4F5
:101D7000BEEF0EF0040E826F61EF0FF0350E026EB3
:101D8000036A15C005F014501AEC01F0D8A4CDEF89
:101D90000EF0050E826F61EF0FF0360E026E036AD1
:101DA00015C005F014501AEC01F0D8A4DCEF0EF0C9
:101DB000060E826F61EF0FF0370E026E036A15C0D8
:101DC00005F014501AEC01F0D8A4EBEF0EF0070E5A
:101DD000826F61EF0FF0380E026E036A15C005F0D6
:101DE00014501AEC01F0D8A4FAEF0EF0080E826F2E
:101DF00061EF0FF0390E026E036A15C005F0145042
:101E00001AEC01F0D8A409EF0FF0090E826F61EF10
:101E10000FF0410E026E036A15C005F014501AEC63
:101E200001F0D8A418EF0FF00A0E826F61EF0FF0E7
:101E3000420E026E036A15C005F014501AEC01F050
:101E4000D8A427EF0FF00B0E826F61EF0FF0430E57
:101E5000026E036A15C005F014501AEC01F0D8A404
:101E600036EF0FF00C0E826F61EF0FF0440E026E32
:101E7000036A15C005F014501AEC01F0D8A445EF20
:101E80000FF00D0E826F61EF0FF0450E026E036AC8
:101E900015C005F014501AEC01F0D8A454EF0FF05F
:101EA0000E0E826F61EF0FF0460E026E036A15C0D0
:101EB00005F014501AEC01F0D8A461EF0FF00F0EEA
:101EC000826F120036EC11F0F40E496E010E4A6E6C
:101ED00049C002F04AC003F0056AF80E0DEC01F0AB
:101EE000D8A42FEF10F04950AB0FE96E000E4A2036
:101EF000EA6EEFCF14F01450FF08D8A4E868FF0A88
:101F0000146E4928166E000E4A20176E1650AB0F3D
:101F1000E96E000E1720EA6EEFCF16F01650FF089C
:101F2000D8A4E868FF0A166E14C002F016502CEC14
:101F300001F0166E176E020E4924186E000E4A202C
:101F4000196E1850AB0FE96E000E1920EA6EEFCF34
:101F500018F01850FF08D8A4E868FF0A186E165049
:101F60001710026E18502CEC01F0186E196E030E4B
:101F700049241A6E000E4A201B6E1A50AB0FE96EF0
:101F8000000E1B20EA6EEFCF1AF01A50FF08D8A4FB
:101F9000E868FF0A1A6E18501910026E1A502CECDD
:101FA00001F01A6E1B6E04001A501B10D8B4F6EF25
:101FB0000FF049C002F04AC003F0056A030E14ECAA
:101FC00001F0D8A4EAEF0FF0040E495E000E4A5A61
:101FD000F3EF0FF0786B796B7A6B020E7B6F496AC7
:101FE0004A6AF7EF10F074D72DEF10F04950AB0F9D
:101FF000E96E000E4A20EA6EEFCF79F04928146EA0
:10200000000E4A20156E1450AB0FE96E000E15201D
:10201000EA6EEFCF78F0020E4924146E000E4A20CB
:10202000156E1450AB0FE96E000E1520EA6EEFCF5F
:102030007BF0030E4924146E000E4A20156E1450D6
:10204000AB0FE96E000E1520EA6EEFCF7AF0040EAA
:102050004926000E4A22F7EF10F0F7EF10F0FC0EC1
:10206000495C146E000E4A58156E1450A70FE96EA5
:10207000010E1520EA6EEFCF14F01450FF08D8A41B
:10208000E868FF0A146E4928166E000E4A20176E83
:10209000FC0E165E000E175A1650A70FE96E010EC1
:1020A0001720EA6EEFCF16F01650FF08D8A4E868A4
:1020B000FF0A166E14C002F016502CEC01F0166EDA
:1020C000176E020E4924186E000E4A20196EFC0E7F
:1020D000185E000E195A1850A70FE96E010E19204C
:1020E000EA6EEFCF18F01850FF08D8A4E868FF0A8E
:1020F000186E16501710026E18502CEC01F0186E66
:10210000196E030E49241A6E000E4A201B6EFC0E37
:102110001A5E000E1B5A1A50A70FE96E010E1B2003
:10212000EA6EEFCF1AF01A50FF08D8A4E868FF0A49
:102130001A6E18501910026E1A502CEC01F01A6E1B
:102140001B6E04001A501B10D8B4AEEF10F0040E32
:10215000495E000E4A5ABCD6F7EF10F0FC0E495CFF
:10216000146E000E4A58156E1450A70FE96E010E3A
:102170001520EA6EEFCF79F04928146E000E4A2040
:10218000156EFC0E145E000E155A1450A70FE96E62
:10219000010E1520EA6EEFCF78F0020E4924146E7E
:1021A000000E4A20156EFC0E145E000E155A1450D7
:1021B000A70FE96E010E1520EA6EEFCF7BF0030E3C
:1021C0004924146E000E4A20156EFC0E145E000E9B
:1021D000155A1450A70FE96E010E1520EA6EEFCFC5
:1021E0007AF0040E4926000E4A22F7EF10F0120092
:1021F000CBEC07F08292060EC96E010EFFEC00F0E8
:102200008282010EFFEC00F08292120EC96E010E66
:10221000FFEC00F0C96A010EFFEC00F0C96A010E84
:10222000FFEC00F04AC0C9FF010EFFEC00F049C00E
:10223000C9FF010EFFEC00F079C0C9FF010EFFECF1
:1022400000F078C0C9FF010EFFEC00F07BC0C9FFB1
:10225000010EFFEC00F07AC0C9FF010EFFEC00F0A8
:102260008282040E4926000E4A221200CBEC07F0AF
:102270008292130EC96E010EFFEC00F0C96A010EC6
:10228000FFEC00F0C96A010EFFEC00F0C96A010E14
:10229000FFEC00F0C96A010EFFEC00F03D6A3E6AF7
:1022A0003DC002F03EC003F0056AFB0E11EC01F0E8
:1022B000D8A46CEF11F0C96A010EFFEC00F03D509C
:1022C000AB0FE96E000E3E20EA6EC9CFEFFF3D2A4C
:1022D000000E3E22D8A0E4D73D6A3E6A3DC002F01F
:1022E0003EC003F0056AFB0E11EC01F0D8A48AEFA2
:1022F00011F0C96A010EFFEC00F03D50A70FE96E26
:10230000010E3E20EA6EC9CFEFFF3D2A000E3E22AD
:10231000D8A0E4D782821200A9DF3D6A3E6A3DC0A0
:1023200002F03EC003F0056AFB0E11EC01F0D8A4E8
:10233000A9EF11F03D50AB0FE96E000E3E20EA6EA2
:10234000EFCF8DF0A0EC09F03D2A000E3E22D8A080
:10235000E6D73D6A3E6A3DC002F03EC003F0056A22
:10236000FB0E11EC01F0D8A4C5EF11F03D50A70F02
:10237000E96E010E3E20EA6EEFCF8DF0A0EC09F081
:102380003D2A000E3E22D8A0E6D794EC09F01200B8
:1023900062EC0FF06C6B6D6B6E6B020E6F6F026A0E
:1023A000036A4AC005F049501AEC01F0D8A445EF81
:1023B00012F023EF12F0DEEC1AF0939E810E1E6EE7
:1023C0000F0E206E800E1C6E060E016E100E3AEC83
:1023D00000F0540E3AEC00F04E0E3AEC00F04F0EC6
:1023E0003AEC00F0200E3AEC00F0540E3AEC00F01B
:1023F000450E3AEC00F0530E3AEC00F0540E3AEC75
:1024000000F0200E3AEC00F0440E3AEC00F0410EE1
:102410003AEC00F0540E3AEC00F0410E3AEC00F0C9
:10242000200E3AEC00F0460E3AEC00F04F0E3AEC7B
:1024300000F0550E3AEC00F04E0E3AEC00F0440E6F
:102440003AEC00F0938E010E436E446A43C002F0F2
:1024500044C003F0056A050E11EC01F0D8A442EF68
:1024600012F08082010E056EF40EF3EC00F0809203
:10247000010E056EF40EF3EC00F0432A000E442228
:10248000D8A0E4D7809060EF14F0010E3D6E3E6A54
:102490003DC002F03EC003F0056A320E11EC01F0BF
:1024A000D8A45BEF12F08E6B66EC0AF03D2A000EAA
:1024B0003E22D8A0EDD749C002F04AC003F0040E76
:1024C000046E056A38EC01F0876F7AEF12F0939E84
:1024D000810E1E6E0F0E206E800E1C6E060E016E9B
:1024E000100E3AEC00F0680E3AEC00F087511BEC4D
:1024F00000F0938EDDEC0DF0496A4A6AB7DE010EFA
:10250000746F756B74C002F075C003F0875110ECE6
:1025100001F0D8A460EF14F0026A036A4AC005F023
:1025200049501AEC01F0D8A4CEEF12F06C6B6D6B31
:102530006E6B020E6F6F4950AB0FE96E000E4A20B2
:10254000EA6EEFCF30F04928146E000E4A20156E67
:102550001450AB0FE96E000E1520EA6EEFCF2FF08E
:10256000020E4924146E000E4A20156E1450AB0F53
:10257000E96E000E1520EA6EEFCF32F0030E49240B
:10258000146E000E4A20156E1450AB0FE96E000E4B
:102590001520EA6EEFCF31F0ABEF13F049C002F037
:1025A0004AC003F0056AF80E11EC01F0D8A443EF1D
:1025B00013F0040E495C146E000E4A58156E145048
:1025C000AB0FE96E000E1520EA6EEFCF6DF0030E33
:1025D000495C146E000E4A58156E1450AB0FE96E2C
:1025E000000E1520EA6EEFCF6CF0020E495C146EFF
:1025F000000E4A58156E1450AB0FE96E000E1520F0
:10260000EA6EEFCF6FF04904146E000E4A58156E53
:102610001450AB0FE96E000E1520EA6EEFCF6EF08E
:102620004950AB0FE96E000E4A20EA6EEFCF30F052
:102630004928146E000E4A20156E1450AB0FE96E37
:10264000000E1520EA6EEFCF2FF0020E4924146E13
:10265000000E4A20156E1450AB0FE96E000E1520C7
:10266000EA6EEFCF32F0030E4924146E000E4A20BA
:10267000156E1450AB0FE96E000E1520EA6EEFCF09
:1026800031F0ABEF13F0040E495C146E000E4A58A3
:10269000156E1450A70FE96E010E1520EA6EEFCFEC
:1026A0006DF0030E495C146E000E4A58156E1450FE
:1026B000A70FE96E010E1520EA6EEFCF6CF0020E47
:1026C000495C146E000E4A58156E1450A70FE96E3F
:1026D000010E1520EA6EEFCF6FF04904146E000E64
:1026E0004A58156E1450A70FE96E010E1520EA6EB8
:1026F000EFCF6EF04950A70FE96E010E4A20EA6E47
:10270000EFCF30F04928146E000E4A20156E145099
:10271000A70FE96E010E1520EA6EEFCF2FF0020E23
:102720004924146E000E4A20156E1450A70FE96E4E
:10273000010E1520EA6EEFCF32F0030E4924146E1D
:10274000000E4A20156E1450A70FE96E010E1520D9
:10275000EA6EEFCF31F0CCEF13F0DEEC1AF0939E7F
:10276000810E1E6E0F0E206E800E1C6E060E016E08
:10277000100E3AEC00F0680E3AEC00F06DC007F075
:102780006C511CEC00F02C0E3AEC00F06FC007F01E
:102790006E511CEC00F0938E3D6A3E6A3DC002F023
:1027A0003EC003F0056A090E11EC01F0D8A4E2EF77
:1027B00013F03DC08EF066EC0AF03D2A000E3E227A
:1027C000D8A0ECD76CC002F06DC003F030C005F0AB
:1027D0002F5017EC01F0146E6EC002F06FC003F0C2
:1027E00032C005F0315017EC01F0166E14C002F043
:1027F000165033EC01F0166E176E040016501710C9
:10280000D8B44BEF14F0F7EC07F03D6A3E6A3DC0D8
:1028100002F03EC003F0056AFB0E11EC01F0D8A4F3
:1028200021EF14F03D50A30FE96E020E3E20EA6E38
:10283000EFCF8EF066EC0AF03D2A000E3E22D8A0C3
:10284000E6D7E86A81BAE868146EE86A82B4E86894
:10285000166E14501610D8A460EF14F03D6A3E6A4C
:102860003DC002F03EC003F0056AFB0E11EC01F022
:10287000D8A44AEF14F03D509F0FE96E030E3E209E
:10288000EA6EEFCF8EF066EC0AF03D2A000E3E2293
:10289000D8A0E6D797D7040E4926000E4A22090E83
:1028A0003D6E3E6A3DC08EF066EC0AF03D06000EBD
:1028B0003E5AD8B0F7D7742B000E7523D8A022D675
:1028C000809012008280020E056EEE0EF3EC00F096
:1028D0008290FA0EF2EC00F08082020E056EEE0E8F
:1028E000F3EC00F08092FA0EF2EC00F08080020E21
:1028F000056EEE0EF3EC00F08090FA0EF2EC00F0B4
:1029000012003C0E026E036A26C005F025501AEC38
:1029100001F0D8A494EF14F0810E8B6F950E766FB2
:10292000810E776F0FEF15F0780E026E036A26C0E6
:1029300005F025501AEC01F0D8A4A7EF14F0800E92
:102940008B6FFD0E766F800E776F0FEF15F0F00E28
:10295000026E036A26C005F025501AEC01F0D8A4D7
:10296000BAEF14F0800E8B6FD70E766F3F0E776F35
:102970000FEF15F0E00E026E010E036E26C005F09B
:1029800025501AEC01F0D8A4CEEF14F0800E8B6F16
:10299000550E766F1F0E776F0FEF15F0F40E026E67
:1029A000010E036E26C005F025501AEC01F0D8A4E4
:1029B000E1EF14F0800E8B6F76691D0E776F0FEFCD
:1029C00015F0C00E026E030E036E26C005F02550F2
:1029D0001AEC01F0D8A4F5EF14F0800E8B6F080EFE
:1029E000766F0F0E776F0FEF15F0E80E026E030E85
:1029F000036E26C005F025501AEC01F0D8A409EFAB
:102A000015F0800E8B6F690E766F0E0E776F0FEFDD
:102A100015F0800E8B6FFD0E766F800E776F7651FE
:102A2000FF08146EFF0E7755156E14C002F015C026
:102A300003F0046A010E056E38EC01F0D76E765192
:102A4000FF08146EFF0E7755156E14C002F015C006
:102A500003F0046A010E056E38EC01F006C0D6FFE3
:102A6000F2941200D56AF29412004BDF040022B6F1
:102A70003BEF15F027DF809082908082896BF28E89
:102A800004D0F2BE1200E6EF15F0FBDFA00EF26EEE
:102A9000F8DF010E686F696BF4DF010E666F676B1C
:102AA000F0DF2290EEDF949EECDF8BC0D5FFE9DFF4
:102AB0002284E7DF040022A684EF15F0E2DF0400A1
:102AC00022A682EF15F0DDDF66C002F067C003F0DA
:102AD00026C005F0255011EC01F0D8A47BEF15F0CD
:102AE000D0DF040022B679EF15F0CBDFAFEF15F0A1
:102AF000C8DFC7DFE9D7010E666F676B682B000E72
:102B00006923DDD7AFEF15F068C002F069C003F0AC
:102B100073C005F0725111EC01F0D8A4AFEF15F0BD
:102B2000B0DF66C002F067C003F026C005F0255094
:102B300011EC01F0D8A4A8EF15F0A3DF040022A047
:102B4000A6EF15F09EDFAFEF15F09BDF9ADFE9D718
:102B5000010E666F676B682B000E6923D5D782DF85
:102B6000948E7AC002F07BC003F0046A020E056EF8
:102B700038EC01F006C014F007C015F01450FF083F
:102B8000296E010E15542A6E29507A272A507B236C
:102B9000026803687BC005F07A511AEC01F0D8A4F2
:102BA000D9EF15F07A6B7B6B782B000E7923DCEF75
:102BB00015F07A2B000E7B230A0EF2EC00F0F8ECF5
:102BC00010F00A0EF2EC00F0809212007651FF082D
:102BD000146EFF0E7755156E14C002F015C003F089
:102BE000046A010E056E38EC01F0D76E7651FF08CD
:102BF000146EFF0E7755156E14C002F015C003F069
:102C0000046A010E056E38EC01F006C0D6FFF2949E
:102C1000E86A80BAE868146E68C002F069C003F020
:102C2000056A020E11EC01F0166E14C002F0165087
:102C30002CEC01F0166E176E040016501710D8B465
:102C400023EF16F02296E86A82B4E868146E68C032
:102C500002F069C003F0056A020E11EC01F0166E75
:102C600014C002F016502CEC01F0166E176E040022
:102C700016501710D8B43EEF16F02280E86A81BAD9
:102C8000E868146E68C002F069C003F0056A020EBD
:102C900011EC01F0166E14C002F016502CEC01F08D
:102CA000166E176E040016501710D8B459EF16F0B0
:102CB0002280E86A22B2E868146EE86A22B4E86802
:102CC000166E14C002F016502CEC01F0166E176E42
:102CD000040016501710D8B4DCEF1AF0828E25C00D
:102CE00002F026C003F045C004F046C005F038EC01
:102CF00001F0146E03C015F066C002F067C003F067
:102D000014C004F015C005F038EC01F006C014F052
:102D100007C015F014C002F015C003F0056A010EDB
:102D20000AEC01F0146E25C002F026C003F046C084
:102D300005F045500AEC01F0166E14C002F0165072
:102D400033EC01F0166E176E040016501710D8B44D
:102D50002DEF19F06B8004006BA0B0EF16F0FBD7DD
:102D6000D00E6F6E04006DA0B7EF16F0FBD7020E09
:102D7000FFEC00F03B0E6F6E04006DA0C1EF16F08B
:102D8000FBD7020EFFEC00F06B8004006BA0CAEFD3
:102D900016F0FBD7D10E6F6E04006DA0D1EF16F0C8
:102DA000FBD7020EFFEC00F06B8604006DB0DAEF8B
:102DB00016F0FBD76B886B9A6FCF4CF0050EFFECCB
:102DC00000F06B8604006DB0E7EF16F0FBD76B8860
:102DD0006B9A6FCF4BF0050EFFEC00F06B86040092
:102DE0006DB0F4EF16F0FBD76B886B9A6FCF4EF097
:102DF000050EFFEC00F06B8604006DB001EF17F0DC
:102E0000FBD76B886B9A6FCF4DF0050EFFEC00F08F
:102E10006B8604006DB00EEF17F0FBD76B886B9AD2
:102E20006FCF50F0050EFFEC00F06B8604006DB024
:102E30001BEF17F0FBD76B886B8A6FCF4FF0030E39
:102E4000FFEC00F06B8404006BA428EF17F0FBD7B5
:102E5000030EFFEC00F06B8004006BA031EF17F065
:102E6000FBD7D00E6F6E04006DA038EF17F0FBD7C4
:102E7000020EFFEC00F0430E6F6E04006DA042EFF7
:102E800017F0FBD7020EFFEC00F06B8004006BA084
:102E90004BEF17F0FBD7D10E6F6E04006DA052EF11
:102EA00017F0FBD7020EFFEC00F06B8604006DB04C
:102EB0005BEF17F0FBD76B886B9A6FCF52F0050E64
:102EC000FFEC00F06B8604006DB068EF17F0FBD7E5
:102ED0006B886B9A6FCF51F0050EFFEC00F06B869C
:102EE00004006DB075EF17F0FBD76B886B9A6FCF4E
:102EF00054F0050EFFEC00F06B8604006DB082EF1D
:102F000017F0FBD76B886B9A6FCF53F0050EFFEC71
:102F100000F06B8604006DB08FEF17F0FBD76B8865
:102F20006B9A6FCF56F0050EFFEC00F06B86040035
:102F30006DB09CEF17F0FBD76B886B8A6FCF55F0A5
:102F4000030EFFEC00F06B8404006BA4A9EF17F0F4
:102F5000FBD7030EFFEC00F06B8004006BA0B2EF18
:102F600017F0FBD7180E6F6E04006DA0B9EF17F0C5
:102F7000FBD7020EFFEC00F0030E6F6E04006DA095
:102F8000C3EF17F0FBD7020EFFEC00F06B800400DC
:102F90006BA0CCEF17F0FBD7190E6F6E04006DA07D
:102FA000D3EF17F0FBD7020EFFEC00F06B860400A6
:102FB0006DB0DCEF17F0FBD76B886B9A6FCF57F0D3
:102FC000050EFFEC00F06B8604006DB0E9EF17F022
:102FD000FBD76B886B9A6FCF58F0050EFFEC00F0B3
:102FE0006B8604006DB0F6EF17F0FBD76B886B9A19
:102FF0006FCF59F0050EFFEC00F06B8604006DB04A
:1030000003EF18F0FBD76B886B9A6FCF5AF0050E61
:10301000FFEC00F06B8604006DB010EF18F0FBD7EA
:103020006B886B9A6FCF5BF0050EFFEC00F06B8640
:1030300004006DB01DEF18F0FBD76B886B8A6FCF63
:103040005CF0030EFFEC00F06B8404006BA42AEF2D
:1030500018F0FBD7030EFFEC00F0180E856F0A0E78
:10306000846F110E836F6B8004006BA039EF18F032
:10307000FBD785C06FFF04006DA040EF18F0FBD7B1
:10308000020EFFEC00F084C06FFF04006DA04AEF59
:1030900018F0FBD7020EFFEC00F083C06FFF010EAB
:1030A000FFEC00F004006DA057EF18F0FBD7020E04
:1030B000FFEC00F06B8404006BA460EF18F0FBD70A
:1030C000030EFFEC00F08292060EC96E010EFFECBB
:1030D00000F08282010EFFEC00F08292120EC96EA7
:1030E000010EFFEC00F079C0C9FF010EFFEC00F00B
:1030F00078C0C9FF010EFFEC00F07BC0C9FF010ED4
:10310000FFEC00F07AC0C9FF010EFFEC00F04CC0EC
:10311000C9FF010EFFEC00F04BC0C9FF010EFFEC30
:1031200000F04EC0C9FF010EFFEC00F04DC0C9FF1A
:10313000010EFFEC00F050C0C9FF010EFFEC00F0E3
:103140004FC0C9FF010EFFEC00F052C0C9FF010ED5
:10315000FFEC00F051C0C9FF010EFFEC00F054C0BD
:10316000C9FF010EFFEC00F053C0C9FF010EFFECD8
:1031700000F056C0C9FF010EFFEC00F055C0C9FFBA
:10318000010EFFEC00F058C0C9FF010EFFEC00F08B
:1031900057C0C9FF010EFFEC00F05AC0C9FF010E75
:1031A000FFEC00F059C0C9FF010EFFEC00F05CC05D
:1031B000C9FF010EFFEC00F05BC0C9FF010EFFEC80
:1031C00000F08282120E7A25146E000E7B21156E9D
:1031D000F80E026E036815C005F014501AEC01F0E9
:1031E000D8A4FAEF18F0782B000E79237A6B7B6B5A
:1031F0002BEF19F0120E7A25146E000E7B21156E3E
:1032000014C002F015C003F0046A020E056E38EC1B
:1032100001F006C014F007C015F0F80E026E010EA2
:10322000036E15C005F014501AEC01F0D8A427EF76
:1032300019F0080E7A25146E000E7B21156E120E01
:1032400014247A6F000E15207B6F2BEF19F0120EED
:103250007A27000E7B23D9EF1AF06B8004006BA055
:1032600033EF19F0FBD7D00E6F6E04006DA03AEF6C
:1032700019F0FBD7020EFFEC00F03B0E6F6E04005E
:103280006DA044EF19F0FBD7020EFFEC00F06B804D
:1032900004006BA04DEF19F0FBD7D10E6F6E040048
:1032A0006DA054EF19F0FBD7020EFFEC00F06B8617
:1032B00004006DB05DEF19F0FBD76B886B9A6FCF90
:1032C0004CF0050EFFEC00F06B8604006DB06AEF69
:1032D00019F0FBD76B886B9A6FCF4BF0050EFFECA4
:1032E00000F06B8604006DB077EF19F0FBD76B88A8
:1032F0006B9A6FCF4EF0050EFFEC00F06B8604006A
:103300006DB084EF19F0FBD76B886B9A6FCF4DF0DF
:10331000050EFFEC00F06B8604006DB091EF19F024
:10332000FBD76B886B9A6FCF50F0050EFFEC00F067
:103330006B8604006DB09EEF19F0FBD76B886B8A2B
:103340006FCF4FF0030EFFEC00F06B8404006BA412
:10335000ABEF19F0FBD7030EFFEC00F06B8004001D
:103360006BA0B4EF19F0FBD7D00E6F6E04006DA008
:10337000BBEF19F0FBD7020EFFEC00F0430E6F6EAF
:1033800004006DA0C5EF19F0FBD7020EFFEC00F0B2
:103390006B8004006BA0CEEF19F0FBD7D10E6F6EDF
:1033A00004006DA0D5EF19F0FBD7020EFFEC00F082
:1033B0006B8604006DB0DEEF19F0FBD76B886B9A5B
:1033C0006FCF52F0050EFFEC00F06B8604006DB07D
:1033D000EBEF19F0FBD76B886B9A6FCF51F0050EAE
:1033E000FFEC00F06B8604006DB0F8EF19F0FBD72E
:1033F0006B886B9A6FCF54F0050EFFEC00F06B8674
:1034000004006DB005EF1AF0FBD76B886B9A6FCF95
:1034100053F0050EFFEC00F06B8604006DB012EF68
:103420001AF0FBD76B886B9A6FCF56F0050EFFEC46
:1034300000F06B8604006DB01FEF1AF0FBD76B88AD
:103440006B8A6FCF55F0030EFFEC00F06B84040025
:103450006BA42CEF1AF0FBD7030EFFEC00F0829266
:10346000060EC96E010EFFEC00F08282010EFFEC29
:1034700000F08292120EC96E010EFFEC00F079C0CE
:10348000C9FF010EFFEC00F078C0C9FF010EFFEC90
:1034900000F07BC0C9FF010EFFEC00F07AC0C9FF4D
:1034A000010EFFEC00F04CC0C9FF010EFFEC00F074
:1034B0004BC0C9FF010EFFEC00F04EC0C9FF010E6A
:1034C000FFEC00F04DC0C9FF010EFFEC00F050C052
:1034D000C9FF010EFFEC00F04FC0C9FF010EFFEC69
:1034E00000F052C0C9FF010EFFEC00F051C0C9FF4F
:1034F000010EFFEC00F054C0C9FF010EFFEC00F01C
:1035000053C0C9FF010EFFEC00F056C0C9FF010E09
:10351000FFEC00F055C0C9FF010EFFEC00F0828205
:103520000C0E7A25146E000E7B21156EF80E026EBD
:10353000036815C005F014501AEC01F0D8A4A8EFE8
:103540001AF0782B000E79237A6B7B6BD9EF1AF087
:103550000C0E7A25146E000E7B21156E14C002F03D
:1035600015C003F0046A020E056E38EC01F006C0C7
:1035700014F007C015F0F80E026E010E036E15C0B0
:1035800005F014501AEC01F0D8A4D5EF1AF0080E8B
:103590007A25146E000E7B21156E0C0E14247A6FA2
:1035A000000E15207B6FD9EF1AF00C0E7A27000E53
:1035B0007B23662B000E6723829E100041EC15F0E2
:1035C000FAEF1AF041EC15F0939E41EC15F0810EE4
:1035D0001E6E0F0E206E800E1C6E060E016E0C0EFF
:1035E0003AEC00F041EC15F0938E41EC15F00A0E28
:1035F000F2EC00F041EC15F0120041EC15F0939E56
:1036000041EC15F0810E1E6E0F0E206E800E1C6EAA
:10361000060E016E0E0E3AEC00F041EC15F0938EA2
:1036200041EC15F0120041EC15F0939E41EC15F0C1
:10363000810E1E6E0F0E206E800E1C6E060E016E29
:103640000F0E3AEC00F041EC15F0938E41EC15F0C2
:10365000120041EC15F0939E41EC15F0810E1E6EA8
:103660000F0E206E800E1C6E060E016E100E3AECD0
:1036700000F0400E3AEC00F041EC15F0938E41EC76
:1036800015F0120041EC15F0939E41EC15F0810EFF
:103690001E6E0F0E206E800E1C6E060E016E100E3A
:1036A0003AEC00F0540E3AEC00F041EC15F0938E39
:1036B00041EC15F0120041EC15F0939E41EC15F031
:1036C000810E1E6E0F0E206E800E1C6E060E016E99
:1036D000100E3AEC00F0680E3AEC00F041EC15F0F8
:1036E000938E41EC15F0120041EC15F0939E41ECE5
:1036F00015F0810E1E6E0F0E206E800E1C6E060ED3
:10370000016E100E3AEC00F07C0E3AEC00F041EC49
:0A37100015F0938E41EC15F0120045
:020000040030CA
:03000100081F3F96
:02000500BD81BB
:060008000FC00FE00F40E5
:00000001FF
