:020000040000FA
:0400000077EF01F0A5
:020008001200E4
:0800180012000A6EF80BE8303B
:10002000E830E830E926D8B0EA2AD1EC00F00A6ED0
:10003000EF1474EF01F0076A066E018E270E056E4D
:10004000100E0CD8030E056EE80E08D8056A640E73
:1000500005D8056A0A0E02D806500BD0046E075068
:10006000036E0650026E38EC01F0E866019E01BE98
:100070001200300F086E20C0EAFF20C0E2FF1E50C1
:10008000E96E120FE16E090E096ED89007D808329A
:10009000092EFCD7D88002D874EF01F001A60BD04E
:1000A000EF501C1001A41C18EF6EE7501C10D8A0D4
:1000B0001C18E76E0AD0EF501C10D8A01C1801B411
:1000C0001C18EF6E1C1CE71600D00134060BEA0F5B
:1000D000F66EF76A000EF722F86A0900F550036E13
:1000E0000800F550000000EF01F0019D033D0064A1
:1000F0000D0120C0EAFF1EC0E9FF0E50026E0F5036
:10010000036E046A056A040020D80CE3E86A04065A
:10011000055AF9E20206035A17E3780E046E010E3F
:10012000056EF1D729D80A6A080E056E26D80DD8B3
:10013000D8B00A3E0432052EF9D70DAA0A6A0DBAC4
:10014000049E1BD8D88004501200120EE9261C50C1
:10015000EF121EC0E9FFEF140DBC1C18FF0F1200B8
:10016000D96E0B0603E2D88074EF01F06EEC01F05B
:10017000D8A01200DE6EF5D7018C0D501F0B000FBA
:10018000036E0C50100FD8B0032A01AC00EF01F041
:10019000019CD8900332E830D8900332E83000EF69
:1001A00001F0010E0AB0E8440AB2E8440AB2E84499
:1001B0000AB4E8381200A66AA680A850A94AAA2A5A
:1001C00074EF01F0E86AA86EA66AA684550EA76EC1
:1001D000AA0EA76EA682A6B2FED7A694A94AAA2AFC
:1001E00074EF01F0056A046EE86A0406055AD8A0A7
:1001F00074EF01F0030E036EE70E02D8F5D7036A21
:10020000FD0F026E01D00206040000D0E86A035A16
:10021000FAE21200046E020E0FD0046E030E0CD030
:10022000056A046E010E08D0046E060E05D0046E39
:10023000040E02D0046E050E0A6E0550035C02E146
:100240000450025C040ED8B0010ED8B4020E0A1499
:10025000D8A4FF0E74EF01F0E866FF0E0214D8A4D4
:10026000FF0E74EF01F00210D8A4FF0E74EF01F03E
:10027000076A066A100E086E033406360736045005
:10028000065E0550075A05E204500626055007226F
:10029000D89002360336082EEFD7025074EF01F0E3
:1002A00004500802F3CF06F0F4CF07F0055009021E
:1002B000F3CF02F0F4CF03F00802F3500726F45016
:1002C0000222E86A032204500902F3500726F45080
:1002D0000222E86A0322065074EF01F0E96EFB6A1D
:1002E0001350FA6E1250F96E000104001200E80E6D
:1002F000D36E800ED26E400E9B6EF26A616A0F0161
:10030000386B396B3A6B010E966E229022922294D2
:10031000000122EC15F09488938A93889382938449
:100320009380938E948E9386928A9484948C9388EF
:1003300094909290929294929496949A9296929487
:100340008290809080928094030E056EE80E4BDFC1
:10035000808492948082030E056EE80E44DF8092C2
:10036000939E810E1E6E0F0E206E800E1C6E060E6A
:10037000016E0C0E7FDE0A0E35DF810E1E6E0F0E33
:10038000206E800E1C6E060E016E0E0E73DE100EB9
:1003900071DE400E6FDE4D0E6DDE500E6BDE550EC3
:1003A00069DE2D0E67DE350E65DE780E63DE200E0B
:1003B00061DE280E5FDE450E5DDE4C0E5BDE430E19
:1003C00059DE290E57DE810E1E6E0F0E206E800E36
:1003D0001C6E060E016E100E4DDE540E4BDE430EEB
:1003E00049DE410E47DE4C0E45DE200E43DE520E46
:1003F00041DE450E3FDE560E3DDE2D0E3BDE440E49
:1004000039DE810E1E6E0F0E206E800E1C6E060EE3
:10041000016E100E2FDE680E2DDE280E2BDE330E41
:1004200029DE200E27DE530E25DE650E23DE630E49
:1004300021DE200E1FDE4F0E1DDE4E0E1BDE290EAE
:1004400019DE810E1E6E0F0E206E800E1C6E060EC3
:10045000016E100E0FDE7C0E0DDE340E0BDE2F0E45
:1004600009DE330E07DE300E05DE2F0E03DE320E00
:1004700001DE300E3AEC00F0310E3AEC00F0380EAE
:100480003AEC00F0938E476A486AFA0EABDE82803F
:10049000010E056E2C0EA7DE82900A0EB0DE808063
:1004A000010E056E2C0E9FDE80900A0EA8DE808263
:1004B000010E056E2C0E97DE80920A0EA0DE828061
:1004C0000A0E9DDE8282010E9ADE8286010E97DE82
:1004D000829A010E94DE8182010E91DE8184010EEA
:1004E0008EDE8096FFEC07F0AAEC05F0F9EC07F041
:1004F00051EC0FF00CEC0DF00A0E74DEE0EC1AF08B
:100500002280EBEC05F0472A000E48228290AEEFE5
:1005100002F0939E810E1E6E0F0E206E800E1C6EDA
:10052000060E016E100E3AEC00F0400E3AEC00F0B0
:10053000530E3AEC00F0540E3AEC00F0410E3AEC57
:1005400000F04E0E3AEC00F0440E3AEC00F0420E91
:100550003AEC00F0590E3AEC00F0938E040080AAB9
:10056000B8EF02F08FEC1BF0228425EC15F08BD74E
:10057000E86A81BAE868146EE86A82B4E868166EC0
:1005800014C002F016506FDE166E176E040016507F
:100590001710D8B499EF05F08290FAEF02F0939E0D
:1005A000810E1E6E0F0E206E800E1C6E060E016EEA
:1005B000100E3AEC00F0400E3AEC00F0520E3AEC1D
:1005C00000F0550E3AEC00F04E0E3AEC00F0200E22
:1005D0003AEC00F0540E3AEC00F0450E3AEC00F024
:1005E000530E3AEC00F0540E3AEC00F03F0E3AECA9
:1005F00000F0938E070E056ED00EF3EC00F0E86A63
:1006000081BAE868146EE86A82B4E868166E14C0AD
:1006100002F0165028DE166E176E040016501710E2
:10062000D8B441EF05F0808056EF03F0939E810E21
:100630001E6E0F0E206E800E1C6E060E016E100ECA
:100640003AEC00F0400E3AEC00F0530E3AEC00F0B9
:10065000450E3AEC00F04E0E3AEC00F0440E3AEC47
:1006600000F0200E3AEC00F0440E3AEC00F0410E9F
:100670003AEC00F0540E3AEC00F0410E3AEC00F087
:10068000200E3AEC00F0540E3AEC00F04F0E3AEC2B
:1006900000F0200E3AEC00F0500E3AEC00F0430E61
:1006A0003AEC00F03F0E3AEC00F0938E070E056E28
:1006B000D00EF3EC00F0E86A81BAE868146EE86ADC
:1006C00082B4E868166E14C002F0165033EC01F0E4
:1006D000166E176E040016501710D8B4E6EF04F02B
:1006E000010EFFEC00F08082010EFFEC00F0809024
:1006F000C3EF03F0939E810E1E6E0F0E206E800ED0
:100700001C6E060E016E100E3AEC00F0400E3AEC34
:1007100000F0450E3AEC00F0520E3AEC00F0410EBB
:100720003AEC00F0530E3AEC00F0450E3AEC00F0D3
:100730003F0E3AEC00F0200E3AEC00F0200E3AECBE
:1007400000F0200E3AEC00F0200E3AEC00F0200E03
:100750003AEC00F0200E3AEC00F0200E3AEC00F0FB
:10076000200E3AEC00F0200E3AEC00F0200E3AECAD
:1007700000F0200E3AEC00F0200E3AEC00F0200ED3
:100780003AEC00F0938E070E056ED00EF3EC00F0FD
:10079000E86A81BAE868146EE86A82B4E868166E9E
:1007A00014C002F0165033EC01F0166E176E040000
:1007B00016501710D8B4E6EF03F080928280808044
:1007C00089EC0AF08BEF01F0E4EF04F08082828084
:1007D00080903FEF04F0E0EC1AF0939E810E1E6EC5
:1007E0000F0E206E800E1C6E060E016E100E3AEC7F
:1007F00000F0400E3AEC00F0530E3AEC00F0450EDB
:100800003AEC00F0430E3AEC00F0540E3AEC00F0F3
:100810004F0E3AEC00F0520E3AEC00F0200E3AEC9B
:1008200000F0450E3AEC00F0520E3AEC00F0410EAA
:100830003AEC00F0530E3AEC00F0450E3AEC00F0C2
:100840003F0E3AEC00F0200E3AEC00F0200E3AECAD
:1008500000F0200E3AEC00F0200E3AEC00F0200EF2
:100860003AEC00F0200E3AEC00F0200E3AEC00F0EA
:10087000200E3AEC00F0200E3AEC00F0938EE86A7D
:1008800081BAE868146EE86A82B4E868166E14C02B
:1008900002F0165033EC01F0166E176E040016507D
:1008A0001710D8B455EF04F0EAD782903D6A3E6A3B
:1008B0003DC002F03EC003F0056A0C0E11EC01F0E1
:1008C000D8A4DDEF04F0E86A81BAE868146EE86A3B
:1008D00082B4E868166E14C002F0165033EC01F0D2
:1008E000166E176E040016501710D8B4CEEF04F031
:1008F000C8EF04F0E0EC1AF0939E810E1E6E0F0E0E
:10090000206E800E1C6E060E016E100E3AEC00F08A
:10091000400E3AEC00F0420E3AEC00F0550E3AEC84
:1009200000F04C0E3AEC00F04B0E3AEC00F0200ECA
:100930003AEC00F0450E3AEC00F0520E3AEC00F0C2
:10094000410E3AEC00F0530E3AEC00F0490E3AEC4E
:1009500000F04E0E3AEC00F0470E3AEC00F03F0E7D
:100960003AEC00F0200E3AEC00F0200E3AEC00F0E9
:10097000200E3AEC00F0200E3AEC00F0200E3AEC9B
:1009800000F0200E3AEC00F0200E3AEC00F0938ECE
:100990008280808238EC09F0E1EF04F080827D0EE5
:1009A000F2EC00F0809280807D0EF2EC00F08090FE
:1009B0003D2A000E3E22D8A07BD782808082CCECDC
:1009C00008F0809243EF02F03FEF05F082908080C4
:1009D00038EF05F0E0EC1AF0939E810E1E6E0F0EBC
:1009E000206E800E1C6E060E016E100E3AEC00F0AA
:1009F000400E3AEC00F0530E3AEC00F0450E3AECA3
:100A000000F04E0E3AEC00F0440E3AEC00F0490EC5
:100A10003AEC00F04E0E3AEC00F0470E3AEC00F0E3
:100A2000200E3AEC00F0440E3AEC00F0410E3AECA5
:100A300000F0540E3AEC00F0410E3AEC00F0200EBB
:100A40003AEC00F0540E3AEC00F04F0E3AEC00F0A5
:100A5000200E3AEC00F0500E3AEC00F0430E3AEC67
:100A600000F0200E3AEC00F0200E3AEC00F0938EED
:100A7000B7EC11F0E0EC1AF0809043EF02F099EF40
:100A800005F091EF05F0E0EC1AF0939E810E1E6EDA
:100A90000F0E206E800E1C6E060E016E100E3AECCC
:100AA00000F0400E3AEC00F0520E3AEC00F0550E19
:100AB0003AEC00F04E0E3AEC00F04E0E3AEC00F03C
:100AC000490E3AEC00F04E0E3AEC00F0470E3AECCC
:100AD00000F0200E3AEC00F0540E3AEC00F0450E17
:100AE0003AEC00F0530E3AEC00F0540E3AEC00F001
:100AF000200E3AEC00F0200E3AEC00F0200E3AEC1A
:100B000000F0200E3AEC00F0200E3AEC00F0200E3F
:100B10003AEC00F0200E3AEC00F0200E3AEC00F037
:100B2000938E25EC15F0E0EC1AF0E0EC1AF043EFB0
:100B300002F00300880E026E130E036E48C005F02B
:100B400047501AEC01F0D8A4A8EF05F080949294D5
:100B500083EF02F093849382100E6D6E280E6C6EFC
:100B60006B6A696A110E6E6EB9EC05F0C0EC05F0A7
:100B700012006B8004006BA0BFEF05F0FBD71200E2
:100B80006B8404006BA4C6EF05F0FBD71200F1DF05
:100B900085C06FFF04006DA0CFEF05F0FBD7020EFC
:100BA000FFEC00F084C06FFF04006DA0D9EF05F0EA
:100BB000FBD7020EFFEC00F083C06FFF010EFFECCD
:100BC00000F004006DA0E6EF05F0FBD7020EFFEC8D
:100BD00000F0D6DF12003FEC06F07EEC06F0C0EC31
:100BE00006F04FEC07F0D00E856F6B0E846F800E11
:100BF000836FCDDF640EF2EC00F0D00E856F6B0ECC
:100C0000846F010E836FC3DFD00E856F6C0E846F0F
:100C1000836BBDDFD00E856F1A0E846F7EC083F0AC
:100C2000B6DFD00E856F1B0E846F7FC083F0AFDF01
:100C3000D00E856F1C0E846F5EC083F0A8DFD00ECF
:100C4000856F1D0E846F5DC083F0A1DFD00E856FB0
:100C5000370E846F120E836F9ADFD00E856F380EB9
:100C6000846F010E836F93DF0A0EF2EC00F0D00E5A
:100C7000856F0A0E846F110E836F89DF1200020EDA
:100C8000026E036A28C005F027501AEC01F0D8A4C0
:100C90004EEF06F05E985E967DEF06F0040E026E53
:100CA000036A28C005F027501AEC01F0D8A45DEFC4
:100CB00006F05E985E867DEF06F0080E026E036A0F
:100CC00028C005F027501AEC01F0D8A46CEF06F00C
:100CD0005E885E967DEF06F0100E026E036A28C0F5
:100CE00005F027501AEC01F0D8A47BEF06F05E88DF
:100CF0005E867DEF06F05E885E961200FA0E026E4A
:100D0000036A3CC005F03B501AEC01F0D8A48DEF0B
:100D100006F07F997F97BFEF06F0F40E026E010E8A
:100D2000036E3CC005F03B501AEC01F0D8A49DEFD7
:100D300006F07F997F87BFEF06F0E80E026E030E84
:100D4000036E3CC005F03B501AEC01F0D8A4ADEFA7
:100D500006F07F897F97BFEF06F0D00E026E070E78
:100D6000036E3CC005F03B501AEC01F0D8A4BDEF77
:100D700006F07F897F87BFEF06F07F997F8712009B
:100D8000050E026E036A24C005F023501AEC01F030
:100D9000D8A4D1EF06F05D865D845D825D904EEF54
:100DA00007F00A0E026E036A24C005F023501AEC05
:100DB00001F0D8A4E2EF06F05D865D845D925D806F
:100DC0004EEF07F0140E026E036A24C005F02350A4
:100DD0001AEC01F0D8A4F3EF06F05D865D845D9215
:100DE0005D904EEF07F0290E026E036A24C005F0F5
:100DF00023501AEC01F0D8A404EF07F05D865D944F
:100E00005D825D804EEF07F05C0E026E036A24C0C7
:100E100005F023501AEC01F0D8A415EF07F05D8619
:100E20005D945D825D904EEF07F0B80E026E036A2E
:100E300024C005F023501AEC01F0D8A426EF07F0E7
:100E40005D865D945D925D804EEF07F0CC0E026E84
:100E5000010E036E24C005F023501AEC01F0D8A453
:100E600038EF07F05D865D945D925D904EEF07F080
:100E70006A0E026E040E036E24C005F023501AECB5
:100E800001F0D8A44AEF07F05D965D945D925D9005
:100E90004EEF07F05D865D945D825D901200050E59
:100EA000026E036A3AC005F039501AEC01F0D8A47A
:100EB00061EF07F07F837F817E857E837E91F8EFEF
:100EC00007F00A0E026E036A3AC005F039501AECB8
:100ED00001F0D8A473EF07F07F837F817E857E9336
:100EE0007E81F8EF07F0140E026E036A3AC005F037
:100EF00039501AEC01F0D8A485EF07F07F837F8189
:100F00007E857E937E91F8EF07F0290E026E036ACC
:100F10003AC005F039501AEC01F0D8A497EF07F069
:100F20007F837F817E957E837E81F8EF07F05C0E64
:100F3000026E036A3AC005F039501AEC01F0D8A4E9
:100F4000A9EF07F07F837F817E957E837E91F8EF06
:100F500007F0B80E026E036A3AC005F039501AEC79
:100F600001F0D8A4BBEF07F07F837F817E957E934D
:100F70007E81F8EF07F0FA0E026E036A3AC005F0C0
:100F800039501AEC01F0D8A4CDEF07F07F837F81B0
:100F90007E957E937E91F8EF07F0100E026E0E0E96
:100FA000036E3AC005F039501AEC01F0D8A4E0EF16
:100FB00007F07F937F817E957E937E91F8EF07F017
:100FC000600E026E220E036E3AC005F039501AEC24
:100FD00001F0D8A4F3EF07F07F937F917E957E9385
:100FE0007E91F8EF07F07F837F817E957E837E91EF
:100FF0001200C76A300EC66E100ECB6E120025ECC2
:1010000011F08292060EC96E010EFFEC00F0828292
:10101000010EFFEC00F08292010EC96E010EFFEC92
:1010200000F0C96A010EFFEC00F0C96A010EFFEC86
:1010300000F0C00EC96E010EFFEC00F08282030EBC
:10104000056EE80EF3EC00F01200D3DF3D6A3E6A55
:101050003DC002F03EC003F0056AFB0E11EC01F04A
:10106000D8A43FEF08F03D50A30FE96E020E3E20DA
:10107000EA6EEF6A3D2A000E3E22D8A0E9D73D6A0B
:101080003E6A3DC002F03EC003F0056AFB0E11EC63
:1010900001F0D8A458EF08F03D509F0FE96E030E01
:1010A0003E20EA6EEF6A3D2A000E3E22D8A0E9D724
:1010B0008292130EC96E010EFFEC00F06DC0C9FFE5
:1010C000010EFFEC00F06CC0C9FF010EFFEC00F058
:1010D0006FC0C9FF010EFFEC00F06EC0C9FF010E2A
:1010E000FFEC00F03D6A3E6A3DC002F03EC003F0F6
:1010F000056AFB0E11EC01F0D8A493EF08F0C96A61
:10110000010EFFEC00F03D50A30FE96E020E3E20F1
:10111000EA6EC9CFEFFF010EFFEC00F03D2A000E92
:101120003E22D8A0E1D73D6A3E6A3DC002F03EC0F3
:1011300003F0056AFB0E11EC01F0D8A4B4EF08F03F
:10114000C96A010EFFEC00F03D509F0FE96E030EDF
:101150003E20EA6EC9CFEFFF010EFFEC00F03D2A02
:10116000000E3E22D8A0E1D78282026AFE0E036EF4
:101170006FC005F06E511AEC01F0D8A4C7EF08F06B
:101180006C2B000E6D236E6B6F6BCBEF08F0000EB7
:101190006E27020E6F2312007829336E000E79211C
:1011A000346E27DF3D6A3E6A3DC002F03EC003F068
:1011B00034C005F0335011EC01F0D8A435EF09F03C
:1011C0003DC008F03EC009F0040E046E056A50EC04
:1011D00001F06C6F07C06DF06E6B6F6B8292010E49
:1011E000FFEC00F0060EC96E010EFFEC00F08282EB
:1011F000010EFFEC00F08292D80EC96E010EFFECDA
:1012000000F06DC0C9FF010EFFEC00F06CC0C9FF1B
:10121000010EFFEC00F06FC0C9FF010EFFEC00F003
:1012200082828A810400D8968AA1D886D8B630EF07
:1012300009F08292010EFFEC00F0050EC96E010E5E
:10124000FFEC00F0C96A010EFFEC00F0C9CF8AF094
:10125000010EFFEC00F08282320EF2EC00F0E2D7D9
:101260003D2A000E3E22D8A09FD7496A4A6A120042
:10127000C0DE8292060EC96E010EFFEC00F0828283
:10128000010EFFEC00F08292600EC96E010EFFECC1
:1012900000F08282030E056EE80EF3EC00F08A8106
:1012A0000400D8968AA1D886D8B66AEF09F082924F
:1012B000050EC96E010EFFEC00F0C96A010EFFECCD
:1012C00000F0C9CF8AF08282030E056EE80EF3ECBF
:1012D00000F0E6D7496A4A6A12003D6A3E6A3DC09C
:1012E00002F03EC003F0056A0A0E11EC01F0D8A42A
:1012F00082EF09F08E6B55EC0AF03D2A000E3E227B
:10130000D8A0EDD712000D0E8E6F55EC0AF0010E2D
:10131000F2EC00F00A0E8E6F55EC0AF01200806BB2
:101320000400020E805DD8B054EF0AF00400805132
:101330000008D8A4A7EF09F08DC002F0036A100ED0
:10134000046E056A38EC01F0816FB1EF09F08DC0D1
:1013500002F0036A100E046E056A38EC01F006C054
:1013600081F0040081510008D8A4BBEF09F0300ED1
:101370008E6F4FEF0AF0040081510108D8A4C5EF29
:1013800009F0310E8E6F4FEF0AF004008151020810
:10139000D8A4CFEF09F0320E8E6F4FEF0AF00400A1
:1013A00081510308D8A4D9EF09F0330E8E6F4FEFA7
:1013B0000AF0040081510408D8A4E3EF09F0340EC8
:1013C0008E6F4FEF0AF0040081510508D8A4EDEFAD
:1013D00009F0350E8E6F4FEF0AF0040081510608B8
:1013E000D8A4F7EF09F0360E8E6F4FEF0AF0040025
:1013F00081510708D8A401EF0AF0370E8E6F4FEF26
:101400000AF0040081510808D8A40BEF0AF0380E46
:101410008E6F4FEF0AF0040081510908D8A415EF30
:101420000AF0390E8E6F4FEF0AF0040081510A085E
:10143000D8A41FEF0AF0410E8E6F4FEF0AF00400A0
:1014400081510B08D8A429EF0AF0420E8E6F4FEF9E
:101450000AF0040081510C08D8A433EF0AF0430EBF
:101460008E6F4FEF0AF0040081510D08D8A43DEFB4
:101470000AF0440E8E6F4FEF0AF0040081510E08FF
:10148000D8A447EF0AF0450E8E6F4FEF0AF0040024
:1014900081510F08D8A44FEF0AF0460E8E6F55EC1D
:1014A0000AF0802BD8A03CD71200949E829E020E98
:1014B000FFEC00F088EC0AF088EC0AF05F6A0400A8
:1014C000080E5F5CD8B078EF0AF08E0EE96EEA6A1B
:1014D0005F50000F0DEC00F0D8B4829ED8A4828E2D
:1014E000020EFFEC00F088EC0AF05F2AD8A0E7D7E4
:1014F000030EFFEC00F0828E020EFFEC00F088EC91
:101500000AF088EC0AF0948E020EFFEC00F0120054
:101510001200CDEF0AF0E0EC1AF0939E810E1E6EE1
:101520000F0E206E800E1C6E060E016E100E3AEC31
:1015300000F0400E3AEC00F0570E3AEC00F0410E8D
:101540003AEC00F0490E3AEC00F0540E3AEC00F0A0
:10155000490E3AEC00F04E0E3AEC00F0470E3AEC31
:1015600000F0200E3AEC00F0460E3AEC00F04F0E80
:101570003AEC00F0520E3AEC00F0200E3AEC00F09B
:10158000440E3AEC00F0410E3AEC00F0540E3AEC06
:1015900000F0410E3AEC00F0938E810E1E6E0F0E9D
:1015A000206E010E1C6E540E0C6E0D6A100E0E6E27
:1015B000270E0F6E79EC00F0D8A037EF0EF05A0826
:1015C000D8A4F8D71C0E0B6EF20E126E136ADA6AEC
:1015D0008F0EB0EC00F0D8A037EF0EF0816B59EC15
:1015E0000EF082C008F0096A046A100E056E50EC15
:1015F00001F0256E07C026F0010E816F59EC0EF048
:1016000082C008F0096A046A010E056E50EC01F010
:10161000146E07C015F01450252615502622020E10
:10162000816F59EC0EF082C008F0096A100E046E4A
:10163000056A50EC01F0146E07C015F01450252611
:1016400015502622030E816F59EC0EF0825125268B
:10165000E86A2622040E816F59EC0EF082C008F071
:10166000096A046A100E056E50EC01F0456E07C061
:1016700046F0050E816F59EC0EF082C008F0096A41
:10168000046A010E056E50EC01F0146E07C015F0EF
:101690001450452615504622060E816F59EC0EF067
:1016A00082C008F0096A100E046E056A50EC01F061
:1016B000146E07C015F01450452615504622070E2B
:1016C000816F59EC0EF082514526E86A4622080ED9
:1016D000816F59EC0EF082C008F0096A046A100E9E
:1016E000056E50EC01F0726F07C073F0090E816F48
:1016F00059EC0EF082C008F0096A046A010E056E0A
:1017000050EC01F0146E07C015F0145072271550FC
:1017100073230A0E816F59EC0EF082C008F0096A3B
:10172000100E046E056A50EC01F0146E07C015F03F
:1017300014507227155073230B0E816F59EC0EF065
:1017400082517227E86A73230C0E816F59EC0EF0F8
:1017500082C008F0096A046A100E056E50EC01F0B0
:10176000276E07C028F00D0E816F59EC0EF082C075
:1017700008F0096A046A010E056E50EC01F0146E5F
:1017800007C015F014502726155028220E0E816F21
:1017900059EC0EF082C008F0096A100E046E056A5A
:1017A00050EC01F0146E07C015F0145027261550A8
:1017B00028220F0E816F59EC0EF082512726E86A1D
:1017C0002822100E816F59EC0EF082C008F0096AD1
:1017D000046A100E056E50EC01F03B6E07C03CF041
:1017E000110E816F59EC0EF082C008F0096A046A8C
:1017F000010E056E50EC01F0146E07C015F0145088
:101800003B2615503C22120E816F59EC0EF082C01F
:1018100008F0096A100E046E056A50EC01F0146EAF
:1018200007C015F014503B2615503C22130E816F53
:1018300059EC0EF082513B26E86A3C22140E816F6F
:1018400059EC0EF082C008F0096A046A100E056EA9
:1018500050EC01F0236E07C024F0150E816F59EC97
:101860000EF082C008F0096A046A010E056E50ECA1
:1018700001F0146E07C015F01450232615502422D1
:10188000160E816F59EC0EF082C008F0096A100E36
:10189000046E056A50EC01F0146E07C015F0145088
:1018A000232615502422170E816F59EC0EF0825119
:1018B0002326E86A2422180E816F59EC0EF082C0AC
:1018C00008F0096A046A100E056E50EC01F0396EDA
:1018D00007C03AF0190E816F59EC0EF082C008F083
:1018E000096A046A010E056E50EC01F0146E07C01F
:1018F00015F01450392615503A221A0E816F59EC02
:101900000EF082C008F0096A100E046E056A50ECF1
:1019100001F0146E07C015F01450392615503A2204
:101920001B0E816F59EC0EF082513926E86A3A227B
:10193000A96AAA6A2550E3EC00F02650E3EC00F017
:101940000A0EF2EC00F0020EA96EAA6A4550E3EC12
:1019500000F04650E3EC00F00A0EF2EC00F0040E4A
:10196000A96EAA6A7251E3EC00F07351E3EC00F047
:101970000A0EF2EC00F0060EA96EAA6A2750E3ECFC
:1019800000F02850E3EC00F00A0EF2EC00F0080E34
:10199000A96EAA6A3B50E3EC00F03C50E3EC00F087
:1019A0000A0EF2EC00F00A0EA96EAA6A2350E3ECCC
:1019B00000F02450E3EC00F00A0EF2EC00F00C0E04
:1019C000A96EAA6A3950E3EC00F03A50E3EC00F05B
:1019D0000A0EF2EC00F0010E3D6E3E6A3DC002F0D0
:1019E0003EC003F0056A040E11EC01F0D8A40AEF22
:1019F0000DF08280010E056E5E0EF3EC00F0829019
:101A0000010E056E5E0EF3EC00F03D2A000E3E2244
:101A1000D8A0E4D780901200256A266A456A466AF3
:101A2000726B736B276A286A3B6A3C6A236A246A72
:101A3000396A3A6AA96AAA6ADBEC00F0256EDBEC27
:101A400000F0266E0A0EF2EC00F0020EA96EAA6AF1
:101A5000DBEC00F0456EDBEC00F0466E0A0EF2ECBB
:101A600000F0040EA96EAA6ADBEC00F0726FDBECEA
:101A700000F0736F0A0EF2EC00F0060EA96EAA6A6F
:101A8000DBEC00F0276EDBEC00F0286E0A0EF2ECC7
:101A900000F0080EA96EAA6ADBEC00F03B6EDBECEE
:101AA00000F03C6E0A0EF2EC00F00A0EA96EAA6A73
:101AB000DBEC00F0236EDBEC00F0246E0A0EF2EC9F
:101AC00000F00C0EA96EAA6ADBEC00F0396EDBECBC
:101AD00000F03A6E0A0EF2EC00F0E0EC1AF0026848
:101AE000036826C005F025501AEC01F0D8A47CEF5D
:101AF0000DF0F00E256E266A0268036846C005F0F8
:101B000045501AEC01F0D8A489EF0DF0F00E456EA7
:101B1000466A0268036873C005F072511AEC01F05E
:101B2000D8A496EF0DF0050E726F736B0268036810
:101B300028C005F027501AEC01F0D8A4A3EF0DF04F
:101B4000100E276E286A026803683CC005F03B50FF
:101B50001AEC01F0D8A4B1EF0DF0D00E3B6E070ED9
:101B60003C6E0268036824C005F023501AEC01F0B3
:101B7000D8A4BEEF0DF05C0E236E246A02680368E1
:101B80003AC005F039501AEC01F0D8A4CBEF0DF0B3
:101B90005C0E396E3A6A12003FDF87C08EF055EC5A
:101BA0000AF0050EFFEC00F026C08EF055EC0AF0AE
:101BB000050EFFEC00F025C08EF055EC0AF0050E86
:101BC000FFEC00F046C08EF055EC0AF0050EFFEC7D
:101BD00000F045C08EF055EC0AF0050EFFEC00F069
:101BE00073C08EF055EC0AF0050EFFEC00F072C0E9
:101BF0008EF055EC0AF0050EFFEC00F028C08EF0D8
:101C000055EC0AF0050EFFEC00F027C08EF055EC05
:101C10000AF0050EFFEC00F03CC08EF055EC0AF027
:101C2000050EFFEC00F03BC08EF055EC0AF0050EFF
:101C3000FFEC00F024C08EF055EC0AF0050EFFEC2E
:101C400000F023C08EF055EC0AF0050EFFEC00F01A
:101C50003AC08EF055EC0AF0050EFFEC00F039C0EA
:101C60008EF055EC0AF0050EFFEC00F012008290A9
:101C7000010E3D6E3E6A3DC002F03EC003F0056AB3
:101C8000040E11EC01F0D8A457EF0EF08082010E83
:101C9000056E5E0EF3EC00F08092010E056E5E0E96
:101CA000F3EC00F03D2A000E3E22D8A0E4D780904D
:101CB0001200146A156A81518F0FE96E000EEA6AEC
:101CC000EA22EFCF14F0300E026E036A15C005F061
:101CD00014501AEC01F0D8A471EF0EF0826B50EFA3
:101CE0000FF0310E026E036A15C005F014501AECA5
:101CF00001F0D8A480EF0EF0010E826F50EF0FF0CC
:101D0000320E026E036A15C005F014501AEC01F091
:101D1000D8A48FEF0EF0020E826F50EF0FF0330E4B
:101D2000026E036A15C005F014501AEC01F0D8A435
:101D30009EEF0EF0030E826F50EF0FF0340E026E26
:101D4000036A15C005F014501AEC01F0D8A4ADEFE9
:101D50000EF0040E826F50EF0FF0350E026E036A24
:101D600015C005F014501AEC01F0D8A4BCEF0EF029
:101D7000050E826F50EF0FF0360E026E036A15C02B
:101D800005F014501AEC01F0D8A4CBEF0EF0060EBB
:101D9000826F50EF0FF0370E026E036A15C005F028
:101DA00014501AEC01F0D8A4DAEF0EF0070E826F8F
:101DB00050EF0FF0380E026E036A15C005F0145094
:101DC0001AEC01F0D8A4E9EF0EF0080E826F50EF84
:101DD0000FF0390E026E036A15C005F014501AECAC
:101DE00001F0D8A4F8EF0EF0090E826F50EF0FF05B
:101DF000410E026E036A15C005F014501AEC01F092
:101E0000D8A407EF0FF00A0E826F50EF0FF0420ECA
:101E1000026E036A15C005F014501AEC01F0D8A444
:101E200016EF0FF00B0E826F50EF0FF0430E026EA5
:101E3000036A15C005F014501AEC01F0D8A425EF80
:101E40000FF00C0E826F50EF0FF0440E026E036A1B
:101E500015C005F014501AEC01F0D8A434EF0FF0BF
:101E60000D0E826F50EF0FF0450E026E036A15C023
:101E700005F014501AEC01F0D8A443EF0FF00E0E49
:101E8000826F50EF0FF0460E026E036A15C005F028
:101E900014501AEC01F0D8A450EF0FF00F0E826F1F
:101EA000120025EC11F0F40E496E010E4A6E49C085
:101EB00002F04AC003F0056AF80E0DEC01F0D8A458
:101EC0001EEF10F04950AB0FE96E000E4A20EA6E8B
:101ED000EFCF14F01450FF08D8A4E868FF0A146E7E
:101EE0004928166E000E4A20176E1650AB0FE96E89
:101EF000000E1720EA6EEFCF16F01650FF08D8A498
:101F0000E868FF0A166E14C002F016502CEC01F0BF
:101F1000166E176E020E4924186E000E4A20196EB6
:101F20001850AB0FE96E000E1920EA6EEFCF18F0D3
:101F30001850FF08D8A4E868FF0A186E165017104A
:101F4000026E18502CEC01F0186E196E030E492425
:101F50001A6E000E4A201B6E1A50AB0FE96E000E6F
:101F60001B20EA6EEFCF1AF01A50FF08D8A4E868D9
:101F7000FF0A1A6E18501910026E1A502CEC01F05C
:101F80001A6E1B6E04001A501B10D8B4E5EF0FF048
:101F900049C002F04AC003F0056A030E14EC01F0D8
:101FA000D8A4D9EF0FF0040E495E000E4A5AE2EFB2
:101FB0000FF0786B796B7A6B020E7B6F496A4A6A15
:101FC000E6EF10F074D71CEF10F04950AB0FE96E3C
:101FD000000E4A20EA6EEFCF79F04928146E000E09
:101FE0004A20156E1450AB0FE96E000E1520EA6EF4
:101FF000EFCF78F0020E4924146E000E4A20156EC1
:102000001450AB0FE96E000E1520EA6EEFCF7BF097
:10201000030E4924146E000E4A20156E1450AB0FA7
:10202000E96E000E1520EA6EEFCF7AF0040E492615
:10203000000E4A22E6EF10F0E6EF10F0FC0E495CCD
:10204000146E000E4A58156E1450A70FE96E010E5B
:102050001520EA6EEFCF14F01450FF08D8A4E868FA
:10206000FF0A146E4928166E000E4A20176EFC0EE9
:10207000165E000E175A1650A70FE96E010E1720B4
:10208000EA6EEFCF16F01650FF08D8A4E868FF0AF2
:10209000166E14C002F016502CEC01F0166E176E7E
:1020A000020E4924186E000E4A20196EFC0E185EAE
:1020B000000E195A1850A70FE96E010E1920EA6E8A
:1020C000EFCF18F01850FF08D8A4E868FF0A186E80
:1020D00016501710026E18502CEC01F0186E196E85
:1020E000030E49241A6E000E4A201B6EFC0E1A5E67
:1020F000000E1B5A1A50A70FE96E010E1B20EA6E44
:10210000EFCF1AF01A50FF08D8A4E868FF0A1A6E39
:1021100018501910026E1A502CEC01F01A6E1B6E3A
:1021200004001A501B10D8B49DEF10F0040E495E45
:10213000000E4A5ABCD6E6EF10F0FC0E495C146E55
:10214000000E4A58156E1450A70FE96E010E1520A7
:10215000EA6EEFCF79F04928146E000E4A20156E12
:10216000FC0E145E000E155A1450A70FE96E010EF6
:102170001520EA6EEFCF78F0020E4924146E000E9F
:102180004A20156EFC0E145E000E155A1450A70F4F
:10219000E96E010E1520EA6EEFCF7BF0030E4924A5
:1021A000146E000E4A20156EFC0E145E000E155AB9
:1021B0001450A70FE96E010E1520EA6EEFCF7AF0EA
:1021C000040E4926000E4A22E6EF10F01200F9EC48
:1021D00007F08292060EC96E010EFFEC00F08282BB
:1021E000010EFFEC00F08292120EC96E010EFFECA0
:1021F00000F0C96A010EFFEC00F0C96A010EFFECA5
:1022000000F04AC0C9FF010EFFEC00F049C0C9FF51
:10221000010EFFEC00F079C0C9FF010EFFEC00F0E9
:1022200078C0C9FF010EFFEC00F07BC0C9FF010EB2
:10223000FFEC00F07AC0C9FF010EFFEC00F08282D3
:10224000040E4926000E4A221200F9EC07F0829291
:10225000130EC96E010EFFEC00F0C96A010EFFEC0F
:1022600000F0C96A010EFFEC00F0C96A010EFFEC34
:1022700000F0C96A010EFFEC00F03D6A3E6A3DC005
:1022800002F03EC003F0056AFB0E11EC01F0D8A489
:102290005BEF11F0C96A010EFFEC00F03D50AB0F8F
:1022A000E96E000E3E20EA6EC9CFEFFF3D2A000E18
:1022B0003E22D8A0E4D73D6A3E6A3DC002F03EC04F
:1022C00003F0056AFB0E11EC01F0D8A479EF11F0D0
:1022D000C96A010EFFEC00F03D50A70FE96E010E38
:1022E0003E20EA6EC9CFEFFF3D2A000E3E22D8A065
:1022F000E4D782821200A9DF3D6A3E6A3DC002F047
:102300003EC003F0056AFB0E11EC01F0D8A498EF73
:1023100011F03D50AB0FE96E000E3E20EA6EEFCF9C
:102320008DF08FEC09F03D2A000E3E22D8A0E6D7B2
:102330003D6A3E6A3DC002F03EC003F0056AFB0EF6
:1023400011EC01F0D8A4B4EF11F03D50A70FE96EE5
:10235000010E3E20EA6EEFCF8DF08FEC09F03D2AA2
:10236000000E3E22D8A0E6D783EC09F0120051EC13
:102370000FF06C6B6D6B6E6B020E6F6F026A036A0F
:102380004AC005F049501AEC01F0D8A434EF12F01D
:1023900012EF12F0E0EC1AF0939E810E1E6E0F0EFB
:1023A000206E800E1C6E060E016E100E3AEC00F0D0
:1023B000540E3AEC00F04E0E3AEC00F04F0E3AECB0
:1023C00000F0200E3AEC00F0540E3AEC00F0450E0E
:1023D0003AEC00F0530E3AEC00F0540E3AEC00F0F8
:1023E000200E3AEC00F0440E3AEC00F0410E3AECCC
:1023F00000F0540E3AEC00F0410E3AEC00F0200EE2
:102400003AEC00F0460E3AEC00F04F0E3AEC00F0D9
:10241000550E3AEC00F04E0E3AEC00F0440E3AEC59
:1024200000F0938E010E436E446A43C002F044C034
:1024300003F0056A050E11EC01F0D8A431EF12F09B
:102440008082010E056EF40EF3EC00F08092010E16
:10245000056EF40EF3EC00F0432A000E4422D8A0DF
:10246000E4D780904FEF14F0010E3D6E3E6A3DC000
:1024700002F03EC003F0056A320E11EC01F0D8A460
:102480004AEF12F08E6B55EC0AF03D2A000E3E2208
:10249000D8A0EDD749C002F04AC003F0040E046E84
:1024A000056A38EC01F0876F69EF12F0939E810E98
:1024B0001E6E0F0E206E800E1C6E060E016E100E2C
:1024C0003AEC00F0680E3AEC00F087511BEC00F09B
:1024D000938ECCEC0DF0496A4A6AB7DE010E746F38
:1024E000756B74C002F075C003F0875110EC01F0F9
:1024F000D8A44FEF14F0026A036A4AC005F04950AD
:102500001AEC01F0D8A4BDEF12F06C6B6D6B6E6B22
:10251000020E6F6F4950AB0FE96E000E4A20EA6E53
:10252000EFCF30F04928146E000E4A20156E14507B
:10253000AB0FE96E000E1520EA6EEFCF2FF0020E02
:102540004924146E000E4A20156E1450AB0FE96E2C
:10255000000E1520EA6EEFCF32F0030E4924146E00
:10256000000E4A20156E1450AB0FE96E000E1520B8
:10257000EA6EEFCF31F09AEF13F049C002F04AC093
:1025800003F0056AF80E11EC01F0D8A432EF13F055
:10259000040E495C146E000E4A58156E1450AB0FB1
:1025A000E96E000E1520EA6EEFCF6DF0030E495C68
:1025B000146E000E4A58156E1450AB0FE96E000EE3
:1025C0001520EA6EEFCF6CF0020E495C146E000E1F
:1025D0004A58156E1450AB0FE96E000E1520EA6EC6
:1025E000EFCF6FF04904146E000E4A58156E145068
:1025F000AB0FE96E000E1520EA6EEFCF6EF049507A
:10260000AB0FE96E000E4A20EA6EEFCF30F049289A
:10261000146E000E4A20156E1450AB0FE96E000EBA
:102620001520EA6EEFCF2FF0020E4924146E000E33
:102630004A20156E1450AB0FE96E000E1520EA6E9D
:10264000EFCF32F0030E4924146E000E4A20156EAF
:102650001450AB0FE96E000E1520EA6EEFCF31F08B
:102660009AEF13F0040E495C146E000E4A58156E72
:102670001450A70FE96E010E1520EA6EEFCF6DF032
:10268000030E495C146E000E4A58156E1450A70FC5
:10269000E96E010E1520EA6EEFCF6CF0020E495C78
:1026A000146E000E4A58156E1450A70FE96E010EF5
:1026B0001520EA6EEFCF6FF04904146E000E4A58F1
:1026C000156E1450A70FE96E010E1520EA6EEFCFBC
:1026D0006EF04950A70FE96E010E4A20EA6EEFCF67
:1026E00030F04928146E000E4A20156E1450A70FC2
:1026F000E96E010E1520EA6EEFCF2FF0020E49248D
:10270000146E000E4A20156E1450A70FE96E010ECC
:102710001520EA6EEFCF32F0030E4924146E000E3E
:102720004A20156E1450A70FE96E010E1520EA6EAF
:10273000EFCF31F0BBEF13F0E0EC1AF0939E810E77
:102740001E6E0F0E206E800E1C6E060E016E100E99
:102750003AEC00F0680E3AEC00F06DC007F06C51F6
:102760001CEC00F02C0E3AEC00F06FC007F06E513C
:102770001CEC00F0938E3D6A3E6A3DC002F03EC004
:1027800003F0056A090E11EC01F0D8A4D1EF13F0A3
:102790003DC08EF055EC0AF03D2A000E3E22D8A036
:1027A000ECD76CC002F06DC003F030C005F02F50C4
:1027B00017EC01F0146E6EC002F06FC003F032C06F
:1027C00005F0315017EC01F0166E14C002F01650EF
:1027D00033EC01F0166E176E040016501710D8B4C3
:1027E0003AEF14F025EC08F03D6A3E6A3DC002F075
:1027F0003EC003F0056AFB0E11EC01F0D8A410EF07
:1028000014F03D50A30FE96E020E3E20EA6EEFCFAA
:102810008EF055EC0AF03D2A000E3E22D8A0E6D7F5
:10282000E86A81BAE868146EE86A82B4E868166EED
:1028300014501610D8A44FEF14F03D6A3E6A3DC004
:1028400002F03EC003F0056AFB0E11EC01F0D8A4C3
:1028500039EF14F03D509F0FE96E030E3E20EA6EF3
:10286000EFCF8EF055EC0AF03D2A000E3E22D8A0A4
:10287000E6D797D7040E4926000E4A22090E3D6E70
:102880003E6A3DC08EF055EC0AF03D06000E3E5A01
:10289000D8B0F7D7742B000E7523D8A022D680901D
:1028A00012008280020E056EEE0EF3EC00F08290B4
:1028B000FA0EF2EC00F08082020E056EEE0EF3ECE2
:1028C00000F08092FA0EF2EC00F08080020E056EAD
:1028D000EE0EF3EC00F08090FA0EF2EC00F0120035
:1028E0003C0E026E036A26C005F025501AEC01F07A
:1028F000D8A483EF14F0810E8B6F950E766F810E46
:10290000776FFFEF14F0780E026E036A26C005F0B1
:1029100025501AEC01F0D8A496EF14F0800E8B6FBE
:102920001F0E766F810E776FFFEF14F0F00E026EC0
:10293000036A26C005F025501AEC01F0D8A4A9EFCF
:1029400014F0800E8B6FF30E766F3F0E776FFFEFF4
:1029500014F0E00E026E010E036E26C005F0255045
:102960001AEC01F0D8A4BDEF14F0800E8B6F5E0E50
:10297000766F1F0E776FFFEF14F0F40E026E010EEC
:10298000036E26C005F025501AEC01F0D8A4D1EF53
:1029900014F0800E8B6F080E766F1E0E776FFFEFB0
:1029A00014F0C00E026E030E036E26C005F0255013
:1029B0001AEC01F0D8A4E5EF14F0800E8B6F130E23
:1029C000766F0F0E776FFFEF14F0E80E026E030EB6
:1029D000036E26C005F025501AEC01F0D8A4F9EFDB
:1029E00014F0800E8B6F680E766F0E0E776FFFEF10
:1029F00014F0800E8B6F1F0E766F810E776F7651FD
:102A0000FF08146EFF0E7755156E14C002F015C046
:102A100003F0046A010E056E38EC01F0D76E7651B2
:102A2000FF08146EFF0E7755156E14C002F015C026
:102A300003F0046A010E056E38EC01F006C0D6FF03
:102A4000F2941200D56AF29412004ADF040022B414
:102A50002BEF15F026DF809082908092896BF28EAA
:102A600004D0F2BE12001CEF16F0FBDFA00EF26ED7
:102A7000F8DF010E686F696BF4DF010E666F676B3C
:102A8000F0DF2296EEDF949EECDF8BC0D5FFE9DF0E
:102A90002282E7DF040022A4B7EF15F0E2DF040092
:102AA00022A4B5EF15F0DDDF66C002F067C003F0C9
:102AB00026C005F0255011EC01F0D8A496EF15F0D2
:102AC000D0DFE86A80BAE868146EE86A22B6E8687F
:102AD000166E14C002F016502CEC01F0166E176E34
:102AE000040016501710D8B47CEF15F0BADFE5EFEC
:102AF00015F0B7DF94EF15F0E86A22A4E868146EC9
:102B0000E86822B6E86A166E14C002F016502CEC83
:102B100001F0166E176E040016501710D8B494EF1B
:102B200015F09FDF22869DDF9CDFBED7010E666F0A
:102B3000676B682B000E6923030E026E036A69C07F
:102B400005F068511AEC01F0D8A4A8EF15F08082C6
:102B5000060E026E036A69C005F068511AEC01F0B6
:102B6000D8A4B4EF15F080929AD7E5EF15F068C0BD
:102B700002F069C003F073C005F0725111EC01F06E
:102B8000D8A4E5EF15F06DDF66C002F067C003F072
:102B900026C005F0255011EC01F0D8A4D2EF15F0B5
:102BA00060DFF2D7010E666F676B682B000E69233A
:102BB000030E026E036A69C005F068511AEC01F059
:102BC000D8A4E4EF15F08082D2D73CDF948E7AC08F
:102BD00002F07BC003F0046A020E056E38EC01F0CF
:102BE00006C014F007C015F01450FF08296E010E3E
:102BF00015542A6E29507A272A507B2302680368CD
:102C00007BC005F07A511AEC01F0D8A40FEF16F052
:102C10007A6B7B6B782B000E792312EF16F07A2BF0
:102C2000000E7B230A0EF2EC00F0E7EC10F00A0E27
:102C3000F2EC00F0809212007651FF08146EFF0E45
:102C40007755156E14C002F015C003F0046A010E2A
:102C5000056E38EC01F0D76E7651FF08146EFF0E4A
:102C60007755156E14C002F015C003F0046A010E0A
:102C7000056E38EC01F006C0D6FFF294E86A80BA1F
:102C8000E868146E68C002F069C003F0056A020EBD
:102C900011EC01F0166E14C002F016502CEC01F08D
:102CA000166E176E040016501710D8B45BEF16F0AE
:102CB0008FEC1BF02294E86A22B0E868146EE86A90
:102CC00022B2E868166E14C002F016502CEC01F027
:102CD000166E176E040016501710D8B4DFEF1AF0F6
:102CE000828E25C002F026C003F045C004F046C025
:102CF00005F038EC01F0146E03C015F066C002F068
:102D000067C003F014C004F015C005F038EC01F002
:102D100006C014F007C015F014C002F015C003F08F
:102D2000056A010E0AEC01F0146E25C002F026C0FF
:102D300003F046C005F045500AEC01F0166E14C0D1
:102D400002F0165033EC01F0166E176E04001650A8
:102D50001710D8B42FEF19F06B8004006BA0B2EFFE
:102D600016F0FBD7D00E6F6E04006DA0B9EF16F011
:102D7000FBD7020EFFEC00F03B0E6F6E04006DA05F
:102D8000C3EF16F0FBD7020EFFEC00F06B800400DF
:102D90006BA0CCEF16F0FBD7D10E6F6E04006DA0C8
:102DA000D3EF16F0FBD7020EFFEC00F06B860400A9
:102DB0006DB0DCEF16F0FBD76B886B9A6FCF4CF0E1
:102DC000050EFFEC00F06B8604006DB0E9EF16F025
:102DD000FBD76B886B9A6FCF4BF0050EFFEC00F0C2
:102DE0006B8604006DB0F6EF16F0FBD76B886B9A1C
:102DF0006FCF4EF0050EFFEC00F06B8604006DB057
:102E000003EF17F0FBD76B886B9A6FCF4DF0050E71
:102E1000FFEC00F06B8604006DB010EF17F0FBD7ED
:102E20006B886B9A6FCF50F0050EFFEC00F06B864D
:102E300004006DB01DEF17F0FBD76B886B8A6FCF66
:102E40004FF0030EFFEC00F06B8404006BA42AEF3C
:102E500017F0FBD7030EFFEC00F06B8004006BA0B3
:102E600033EF17F0FBD7D00E6F6E04006DA03AEF72
:102E700017F0FBD7020EFFEC00F0430E6F6E04005C
:102E80006DA044EF17F0FBD7020EFFEC00F06B8053
:102E900004006BA04DEF17F0FBD7D10E6F6E04004E
:102EA0006DA054EF17F0FBD7020EFFEC00F06B861D
:102EB00004006DB05DEF17F0FBD76B886B9A6FCF96
:102EC00052F0050EFFEC00F06B8604006DB06AEF67
:102ED00017F0FBD76B886B9A6FCF51F0050EFFECA4
:102EE00000F06B8604006DB077EF17F0FBD76B88AE
:102EF0006B9A6FCF54F0050EFFEC00F06B86040068
:102F00006DB084EF17F0FBD76B886B9A6FCF53F0DF
:102F1000050EFFEC00F06B8604006DB091EF17F02A
:102F2000FBD76B886B9A6FCF56F0050EFFEC00F065
:102F30006B8604006DB09EEF17F0FBD76B886B8A31
:102F40006FCF55F0030EFFEC00F06B8404006BA410
:102F5000ABEF17F0FBD7030EFFEC00F06B80040023
:102F60006BA0B4EF17F0FBD7180E6F6E04006DA0C6
:102F7000BBEF17F0FBD7020EFFEC00F0030E6F6EF5
:102F800004006DA0C5EF17F0FBD7020EFFEC00F0B8
:102F90006B8004006BA0CEEF17F0FBD7190E6F6E9D
:102FA00004006DA0D5EF17F0FBD7020EFFEC00F088
:102FB0006B8604006DB0DEEF17F0FBD76B886B9A61
:102FC0006FCF57F0050EFFEC00F06B8604006DB07C
:102FD000EBEF17F0FBD76B886B9A6FCF58F0050EAD
:102FE000FFEC00F06B8604006DB0F8EF17F0FBD734
:102FF0006B886B9A6FCF59F0050EFFEC00F06B8673
:1030000004006DB005EF18F0FBD76B886B9A6FCF9B
:103010005AF0050EFFEC00F06B8604006DB012EF65
:1030200018F0FBD76B886B9A6FCF5BF0050EFFEC47
:1030300000F06B8604006DB01FEF18F0FBD76B88B3
:103040006B8A6FCF5CF0030EFFEC00F06B84040022
:103050006BA42CEF18F0FBD7030EFFEC00F0180E5A
:10306000856F0A0E846F110E836F6B8004006BA056
:103070003BEF18F0FBD785C06FFF04006DA042EF57
:1030800018F0FBD7020EFFEC00F084C06FFF0400C5
:103090006DA04CEF18F0FBD7020EFFEC00F083C0E0
:1030A0006FFF010EFFEC00F004006DA059EF18F067
:1030B000FBD7020EFFEC00F06B8404006BA462EF00
:1030C00018F0FBD7030EFFEC00F08292060EC96EDB
:1030D000010EFFEC00F08282010EFFEC00F0829204
:1030E000120EC96E010EFFEC00F079C0C9FF010E8F
:1030F000FFEC00F078C0C9FF010EFFEC00F07BC0D0
:10310000C9FF010EFFEC00F07AC0C9FF010EFFEC11
:1031100000F04CC0C9FF010EFFEC00F04BC0C9FF2E
:10312000010EFFEC00F04EC0C9FF010EFFEC00F0F5
:103130004DC0C9FF010EFFEC00F050C0C9FF010EE9
:10314000FFEC00F04FC0C9FF010EFFEC00F052C0D1
:10315000C9FF010EFFEC00F051C0C9FF010EFFECEA
:1031600000F054C0C9FF010EFFEC00F053C0C9FFCE
:10317000010EFFEC00F056C0C9FF010EFFEC00F09D
:1031800055C0C9FF010EFFEC00F058C0C9FF010E89
:10319000FFEC00F057C0C9FF010EFFEC00F05AC071
:1031A000C9FF010EFFEC00F059C0C9FF010EFFEC92
:1031B00000F05CC0C9FF010EFFEC00F05BC0C9FF6E
:1031C000010EFFEC00F08282120E7A25146E000EC2
:1031D0007B21156EF80E026E036815C005F01450C1
:1031E0001AEC01F0D8A4FCEF18F0782B000E79232C
:1031F0007A6B7B6B2DEF19F0120E7A25146E000E90
:103200007B21156E14C002F015C003F0046A020E93
:10321000056E38EC01F006C014F007C015F0F80E8A
:10322000026E010E036E15C005F014501AEC01F089
:10323000D8A429EF19F0080E7A25146E000E7B2110
:10324000156E120E14247A6F000E15207B6F2DEF71
:1032500019F0120E7A27000E7B23DBEF1AF06B8039
:1032600004006BA035EF19F0FBD7D00E6F6E040091
:103270006DA03CEF19F0FBD7020EFFEC00F03B0E07
:103280006F6E04006DA046EF19F0FBD7020EFFEC45
:1032900000F06B8004006BA04FEF19F0FBD7D10E4C
:1032A0006F6E04006DA056EF19F0FBD7020EFFEC15
:1032B00000F06B8604006DB05FEF19F0FBD76B88F0
:1032C0006B9A6FCF4CF0050EFFEC00F06B8604009C
:1032D0006DB06CEF19F0FBD76B886B9A6FCF4BF02A
:1032E000050EFFEC00F06B8604006DB079EF19F06D
:1032F000FBD76B886B9A6FCF4EF0050EFFEC00F09A
:103300006B8604006DB086EF19F0FBD76B886B9A63
:103310006FCF4DF0050EFFEC00F06B8604006DB032
:1033200093EF19F0FBD76B886B9A6FCF50F0050EB7
:10333000FFEC00F06B8604006DB0A0EF19F0FBD736
:103340006B886B8A6FCF4FF0030EFFEC00F06B843D
:1033500004006BA4ADEF19F0FBD7030EFFEC00F0F7
:103360006B8004006BA0B6EF19F0FBD7D00E6F6E28
:1033700004006DA0BDEF19F0FBD7020EFFEC00F0CA
:10338000430E6F6E04006DA0C7EF19F0FBD7020E5D
:10339000FFEC00F06B8004006BA0D0EF19F0FBD7BE
:1033A000D10E6F6E04006DA0D7EF19F0FBD7020E9F
:1033B000FFEC00F06B8604006DB0E0EF19F0FBD776
:1033C0006B886B9A6FCF52F0050EFFEC00F06B86A6
:1033D00004006DB0EDEF19F0FBD76B886B9A6FCFDF
:1033E00051F0050EFFEC00F06B8604006DB0FAEFB3
:1033F00019F0FBD76B886B9A6FCF54F0050EFFEC7A
:1034000000F06B8604006DB007EF1AF0FBD76B88F5
:103410006B9A6FCF53F0050EFFEC00F06B86040043
:103420006DB014EF1AF0FBD76B886B9A6FCF56F024
:10343000050EFFEC00F06B8604006DB021EF1AF072
:10344000FBD76B886B8A6FCF55F0030EFFEC00F053
:103450006B8404006BA42EEF1AF0FBD7030EFFEC75
:1034600000F08292060EC96E010EFFEC00F082821F
:10347000010EFFEC00F08292120EC96E010EFFECFD
:1034800000F079C0C9FF010EFFEC00F078C0C9FF61
:10349000010EFFEC00F07BC0C9FF010EFFEC00F055
:1034A0007AC0C9FF010EFFEC00F04CC0C9FF010E4D
:1034B000FFEC00F04BC0C9FF010EFFEC00F04EC066
:1034C000C9FF010EFFEC00F04DC0C9FF010EFFEC7B
:1034D00000F050C0C9FF010EFFEC00F04FC0C9FF63
:1034E000010EFFEC00F052C0C9FF010EFFEC00F02E
:1034F00051C0C9FF010EFFEC00F054C0C9FF010E1E
:10350000FFEC00F053C0C9FF010EFFEC00F056C005
:10351000C9FF010EFFEC00F055C0C9FF010EFFEC22
:1035200000F082820C0E7A25146E000E7B21156E3F
:10353000F80E026E036815C005F014501AEC01F085
:10354000D8A4AAEF1AF0782B000E79237A6B7B6B44
:10355000DBEF1AF00C0E7A25146E000E7B21156E2F
:1035600014C002F015C003F0046A020E056E38ECB8
:1035700001F006C014F007C015F0F80E026E010E3F
:10358000036E15C005F014501AEC01F0D8A4D7EF63
:103590001AF0080E7A25146E000E7B21156E0C0EA3
:1035A00014247A6F000E15207B6FDBEF1AF00C0EDF
:1035B0007A27000E7B23829E662B000E6723100065
:1035C00031EC15F0FCEF1AF031EC15F0939E31EC74
:1035D00015F0810E1E6E0F0E206E800E1C6E060EF4
:1035E000016E0C0E3AEC00F031EC15F0938E31ECDC
:1035F00015F00A0EF2EC00F031EC15F0120031EC8F
:1036000015F0939E31EC15F0810E1E6E0F0E206E9C
:10361000800E1C6E060E016E0E0E3AEC00F031ECC0
:1036200015F0938E31EC15F0120031EC15F0939EED
:1036300031EC15F0810E1E6E0F0E206E800E1C6E8A
:10364000060E016E0F0E3AEC00F031EC15F0938E81
:1036500031EC15F0120031EC15F0939E31EC15F0C1
:10366000810E1E6E0F0E206E800E1C6E060E016EF9
:10367000100E3AEC00F0400E3AEC00F031EC15F090
:10368000938E31EC15F0120031EC15F0939E31EC75
:1036900015F0810E1E6E0F0E206E800E1C6E060E33
:1036A000016E100E3AEC00F0540E3AEC00F031ECE2
:1036B00015F0938E31EC15F0120031EC15F0939E5D
:1036C00031EC15F0810E1E6E0F0E206E800E1C6EFA
:1036D000060E016E100E3AEC00F0680E3AEC00F0A7
:1036E00031EC15F0938E31EC15F0120031EC15F041
:1036F000939E31EC15F0810E1E6E0F0E206E800E23
:103700001C6E060E016E100E3AEC00F07C0E3AECC8
:1037100000F031EC15F0938E31EC15F0120031EC25
:1037200015F0320EFFEC00F031EC15F0040080BA19
:08373000F6D731EC15F0120090
:020000040030CA
:03000100081F3F96
:02000500BD81BB
:060008000FC00FE00F40E5
:00000001FF
