:020000040000FA
:0400000077EF01F0A5
:020008001200E4
:0800180012000A6EF80BE8303B
:10002000E830E830E926D8B0EA2AD1EC00F00A6ED0
:10003000EF1474EF01F0076A066E018E270E056E4D
:10004000100E0CD8030E056EE80E08D8056A640E73
:1000500005D8056A0A0E02D806500BD0046E075068
:10006000036E0650026E38EC01F0E866019E01BE98
:100070001200300F086E20C0EAFF20C0E2FF1E50C1
:10008000E96E120FE16E090E096ED89007D808329A
:10009000092EFCD7D88002D874EF01F001A60BD04E
:1000A000EF501C1001A41C18EF6EE7501C10D8A0D4
:1000B0001C18E76E0AD0EF501C10D8A01C1801B411
:1000C0001C18EF6E1C1CE71600D00134060BEA0F5B
:1000D000F66EF76A000EF722F86A0900F550036E13
:1000E0000800F550000000EF01F0019D033D0064A1
:1000F0000D0120C0EAFF1EC0E9FF0E50026E0F5036
:10010000036E046A056A040020D80CE3E86A04065A
:10011000055AF9E20206035A17E3780E046E010E3F
:10012000056EF1D729D80A6A080E056E26D80DD8B3
:10013000D8B00A3E0432052EF9D70DAA0A6A0DBAC4
:10014000049E1BD8D88004501200120EE9261C50C1
:10015000EF121EC0E9FFEF140DBC1C18FF0F1200B8
:10016000D96E0B0603E2D88074EF01F06EEC01F05B
:10017000D8A01200DE6EF5D7018C0D501F0B000FBA
:10018000036E0C50100FD8B0032A01AC00EF01F041
:10019000019CD8900332E830D8900332E83000EF69
:1001A00001F0010E0AB0E8440AB2E8440AB2E84499
:1001B0000AB4E8381200A66AA680A850A94AAA2A5A
:1001C00074EF01F0E86AA86EA66AA684550EA76EC1
:1001D000AA0EA76EA682A6B2FED7A694A94AAA2AFC
:1001E00074EF01F0056A046EE86A0406055AD8A0A7
:1001F00074EF01F0030E036EE70E02D8F5D7036A21
:10020000FD0F026E01D00206040000D0E86A035A16
:10021000FAE21200046E020E0FD0046E030E0CD030
:10022000056A046E010E08D0046E060E05D0046E39
:10023000040E02D0046E050E0A6E0550035C02E146
:100240000450025C040ED8B0010ED8B4020E0A1499
:10025000D8A4FF0E74EF01F0E866FF0E0214D8A4D4
:10026000FF0E74EF01F00210D8A4FF0E74EF01F03E
:10027000076A066A100E086E033406360736045005
:10028000065E0550075A05E204500626055007226F
:10029000D89002360336082EEFD7025074EF01F0E3
:1002A00004500802F3CF06F0F4CF07F0055009021E
:1002B000F3CF02F0F4CF03F00802F3500726F45016
:1002C0000222E86A032204500902F3500726F45080
:1002D0000222E86A0322065074EF01F0E96EFB6A1D
:1002E0001350FA6E1250F96E000104001200E80E6D
:1002F000D36E800ED26E400E9B6EF26A616A0F0161
:10030000386B396B3A6B010E966E229222942296CC
:100310000001F6EC14F09488938A93889382938476
:100320009380938E948E9386928A9484948C9388EF
:1003300094909290929294929496949A9296929487
:100340008290809080928094030E056EE80E4BDFC1
:10035000808492948082030E056EE80E44DF8092C2
:10036000939E810E1E6E0F0E206E800E1C6E060E6A
:10037000016E0C0E7FDE0A0E35DF810E1E6E0F0E33
:10038000206E800E1C6E060E016E0E0E73DE100EB9
:1003900071DE400E6FDE4D0E6DDE500E6BDE550EC3
:1003A00069DE2D0E67DE350E65DE780E63DE200E0B
:1003B00061DE280E5FDE450E5DDE4C0E5BDE430E19
:1003C00059DE290E57DE200E55DE440E53DE650E33
:1003D00051DE760E4FDE2D0E4DDE310E4BDE340E2D
:1003E00049DE440E47DE810E1E6E0F0E206E800E1B
:1003F0001C6E060E016E100E3DDE540E3BDE330EFB
:1004000039DE2F0E37DE320E35DE360E33DE2F0E9E
:1004100031DE320E2FDE300E2DDE310E2BDE380EA9
:1004200029DE938E476A486AFA0EDCDE8280010E6E
:10043000056E2C0ED8DE82900A0EE1DE8080010E61
:10044000056E2C0ED0DE80900A0ED9DE8082010E61
:10045000056E2C0EC8DE80920A0ED1DE82800A0E56
:10046000CEDE8282010ECBDE8286010EC8DE829A4B
:10047000010EC5DE8182010EC2DE8184010EBFDE67
:100480008096D3EC07F075EC05F0CDEC07F026EC88
:100490000FF0E0EC0CF00A0EA5DEA2EC1AF02282BE
:1004A000B6EC05F0472A000E482282807DEF02F06C
:1004B000939E810E1E6E0F0E206E800E1C6E060E19
:1004C000016E100E3AEC00F0400E3AEC00F0530EC4
:1004D0003AEC00F0540E3AEC00F0410E3AEC00F029
:1004E0004E0E3AEC00F0440E3AEC00F0420E3AECBC
:1004F00000F0590E3AEC00F0938E040080AA85EFCC
:1005000002F02286F9EC14F08DD7E86A81BAE86827
:10051000146EE86A82B4E868166E14C002F01650D1
:10052000A2DE166E176E040016501710D8B464EFD2
:1005300005F08290C7EF02F0939E810E1E6E0F0EA3
:10054000206E800E1C6E060E016E100E3AEC00F04E
:10055000400E3AEC00F0520E3AEC00F0550E3AEC38
:1005600000F04E0E3AEC00F0200E3AEC00F0540E83
:100570003AEC00F0450E3AEC00F0530E3AEC00F085
:10058000540E3AEC00F03F0E3AEC00F0938E070E5A
:10059000056ED00E28DEE86A81BAE868146EE86A53
:1005A00082B4E868166E14C002F016505CDE166E57
:1005B000176E040016501710D8B40CEF05F08080A9
:1005C00022EF03F0939E810E1E6E0F0E206E800EA2
:1005D0001C6E060E016E100E3AEC00F0400E3AEC66
:1005E00000F0530E3AEC00F0450E3AEC00F04E0EDF
:1005F0003AEC00F0440E3AEC00F0200E3AEC00F039
:10060000440E3AEC00F0410E3AEC00F0540E3AEC95
:1006100000F0410E3AEC00F0200E3AEC00F0540EDF
:100620003AEC00F04F0E3AEC00F0200E3AEC00F0FD
:10063000500E3AEC00F0430E3AEC00F03F0E3AEC6C
:1006400000F0938E070E056ED00EF3EC00F0E86A12
:1006500081BAE868146EE86A82B4E868166E14C05D
:1006600002F0165000DE166E176E040016501710BA
:10067000D8B4B1EF04F0010EFFEC00F08082010E5F
:10068000FFEC00F080908EEF03F0939E810E1E6EC3
:100690000F0E206E800E1C6E060E016E100E3AECD0
:1006A00000F0400E3AEC00F0450E3AEC00F0520E2D
:1006B0003AEC00F0410E3AEC00F0530E3AEC00F048
:1006C000450E3AEC00F03F0E3AEC00F0200E3AEC0A
:1006D00000F0200E3AEC00F0200E3AEC00F0200E74
:1006E0003AEC00F0200E3AEC00F0200E3AEC00F06C
:1006F000200E3AEC00F0200E3AEC00F0200E3AEC1E
:1007000000F0200E3AEC00F0200E3AEC00F0200E43
:100710003AEC00F0200E3AEC00F0938E070E056ED6
:10072000D00EF3EC00F0E86A81BAE868146EE86A6B
:1007300082B4E868166E14C002F0165033EC01F073
:10074000166E176E040016501710D8B4B1EF03F0F0
:100750008092828080805DEC0AF08BEF01F0AFEF39
:1007600004F08082828080900AEF04F0A2EC1AF0FC
:10077000939E810E1E6E0F0E206E800E1C6E060E56
:10078000016E100E3AEC00F0400E3AEC00F0530E01
:100790003AEC00F0450E3AEC00F0430E3AEC00F073
:1007A000540E3AEC00F04F0E3AEC00F0520E3AECD8
:1007B00000F0200E3AEC00F0450E3AEC00F0520E3C
:1007C0003AEC00F0410E3AEC00F0530E3AEC00F037
:1007D000450E3AEC00F03F0E3AEC00F0200E3AECF9
:1007E00000F0200E3AEC00F0200E3AEC00F0200E63
:1007F0003AEC00F0200E3AEC00F0200E3AEC00F05B
:10080000200E3AEC00F0200E3AEC00F0200E3AEC0C
:1008100000F0938EE86A81BAE868146EE86A82B4E0
:10082000E868166E14C002F0165033EC01F0166E34
:10083000176E040016501710D8B420EF04F0EAD752
:1008400082903D6A3E6A3DC002F03EC003F0056AF8
:100850000C0E11EC01F0D8A4A8EF04F0E86A81BAFC
:10086000E868146EE86A82B4E868166E14C002F094
:10087000165033EC01F0166E176E04001650171068
:10088000D8B499EF04F093EF04F0A2EC1AF0939E21
:10089000810E1E6E0F0E206E800E1C6E060E016EF7
:1008A000100E3AEC00F0400E3AEC00F0420E3AEC3A
:1008B00000F0550E3AEC00F04C0E3AEC00F04B0E06
:1008C0003AEC00F0200E3AEC00F0450E3AEC00F065
:1008D000520E3AEC00F0410E3AEC00F0530E3AECB6
:1008E00000F0490E3AEC00F04E0E3AEC00F0470EE4
:1008F0003AEC00F03F0E3AEC00F0200E3AEC00F03B
:10090000200E3AEC00F0200E3AEC00F0200E3AEC0B
:1009100000F0200E3AEC00F0200E3AEC00F0200E31
:100920003AEC00F0938E828080820CEC09F0ACEF00
:1009300004F080827D0EF2EC00F0809280807D0ECB
:10094000F2EC00F080903D2A000E3E22D8A07BD72A
:1009500082808082A0EC08F0809212EF02F00AEF11
:1009600005F08290808003EF05F0A2EC1AF0939ED0
:10097000810E1E6E0F0E206E800E1C6E060E016E16
:10098000100E3AEC00F0400E3AEC00F0530E3AEC48
:1009900000F0450E3AEC00F04E0E3AEC00F0440E3A
:1009A0003AEC00F0490E3AEC00F04E0E3AEC00F052
:1009B000470E3AEC00F0200E3AEC00F0440E3AEC10
:1009C00000F0410E3AEC00F0540E3AEC00F0410E0B
:1009D0003AEC00F0200E3AEC00F0540E3AEC00F045
:1009E0004F0E3AEC00F0200E3AEC00F0500E3AECCC
:1009F00000F0430E3AEC00F0200E3AEC00F0200E2E
:100A00003AEC00F0938E8CEC11F0A2EC1AF080908E
:100A100012EF02F064EF05F05CEF05F0A2EC1AF0C3
:100A2000939E810E1E6E0F0E206E800E1C6E060EA3
:100A3000016E100E3AEC00F0400E3AEC00F0520E4F
:100A40003AEC00F0550E3AEC00F04E0E3AEC00F0A5
:100A50004E0E3AEC00F0490E3AEC00F04E0E3AEC35
:100A600000F0470E3AEC00F0200E3AEC00F0540E85
:100A70003AEC00F0450E3AEC00F0530E3AEC00F080
:100A8000540E3AEC00F0200E3AEC00F0200E3AEC56
:100A900000F0200E3AEC00F0200E3AEC00F0200EB0
:100AA0003AEC00F0200E3AEC00F0200E3AEC00F0A8
:100AB000200E3AEC00F0938EF9EC14F0A2EC1AF050
:100AC000A2EC1AF012EF02F00300880E026E130E71
:100AD000036E48C005F047501AEC01F0D8A473EF3C
:100AE00005F08094929452EF02F093849382100E5A
:100AF0006D6E280E6C6E6B6A696A110E6E6E84ECF8
:100B000005F08BEC05F012006B8004006BA08AEFFF
:100B100005F0FBD712006B8404006BA491EF05F085
:100B2000FBD71200F1DF85C06FFF04006DA09AEFC4
:100B300005F0FBD7020EFFEC00F084C06FFF04004D
:100B40006DA0A4EF05F0FBD7020EFFEC00F083C010
:100B50006FFF010EFFEC00F004006DA0B1EF05F097
:100B6000FBD7020EFFEC00F0D6DF120013EC06F00C
:100B700052EC06F094EC06F023EC07F0D00E856FF3
:100B80006B0E846F800E836FCDDF640EF2EC00F08D
:100B9000D00E856F6B0E846F010E836FC3DFD00E96
:100BA000856F6C0E846F836BBDDFD00E856F1A0E60
:100BB000846F7EC083F0B6DFD00E856F1B0E846F0E
:100BC0007FC083F0AFDFD00E856F1C0E846F5EC0D8
:100BD00083F0A8DFD00E856F1D0E846F5DC083F09B
:100BE000A1DFD00E856F370E846F120E836F9ADFF0
:100BF000D00E856F6A0E846F836B94DF0A0EF2EC61
:100C000000F0D00E856F380E846F010E836F8ADF7F
:100C10000A0EF2EC00F0D00E856F0A0E846F110EF2
:100C2000836F80DF1200020E026E036A28C005F097
:100C300027501AEC01F0D8A422EF06F05E985E96D9
:100C400051EF06F0040E026E036A28C005F027502B
:100C50001AEC01F0D8A431EF06F05E985E8651EFF1
:100C600006F0080E026E036A28C005F027501AEC41
:100C700001F0D8A440EF06F05E885E9651EF06F0D2
:100C8000100E026E036A28C005F027501AEC01F01E
:100C9000D8A44FEF06F05E885E8651EF06F05E88BE
:100CA0005E961200FA0E026E036A3CC005F03B50DD
:100CB0001AEC01F0D8A461EF06F07F997F9793EFCB
:100CC00006F0F40E026E010E036E3CC005F03B50C0
:100CD0001AEC01F0D8A471EF06F07F997F8793EFAB
:100CE00006F0E80E026E030E036E3CC005F03B50AA
:100CF0001AEC01F0D8A481EF06F07F897F9793EF7B
:100D000006F0D00E026E070E036E3CC005F03B509D
:100D10001AEC01F0D8A491EF06F07F897F8793EF5A
:100D200006F07F997F871200050E026E036A24C0C9
:100D300005F023501AEC01F0D8A4A5EF06F05D866B
:100D40005D845D825D9022EF07F00A0E026E036AF9
:100D500024C005F023501AEC01F0D8A4B6EF06F039
:100D60005D865D845D925D8022EF07F0140E026E59
:100D7000036A24C005F023501AEC01F0D8A4C7EF91
:100D800006F05D865D845D925D9022EF07F0290E8E
:100D9000026E036A24C005F023501AEC01F0D8A4B7
:100DA000D8EF06F05D865D945D825D8022EF07F0EE
:100DB0005C0E026E036A24C005F023501AEC01F0A9
:100DC000D8A4E9EF06F05D865D945D825D9022EF28
:100DD00007F0B80E026E036A24C005F023501AEC27
:100DE00001F0D8A4FAEF06F05D865D945D925D8017
:100DF00022EF07F0CC0E026E010E036E24C005F048
:100E000023501AEC01F0D8A40CEF07F05D865D9436
:100E10005D925D9022EF07F06A0E026E040E036E83
:100E200024C005F023501AEC01F0D8A41EEF07F0FF
:100E30005D965D945D925D9022EF07F05D865D9416
:100E40005D825D901200050E026E036A3AC005F0E5
:100E500039501AEC01F0D8A435EF07F07F837F8179
:100E60007E857E837E91CCEF07F00A0E026E036AC8
:100E70003AC005F039501AEC01F0D8A447EF07F05A
:100E80007F837F817E857E937E81CCEF07F0140E79
:100E9000026E036A3AC005F039501AEC01F0D8A48A
:100EA00059EF07F07F837F817E857E937E91CCEF23
:100EB00007F0290E026E036A3AC005F039501AECA9
:100EC00001F0D8A46BEF07F07F837F817E957E834E
:100ED0007E81CCEF07F05C0E026E036A3AC005F02B
:100EE00039501AEC01F0D8A47DEF07F07F837F81A1
:100EF0007E957E837E91CCEF07F0B80E026E036A7A
:100F00003AC005F039501AEC01F0D8A48FEF07F081
:100F10007F837F817E957E937E81CCEF07F0FA0EF2
:100F2000026E036A3AC005F039501AEC01F0D8A4F9
:100F3000A1EF07F07F837F817E957E937E91CCEF3A
:100F400007F0100E026E0E0E036E3AC005F0395017
:100F50001AEC01F0D8A4B4EF07F07F937F817E955F
:100F60007E937E91CCEF07F0600E026E220E036E30
:100F70003AC005F039501AEC01F0D8A4C7EF07F0D9
:100F80007F937F917E957E937E91CCEF07F07F8358
:100F90007F817E957E837E911200C76A300EC66E79
:100FA000100ECB6E1200FAEC10F08292060EC96E93
:100FB000010EFFEC00F08282010EFFEC00F0829245
:100FC000010EC96E010EFFEC00F0C96A010EFFECC4
:100FD00000F0C96A010EFFEC00F0C00EC96E010EF0
:100FE000FFEC00F08282030E056EE80EF3EC00F0D9
:100FF0001200D3DF3D6A3E6A3DC002F03EC003F0FE
:10100000056AFB0E11EC01F0D8A413EF08F03D5077
:10101000A30FE96E020E3E20EA6EEF6A3D2A000E33
:101020003E22D8A0E9D73D6A3E6A3DC002F03EC0EC
:1010300003F0056AFB0E11EC01F0D8A42CEF08F0C8
:101040003D509F0FE96E030E3E20EA6EEF6A3D2A87
:10105000000E3E22D8A0E9D78292130EC96E010E6F
:10106000FFEC00F06DC0C9FF010EFFEC00F06CC09A
:10107000C9FF010EFFEC00F06FC0C9FF010EFFECCD
:1010800000F06EC0C9FF010EFFEC00F03D6A3E6A41
:101090003DC002F03EC003F0056AFB0E11EC01F00A
:1010A000D8A467EF08F0C96A010EFFEC00F03D50CC
:1010B000A30FE96E020E3E20EA6EC9CFEFFF010ECC
:1010C000FFEC00F03D2A000E3E22D8A0E1D73D6A99
:1010D0003E6A3DC002F03EC003F0056AFB0E11EC13
:1010E00001F0D8A488EF08F0C96A010EFFEC00F007
:1010F0003D509F0FE96E030E3E20EA6EC9CFEFFF11
:10110000010EFFEC00F03D2A000E3E22D8A0E1D7F0
:101110008282026AFE0E036E6FC005F06E511AECF9
:1011200001F0D8A49BEF08F06C2B000E6D236E6BC2
:101130006F6B9FEF08F0000E6E27020E6F231200F8
:101140007829336E000E7921346E27DF3D6A3E6ABE
:101150003DC002F03EC003F034C005F0335011EC46
:1011600001F0D8A409EF09F03DC008F03EC009F035
:10117000040E046E056A50EC01F06C6F07C06DF050
:101180006E6B6F6B8292010EFFEC00F0060EC96E63
:10119000010EFFEC00F08282010EFFEC00F0829263
:1011A000D80EC96E010EFFEC00F06DC0C9FF010E34
:1011B000FFEC00F06CC0C9FF010EFFEC00F06FC047
:1011C000C9FF010EFFEC00F082828A810400D896EC
:1011D0008AA1D886D8B604EF09F08292010EFFECFE
:1011E00000F0050EC96E010EFFEC00F0C96A010E99
:1011F000FFEC00F0C9CF8AF0010EFFEC00F0828214
:10120000320EF2EC00F0E2D73D2A000E3E22D8A0CA
:101210009FD7496A4A6A1200C0DE8292060EC96EE2
:10122000010EFFEC00F08282010EFFEC00F08292D2
:10123000600EC96E010EFFEC00F08282030E056E97
:10124000E80EF3EC00F08A810400D8968AA1D886D3
:10125000D8B63EEF09F08292050EC96E010EFFEC82
:1012600000F0C96A010EFFEC00F0C9CF8AF082825B
:10127000030E056EE80EF3EC00F0E6D7496A4A6A01
:1012800012003D6A3E6A3DC002F03EC003F0056AAE
:101290000A0E11EC01F0D8A456EF09F08E6B29EC80
:1012A0000AF03D2A000E3E22D8A0EDD712000D0E06
:1012B0008E6F29EC0AF0010EF2EC00F00A0E8E6F30
:1012C00029EC0AF01200806B0400020E805DD8B099
:1012D00028EF0AF0040080510008D8A47BEF09F041
:1012E0008DC002F0036A100E046E056A38EC01F03E
:1012F000816F85EF09F08DC002F0036A100E046E55
:10130000056A38EC01F006C081F004008151000844
:10131000D8A48FEF09F0300E8E6F23EF0AF004008F
:1013200081510108D8A499EF09F0310E8E6F23EF97
:101330000AF0040081510208D8A4A3EF09F0320E8C
:101340008E6F23EF0AF0040081510308D8A4ADEF9B
:1013500009F0330E8E6F23EF0AF004008151040868
:10136000D8A4B7EF09F0340E8E6F23EF0AF0040013
:1013700081510508D8A4C1EF09F0350E8E6F23EF17
:101380000AF0040081510608D8A4CBEF09F0360E0C
:101390008E6F23EF0AF0040081510708D8A4D5EF1F
:1013A00009F0370E8E6F23EF0AF004008151080810
:1013B000D8A4DFEF09F0380E8E6F23EF0AF0040097
:1013C00081510908D8A4E9EF09F0390E8E6F23EF97
:1013D0000AF0040081510A08D8A4F3EF09F0410E85
:1013E0008E6F23EF0AF0040081510B08D8A4FDEFA3
:1013F00009F0420E8E6F23EF0AF0040081510C08B1
:10140000D8A407EF0AF0430E8E6F23EF0AF0040012
:1014100081510D08D8A411EF0AF0440E8E6F23EF0E
:101420000AF0040081510E08D8A41BEF0AF0450E03
:101430008E6F23EF0AF0040081510F08D8A423EF28
:101440000AF0460E8E6F29EC0AF0802BD8A03CD70C
:101450001200949E829E020EFFEC00F05CEC0AF0FB
:101460005CEC0AF05F6A0400080E5F5CD8B04CEFD9
:101470000AF08E0EE96EEA6A5F50000F0DEC00F084
:10148000D8B4829ED8A4828E020EFFEC00F05CECF1
:101490000AF05F2AD8A0E7D7030EFFEC00F0828E97
:1014A000020EFFEC00F05CEC0AF05CEC0AF0948EAB
:1014B000020EFFEC00F012001200A1EF0AF0A2EC05
:1014C0001AF0939E810E1E6E0F0E206E800E1C6E03
:1014D000060E016E100E3AEC00F0400E3AEC00F0F1
:1014E000570E3AEC00F0410E3AEC00F0490E3AEC9F
:1014F00000F0540E3AEC00F0490E3AEC00F04E0EBB
:101500003AEC00F0470E3AEC00F0200E3AEC00F016
:10151000460E3AEC00F04F0E3AEC00F0520E3AEC68
:1015200000F0200E3AEC00F0440E3AEC00F0410ED0
:101530003AEC00F0540E3AEC00F0410E3AEC00F0B8
:10154000938E810E1E6E0F0E206E010E1C6E540EB9
:101550000C6E0D6A100E0E6E270E0F6E79EC00F0F9
:10156000D8A00CEF0EF05A08D8A4F8D71C0E0B6EBA
:10157000F20E126E136ADA6A8F0EB0EC00F0D8A089
:101580000CEF0EF0816B2EEC0EF082C008F0096AB1
:10159000046A100E056E50EC01F0256E07C026F0AF
:1015A000010E816F2EEC0EF082C008F0096A046A09
:1015B000010E056E50EC01F0146E07C015F01450CA
:1015C000252615502622020E816F2EEC0EF082C0C9
:1015D00008F0096A100E046E056A50EC01F0146EF2
:1015E00007C015F01450252615502622030E816FD2
:1015F0002EEC0EF082512526E86A2622040E816F19
:101600002EEC0EF082C008F0096A046A100E056E16
:1016100050EC01F0456E07C046F0050E816F2EECD0
:101620000EF082C008F0096A046A010E056E50ECE3
:1016300001F0146E07C015F01450452615504622CF
:10164000060E816F2EEC0EF082C008F0096A100EB3
:10165000046E056A50EC01F0146E07C015F01450CA
:10166000452615504622070E816F2EEC0EF0825152
:101670004526E86A4622080E816F2EEC0EF082C0E5
:1016800008F0096A046A100E056E50EC01F0726FE2
:1016900007C073F0090E816F2EEC0EF082C008F0C7
:1016A000096A046A010E056E50EC01F0146E07C061
:1016B00015F014507227155073230A0E816F2EEC0B
:1016C0000EF082C008F0096A100E046E056A50EC34
:1016D00001F0146E07C015F01450722715507323D3
:1016E0000B0E816F2EEC0EF082517227E86A732385
:1016F0000C0E816F2EEC0EF082C008F0096A046AAD
:10170000100E056E50EC01F0276E07C028F00D0E8C
:10171000816F2EEC0EF082C008F0096A046A010E97
:10172000056E50EC01F0146E07C015F0145027261A
:10173000155028220E0E816F2EEC0EF082C008F09C
:10174000096A100E046E056A50EC01F0146E07C0B1
:1017500015F014502726155028220F0E816F2EECFD
:101760000EF082512726E86A2822100E816F2EEC97
:101770000EF082C008F0096A046A100E056E50EC83
:1017800001F03B6E07C03CF0110E816F2EEC0EF0A5
:1017900082C008F0096A046A010E056E50EC01F07F
:1017A000146E07C015F014503B2615503C22120E43
:1017B000816F2EEC0EF082C008F0096A100E046EE4
:1017C000056A50EC01F0146E07C015F014503B266A
:1017D00015503C22130E816F2EEC0EF082513B26E9
:1017E000E86A3C22140E816F2EEC0EF082C008F0E5
:1017F000096A046A100E056E50EC01F0236E07C0F2
:1018000024F0150E816F2EEC0EF082C008F0096AEC
:10181000046A010E056E50EC01F0146E07C015F05D
:101820001450232615502422160E816F2EEC0EF034
:1018300082C008F0096A100E046E056A50EC01F0CF
:10184000146E07C015F01450232615502422170ECD
:10185000816F2EEC0EF082512326E86A2422180EA6
:10186000816F2EEC0EF082C008F0096A046A100E37
:10187000056E50EC01F0396E07C03AF0190E816F19
:101880002EEC0EF082C008F0096A046A010E056EA3
:1018900050EC01F0146E07C015F0145039261550A5
:1018A0003A221A0E816F2EEC0EF082C008F0096AFF
:1018B000100E046E056A50EC01F0146E07C015F0AE
:1018C0001450392615503A221B0E816F2EEC0EF063
:1018D00082513926E86A3A22A96AAA6A2550E3ECBD
:1018E00000F02650E3EC00F00A0EF2EC00F0020EDD
:1018F000A96EAA6A4550E3EC00F04650E3EC00F014
:101900000A0EF2EC00F0040EA96EAA6A7251E3EC22
:1019100000F07351E3EC00F00A0EF2EC00F0060E5A
:10192000A96EAA6A2750E3EC00F02850E3EC00F01F
:101930000A0EF2EC00F0080EA96EAA6A3B50E3EC26
:1019400000F03C50E3EC00F00A0EF2EC00F00A0E5E
:10195000A96EAA6A2350E3EC00F02450E3EC00F0F7
:101960000A0EF2EC00F00C0EA96EAA6A3950E3ECF4
:1019700000F03A50E3EC00F00A0EF2EC00F0010E39
:101980003D6E3E6A3DC002F03EC003F0056A040EA3
:1019900011EC01F0D8A4DEEF0CF08280010E056E90
:1019A0005E0EF3EC00F08290010E056E5E0EF3EC1D
:1019B00000F03D2A000E3E22D8A0E4D7809012000D
:1019C000256A266A456A466A726B736B276A286ABB
:1019D0003B6A3C6A236A246A396A3A6AA96AAA6A33
:1019E000DBEC00F0256EDBEC00F0266E0A0EF2EC6C
:1019F00000F0020EA96EAA6ADBEC00F0456EDBEC8B
:101A000000F0466E0A0EF2EC00F0040EA96EAA6A0F
:101A1000DBEC00F0726FDBEC00F0736F0A0EF2EC9F
:101A200000F0060EA96EAA6ADBEC00F0276EDBEC74
:101A300000F0286E0A0EF2EC00F0080EA96EAA6AF9
:101A4000DBEC00F03B6EDBEC00F03C6E0A0EF2ECDF
:101A500000F00A0EA96EAA6ADBEC00F0236EDBEC44
:101A600000F0246E0A0EF2EC00F00C0EA96EAA6AC9
:101A7000DBEC00F0396EDBEC00F03A6E0A0EF2ECB3
:101A800000F0A2EC1AF00268036826C005F02550A9
:101A90001AEC01F0D8A451EF0DF0F40E256E010EF2
:101AA000266E0268036846C005F045501AEC01F046
:101AB000D8A45EEF0DF0320E456E466A02680368E8
:101AC00073C005F072511AEC01F0D8A46BEF0DF061
:101AD0001E0E726F736B0268036828C005F02750F2
:101AE0001AEC01F0D8A478EF0DF0100E276E286ADA
:101AF000026803683CC005F03B501AEC01F0D8A422
:101B000086EF0DF0D00E3B6E070E3C6E0268036848
:101B100024C005F023501AEC01F0D8A493EF0DF087
:101B20005C0E236E246A026803683AC005F03950DF
:101B30001AEC01F0D8A4A0EF0DF05C0E396E3A6AF1
:101B400012003EDF87C08EF029EC0AF0050EFFEC94
:101B500000F026C08EF029EC0AF0050EFFEC00F034
:101B600025C08EF029EC0AF0050EFFEC00F046C00F
:101B70008EF029EC0AF0050EFFEC00F045C08EF067
:101B800029EC0AF0050EFFEC00F073C08EF029EC92
:101B90000AF0050EFFEC00F072C08EF029EC0AF09E
:101BA000050EFFEC00F028C08EF029EC0AF0050EBF
:101BB000FFEC00F027C08EF029EC0AF0050EFFECD8
:101BC00000F03CC08EF029EC0AF0050EFFEC00F0AE
:101BD0003BC08EF029EC0AF0050EFFEC00F024C0AB
:101BE0008EF029EC0AF0050EFFEC00F023C08EF019
:101BF00029EC0AF0050EFFEC00F03AC08EF029EC5B
:101C00000AF0050EFFEC00F039C08EF029EC0AF066
:101C1000050EFFEC00F012008290010E3D6E3E6A50
:101C20003DC002F03EC003F0056A040E11EC01F065
:101C3000D8A42CEF0EF08082010E056E5E0EF3EC40
:101C400000F08092010E056E5E0EF3EC00F03D2A6E
:101C5000000E3E22D8A0E4D780901200146A156AC4
:101C600081518F0FE96E000EEA6AEA22EFCF14F07D
:101C7000300E026E036A15C005F014501AEC01F024
:101C8000D8A446EF0EF0826B25EF0FF0310E026EF6
:101C9000036A15C005F014501AEC01F0D8A455EFF2
:101CA0000EF0010E826F25EF0FF0320E026E036A06
:101CB00015C005F014501AEC01F0D8A464EF0EF032
:101CC000020E826F25EF0FF0330E026E036A15C00D
:101CD00005F014501AEC01F0D8A473EF0EF0030EC7
:101CE000826F25EF0FF0340E026E036A15C005F007
:101CF00014501AEC01F0D8A482EF0EF0040E826F9B
:101D000025EF0FF0350E026E036A15C005F0145072
:101D10001AEC01F0D8A491EF0EF0050E826F25EFBA
:101D20000FF0360E026E036A15C005F014501AEC5F
:101D300001F0D8A4A0EF0EF0060E826F25EF0FF091
:101D4000370E026E036A15C005F014501AEC01F04C
:101D5000D8A4AFEF0EF0070E826F25EF0FF0380E0C
:101D6000026E036A15C005F014501AEC01F0D8A4F5
:101D7000BEEF0EF0080E826F25EF0FF0390E026EE7
:101D8000036A15C005F014501AEC01F0D8A4CDEF89
:101D90000EF0090E826F25EF0FF0410E026E036AFE
:101DA00015C005F014501AEC01F0D8A4DCEF0EF0C9
:101DB0000A0E826F25EF0FF0420E026E036A15C005
:101DC00005F014501AEC01F0D8A4EBEF0EF00B0E56
:101DD000826F25EF0FF0430E026E036A15C005F007
:101DE00014501AEC01F0D8A4FAEF0EF00C0E826F2A
:101DF00025EF0FF0440E026E036A15C005F0145073
:101E00001AEC01F0D8A409EF0FF00D0E826F25EF48
:101E10000FF0450E026E036A15C005F014501AEC5F
:101E200001F0D8A418EF0FF00E0E826F25EF0FF01F
:101E3000460E026E036A15C005F014501AEC01F04C
:101E4000D8A425EF0FF00F0E826F1200FAEC10F0FD
:101E5000F40E496E010E4A6E49C002F04AC003F00A
:101E6000056AF80E0DEC01F0D8A4F3EF0FF049501D
:101E7000AB0FE96E000E4A20EA6EEFCF14F014505B
:101E8000FF08D8A4E868FF0A146E4928166E000EF1
:101E90004A20176E1650AB0FE96E000E1720EA6E3F
:101EA000EFCF16F01650FF08D8A4E868FF0A166EA8
:101EB00014C002F016502CEC01F0166E176E020ED4
:101EC0004924186E000E4A20196E1850AB0FE96EA7
:101ED000000E1920EA6EEFCF18F01850FF08D8A4B2
:101EE000E868FF0A186E16501710026E18502CEC96
:101EF00001F0186E196E030E49241A6E000E4A2066
:101F00001B6E1A50AB0FE96E000E1B20EA6EEFCF6E
:101F10001AF01A50FF08D8A4E868FF0A1A6E185081
:101F20001910026E1A502CEC01F01A6E1B6E040090
:101F30001A501B10D8B4BAEF0FF049C002F04AC0D3
:101F400003F0056A030E14EC01F0D8A4AEEF0FF015
:101F5000040E495E000E4A5AB7EF0FF0786B796BAA
:101F60007A6B020E7B6F496A4A6ABBEF10F074D736
:101F7000F1EF0FF04950AB0FE96E000E4A20EA6E08
:101F8000EFCF79F04928146E000E4A20156E1450D8
:101F9000AB0FE96E000E1520EA6EEFCF78F0020E5F
:101FA0004924146E000E4A20156E1450AB0FE96ED2
:101FB000000E1520EA6EEFCF7BF0030E4924146E5D
:101FC000000E4A20156E1450AB0FE96E000E15205E
:101FD000EA6EEFCF7AF0040E4926000E4A22BBEFDC
:101FE00010F0BBEF10F0FC0E495C146E000E4A5866
:101FF000156E1450A70FE96E010E1520EA6EEFCF93
:1020000014F01450FF08D8A4E868FF0A146E492899
:10201000166E000E4A20176EFC0E165E000E175A42
:102020001650A70FE96E010E1720EA6EEFCF16F0DB
:102030001650FF08D8A4E868FF0A166E14C002F014
:1020400016502CEC01F0166E176E020E4924186E15
:10205000000E4A20196EFC0E185E000E195A185018
:10206000A70FE96E010E1920EA6EEFCF18F0185095
:10207000FF08D8A4E868FF0A186E16501710026E01
:1020800018502CEC01F0186E196E030E49241A6ECC
:10209000000E4A201B6EFC0E1A5E000E1B5A1A50D0
:1020A000A70FE96E010E1B20EA6EEFCF1AF01A504F
:1020B000FF08D8A4E868FF0A1A6E18501910026EBB
:1020C0001A502CEC01F01A6E1B6E04001A501B10F3
:1020D000D8B472EF10F0040E495E000E4A5ABCD616
:1020E000BBEF10F0FC0E495C146E000E4A58156EE2
:1020F0001450A70FE96E010E1520EA6EEFCF79F0AC
:102100004928146E000E4A20156EFC0E145E000E57
:10211000155A1450A70FE96E010E1520EA6EEFCF85
:1021200078F0020E4924146E000E4A20156EFC0E43
:10213000145E000E155A1450A70FE96E010E1520FB
:10214000EA6EEFCF7BF0030E4924146E000E4A2096
:10215000156EFC0E145E000E155A1450A70FE96E92
:10216000010E1520EA6EEFCF7AF0040E4926000E1C
:102170004A22BBEF10F01200CDEC07F08292060E5F
:10218000C96E010EFFEC00F08282010EFFEC00F040
:102190008292120EC96E010EFFEC00F0C96A010EA8
:1021A000FFEC00F0C96A010EFFEC00F04AC0C9FF65
:1021B000010EFFEC00F049C0C9FF010EFFEC00F07A
:1021C00079C0C9FF010EFFEC00F078C0C9FF010E15
:1021D000FFEC00F07BC0C9FF010EFFEC00F07AC0FD
:1021E000C9FF010EFFEC00F08282040E4926000EAA
:1021F0004A221200CDEC07F08292130EC96E010E36
:10220000FFEC00F0C96A010EFFEC00F0C96A010E94
:10221000FFEC00F0C96A010EFFEC00F0C96A010E84
:10222000FFEC00F03D6A3E6A3DC002F03EC003F0A4
:10223000056AFB0E11EC01F0D8A430EF11F0C96A69
:10224000010EFFEC00F03D50AB0FE96E000E3E209A
:10225000EA6EC9CFEFFF3D2A000E3E22D8A0E4D798
:102260003D6A3E6A3DC002F03EC003F0056AFB0EC7
:1022700011EC01F0D8A44EEF11F0C96A010EFFEC89
:1022800000F03D50A70FE96E010E3E20EA6EC9CF67
:10229000EFFF3D2A000E3E22D8A0E4D78282120032
:1022A000A9DF3D6A3E6A3DC002F03EC003F0056A08
:1022B000FB0E11EC01F0D8A46DEF11F03D50AB0F07
:1022C000E96E000E3E20EA6EEFCF8DF063EC09F070
:1022D0003D2A000E3E22D8A0E6D73D6A3E6A3DC0A8
:1022E00002F03EC003F0056AFB0E11EC01F0D8A429
:1022F00089EF11F03D50A70FE96E010E3E20EA6E06
:10230000EFCF8DF063EC09F03D2A000E3E22D8A0FD
:10231000E6D757EC09F0120026EC0FF06C6B6D6BF2
:102320006E6B020E6F6F026A036A4AC005F0495075
:102330001AEC01F0D8A409EF12F0E7EF11F0A2ECCB
:102340001AF0939E810E1E6E0F0E206E800E1C6E74
:10235000060E016E100E3AEC00F0540E3AEC00F04E
:102360004E0E3AEC00F04F0E3AEC00F0200E3AEC34
:1023700000F0540E3AEC00F0450E3AEC00F0530E2B
:102380003AEC00F0540E3AEC00F0200E3AEC00F07B
:10239000440E3AEC00F0410E3AEC00F0540E3AECE8
:1023A00000F0410E3AEC00F0200E3AEC00F0460E40
:1023B0003AEC00F04F0E3AEC00F0550E3AEC00F01B
:1023C0004E0E3AEC00F0440E3AEC00F0938E010E03
:1023D000436E446A43C002F044C003F0056A050E30
:1023E00011EC01F0D8A406EF12F08082010E056E08
:1023F000F40EF3EC00F08092010E056EF40EF3EC97
:1024000000F0432A000E4422D8A0E4D7809024EFA5
:1024100014F0010E3D6E3E6A3DC002F03EC003F076
:10242000056A320E11EC01F0D8A41FEF12F08E6B8A
:1024300029EC0AF03D2A000E3E22D8A0EDD749C073
:1024400002F04AC003F0040E046E056A38EC01F095
:10245000876F3EEF12F0939E810E1E6E0F0E206E60
:10246000800E1C6E060E016E100E3AEC00F0680E27
:102470003AEC00F087511BEC00F0938EA1EC0DF0CC
:10248000496A4A6AB7DE010E746F756B74C002F058
:1024900075C003F0875110EC01F0D8A424EF14F0BC
:1024A000026A036A4AC005F049501AEC01F0D8A448
:1024B00092EF12F06C6B6D6B6E6B020E6F6F49508A
:1024C000AB0FE96E000E4A20EA6EEFCF30F04928DC
:1024D000146E000E4A20156E1450AB0FE96E000EFC
:1024E0001520EA6EEFCF2FF0020E4924146E000E75
:1024F0004A20156E1450AB0FE96E000E1520EA6EDF
:10250000EFCF32F0030E4924146E000E4A20156EF0
:102510001450AB0FE96E000E1520EA6EEFCF31F0CC
:102520006FEF13F049C002F04AC003F0056AF80EDD
:1025300011EC01F0D8A407EF13F0040E495C146EFF
:10254000000E4A58156E1450AB0FE96E000E1520A0
:10255000EA6EEFCF6DF0030E495C146E000E4A5820
:10256000156E1450AB0FE96E000E1520EA6EEFCF1A
:102570006CF0020E495C146E000E4A58156E145031
:10258000AB0FE96E000E1520EA6EEFCF6FF0490435
:10259000146E000E4A58156E1450AB0FE96E000E03
:1025A0001520EA6EEFCF6EF04950AB0FE96E000ECA
:1025B0004A20EA6EEFCF30F04928146E000E4A2010
:1025C000156E1450AB0FE96E000E1520EA6EEFCFBA
:1025D0002FF0020E4924146E000E4A20156E14507E
:1025E000AB0FE96E000E1520EA6EEFCF32F0030E4E
:1025F0004924146E000E4A20156E1450AB0FE96E7C
:10260000000E1520EA6EEFCF31F06FEF13F0040EDD
:10261000495C146E000E4A58156E1450A70FE96EEF
:10262000010E1520EA6EEFCF6DF0030E495C146EBB
:10263000000E4A58156E1450A70FE96E010E1520B2
:10264000EA6EEFCF6CF0020E495C146E000E4A5831
:10265000156E1450A70FE96E010E1520EA6EEFCF2C
:102660006FF04904146E000E4A58156E1450A70FEF
:10267000E96E010E1520EA6EEFCF6EF04950A70FFC
:10268000E96E010E4A20EA6EEFCF30F04928146E51
:10269000000E4A20156E1450A70FE96E010E15208A
:1026A000EA6EEFCF2FF0020E4924146E000E4A207E
:1026B000156E1450A70FE96E010E1520EA6EEFCFCC
:1026C00032F0030E4924146E000E4A20156E145089
:1026D000A70FE96E010E1520EA6EEFCF31F090EFF3
:1026E00013F0A2EC1AF0939E810E1E6E0F0E206E58
:1026F000800E1C6E060E016E100E3AEC00F0680E95
:102700003AEC00F06DC007F06C511CEC00F02C0EA0
:102710003AEC00F06FC007F06E511CEC00F0938EA5
:102720003D6A3E6A3DC002F03EC003F0056A090EF4
:1027300011EC01F0D8A4A6EF13F03DC08EF029EC07
:102740000AF03D2A000E3E22D8A0ECD76CC002F061
:102750006DC003F030C005F02F5017EC01F0146E7F
:102760006EC002F06FC003F032C005F0315017ECBC
:1027700001F0166E14C002F0165033EC01F0166E24
:10278000176E040016501710D8B40FEF14F0F9ECC0
:1027900007F03D6A3E6A3DC002F03EC003F0056AA4
:1027A000FB0E11EC01F0D8A4E5EF13F03D50A30FA0
:1027B000E96E020E3E20EA6EEFCF8EF029EC0AF0B1
:1027C0003D2A000E3E22D8A0E6D7E86A81BAE86822
:1027D000146EE86A82B4E868166E14501610D8A415
:1027E00024EF14F03D6A3E6A3DC002F03EC003F0A3
:1027F000056AFB0E11EC01F0D8A40EEF14F03D5069
:102800009F0FE96E030E3E20EA6EEFCF8EF029ECAB
:102810000AF03D2A000E3E22D8A0E6D797D7040E34
:102820004926000E4A22090E3D6E3E6A3DC08EF0DA
:1028300029EC0AF03D06000E3E5AD8B0F7D7742BAB
:10284000000E7523D8A022D6809012008280020E3E
:10285000056EEE0EF3EC00F08290FA0EF2EC00F052
:102860008082020E056EEE0EF3EC00F08092FA0EFE
:10287000F2EC00F08080020E056EEE0EF3EC00F03C
:102880008090FA0EF2EC00F012003C0E026E036A29
:1028900026C005F025501AEC01F0D8A458EF14F02A
:1028A000810E8B6F950E766F810E776FD3EF14F0DC
:1028B000780E026E036A26C005F025501AEC01F06E
:1028C000D8A46BEF14F0800E8B6FFD0E766F800E28
:1028D000776FD3EF14F0F00E026E036A26C005F096
:1028E00025501AEC01F0D8A47EEF14F0800E8B6F07
:1028F000D70E766F3F0E776FD3EF14F0E00E026EB7
:10290000010E036E26C005F025501AEC01F0D8A484
:1029100092EF14F0800E8B6F550E766F1F0E776F4F
:10292000D3EF14F0F40E026E010E036E26C005F014
:1029300025501AEC01F0D8A4A5EF14F0800E8B6F8F
:1029400076691D0E776FD3EF14F0C00E026E030E82
:10295000036E26C005F025501AEC01F0D8A4B9EF9B
:1029600014F0800E8B6F080E766F0F0E776FD3EF1B
:1029700014F0E80E026E030E036E26C005F025501B
:102980001AEC01F0D8A4CDEF14F0800E8B6F690E15
:10299000766F0E0E776FD3EF14F0800E8B6FFD0EF7
:1029A000766F800E776F7651FF08146EFF0E7755A5
:1029B000156E14C002F015C003F0046A010E056E16
:1029C00038EC01F0D76E7651FF08146EFF0E775584
:1029D000156E14C002F015C003F0046A010E056EF6
:1029E00038EC01F006C0D6FFF2941200D56AF294DA
:1029F00012004BDF040022B6FFEF14F027DF8090B7
:102A000082908082896BF28E04D0F2BE1200AAEF0F
:102A100015F0FBDFA00EF26EF8DF010E686F696B38
:102A2000F4DF010E666F676BF0DF2290EEDF949E9D
:102A3000ECDF8BC0D5FFE9DF2284E7DF040022A6AC
:102A400048EF15F0E2DF040022A646EF15F0DDDFC7
:102A500066C002F067C003F026C005F0255011ECF7
:102A600001F0D8A43FEF15F0D0DF040022B63DEF0F
:102A700015F0CBDF73EF15F0C8DFC7DFE9D7010E24
:102A8000666F676B682B000E6923DDD773EF15F057
:102A900068C002F069C003F073C005F0725111EC18
:102AA00001F0D8A473EF15F0B0DF66C002F067C084
:102AB00003F026C005F0255011EC01F0D8A46CEF0E
:102AC00015F0A3DF040022A06AEF15F09EDF73EF7C
:102AD00015F09BDF9ADFE9D7010E666F676B682BF5
:102AE000000E6923D5D782DF948E7AC002F07BC0B6
:102AF00003F0046A020E056E38EC01F006C014F013
:102B000007C015F01450FF08296E010E15542A6EE7
:102B100029507A272A507B23026803687BC005F07E
:102B20007A511AEC01F0D8A49DEF15F07A6B7B6B0B
:102B3000782B000E7923A0EF15F07A2B000E7B2363
:102B40000A0EF2EC00F0BCEC10F00A0EF2EC00F011
:102B5000809212007651FF08146EFF0E7755156EA5
:102B600014C002F015C003F0046A010E056E38ECC3
:102B700001F0D76E7651FF08146EFF0E7755156E73
:102B800014C002F015C003F0046A010E056E38ECA3
:102B900001F006C0D6FFF294E86A80BAE868146EC5
:102BA00068C002F069C003F0056A020E11EC01F082
:102BB000166E14C002F016502CEC01F0166E176E53
:102BC000040016501710D8B4E7EF15F02296E86A03
:102BD00082B4E868146E68C002F069C003F0056A48
:102BE000020E11EC01F0166E14C002F016502CEC1F
:102BF00001F0166E176E040016501710D8B402EFCD
:102C000016F02280E86A81BAE868146E68C002F0A3
:102C100069C003F0056A020E11EC01F0166E14C0D3
:102C200002F016502CEC01F0166E176E04001650D0
:102C30001710D8B41DEF16F02280E86A22B2E868B7
:102C4000146EE86A22B4E868166E14C002F01650DA
:102C50002CEC01F0166E176E040016501710D8B445
:102C6000A1EF1AF0828E25C002F026C003F045C005
:102C700004F046C005F038EC01F0146E03C015F006
:102C800066C002F067C003F014C004F015C005F080
:102C900038EC01F006C014F007C015F014C002F0C3
:102CA00015C003F0056A010E0AEC01F0146E25C090
:102CB00002F026C003F046C005F045500AEC01F0D2
:102CC000166E14C002F0165033EC01F0166E176E3B
:102CD000040016501710D8B4F1EF18F06B80040000
:102CE0006BA074EF16F0FBD7D00E6F6E04006DA0D2
:102CF0007BEF16F0FBD7020EFFEC00F03B0E6F6E81
:102D000004006DA085EF16F0FBD7020EFFEC00F07B
:102D10006B8004006BA08EEF16F0FBD7D10E6F6EA8
:102D200004006DA095EF16F0FBD7020EFFEC00F04B
:102D30006B8604006DB09EEF16F0FBD76B886B9A24
:102D40006FCF4CF0050EFFEC00F06B8604006DB009
:102D5000ABEF16F0FBD76B886B9A6FCF4BF0050E7D
:102D6000FFEC00F06B8604006DB0B8EF16F0FBD7F7
:102D70006B886B9A6FCF4EF0050EFFEC00F06B8600
:102D800004006DB0C5EF16F0FBD76B886B9A6FCF60
:102D90004DF0050EFFEC00F06B8604006DB0D2EF35
:102DA00016F0FBD76B886B9A6FCF50F0050EFFECD7
:102DB00000F06B8604006DB0DFEF16F0FBD76B8878
:102DC0006B8A6FCF4FF0030EFFEC00F06B840400B2
:102DD0006BA4ECEF16F0FBD7030EFFEC00F06B805A
:102DE00004006BA0F5EF16F0FBD7D00E6F6E040059
:102DF0006DA0FCEF16F0FBD7020EFFEC00F0430EC7
:102E00006F6E04006DA006EF17F0FBD7020EFFEC0B
:102E100000F06B8004006BA00FEF17F0FBD7D10E12
:102E20006F6E04006DA016EF17F0FBD7020EFFECDB
:102E300000F06B8604006DB01FEF17F0FBD76B88B6
:102E40006B9A6FCF52F0050EFFEC00F06B8604001A
:102E50006DB02CEF17F0FBD76B886B9A6FCF51F0EA
:102E6000050EFFEC00F06B8604006DB039EF17F033
:102E7000FBD76B886B9A6FCF54F0050EFFEC00F018
:102E80006B8604006DB046EF17F0FBD76B886B9A2A
:102E90006FCF53F0050EFFEC00F06B8604006DB0B1
:102EA00053EF17F0FBD76B886B9A6FCF56F0050E78
:102EB000FFEC00F06B8604006DB060EF17F0FBD7FD
:102EC0006B886B8A6FCF55F0030EFFEC00F06B84BC
:102ED00004006BA46DEF17F0FBD7030EFFEC00F0BE
:102EE0006B8004006BA076EF17F0FBD7180E6F6EA7
:102EF00004006DA07DEF17F0FBD7020EFFEC00F091
:102F0000030E6F6E04006DA087EF17F0FBD7020E63
:102F1000FFEC00F06B8004006BA090EF17F0FBD784
:102F2000190E6F6E04006DA097EF17F0FBD7020E1D
:102F3000FFEC00F06B8604006DB0A0EF17F0FBD73C
:102F40006B886B9A6FCF57F0050EFFEC00F06B8625
:102F500004006DB0ADEF17F0FBD76B886B9A6FCFA5
:102F600058F0050EFFEC00F06B8604006DB0BAEF70
:102F700017F0FBD76B886B9A6FCF59F0050EFFECFB
:102F800000F06B8604006DB0C7EF17F0FBD76B88BD
:102F90006B9A6FCF5AF0050EFFEC00F06B860400C1
:102FA0006DB0D4EF17F0FBD76B886B9A6FCF5BF0E7
:102FB000050EFFEC00F06B8604006DB0E1EF17F03A
:102FC000FBD76B886B8A6FCF5CF0030EFFEC00F0D1
:102FD0006B8404006BA4EEEF17F0FBD7030EFFEC3D
:102FE00000F0180E856F0A0E846F110E836F6B80D0
:102FF00004006BA0FDEF17F0FBD785C06FFF040046
:103000006DA004EF18F0FBD7020EFFEC00F084C0B7
:103010006FFF04006DA00EEF18F0FBD7020EFFEC5F
:1030200000F083C06FFF010EFFEC00F004006DA004
:103030001BEF18F0FBD7020EFFEC00F06B840400CE
:103040006BA424EF18F0FBD7030EFFEC00F0829284
:10305000060EC96E010EFFEC00F08282010EFFEC3D
:1030600000F08292120EC96E010EFFEC00F079C0E2
:10307000C9FF010EFFEC00F078C0C9FF010EFFECA4
:1030800000F07BC0C9FF010EFFEC00F07AC0C9FF61
:10309000010EFFEC00F04CC0C9FF010EFFEC00F088
:1030A0004BC0C9FF010EFFEC00F04EC0C9FF010E7E
:1030B000FFEC00F04DC0C9FF010EFFEC00F050C066
:1030C000C9FF010EFFEC00F04FC0C9FF010EFFEC7D
:1030D00000F052C0C9FF010EFFEC00F051C0C9FF63
:1030E000010EFFEC00F054C0C9FF010EFFEC00F030
:1030F00053C0C9FF010EFFEC00F056C0C9FF010E1E
:10310000FFEC00F055C0C9FF010EFFEC00F058C005
:10311000C9FF010EFFEC00F057C0C9FF010EFFEC24
:1031200000F05AC0C9FF010EFFEC00F059C0C9FF02
:10313000010EFFEC00F05CC0C9FF010EFFEC00F0D7
:103140005BC0C9FF010EFFEC00F08282120E7A25EF
:10315000146E000E7B21156EF80E026E036815C00A
:1031600005F014501AEC01F0D8A4BEEF18F0782B3B
:10317000000E79237A6B7B6BEFEF18F0120E7A2535
:10318000146E000E7B21156E14C002F015C003F002
:10319000046A020E056E38EC01F006C014F007C098
:1031A00015F0F80E026E010E036E15C005F01450F6
:1031B0001AEC01F0D8A4EBEF18F0080E7A25146E83
:1031C000000E7B21156E120E14247A6F000E15204E
:1031D0007B6FEFEF18F0120E7A27000E7B239DEF26
:1031E0001AF06B8004006BA0F7EF18F0FBD7D00E3D
:1031F0006F6E04006DA0FEEF18F0FBD7020EFFEC1F
:1032000000F03B0E6F6E04006DA008EF19F0FBD7C5
:10321000020EFFEC00F06B8004006BA011EF19F0C0
:10322000FBD7D10E6F6E04006DA018EF19F0FBD71D
:10323000020EFFEC00F06B8604006DB021EF19F078
:10324000FBD76B886B9A6FCF4CF0050EFFEC00F04C
:103250006B8604006DB02EEF19F0FBD76B886B9A6C
:103260006FCF4BF0050EFFEC00F06B8604006DB0E5
:103270003BEF19F0FBD76B886B9A6FCF4EF0050EC2
:10328000FFEC00F06B8604006DB048EF19F0FBD73F
:103290006B886B9A6FCF4DF0050EFFEC00F06B86DC
:1032A00004006DB055EF19F0FBD76B886B9A6FCFA8
:1032B00050F0050EFFEC00F06B8604006DB062EF7D
:1032C00019F0FBD76B886B8A6FCF4FF0030EFFECC2
:1032D00000F06B8404006BA46FEF19F0FBD7030EB2
:1032E000FFEC00F06B8004006BA078EF19F0FBD7C7
:1032F000D00E6F6E04006DA07FEF19F0FBD7020EA9
:10330000FFEC00F0430E6F6E04006DA089EF19F022
:10331000FBD7020EFFEC00F06B8004006BA092EF75
:1033200019F0FBD7D10E6F6E04006DA099EF19F064
:10333000FBD7020EFFEC00F06B8604006DB0A2EF2D
:1033400019F0FBD76B886B9A6FCF52F0050EFFEC2C
:1033500000F06B8604006DB0AFEF19F0FBD76B88FF
:103360006B9A6FCF51F0050EFFEC00F06B860400F6
:103370006DB0BCEF19F0FBD76B886B9A6FCF54F030
:10338000050EFFEC00F06B8604006DB0C9EF19F07C
:10339000FBD76B886B9A6FCF53F0050EFFEC00F0F4
:1033A0006B8604006DB0D6EF19F0FBD76B886B9A73
:1033B0006FCF56F0050EFFEC00F06B8604006DB089
:1033C000E3EF19F0FBD76B886B8A6FCF55F0030ED4
:1033D000FFEC00F06B8404006BA4F0EF19F0FBD756
:1033E000030EFFEC00F08292060EC96E010EFFEC98
:1033F00000F08282010EFFEC00F08292120EC96E84
:10340000010EFFEC00F079C0C9FF010EFFEC00F0E7
:1034100078C0C9FF010EFFEC00F07BC0C9FF010EB0
:10342000FFEC00F07AC0C9FF010EFFEC00F04CC0C9
:10343000C9FF010EFFEC00F04BC0C9FF010EFFEC0D
:1034400000F04EC0C9FF010EFFEC00F04DC0C9FFF7
:10345000010EFFEC00F050C0C9FF010EFFEC00F0C0
:103460004FC0C9FF010EFFEC00F052C0C9FF010EB2
:10347000FFEC00F051C0C9FF010EFFEC00F054C09A
:10348000C9FF010EFFEC00F053C0C9FF010EFFECB5
:1034900000F056C0C9FF010EFFEC00F055C0C9FF97
:1034A000010EFFEC00F082820C0E7A25146E000EE5
:1034B0007B21156EF80E026E036815C005F01450DE
:1034C0001AEC01F0D8A46CEF1AF0782B000E7923D7
:1034D0007A6B7B6B9DEF1AF00C0E7A25146E000E42
:1034E0007B21156E14C002F015C003F0046A020EB1
:1034F000056E38EC01F006C014F007C015F0F80EA8
:10350000026E010E036E15C005F014501AEC01F0A6
:10351000D8A499EF1AF0080E7A25146E000E7B21BC
:10352000156E0C0E14247A6F000E15207B6F9DEF24
:103530001AF00C0E7A27000E7B23829E662B000E5B
:103540006723100005EC15F0BEEF1AF005EC15F03E
:10355000939E05EC15F0810E1E6E0F0E206E800EF0
:103560001C6E060E016E0C0E3AEC00F005EC15F028
:10357000938E05EC15F00A0EF2EC00F005EC15F058
:10358000120005EC15F0939E05EC15F0810E1E6EF1
:103590000F0E206E800E1C6E060E016E0E0E3AECA3
:1035A00000F005EC15F0938E05EC15F0120005EC1B
:1035B00015F0939E05EC15F0810E1E6E0F0E206E19
:1035C000800E1C6E060E016E0F0E3AEC00F005EC3C
:1035D00015F0938E05EC15F0120005EC15F0939E96
:1035E00005EC15F0810E1E6E0F0E206E800E1C6E07
:1035F000060E016E100E3AEC00F0400E3AEC00F0B0
:1036000005EC15F0938E05EC15F0120005EC15F0A5
:10361000939E05EC15F0810E1E6E0F0E206E800E2F
:103620001C6E060E016E100E3AEC00F0540E3AECD1
:1036300000F005EC15F0938E05EC15F0120005EC8A
:1036400015F0939E05EC15F0810E1E6E0F0E206E88
:10365000800E1C6E060E016E100E3AEC00F0680E25
:103660003AEC00F005EC15F0938E05EC15F0120025
:1036700005EC15F0939E05EC15F0810E1E6E0F0EF5
:10368000206E800E1C6E060E016E100E3AEC00F0DD
:103690007C0E3AEC00F005EC15F0938E05EC15F07D
:0236A000120016
:020000040030CA
:03000100081F3F96
:02000500BD81BB
:060008000FC00FE00F40E5
:00000001FF
