:020000040000FA
:100000005CEF00F0086E18C0EAFF18C0E2FF16505F
:10001000E96E120FE16E090E096ED89007D808320A
:10002000092EFCD7D88002D859EF00F001A60BD0DA
:10003000EF50141001A41418EF6EE7501410D8A05C
:100040001418E76E0AD0EF501410D8A0141801B499
:100050001418EF6E141CE71600D00134060B7A0F4B
:10006000F66EF76A000EF722F86A0900F550036E83
:100070000800F55000004FEF00F0019D033D0064C3
:100080000D01056A046EE86A0406055AD8A059EF06
:1000900000F0030E036EE70E02D8F5D7036AFD0FDA
:1000A000026E01D00206040000D0E86A035AFAE2A8
:1000B0001200000104001200E80ED36E800ED26E12
:1000C000400E9B6EF26A616A0F01386B396B3A6BB6
:1000D000010E966E0001928A94849488948C948E7A
:1000E00093809382938493869388938A929092923A
:1000F00092949490929694929496949A80908092EE
:1001000080948290809682928296829A640E1C6E6F
:100110001D6A2C0E1A6E010E1B6E010E056EF40E7A
:10012000B1DF8082030E056EE80EACDF8092800E98
:10013000166E0F0E186E080E146E060E016E0C0E63
:1001400061DF0A0E9EDF800E166E0F0E186E080E0F
:10015000146E060E016E0C0E55DF0E0E53DF800E70
:10016000166E0F0E186E080E146E060E016E100E2F
:1001700049DF400E47DF4D0E45DF500E43DF550E81
:1001800041DF2D0E3FDF350E3DDF780E3BDF800E69
:10019000166E0F0E186E080E146E060E016E100EFF
:1001A00031DF540E2FDF520E2DDF650E2BDF630E75
:1001B00029DF650E27DF690E25DF760E23DF650E4A
:1001C00021DF720E1FDF800E166E0F0E186E080EE6
:1001D000146E060E016E100E15DF680E13DF4D0E45
:1001E00011DF4F0E0FDF4D0E0DDF450E0BDF4E0EF4
:1001F00009DF540E07DF410E05DF520E03DF590EF3
:1002000001DF200EFFDE4D0EFDDE6F0EFBDE640E05
:10021000F9DE650EF7DE2D0EF5DE310EF3DE800E13
:10022000166E0F0E186E080E146E060E016E100E6E
:10023000E9DE7C0EE7DE330EE5DE2F0EE3DE320E66
:10024000E1DE350EDFDE2F0EDDDE320EDBDE300EC0
:10025000D9DE310ED7DE380ED5DE200ED3DE200EED
:10026000D1DE200ECFDE200ECDDE200ECBDE280E1E
:10027000C9DE650EC7DE6C0EC5DE630EC3DE290E59
:10028000C1DE82968290040081BA49EF01F003003A
:10029000F9D78280800E166E0F0E186E080E146E3F
:1002A000060E016E0C0EAEDE0A0EEBDE800E166E32
:1002B0000F0E186E080E146E060E016E100EA2DEE2
:1002C000400EA0DE500E9EDE720E9CDE650E9ADEA3
:1002D000730E98DE730E96DE200E94DE500E92DEC4
:1002E000420E90DE200E8EDE740E8CDE6F0E8ADEE5
:1002F000200E88DE500E86DE520E84DE4F0E82DE29
:10030000470E80DE520E7EDE410E7CDE4D0E7ADE22
:100310008296030E056EE80EB5DE040081BA93EFF7
:1003200001F00300FAD782908082800E166E0F0EC5
:10033000186E080E146E060E016E0C0E63DE0A0EA9
:10034000A0DE800E166E0F0E186E080E146E060ECE
:10035000016E100E57DE400E55DE500E53DE520E6B
:1003600051DE4F0E4FDE470E4DDE520E4BDE410E7C
:1003700049DE4D0E47DE4D0E45DE490E43DE4E0E84
:1003800041DE470E3FDE200E3DDE520E3BDE650EA7
:1003900039DE630E37DE650E35DE690E33DE760E2E
:1003A00031DE650E2FDE720E2DDE8296949C828CDD
:1003B0001DC005F01C5066DE948C1BC005F01A5061
:1003C00061DE80928080800E166E0F0E186E080E11
:1003D000146E060E016E0C0E15DE0A0E52DE800E35
:1003E000166E0F0E186E080E146E060E016E100EAD
:1003F00009DE400E07DE570E05DE610E03DE690ED4
:1004000001DE740E02EC00F0690E02EC00F06E0EDC
:1004100002EC00F0670E02EC00F0200E02EC00F09F
:10042000660E02EC00F06F0E02EC00F0720E02ECB1
:1004300000F0200E02EC00F0580E02EC00F04D0E21
:1004400002EC00F0540E02EC00F0520E02EC00F050
:100450008296270E056E100E15DE82908092809097
:10046000800E166E0F0E186E080E146E060E016EBC
:100470000C0E02EC00F00A0E04DE800E166E0F0E5B
:10048000186E080E146E060E016E100E02EC00F0CF
:10049000400E02EC00F0540E02EC00F0650E02EC8F
:1004A00000F0730E02EC00F0740E02EC00F0200E6F
:1004B00002EC00F0580E02EC00F04D0E02EC00F0E1
:1004C000540E02EC00F0520E02EC00F0200E02EC92
:1004D00000F0260E02EC00F0200E02EC00F0520EAE
:1004E00002EC00F0430E02EC00F0560E02EC00F0BD
:1004F000520E02EC00F0040080BA83EF02F080821A
:10050000829085EF02F080928280F5D70400FED7BA
:020000040030CA
:03000100081F3F96
:02000500BD81BB
:060008000FC00FE00F40E5
:00000001FF
