:020000040000FA
:04000000F4EF01F028
:020008001200E4
:0800180012000A6EF80BE8303B
:10002000E830E830E926D8B0EA2A4EEC01F00A6E52
:10003000EF14F1EF01F0076A066E018E270E056ED0
:10004000100E0CD8030E056EE80E08D8056A640E73
:1000500005D8056A0A0E02D806500BD0046E075068
:10006000036E0650026EB5EC01F0E866019E01BE1B
:100070001200300F086E20C0EAFF20C0E2FF1E50C1
:10008000E96E120FE16E090E096ED89007D808329A
:10009000092EFCD7D88002D8F1EF01F001A60BD0D1
:1000A000EF501C1001A41C18EF6EE7501C10D8A0D4
:1000B0001C18E76E0AD0EF501C10D8A01C1801B411
:1000C0001C18EF6E1C1CE71600D00134060BEA0F5B
:1000D000F66EF76A000EF722F86A0900F550036E13
:1000E0000800F55000007DEF01F0019D033D006424
:1000F0000D0120C0EAFF1EC0E9FF040014D8FDE294
:1001000095D80A6A080E056E92D80DD8D8B00A3E66
:100110000432052EF9D70DAA0A6A0DBA049E87D8B3
:10012000D88004501200120EE9261C50EF121EC097
:10013000E9FFEF140DBC1C18FF0F1200D96E0B065F
:1001400002E2F1EF01F0EBEC01F0DE6EF8D7066AA7
:10015000076A019AEBEC01F0D30FD8B4018A2D0F96
:10016000C60F03E20A0FF6E305D0F30FF3E2060F22
:10017000F1E30A0F046E040E056E0438E834063607
:100180000736052EFBD70B4E0DD0EBEC01F0C60F5A
:1001900003E20A0F07E3EED7F30F04E2060F02E3D0
:1001A0000A0FE8D701AA03D0E86A066C0756065082
:1001B000F1EF01F0E950086E20C0EAFF20C0E2FF35
:1001C0001E50E96E120FE16E800E0116080E096EC8
:1001D000D890D8B0013E13D80832092EFAD70000C3
:1001E0000DBA01300CD8F2EC01F0D88008D81150CB
:1001F000056E105070EC01F0D880F1EF01F00DAEFB
:100200000BD0EF501C100DAC1C18EF6EE7501C10FB
:10021000D8A01C18E76E0BD0EF501C10D8A01C18EB
:100220000DBC1C18EF6E1C1CE71601D0018C0D5084
:100230001F0B000F036E0C50100FD8B0032A01AC37
:100240007DEF01F0019CD8900332E830D890033262
:10025000E8307DEF01F0019E0B50D8B4018E040E02
:100260000A6E073805D8075003D8063801D806505B
:100270000F0BF60FD8B0070F0A0F00D0026E0A4E10
:10028000019E0B5003E00A5CD8B012000250D8A4C3
:10029000019E01BE1200300FEBEF01F0010E0AB01B
:1002A000E8440AB2E8440AB2E8440AB4E838120062
:1002B000A66AA680A850A94AAA2AF1EF01F0E86A26
:1002C000A86EA66AA684550EA76EAA0EA76EA68271
:1002D000A6B2FED7A694A94AAA2AF1EF01F0056AB0
:1002E000046EE86A0406055AD8A0F1EF01F0030E87
:1002F000036EE70E02D8F5D7036AFD0F026E01D038
:100300000206040000D0E86A035AFAE21200046E02
:10031000020E0FD0046E030E0CD0056A046E010E9F
:1003200008D0046E060E05D0046E040E02D0046ED2
:10033000050E0A6E0550035C02E10450025C040ED7
:10034000D8B0010ED8B4020E0A14D8A4FF0EF1EFF3
:1003500001F0E866FF0E0214D8A4FF0EF1EF01F0E1
:100360000210D8A4FF0EF1EF01F0076A066A100E22
:10037000086E0334063607360450065E0550075AE9
:1003800005E20450062605500722D89002360336AF
:10039000082EEFD70250F1EF01F004500802F3CF1E
:1003A00006F0F4CF07F005500902F3CF02F0F4CFC6
:1003B00003F00802F3500726F4500222E86A0322F1
:1003C00004500902F3500726F4500222E86A03227F
:1003D0000650F1EF01F0E96EFB6A1350FA6E12500D
:1003E000F96E000104001200E80ED36E800ED26E8A
:1003F000400E9B6EF26A616A0F01386B396B3A6B83
:10040000010E966E2290229222940001E9EC14F0E3
:100410009488938A9388938293849380938E948E06
:100420009386928A9484948C9388949092909292DA
:1004300094929496949A92969294829080908092BC
:100440008094030E056EE80E4BDF808492948082C8
:10045000030E056EE80E44DF8092939E810E1E6EA1
:100460000F0E206E800E1C6E060E016E0C0E02DE4C
:100470000A0E35DF810E1E6E0F0E206E800E1C6E72
:10048000060E016E0E0E3AEC00F0100E3AEC00F083
:10049000400E3AEC00F04D0E3AEC00F0500E3AEC03
:1004A00000F0550E3AEC00F02D0E3AEC00F0350E4F
:1004B0003AEC00F0780E3AEC00F0200E3AEC00F046
:1004C000280E3AEC00F0410E3AEC00F0440E3AEC03
:1004D00000F04D0E3AEC00F0290E3AEC00F0810EDF
:1004E0001E6E0F0E206E800E1C6E060E016E100E1C
:1004F0003AEC00F0540E3AEC00F0430E3AEC00F007
:10050000410E3AEC00F04C0E3AEC00F0200E3AECC2
:1005100000F0520E3AEC00F0450E3AEC00F0560EA8
:100520003AEC00F02D0E3AEC00F0440E3AEC00F0FC
:10053000810E1E6E0F0E206E800E1C6E060E016E5A
:10054000100E3AEC00F0680E3AEC00F0280E3AEC8F
:1005500000F0330E3AEC00F0200E3AEC00F0530EAF
:100560003AEC00F0650E3AEC00F0630E3AEC00F065
:10057000200E3AEC00F04F0E3AEC00F04E0E3AEC42
:1005800000F0290E3AEC00F0810E1E6E0F0E206E68
:10059000800E1C6E060E016E100E3AEC00F07C0E02
:1005A0003AEC00F0350E3AEC00F02F0E3AEC00F089
:1005B000310E3AEC00F0330E3AEC00F02F0E3AEC2C
:1005C00000F0320E3AEC00F0300E3AEC00F0310E52
:1005D0003AEC00F0380E3AEC00F0938E476A486A25
:1005E000FA0E7DDE8280010E056E2C0E79DE829081
:1005F0000A0E82DE8080010E056E2C0E71DE809068
:100600000A0E7ADE8082010E056E2C0E69DE809263
:100610000A0E72DE82800A0E6FDE8282010E6CDEAE
:100620008286010E69DE829A010E66DE8182010EEB
:1006300063DE8184010E60DE809620EC09F0CBEC55
:1006400006F01AEC09F018EC0FF00A0E48DEA7ECE1
:100650001AF022800CEC07F0472A000E4822829004
:1006600057EF03F0939E810E1E6E0F0E206E800ECC
:100670001C6E060E016E100E3AEC00F0400E3AECC5
:1006800000F0530E3AEC00F0540E3AEC00F0410E3C
:100690003AEC00F04E0E3AEC00F0440E3AEC00F06A
:1006A000420E3AEC00F0590E3AEC00F0938E040042
:1006B00080AA61EF03F056EC1BF02284ECEC14F0FE
:1006C0008DD79380949E810E1E6E0F0E206E010EAC
:1006D0001C6E060E0C6E0D6A79EC00F03108D8A481
:1006E000FBD779EC00F03108D8A4F6D779EC00F00C
:1006F0003108D8A4F1D779EC00F03108D8A4ECD7B0
:1007000079EC00F03108D8A4E7D7010E0B6EF20E99
:10071000126E136ADA6AAB0E9EEC00F00400AB5165
:100720004508D8A4ABEF03F0829080928080820EBF
:100730001E6E0F0E206E800E1C6E060E0C6E0D6A65
:10074000106A116AAB51DBEC00F07EEC11F0809086
:1007500045D7D7EF03F00400AB515308D8A4C7EF37
:1007600003F0809282808080820E1E6E0F0E206EBB
:10077000800E1C6E060E0C6E0D6A106A116AAB516B
:10078000DBEC00F0CFEC0BF043D6D7EF03F0820E9A
:100790001E6E0F0E206E800E1C6E060E0C6E0D6A05
:1007A000106A116A3F0EDBEC00F0B0EC0AF0E86A68
:1007B00081BAE868146EE86A82B4E868166E14C0FC
:1007C00002F01650B0EC01F0166E176E04001650D1
:1007D0001710D8B4BAEF06F082901AEF04F0939E87
:1007E000810E1E6E0F0E206E800E1C6E060E016EA8
:1007F000100E3AEC00F0400E3AEC00F0520E3AECDB
:1008000000F0550E3AEC00F04E0E3AEC00F0200EDF
:100810003AEC00F0540E3AEC00F0450E3AEC00F0E1
:10082000530E3AEC00F0540E3AEC00F03F0E3AEC66
:1008300000F0938E070E056ED00E70EC01F0E86AA2
:1008400081BAE868146EE86A82B4E868166E14C06B
:1008500002F01650B0EC01F0166E176E0400165040
:100860001710D8B462EF06F0808077EF04F0939E03
:10087000810E1E6E0F0E206E800E1C6E060E016E17
:10088000100E3AEC00F0400E3AEC00F0530E3AEC49
:1008900000F0450E3AEC00F04E0E3AEC00F0440E3B
:1008A0003AEC00F0200E3AEC00F0440E3AEC00F086
:1008B000410E3AEC00F0540E3AEC00F0410E3AECE6
:1008C00000F0200E3AEC00F0540E3AEC00F04F0E1F
:1008D0003AEC00F0200E3AEC00F0500E3AEC00F04A
:1008E000430E3AEC00F03F0E3AEC00F0938E070E08
:1008F000056ED00E70EC01F0E86A81BAE868146EFB
:10090000E86A82B4E868166E14C002F01650B0ECC3
:1009100001F0166E176E040016501710D8B407EFCA
:1009200006F0010E7CEC01F08082010E7CEC01F0FF
:100930008090E4EF04F0939E810E1E6E0F0E206EE9
:10094000800E1C6E060E016E100E3AEC00F0400E8A
:100950003AEC00F0450E3AEC00F0520E3AEC00F0A2
:10096000410E3AEC00F0530E3AEC00F0450E3AEC32
:1009700000F03F0E3AEC00F0200E3AEC00F0200EB2
:100980003AEC00F0200E3AEC00F0200E3AEC00F0C9
:10099000200E3AEC00F0200E3AEC00F0200E3AEC7B
:1009A00000F0200E3AEC00F0200E3AEC00F0200EA1
:1009B0003AEC00F0200E3AEC00F0200E3AEC00F099
:1009C000200E3AEC00F0938E070E056ED00E70EC00
:1009D00001F0E86A81BAE868146EE86A82B4E868EF
:1009E000166E14C002F01650B0EC01F0166E176EC1
:1009F000040016501710D8B407EF05F080928280DB
:100A00008080CFEC0BF008EF02F005EF06F080825B
:100A10008280809060EF05F0A7EC1AF0939E810E23
:100A20001E6E0F0E206E800E1C6E060E016E100ED6
:100A30003AEC00F0400E3AEC00F0530E3AEC00F0C5
:100A4000450E3AEC00F0430E3AEC00F0540E3AEC4E
:100A500000F04F0E3AEC00F0520E3AEC00F0200E8F
:100A60003AEC00F0450E3AEC00F0520E3AEC00F091
:100A7000410E3AEC00F0530E3AEC00F0450E3AEC21
:100A800000F03F0E3AEC00F0200E3AEC00F0200EA1
:100A90003AEC00F0200E3AEC00F0200E3AEC00F0B8
:100AA000200E3AEC00F0200E3AEC00F0200E3AEC6A
:100AB00000F0200E3AEC00F0200E3AEC00F0938E9D
:100AC000E86A81BAE868146EE86A82B4E868166E6B
:100AD00014C002F01650B0EC01F0166E176E040050
:100AE00016501710D8B476EF05F0EAD782903D6A19
:100AF0003E6A3DC002F03EC003F0056A0C0E8EEC6B
:100B000001F0D8A4FEEF05F0E86A81BAE868146E37
:100B1000E86A82B4E868166E14C002F01650B0ECB1
:100B200001F0166E176E040016501710D8B4EFEFD0
:100B300005F0E9EF05F0A7EC1AF0939E810E1E6E0A
:100B40000F0E206E800E1C6E060E016E100E3AEC1B
:100B500000F0400E3AEC00F0420E3AEC00F0550E78
:100B60003AEC00F04C0E3AEC00F04B0E3AEC00F090
:100B7000200E3AEC00F0450E3AEC00F0520E3AEC42
:100B800000F0410E3AEC00F0530E3AEC00F0490E42
:100B90003AEC00F04E0E3AEC00F0470E3AEC00F062
:100BA0003F0E3AEC00F0200E3AEC00F0200E3AEC4A
:100BB00000F0200E3AEC00F0200E3AEC00F0200E8F
:100BC0003AEC00F0200E3AEC00F0200E3AEC00F087
:100BD000938E8280808259EC0AF002EF06F08082C8
:100BE0007D0E6FEC01F0809280807D0E6FEC01F045
:100BF00080903D2A000E3E22D8A07BD78280808242
:100C0000EDEC09F08092EEEF02F060EF06F08290DA
:100C1000808059EF06F0A7EC1AF0939E810E1E6EAD
:100C20000F0E206E800E1C6E060E016E100E3AEC3A
:100C300000F0400E3AEC00F0530E3AEC00F0450E96
:100C40003AEC00F04E0E3AEC00F0440E3AEC00F0B4
:100C5000490E3AEC00F04E0E3AEC00F0470E3AEC3A
:100C600000F0200E3AEC00F0440E3AEC00F0410E99
:100C70003AEC00F0540E3AEC00F0410E3AEC00F081
:100C8000200E3AEC00F0540E3AEC00F04F0E3AEC25
:100C900000F0200E3AEC00F0500E3AEC00F0430E5B
:100CA0003AEC00F0200E3AEC00F0200E3AEC00F0A6
:100CB000938E7EEC11F0A7EC1AF08090EEEF02F02C
:100CC000BAEF06F0B2EF06F0A7EC1AF0939E810E91
:100CD0001E6E0F0E206E800E1C6E060E016E100E24
:100CE0003AEC00F0400E3AEC00F0520E3AEC00F014
:100CF000550E3AEC00F04E0E3AEC00F04E0E3AEC87
:100D000000F0490E3AEC00F04E0E3AEC00F0470EBF
:100D10003AEC00F0200E3AEC00F0540E3AEC00F001
:100D2000450E3AEC00F0530E3AEC00F0540E3AEC5B
:100D300000F0200E3AEC00F0200E3AEC00F0200E0D
:100D40003AEC00F0200E3AEC00F0200E3AEC00F005
:100D5000200E3AEC00F0200E3AEC00F0200E3AECB7
:100D600000F0938EECEC14F0A7EC1AF0A7EC1AF05C
:100D7000EEEF02F00300880E026E130E036E48C001
:100D800005F0475097EC01F0D8A4C9EF06F0809425
:100D900092942CEF03F093849382100E6D6E280EC4
:100DA0006C6E6B6A696A110E6E6EDAEC06F0E1EC3D
:100DB00006F012006B8004006BA0E0EF06F0FBD79A
:100DC00012006B8404006BA4E7EF06F0FBD712005F
:100DD000F1DF88C06FFF04006DA0F0EF06F0FBD7D5
:100DE000020E7CEC01F087C06FFF04006DA0FAEFEB
:100DF00006F0FBD7020E7CEC01F086C06FFF010EFF
:100E00007CEC01F004006DA007EF07F0FBD7020EA9
:100E10007CEC01F0D6DF120060EC07F09FEC07F0ED
:100E2000E1EC07F070EC08F0D00E886F6B0E876F66
:100E3000800E866FCDDF640E6FEC01F0D00E886FF0
:100E40006B0E876F010E866FC3DFD00E886F6C0E3E
:100E5000876F866BBDDFD00E886F1A0E876F81C0DB
:100E600086F0B6DFD00E886F1B0E876F82C086F0CB
:100E7000AFDFD00E886F1C0E876F5EC086F0A8DFD4
:100E8000D00E886F1D0E876F5DC086F0A1DFD00E7B
:100E9000886F370E876F120E866F9ADFD00E886FBD
:100EA000380E876F010E866F93DF0A0E6FEC01F02C
:100EB000D00E886F0A0E876F110E866F89DF1200C1
:100EC000020E026E036A28C005F0275097EC01F06D
:100ED000D8A46FEF07F05E985E969EEF07F0040EC1
:100EE000026E036A28C005F0275097EC01F0D8A4E1
:100EF0007EEF07F05E985E869EEF07F0080E026EAA
:100F0000036A28C005F0275097EC01F0D8A48DEFB4
:100F100007F05E885E969EEF07F0100E026E036A81
:100F200028C005F0275097EC01F0D8A49CEF07F0FB
:100F30005E885E869EEF07F05E885E961200FA0E6F
:100F4000026E036A3CC005F03B5097EC01F0D8A458
:100F5000AEEF07F082998297E0EF07F0F40E026E91
:100F6000010E036E3CC005F03B5097EC01F0D8A495
:100F7000BEEF07F082998287E0EF07F0E80E026E7D
:100F8000030E036E3CC005F03B5097EC01F0D8A473
:100F9000CEEF07F082898297E0EF07F0D00E026E65
:100FA000070E036E3CC005F03B5097EC01F0D8A44F
:100FB000DEEF07F082898287E0EF07F0829982876F
:100FC0001200050E026E036A24C005F0235097EC50
:100FD00001F0D8A4F2EF07F05D865D845D825D903C
:100FE0006FEF08F00A0E026E036A24C005F023506A
:100FF00097EC01F0D8A403EF08F05D865D845D9264
:101000005D806FEF08F0140E026E036A24C005F0D5
:10101000235097EC01F0D8A414EF08F05D865D84AE
:101020005D925D906FEF08F0290E026E036A24C096
:1010300005F0235097EC01F0D8A425EF08F05D8669
:101040005D945D825D806FEF08F05C0E026E036A56
:1010500024C005F0235097EC01F0D8A436EF08F037
:101060005D865D945D825D906FEF08F0B80E026E54
:10107000036A24C005F0235097EC01F0D8A447EF91
:1010800008F05D865D945D925D806FEF08F0CC0E98
:10109000026E010E036E24C005F0235097EC01F0A0
:1010A000D8A459EF08F05D865D945D925D906FEF76
:1010B00008F06A0E026E040E036E24C005F0235081
:1010C00097EC01F0D8A46BEF08F05D965D945D920B
:1010D0005D906FEF08F05D865D945D825D9012001B
:1010E000050E026E036A3AC005F0395097EC01F024
:1010F000D8A482EF08F082838281818581838191E7
:1011000019EF09F00A0E026E036A3AC005F0395071
:1011100097EC01F0D8A494EF08F082838281818556
:101120008193818119EF09F0140E026E036A3AC0AF
:1011300005F0395097EC01F0D8A4A6EF08F08283AF
:10114000828181858193819119EF09F0290E026EC8
:10115000036A3AC005F0395097EC01F0D8A4B8EF13
:1011600008F08283828181958183818119EF09F062
:101170005C0E026E036A3AC005F0395097EC01F03C
:10118000D8A4CAEF08F082838281819581838191FE
:1011900019EF09F0B80E026E036A3AC005F0395033
:1011A00097EC01F0D8A4DCEF08F08283828181956E
:1011B0008193818119EF09F0FA0E026E036A3AC039
:1011C00005F0395097EC01F0D8A4EEEF08F08283D7
:1011D000828181958193819119EF09F0100E026E41
:1011E0000E0E036E3AC005F0395097EC01F0D8A40A
:1011F00001EF09F08293828181958193819119EFAA
:1012000009F0600E026E220E036E3AC005F03950EE
:1012100097EC01F0D8A414EF09F0829382918195A4
:101220008193819119EF09F0828382818195818375
:1012300081911200C76A300EC66E100ECB6E12007E
:10124000ECEC10F08292060EC96E010E7CEC01F0FF
:101250008282010E7CEC01F08292010EC96E010EB9
:101260007CEC01F0C96A010E7CEC01F0C96A010E48
:101270007CEC01F0C00EC96E010E7CEC01F08282A4
:10128000030E056EE80E70EC01F01200D3DF3D6A2C
:101290003E6A3DC002F03EC003F0056AFB0E8EECD4
:1012A00001F0D8A460EF09F03D50BF0FE96E020EC7
:1012B0003E20EA6EEF6A3D2A000E3E22D8A0E9D712
:1012C0003D6A3E6A3DC002F03EC003F0056AFB0E77
:1012D0008EEC01F0D8A479EF09F03D50BB0FE96E18
:1012E000030E3E20EA6EEF6A3D2A000E3E22D8A091
:1012F000E9D78292130EC96E010E7CEC01F06FC02B
:10130000C9FF010E7CEC01F06EC0C9FF010E7CEC40
:1013100001F071C0C9FF010E7CEC01F070C0C9FF83
:10132000010E7CEC01F03D6A3E6A3DC002F03EC019
:1013300003F0056AFB0E8EEC01F0D8A4B4EF09F0BF
:10134000C96A010E7CEC01F03D50BF0FE96E020E40
:101350003E20EA6EC9CFEFFF010E7CEC01F03D2A82
:10136000000E3E22D8A0E1D73D6A3E6A3DC002F0A1
:101370003EC003F0056AFB0E8EEC01F0D8A4D5EF59
:1013800009F0C96A010E7CEC01F03D50BB0FE96E1B
:10139000030E3E20EA6EC9CFEFFF010E7CEC01F098
:1013A0003D2A000E3E22D8A0E1D78282026AFE0EBC
:1013B000036E71C005F0705197EC01F0D8A4E8EF0E
:1013C00009F06E2B000E6F23706B716BECEF09F060
:1013D000000E7027020E712312007A29336E000E60
:1013E0007B21346E27DF3D6A3E6A3DC002F03EC07D
:1013F00003F034C005F033508EEC01F0D8A456EF62
:101400000AF03DC008F03EC009F0040E046E056A03
:10141000CDEC01F06E6F07C06FF0706B716B829254
:10142000010E7CEC01F0060EC96E010E7CEC01F0A1
:101430008282010E7CEC01F08292D80EC96E010E00
:101440007CEC01F06FC0C9FF010E7CEC01F06EC0B6
:10145000C9FF010E7CEC01F071C0C9FF010E7CECEC
:1014600001F082828E810400D8968EA1D886D8B6EB
:1014700051EF0AF08292010E7CEC01F0050EC96E6C
:10148000010E7CEC01F0C96A010E7CEC01F0C9CFC1
:101490008EF0010E7CEC01F08282320E6FEC01F0D6
:1014A000E2D73D2A000E3E22D8A09FD7496A4A6A59
:1014B0001200C0DE8292060EC96E010E7CEC01F0B5
:1014C0008282010E7CEC01F08292600EC96E010EE8
:1014D0007CEC01F08282030E056EE80E70EC01F0E8
:1014E0008E810400D8968EA1D886D8B68BEF0AF0EC
:1014F0008292050EC96E010E7CEC01F0C96A010EE4
:101500007CEC01F0C9CF8EF08282030E056EE80EEE
:1015100070EC01F0E6D7496A4A6A12003D6A3E6AF9
:101520003DC002F03EC003F0056A0A0E8EEC01F0E9
:10153000D8A4A3EF0AF0926B9BEC0BF03D2A000EAF
:101540003E22D8A0EDD712000D0E926F9BEC0BF04F
:10155000010E6FEC01F00A0E926F9BEC0BF0120083
:101560008290010E436E446A43C002F044C003F00F
:10157000056A030E8EEC01F0D8A4D4EF0AF0808245
:10158000050E7CEC01F08080190E6FEC01F080926A
:10159000050E7CEC01F08090190E6FEC01F0432AEF
:1015A000000E4422D8A0E0D71200836B0400020E84
:1015B000835DD8B09AEF0BF0040083510008D8A4E3
:1015C000EDEF0AF091C002F0036A100E046E056A96
:1015D000B5EC01F0846FF7EF0AF091C002F0036AF6
:1015E000100E046E056AB5EC01F006C084F004002C
:1015F00084510008D8A401EF0BF0300E926F95EFE4
:101600000BF0040084510108D8A40BEF0BF0310E4D
:10161000926F95EF0BF0040084510208D8A415EFE7
:101620000BF0320E926F95EF0BF00400845103081B
:10163000D8A41FEF0BF0330E926F95EF0BF0040060
:1016400084510408D8A429EF0BF0340E926F95EF63
:101650000BF0040084510508D8A433EF0BF0350ECD
:10166000926F95EF0BF0040084510608D8A43DEF6B
:101670000BF0360E926F95EF0BF0040084510708C3
:10168000D8A447EF0BF0370E926F95EF0BF00400E4
:1016900084510808D8A451EF0BF0380E926F95EFE3
:1016A0000BF0040084510908D8A45BEF0BF0390E4D
:1016B000926F95EF0BF0040084510A08D8A465EFEF
:1016C0000BF0410E926F95EF0BF0040084510B0864
:1016D000D8A46FEF0BF0420E926F95EF0BF0040061
:1016E00084510C08D8A479EF0BF0430E926F95EF5C
:1016F0000BF0040084510D08D8A483EF0BF0440EC6
:10170000926F95EF0BF0040084510E08D8A48DEF72
:101710000BF0450E926F95EF0BF0040084510F080B
:10172000D8A495EF0BF0460E926F9BEC0BF0832B39
:10173000D8A03CD71200949E829E020E7CEC01F051
:10174000CEEC0BF0CEEC0BF07E6B0400080E7E5D51
:10175000D8B0BEEF0BF0920EE96EEA6A7E51000F30
:101760000DEC00F0D8B4829ED8A4828E020E7CECE0
:1017700001F0CEEC0BF07E2BD8A0E7D7030E7CEC6B
:1017800001F0828E020E7CEC01F0CEEC0BF0CEEC80
:101790000BF0948E020E7CEC01F01200120013EF9D
:1017A0000CF0A7EC1AF0939E810E1E6E0F0E206EA9
:1017B000800E1C6E060E016E100E3AEC00F0400E0C
:1017C0003AEC00F0570E3AEC00F0410E3AEC00F023
:1017D000490E3AEC00F0540E3AEC00F0490E3AECA7
:1017E00000F04E0E3AEC00F0470E3AEC00F0200EFE
:1017F0003AEC00F0460E3AEC00F04F0E3AEC00F0F6
:10180000520E3AEC00F0200E3AEC00F0440E3AECA6
:1018100000F0410E3AEC00F0540E3AEC00F0410EAC
:101820003AEC00F0938E8B6B04000C0E8B5DD8B0FD
:1018300086EF0CF0810E1E6E0F0E206E010E1C6ED8
:10184000060E0C6E0D6A79EC00F03008D8A4FBD7B8
:1018500079EC00F03108D8A4F6D779EC00F0320822
:10186000D8A4F1D779EC00F03308D8A4ECD779EC00
:1018700000F03408D8A4E7D7040E0B6EF20E126EF7
:10188000136AA7EC00F06C6F07C06DF08090820EB9
:101890001E6E0F0E206E800E1C6E060E0C6E0D6AF4
:1018A000106A116A040E0B6E6CC006F06DC007F072
:1018B000B40E126E010E136E2BEC01F0810E1E6E33
:1018C0000F0E206E010E1C6E060E0C6E0D6A79EC6A
:1018D00000F04108D8A4FBD779EC00F05F6E80805F
:1018E00004005F504E08D8A477EF0CF0A3D7D8902F
:1018F0008B35E96EEA6AEA36930EE926000EEA2293
:101900006CC0EFFF6DC0ECFF8B2B8ED73D6A3E6A3B
:101910003DC002F03EC003F0056A0B0E8EEC01F0F4
:10192000D8A4B3EF0CF03DC0A9FF3EC0AAFFD890E9
:101930003D34E96E3E34EA6E930EE926000EEA224B
:10194000EFCF14F0ECCF15F0145060EC01F015500F
:1019500060EC01F00A0E6FEC01F0020E3D26000E65
:101960003E22D8A0D5D7010E3D6E3E6A3DC002F0A2
:101970003EC003F0056A040E8EEC01F0D8A4D2EF4D
:101980000CF08280010E056E5E0E70EC01F082900C
:10199000010E056E5E0E70EC01F03D2A000E3E2237
:1019A000D8A0E4D780901200256A266A456A466A64
:1019B000746B756B276A286A3B6A3C6A236A246ADF
:1019C000396A3A6AA96AAA6A58EC01F0256E58EC9D
:1019D00001F0266E0A0E6FEC01F0020EA96EAA6AE3
:1019E00058EC01F0456E58EC01F0466E0A0E6FECB3
:1019F00001F0040EA96EAA6A58EC01F0746F58EC5D
:101A000001F0756F0A0E6FEC01F0060EA96EAA6A5E
:101A100058EC01F0276E58EC01F0286E0A0E6FECBE
:101A200001F0080EA96EAA6A58EC01F03B6E58EC62
:101A300001F03C6E0A0E6FEC01F00A0EA96EAA6A64
:101A400058EC01F0236E58EC01F0246E0A0E6FEC96
:101A500001F00C0EA96EAA6A58EC01F0396E58EC30
:101A600001F03A6E0A0E6FEC01F0A7EC1AF0026872
:101A7000036826C005F0255097EC01F0D8A444EF88
:101A80000DF0F00E256E266A0268036846C005F068
:101A9000455097EC01F0D8A451EF0DF0F00E456ED3
:101AA000466A0268036875C005F0745197EC01F04E
:101AB000D8A45EEF0DF0050E746F756B02680368B5
:101AC00028C005F0275097EC01F0D8A46BEF0DF07B
:101AD000100E276E286A026803683CC005F03B5070
:101AE00097EC01F0D8A479EF0DF0D00E3B6E070E05
:101AF0003C6E0268036824C005F0235097EC01F0A7
:101B0000D8A486EF0DF05C0E236E246A0268036889
:101B10003AC005F0395097EC01F0D8A493EF0DF0DE
:101B20005C0E396E3A6A12003FDF8AC092F003DE23
:101B3000050E7CEC01F026C092F09BEC0BF0050E3C
:101B40007CEC01F025C092F09BEC0BF0050E7CECD8
:101B500001F046C092F09BEC0BF0050E7CEC01F01E
:101B600045C092F09BEC0BF0050E7CEC01F075C0CB
:101B700092F09BEC0BF0050E7CEC01F074C092F03F
:101B80009BEC0BF0050E7CEC01F028C092F09BEC76
:101B90000BF0050E7CEC01F027C092F09BEC0BF0F3
:101BA000050E7CEC01F03CC092F09BEC0BF0050EB6
:101BB0007CEC01F03BC092F09BEC0BF0050E7CEC52
:101BC00001F024C092F09BEC0BF0050E7CEC01F0D0
:101BD00023C092F09BEC0BF0050E7CEC01F03AC0B8
:101BE00092F09BEC0BF0050E7CEC01F039C092F00A
:101BF0009BEC0BF0050E7CEC01F012008290010EC4
:101C00003D6E3E6A3DC002F03EC003F0056A040E20
:101C10008EEC01F0D8A41EEF0EF08082010E056E4E
:101C20005E0E70EC01F08092010E056E5E0E70EC9F
:101C300001F03D2A000E3E22D8A0E4D78090120089
:101C4000146A156A8451AB0FE96E000EEA6AEA2243
:101C5000EFCF14F0300E026E036A15C005F0145079
:101C600097EC01F0D8A438EF0EF0856B17EF0FF06A
:101C7000310E026E036A15C005F0145097EC01F0A6
:101C8000D8A447EF0EF0010E856F17EF0FF0320E5C
:101C9000026E036A15C005F0145097EC01F0D8A449
:101CA00056EF0EF0020E856F17EF0FF0330E026E37
:101CB000036A15C005F0145097EC01F0D8A465EF45
:101CC0000EF0030E856F17EF0FF0340E026E036AED
:101CD00015C005F0145097EC01F0D8A474EF0EF085
:101CE000040E856F17EF0FF0350E026E036A15C0F4
:101CF00005F0145097EC01F0D8A483EF0EF0050E18
:101D0000856F17EF0FF0360E026E036A15C005F0EF
:101D1000145097EC01F0D8A492EF0EF0060E856FE8
:101D200017EF0FF0370E026E036A15C005F014505E
:101D300097EC01F0D8A4A1EF0EF0070E856F17EF16
:101D40000FF0380E026E036A15C005F0145097ECC0
:101D500001F0D8A4B0EF0EF0080E856F17EF0FF06A
:101D6000390E026E036A15C005F0145097EC01F0AD
:101D7000D8A4BFEF0EF0090E856F17EF0FF0410EDC
:101D8000026E036A15C005F0145097EC01F0D8A458
:101D9000CEEF0EF00A0E856F17EF0FF0420E026EB7
:101DA000036A15C005F0145097EC01F0D8A4DDEFDC
:101DB0000EF00B0E856F17EF0FF0430E026E036AE5
:101DC00015C005F0145097EC01F0D8A4ECEF0EF01C
:101DD0000C0E856F17EF0FF0440E026E036A15C0EC
:101DE00005F0145097EC01F0D8A4FBEF0EF00D0EA7
:101DF000856F17EF0FF0450E026E036A15C005F0F0
:101E0000145097EC01F0D8A40AEF0FF00E0E856F76
:101E100017EF0FF0460E026E036A15C005F014505E
:101E200097EC01F0D8A417EF0FF00F0E856F12009A
:101E3000ECEC10F0F40E496E010E4A6E49C002F04F
:101E40004AC003F0056AF80E8AEC01F0D8A4E5EF69
:101E50000FF04950C70FE96E000E4A20EA6EEFCF2F
:101E600014F01450FF08D8A4E868FF0A146E49283B
:101E7000166E000E4A20176E1650C70FE96E000E40
:101E80001720EA6EEFCF16F01650FF08D8A4E868C6
:101E9000FF0A166E14C002F01650A9EC01F0166E7F
:101EA000176E020E4924186E000E4A20196E185043
:101EB000C70FE96E000E1920EA6EEFCF18F0185028
:101EC000FF08D8A4E868FF0A186E16501710026EB3
:101ED0001850A9EC01F0186E196E030E49241A6E01
:101EE000000E4A201B6E1A50C70FE96E000E1B2011
:101EF000EA6EEFCF1AF01A50FF08D8A4E868FF0A7C
:101F00001A6E18501910026E1A50A9EC01F01A6ED0
:101F10001B6E04001A501B10D8B4ACEF0FF049C070
:101F200002F04AC003F0056A030E91EC01F0D8A458
:101F3000A0EF0FF0040E495E000E4A5AA9EF0FF011
:101F40007A6B7B6B7C6B020E7D6F496A4A6AADEFE0
:101F500010F074D7E3EF0FF04950C70FE96E000E91
:101F60004A20EA6EEFCF7BF04928146E000E4A201B
:101F7000156E1450C70FE96E000E1520EA6EEFCFF4
:101F80007AF0020E4924146E000E4A20156E145089
:101F9000C70FE96E000E1520EA6EEFCF7DF0030E3D
:101FA0004924146E000E4A20156E1450C70FE96EB6
:101FB000000E1520EA6EEFCF7CF0040E4926000ECD
:101FC0004A22ADEF10F0ADEF10F0FC0E495C146E3C
:101FD000000E4A58156E1450C30FE96E010E1520FD
:101FE000EA6EEFCF14F01450FF08D8A4E868FF0A97
:101FF000146E4928166E000E4A20176EFC0E165EEF
:10200000000E175A1650C30FE96E010E1720EA6E24
:10201000EFCF16F01650FF08D8A4E868FF0A166E36
:1020200014C002F01650A9EC01F0166E176E020EE5
:102030004924186E000E4A20196EFC0E185E000E20
:10204000195A1850C30FE96E010E1920EA6EEFCF2E
:1020500018F01850FF08D8A4E868FF0A186E165048
:102060001710026E1850A9EC01F0186E196E030ECD
:1020700049241A6E000E4A201B6EFC0E1A5E000EDA
:102080001B5A1A50C30FE96E010E1B20EA6EEFCFE8
:102090001AF01A50FF08D8A4E868FF0A1A6E185000
:1020A0001910026E1A50A9EC01F01A6E1B6E040092
:1020B0001A501B10D8B464EF10F0040E495E000EE5
:1020C0004A5ABCD6ADEF10F0FC0E495C146E000EFF
:1020D0004A58156E1450C30FE96E010E1520EA6EB2
:1020E000EFCF7BF04928146E000E4A20156EFC0ECF
:1020F000145E000E155A1450C30FE96E010E152020
:10210000EA6EEFCF7AF0020E4924146E000E4A20D8
:10211000156EFC0E145E000E155A1450C30FE96EB6
:10212000010E1520EA6EEFCF7DF0030E4924146EE8
:10213000000E4A20156EFC0E145E000E155A145047
:10214000C30FE96E010E1520EA6EEFCF7CF0040E8E
:102150004926000E4A22ADEF10F012001AEC09F0E9
:102160008292060EC96E010E7CEC01F08282010E95
:102170007CEC01F08292120EC96E010E7CEC01F033
:10218000C96A010E7CEC01F0C96A010E7CEC01F019
:102190004AC0C9FF010E7CEC01F049C0C9FF010E25
:1021A0007CEC01F07BC0C9FF010E7CEC01F07AC031
:1021B000C9FF010E7CEC01F07DC0C9FF010E7CEC73
:1021C00001F07CC0C9FF010E7CEC01F08282040E9C
:1021D0004926000E4A2212001AEC09F08292130ED0
:1021E000C96E010E7CEC01F0C96A010E7CEC01F0B5
:1021F000C96A010E7CEC01F0C96A010E7CEC01F0A9
:10220000C96A010E7CEC01F03D6A3E6A3DC002F0F5
:102210003EC003F0056AFB0E8EEC01F0D8A422EF5D
:1022200011F0C96A010E7CEC01F03D50C70FE96E58
:10223000000E3E20EA6EC9CFEFFF3D2A000E3E227F
:10224000D8A0E4D73D6A3E6A3DC002F03EC003F02C
:10225000056AFB0E8EEC01F0D8A440EF11F0C96ABC
:10226000010E7CEC01F03D50C30FE96E010E3E20E3
:10227000EA6EC9CFEFFF3D2A000E3E22D8A0E4D778
:1022800082821200A9DF3D6A3E6A3DC002F03EC074
:1022900003F0056AFB0E8EEC01F0D8A45FEF11F09D
:1022A0003D50C70FE96E000E3E20EA6EEFCF91F071
:1022B000D5EC0AF03D2A000E3E22D8A0E6D73D6AB2
:1022C0003E6A3DC002F03EC003F0056AFB0E8EEC94
:1022D00001F0D8A47BEF11F03D50C30FE96E010E61
:1022E0003E20EA6EEFCF91F0D5EC0AF03D2A000EC9
:1022F0003E22D8A0E6D7A4EC0AF0120018EC0FF0AA
:102300006E6B6F6B706B020E716F026A036A4AC06C
:1023100005F0495097EC01F0D8A4FBEF11F0D9EF8C
:1023200011F0A7EC1AF0939E810E1E6E0F0E206E18
:10233000800E1C6E060E016E100E3AEC00F0540E6C
:102340003AEC00F04E0E3AEC00F04F0E3AEC00F092
:10235000200E3AEC00F0540E3AEC00F0450E3AEC48
:1023600000F0530E3AEC00F0540E3AEC00F0200E60
:102370003AEC00F0440E3AEC00F0410E3AEC00F07A
:10238000540E3AEC00F0410E3AEC00F0200E3AEC1C
:1023900000F0460E3AEC00F04F0E3AEC00F0550E0D
:1023A0003AEC00F04E0E3AEC00F0440E3AEC00F03D
:1023B000938E010E436E446A43C002F044C003F0A2
:1023C000056A050E8EEC01F0D8A4F8EF11F08082BA
:1023D000010E056EF40E70EC01F08092010E056E98
:1023E000F40E70EC01F0432A000E4422D8A0E4D78A
:1023F000809016EF14F0010E3D6E3E6A3DC002F073
:102400003EC003F0056A320E8EEC01F0D8A411EF45
:1024100012F0926B9BEC0BF03D2A000E3E22D8A0EE
:10242000EDD749C002F04AC003F0040E046E056AFD
:10243000B5EC01F08A6F30EF12F0939E810E1E6EA4
:102440000F0E206E800E1C6E060E016E100E3AEC02
:1024500000F0680E3AEC00F08A511BEC00F0938E0D
:1024600094EC0DF0496A4A6AB7DE010E766F776B1D
:1024700076C002F077C003F08A518DEC01F0D8A449
:1024800016EF14F0026A036A4AC005F0495097EC4F
:1024900001F0D8A484EF12F06E6B6F6B706B020EBC
:1024A000716F4950C70FE96E000E4A20EA6EEFCFF8
:1024B00030F04928146E000E4A20156E1450C70FD4
:1024C000E96E000E1520EA6EEFCF2FF0020E4924C0
:1024D000146E000E4A20156E1450C70FE96E000EE0
:1024E0001520EA6EEFCF32F0030E4924146E000E71
:1024F0004A20156E1450C70FE96E000E1520EA6EC3
:10250000EFCF31F061EF13F049C002F04AC003F0A1
:10251000056AF80E8EEC01F0D8A4F9EF12F0040E63
:10252000495C146E000E4A58156E1450C70FE96EC0
:10253000000E1520EA6EEFCF6FF0030E495C146EAB
:10254000000E4A58156E1450C70FE96E000E152084
:10255000EA6EEFCF6EF0020E495C146E000E4A5820
:10256000156E1450C70FE96E000E1520EA6EEFCFFE
:1025700071F04904146E000E4A58156E1450C70FBE
:10258000E96E000E1520EA6EEFCF70F04950C70FCC
:10259000E96E000E4A20EA6EEFCF30F04928146E43
:1025A000000E4A20156E1450C70FE96E000E15205C
:1025B000EA6EEFCF2FF0020E4924146E000E4A206F
:1025C000156E1450C70FE96E000E1520EA6EEFCF9E
:1025D00032F0030E4924146E000E4A20156E14507A
:1025E000C70FE96E000E1520EA6EEFCF31F061EFF4
:1025F00013F0040E495C146E000E4A58156E145008
:10260000C30FE96E010E1520EA6EEFCF6FF0030ED7
:10261000495C146E000E4A58156E1450C30FE96ED3
:10262000010E1520EA6EEFCF6EF0020E495C146EBB
:10263000000E4A58156E1450C30FE96E010E152096
:10264000EA6EEFCF71F04904146E000E4A58156E11
:102650001450C30FE96E010E1520EA6EEFCF70F033
:102660004950C30FE96E010E4A20EA6EEFCF30F0F9
:102670004928146E000E4A20156E1450C30FE96EDF
:10268000010E1520EA6EEFCF2FF0020E4924146ED2
:10269000000E4A20156E1450C30FE96E010E15206E
:1026A000EA6EEFCF32F0030E4924146E000E4A207A
:1026B000156E1450C30FE96E010E1520EA6EEFCFB0
:1026C00031F082EF13F0A7EC1AF0939E810E1E6E8C
:1026D0000F0E206E800E1C6E060E016E100E3AEC70
:1026E00000F0680E3AEC00F06FC007F06E511CEC81
:1026F00000F02C0E3AEC00F071C007F070511CECA9
:1027000000F0938E3D6A3E6A3DC002F03EC003F089
:10271000056A090E8EEC01F0D8A498EF13F03DC0C5
:1027200092F09BEC0BF03D2A000E3E22D8A0ECD795
:102730006EC002F06FC003F030C005F02F5094EC73
:1027400001F0146E70C002F071C003F032C005F0E9
:10275000315094EC01F0166E14C002F01650B0EC3B
:1027600001F0166E176E040016501710D8B401EF62
:1027700014F046EC09F03D6A3E6A3DC002F03EC0EE
:1027800003F0056AFB0E8EEC01F0D8A4D7EF13F02E
:102790003D50BF0FE96E020E3E20EA6EEFCF92F081
:1027A0009BEC0BF03D2A000E3E22D8A0E6D7E86A4B
:1027B00081BAE868146EE86A82B4E868166E14504C
:1027C0001610D8A416EF14F03D6A3E6A3DC002F020
:1027D0003EC003F0056AFB0E8EEC01F0D8A400EFBA
:1027E00014F03D50BB0FE96E030E3E20EA6EEFCFB2
:1027F00092F09BEC0BF03D2A000E3E22D8A0E6D7CB
:1028000097D7040E4926000E4A22090E3D6E3E6AF5
:102810003DC092F09BEC0BF03D06000E3E5AD8B046
:10282000F7D7762B000E7723D8A022D680901200FF
:102830008280020E056EEE0E70EC01F08290FA0EB0
:102840006FEC01F08082020E056EEE0E70EC01F06E
:102850008092FA0E6FEC01F08080020E056EEE0E93
:1028600070EC01F08090FA0E6FEC01F012003C0E5B
:10287000026E036A26C005F0255097EC01F0D8A43B
:102880004AEF14F0810E8F6F950E786F810E796F7D
:10289000C6EF14F0780E026E036A26C005F02550CC
:1028A00097EC01F0D8A45DEF14F0800E8F6F1F0E2F
:1028B000786F810E796FC6EF14F0F00E026E036A26
:1028C00026C005F0255097EC01F0D8A470EF14F065
:1028D000800E8F6FF30E786F3F0E796FC6EF14F096
:1028E000E00E026E010E036E26C005F0255097EC37
:1028F00001F0D8A484EF14F0800E8F6F5E0E786F15
:102900001F0E796FC6EF14F0F40E026E010E036E07
:1029100026C005F0255097EC01F0D8A498EF14F0EC
:10292000800E8F6F080E786F1E0E796FC6EF14F051
:10293000C00E026E030E036E26C005F0255097EC04
:1029400001F0D8A4ACEF14F0800E8F6F130E786FE7
:102950000F0E796FC6EF14F0E80E026E030E036ED1
:1029600026C005F0255097EC01F0D8A4C0EF14F074
:10297000800E8F6F680E786F0E0E796FC6EF14F0B1
:10298000800E8F6F1F0E786F810E796F7851FF0860
:10299000146EFF0E7955156E14C002F015C003F0C9
:1029A000046A010E056EB5EC01F0D76E7851FF0890
:1029B000146EFF0E7955156E14C002F015C003F0A9
:1029C000046A010E056EB5EC01F006C0D6FFF29464
:1029D0001200D56AF29412004ADF040022B4F2EF2A
:1029E00014F026DF8090829080928D6BF28E04D05E
:1029F000F2BE1200E3EF15F0FBDFA00EF26EF8DF7F
:102A0000010E686F696BF4DF010E666F676BF0DFB4
:102A10002296EEDF949EECDF8FC0D5FFE9DF2282A5
:102A2000E7DF040022A47EEF15F0E2DF040022A419
:102A30007CEF15F0DDDF66C002F067C003F026C052
:102A400005F025508EEC01F0D8A45DEF15F0D0DF35
:102A5000E86A80BAE868146EE86A22B6E868166E1A
:102A600014C002F01650A9EC01F0166E176E0400A7
:102A700016501710D8B443EF15F0BADFACEF15F0CD
:102A8000B7DF5BEF15F0E86A22A4E868146EE86827
:102A900022B6E86A166E14C002F01650A9EC01F0D6
:102AA000166E176E040016501710D8B45BEF15F0B1
:102AB0009FDF22869DDF9CDFBED7010E666F676BAE
:102AC000682B000E6923030E026E036A69C005F0CD
:102AD000685197EC01F0D8A46FEF15F08082060ED4
:102AE000026E036A69C005F0685197EC01F0D8A442
:102AF0007BEF15F080929AD7ACEF15F068C002F02A
:102B000069C003F075C005F074518EEC01F0D8A4D3
:102B1000ACEF15F06DDF66C002F067C003F026C0B1
:102B200005F025508EEC01F0D8A499EF15F060DF88
:102B3000F2D7010E666F676B682B000E6923030ED8
:102B4000026E036A69C005F0685197EC01F0D8A4E1
:102B5000ABEF15F08082D2D73CDF948E7CC002F0C0
:102B60007DC003F0046A020E056EB5EC01F006C0EC
:102B700014F007C015F01450FF08296E010E15540B
:102B80002A6E29507C272A507D23026803687DC065
:102B900005F07C5197EC01F0D8A4D6EF15F07C6BD2
:102BA0007D6B7A2B000E7B23D9EF15F07C2B000E6A
:102BB0007D230A0E6FEC01F0AEEC10F00A0E6FEC04
:102BC00001F0809212007851FF08146EFF0E7955C3
:102BD000156E14C002F015C003F0046A010E056EF4
:102BE000B5EC01F0D76E7851FF08146EFF0E7955E1
:102BF000156E14C002F015C003F0046A010E056ED4
:102C0000B5EC01F006C0D6FFF294E86A80BAE86835
:102C1000146E68C002F069C003F0056A020E8EEC03
:102C200001F0166E14C002F01650A9EC01F0166EF9
:102C3000176E040016501710D8B422EF16F056EC99
:102C40001BF02294E86A22B0E868146EE86A22B2A7
:102C5000E868166E14C002F01650A9EC01F0166E6A
:102C6000176E040016501710D8B4A6EF1AF0828E13
:102C700025C002F026C003F045C004F046C005F0B0
:102C8000B5EC01F0146E03C015F066C002F067C029
:102C900003F014C004F015C005F0B5EC01F006C057
:102CA00014F007C015F014C002F015C003F0056A57
:102CB000010E87EC01F0146E25C002F026C003F06F
:102CC00046C005F0455087EC01F0166E14C002F0C6
:102CD0001650B0EC01F0166E176E04001650171067
:102CE000D8B4F6EF18F06B8004006BA079EF16F003
:102CF000FBD7D00E6F6E04006DA080EF16F0FBD7EF
:102D0000020E7CEC01F03B0E6F6E04006DA08AEFAA
:102D100016F0FBD7020E7CEC01F06B8004006BA078
:102D200093EF16F0FBD7D10E6F6E04006DA09AEFF3
:102D300016F0FBD7020E7CEC01F06B8604006DB040
:102D4000A3EF16F0FBD76B886B9A6FCF4CF0050E94
:102D50007CEC01F06B8604006DB0B0EF16F0FBD791
:102D60006B886B9A6FCF4BF0050E7CEC01F06B8695
:102D700004006DB0BDEF16F0FBD76B886B9A6FCF78
:102D80004EF0050E7CEC01F06B8604006DB0CAEFCE
:102D900016F0FBD76B886B9A6FCF4DF0050E7CEC6D
:102DA00001F06B8604006DB0D7EF16F0FBD76B888F
:102DB0006B9A6FCF50F0050E7CEC01F06B8604002F
:102DC0006DB0E4EF16F0FBD76B886B8A6FCF4FF0D6
:102DD000030E7CEC01F06B8404006BA4F1EF16F0A1
:102DE000FBD7030E7CEC01F06B8004006BA0FAEFC4
:102DF00016F0FBD7D00E6F6E04006DA001EF17F038
:102E0000FBD7020E7CEC01F0430E6F6E04006DA048
:102E10000BEF17F0FBD7020E7CEC01F06B80040087
:102E20006BA014EF17F0FBD7D10E6F6E04006DA0EE
:102E30001BEF17F0FBD7020E7CEC01F06B86040051
:102E40006DB024EF17F0FBD76B886B9A6FCF52F001
:102E5000050E7CEC01F06B8604006DB031EF17F0CD
:102E6000FBD76B886B9A6FCF51F0050E7CEC01F0AD
:102E70006B8604006DB03EEF17F0FBD76B886B9A42
:102E80006FCF54F0050E7CEC01F06B8604006DB042
:102E90004BEF17F0FBD76B886B9A6FCF53F0050E93
:102EA0007CEC01F06B8604006DB058EF17F0FBD797
:102EB0006B886B9A6FCF56F0050E7CEC01F06B8639
:102EC00004006DB065EF17F0FBD76B886B8A6FCF8E
:102ED00055F0030E7CEC01F06B8404006BA472EFE0
:102EE00017F0FBD7030E7CEC01F06B8004006BA0A5
:102EF0007BEF17F0FBD7180E6F6E04006DA082EF0A
:102F000017F0FBD7020E7CEC01F0030E6F6E04008D
:102F10006DA08CEF17F0FBD7020E7CEC01F06B80FC
:102F200004006BA095EF17F0FBD7190E6F6E04002D
:102F30006DA09CEF17F0FBD7020E7CEC01F06B86C6
:102F400004006DB0A5EF17F0FBD76B886B9A6FCFBD
:102F500057F0050E7CEC01F06B8604006DB0B2EF0B
:102F600017F0FBD76B886B9A6FCF58F0050E7CEC8F
:102F700001F06B8604006DB0BFEF17F0FBD76B88D4
:102F80006B9A6FCF59F0050E7CEC01F06B86040054
:102F90006DB0CCEF17F0FBD76B886B9A6FCF5AF000
:102FA000050E7CEC01F06B8604006DB0D9EF17F0D4
:102FB000FBD76B886B9A6FCF5BF0050E7CEC01F052
:102FC0006B8604006DB0E6EF17F0FBD76B886B8A59
:102FD0006FCF5CF0030E7CEC01F06B8404006BA4FB
:102FE000F3EF17F0FBD7030E7CEC01F0180E886F9F
:102FF0000A0E876F110E866F6B8004006BA002EFC4
:1030000018F0FBD788C06FFF04006DA009EF18F01F
:10301000FBD7020E7CEC01F087C06FFF04006DA0AF
:1030200013EF18F0FBD7020E7CEC01F086C06FFFA7
:10303000010E7CEC01F004006DA020EF18F0FBD72E
:10304000020E7CEC01F06B8404006BA429EF18F0F5
:10305000FBD7030E7CEC01F08292060EC96E010EC6
:103060007CEC01F08282010E7CEC01F08292120E67
:10307000C96E010E7CEC01F07BC0C9FF010E7CEC37
:1030800001F07AC0C9FF010E7CEC01F07DC0C9FFE0
:10309000010E7CEC01F07CC0C9FF010E7CEC01F05C
:1030A0004CC0C9FF010E7CEC01F04BC0C9FF010E02
:1030B0007CEC01F04EC0C9FF010E7CEC01F04DC06C
:1030C000C9FF010E7CEC01F050C0C9FF010E7CEC81
:1030D00001F04FC0C9FF010E7CEC01F052C0C9FFE6
:1030E000010E7CEC01F051C0C9FF010E7CEC01F037
:1030F00054C0C9FF010E7CEC01F053C0C9FF010EA2
:103100007CEC01F056C0C9FF010E7CEC01F055C00B
:10311000C9FF010E7CEC01F058C0C9FF010E7CEC28
:1031200001F057C0C9FF010E7CEC01F05AC0C9FF85
:10313000010E7CEC01F059C0C9FF010E7CEC01F0DE
:103140005CC0C9FF010E7CEC01F05BC0C9FF010E41
:103150007CEC01F08282120E7C25146E000E7D2123
:10316000156EF80E026E036815C005F0145097EC4A
:1031700001F0D8A4C3EF18F07A2B000E7B237C6BF0
:103180007D6BF4EF18F0120E7C25146E000E7D217D
:10319000156E14C002F015C003F0046A020E056E2D
:1031A000B5EC01F006C014F007C015F0F80E026E81
:1031B000010E036E15C005F0145097EC01F0D8A471
:1031C000F0EF18F0080E7C25146E000E7D21156EB0
:1031D000120E14247C6F000E15207D6FF4EF18F092
:1031E000120E7C27000E7D23A2EF1AF06B800400E4
:1031F0006BA0FCEF18F0FBD7D00E6F6E04006DA033
:1032000003EF19F0FBD7020E7CEC01F03B0E6F6E62
:1032100004006DA00DEF19F0FBD7020E7CEC01F05D
:103220006B8004006BA016EF19F0FBD7D10E6F6E08
:1032300004006DA01DEF19F0FBD7020E7CEC01F02D
:103240006B8604006DB026EF19F0FBD76B886B9A84
:103250006FCF4CF0050E7CEC01F06B8604006DB076
:1032600033EF19F0FBD76B886B9A6FCF4BF0050EDD
:103270007CEC01F06B8604006DB040EF19F0FBD7D9
:103280006B886B9A6FCF4EF0050E7CEC01F06B866D
:1032900004006DB04DEF19F0FBD76B886B9A6FCFC0
:1032A0004DF0050E7CEC01F06B8604006DB05AEF1A
:1032B00019F0FBD76B886B9A6FCF50F0050E7CEC42
:1032C00001F06B8604006DB067EF19F0FBD76B88D7
:1032D0006B8A6FCF4FF0030E7CEC01F06B8404001F
:1032E0006BA474EF19F0FBD7030E7CEC01F06B803C
:1032F00004006BA07DEF19F0FBD7D00E6F6E0400B9
:103300006DA084EF19F0FBD7020E7CEC01F0430EA8
:103310006F6E04006DA08EEF19F0FBD7020E7CECEF
:1033200001F06B8004006BA097EF19F0FBD7D10E72
:103330006F6E04006DA09EEF19F0FBD7020E7CECBF
:1033400001F06B8604006DB0A7EF19F0FBD76B8816
:103350006B9A6FCF52F0050E7CEC01F06B86040087
:103360006DB0B4EF19F0FBD76B886B9A6FCF51F04B
:10337000050E7CEC01F06B8604006DB0C1EF19F016
:10338000FBD76B886B9A6FCF54F0050E7CEC01F085
:103390006B8604006DB0CEEF19F0FBD76B886B9A8B
:1033A0006FCF53F0050E7CEC01F06B8604006DB01E
:1033B000DBEF19F0FBD76B886B9A6FCF56F0050ED9
:1033C0007CEC01F06B8604006DB0E8EF19F0FBD7E0
:1033D0006B886B8A6FCF55F0030E7CEC01F06B8429
:1033E00004006BA4F5EF19F0FBD7030E7CEC01F0A1
:1033F0008292060EC96E010E7CEC01F08282010EF3
:103400007CEC01F08292120EC96E010E7CEC01F090
:103410007BC0C9FF010E7CEC01F07AC0C9FF010E30
:103420007CEC01F07DC0C9FF010E7CEC01F07CC09A
:10343000C9FF010E7CEC01F04CC0C9FF010E7CEC11
:1034400001F04BC0C9FF010E7CEC01F04EC0C9FF7A
:10345000010E7CEC01F04DC0C9FF010E7CEC01F0C7
:1034600050C0C9FF010E7CEC01F04FC0C9FF010E36
:103470007CEC01F052C0C9FF010E7CEC01F051C0A0
:10348000C9FF010E7CEC01F054C0C9FF010E7CECB9
:1034900001F053C0C9FF010E7CEC01F056C0C9FF1A
:1034A000010E7CEC01F055C0C9FF010E7CEC01F06F
:1034B00082820C0E7C25146E000E7D21156EF80E96
:1034C000026E036815C005F0145097EC01F0D8A403
:1034D00071EF1AF07A2B000E7B237C6B7D6BA2EFD1
:1034E0001AF00C0E7C25146E000E7D21156E14C092
:1034F00002F015C003F0046A020E056EB5EC01F08F
:1035000006C014F007C015F0F80E026E010E036E2F
:1035100015C005F0145097EC01F0D8A49EEF1AF0F6
:10352000080E7C25146E000E7D21156E0C0E1424E1
:103530007C6F000E15207D6FA2EF1AF00C0E7C2719
:10354000000E7D23829E662B000E67231000F8EC90
:1035500014F0C3EF1AF0F8EC14F0939EF8EC14F0AA
:10356000810E1E6E0F0E206E800E1C6E060E016EFA
:103570000C0E3AEC00F0F8EC14F0938EF8EC14F02A
:103580000A0E6FEC01F0F8EC14F01200F8EC14F0F5
:10359000939EF8EC14F0810E1E6E0F0E206E800EBE
:1035A0001C6E060E016E0E0E3AEC00F0F8EC14F0F4
:1035B000938EF8EC14F01200F8EC14F0939EF8ECF3
:1035C00014F0810E1E6E0F0E206E800E1C6E060E05
:1035D000016E0F0E3AEC00F0F8EC14F0938EF8EC5C
:1035E00014F01200F8EC14F0939EF8EC14F0810E35
:1035F0001E6E0F0E206E800E1C6E060E016E100EDB
:103600003AEC00F0400E3AEC00F0F8EC14F0938E37
:10361000F8EC14F01200F8EC14F0939EF8EC14F0AF
:10362000810E1E6E0F0E206E800E1C6E060E016E39
:10363000100E3AEC00F0540E3AEC00F0F8EC14F0F6
:10364000938EF8EC14F01200F8EC14F0939EF8EC62
:1036500014F0810E1E6E0F0E206E800E1C6E060E74
:10366000016E100E3AEC00F0680E3AEC00F0F8EC47
:1036700014F0938EF8EC14F01200F8EC14F0939E12
:10368000F8EC14F0810E1E6E0F0E206E800E1C6E74
:10369000060E016E100E3AEC00F07C0E3AEC00F0D3
:1036A000F8EC14F0938EF8EC14F01200F8EC14F02F
:1036B000320E7CEC01F0F8EC14F0040080BAF6D77E
:0636C000F8EC14F012000A
:020000040030CA
:03000100081F3F96
:02000500BD81BB
:060008000FC00FE00F40E5
:00000001FF
