:020000040000FA
:100000006FEF00F0086E18C0EAFF18C0E2FF16504C
:10001000E96E120FE16E090E096ED89007D808320A
:10002000092EFCD7D88002D86CEF00F001A60BD0C7
:10003000EF50141001A41418EF6EE7501410D8A05C
:100040001418E76E0AD0EF501410D8A0141801B499
:100050001418EF6E141CE71600D00134060B7A0F4B
:10006000F66EF76A000EF722F86A0900F550036E83
:100070000800F55000004FEF00F0019D033D0064C3
:100080000D01056A046EE86A0406055AD8A06CEFF3
:1000900000F0030E036EE70E02D8F5D7036AFD0FDA
:1000A000026E01D00206040000D0E86A035AFAE2A8
:1000B0001200046E010E00D00A6E0550035C02E1CE
:1000C0000450025C040ED8B0010ED8B4020E0A141B
:1000D000D8A4FF0E6CEF00F0000104001200E80E3F
:1000E000D36E800ED26E400E9B6EF26A616A0F0173
:1000F000386B396B3A6B010E966E0001928A9484CC
:100100009488948C948E938093829384938693881E
:10011000938A9290929292949490929694929496BA
:10012000949A809080928094829080968292829617
:10013000829A640E1C6E1D6A2C0E1A6E010E1B6EC6
:10014000010E056EF40E9EDF8082030E056EE80E32
:1001500099DF8092800E166E0F0E186E080E146EC8
:10016000060E016E0C0E4EDF0A0E8BDF800E166E31
:100170000F0E186E080E146E060E016E0C0E42DF86
:100180000E0E40DF800E166E0F0E186E080E146EE7
:10019000060E016E100E36DF400E34DF4D0E32DFDC
:1001A000500E30DF550E2EDF2D0E2CDF350E2ADFE0
:1001B000780E28DF800E166E0F0E186E080E146E65
:1001C000060E016E100E1EDF540E1CDF450E1ADFE8
:1001D000720E18DF610E16DF730E14DF650E12DF6C
:1001E000200E10DF520E0EDF650E0CDF630E0ADFED
:1001F000650E08DF690E06DF760E04DF650E02DF8E
:10020000720E00DF800E166E0F0E186E080E146E42
:10021000060E016E100EF6DE680EF4DE4D0EF2DEF6
:10022000650EF0DE6D0EEEDE6F0EECDE720EEADEB7
:10023000790EE8DE2D0EE6DE310EE4DE800E166E5F
:100240000F0E186E080E146E060E016E100EDADE1A
:100250007C0ED8DE330ED6DE2F0ED4DE320ED2DE8A
:10026000330ED0DE2F0ECEDE320ECCDE300ECADEE6
:10027000310EC8DE380EC6DE200EC4DE200EC2DE11
:10028000200EC0DE200EBEDE200EBCDE280EBADE42
:10029000650EB8DE6C0EB6DE630EB4DE290EB2DE7D
:1002A00082968290040081BA58EF01F00300F9D7DA
:1002B0008280800E166E0F0E186E080E146E060EDB
:1002C000016E0C0E9FDE0A0EDCDE800E166E0F0E27
:1002D000186E080E146E060E016E100E93DE400EA0
:1002E00091DE500E8FDE720E8DDE650E8BDE730E8C
:1002F00089DE730E87DE200E85DE500E83DE420E11
:1003000081DE200E7FDE740E7DDE6F0E7BDE200E22
:1003100079DE450E77DE520E75DE410E73DE530E2A
:1003200071DE450E6FDE8296030E056EE80EAADEC4
:10033000040081BA9EEF01F00300FAD78290808218
:10034000800E166E0F0E186E080E146E060E016EDD
:100350000C0E58DE0A0E95DE800E166E0F0E186E0D
:10036000080E146E060E016E100E4CDE400E4ADEB4
:10037000450E48DE720E46DE610E44DE730E42DE2E
:10038000690E40DE6E0E3EDE670E3CDE200E3ADE6B
:100390004D0E38DE650E36DE6D0E34DE6F0E32DE4B
:1003A000720E30DE790E2EDE8296010E1E6E1F6AF0
:1003B0001EC002F01FC003F0056A080E7ADED8A442
:1003C000F2EF01F0949C828C1DC005F01C505ADEA7
:1003D000948C1BC005F01A5055DE1E2A000E1F22F9
:1003E000D8A0E6D780928280800E166E0F0E186E0F
:1003F000080E146E060E016E0C0E04DE0A0E41DEAF
:10040000800E166E0F0E186E080E146E060E016E1C
:10041000100E02EC00F0400E02EC00F04D0E02EC6B
:1004200000F0650E02EC00F06D0E02EC00F06F0EB5
:1004300002EC00F0720E02EC00F0790E02EC00F01B
:10044000200E02EC00F0450E02EC00F0720E02EC01
:1004500000F0610E02EC00F0730E02EC00F0650E8D
:1004600002EC00F0640E02EC00F08296130E056EB2
:0A047000880E08DE56D60400FED701
:020000040030CA
:03000100081F3F96
:02000500BD81BB
:060008000FC00FE00F40E5
:00000001FF
