:020000040000FA
:1000000068EF00F00A6EF80BE830E830E830E926D7
:10001000D8B0EA2A10EC00F00A6EEF1465EF00F099
:10002000010E0AB0E8440AB2E8440AB2E8440AB44D
:10003000E8381200056A046EE86A0406055AD8A07A
:1000400065EF00F0030E036EE70E02D8F5D7036AE2
:10005000FD0F026E01D00206040000D0E86A035AC8
:10006000FAE21200D89003320232FF0FFBE2025094
:1000700065EF00F0046E010E00D00A6E0550035CBF
:1000800002E10450025C040ED8B0010ED8B4020E96
:100090000A14D8A4FF0E65EF00F0076A066A100E76
:1000A000086E0334063607360450065E0550075ABC
:1000B00005E20450062605500722D8900236033682
:1000C000082EEFD7025065EF00F000010400120087
:1000D000E80ED36E800ED26E400E9B6EF26A616A9D
:1000E0000F01386B396B3A6B010E966E0001949ECE
:1000F00092909296949A94969380938694881C6A90
:100100001D6A1CC002F01DC003F0056A020EB2DFBA
:10011000D8A496EF00F08080640E8CDF8090640E8F
:1001200089DF1C2A000E1D22D8A0EBD791EC05F028
:100130004EEC04F055EC04F0C2EC00F08080640E4C
:1001400079DF8090640E76DFF9D7640E73DF010EDD
:100150001E6E1F6A1EC002F01FC003F0056A0A0E61
:1001600089DFD8A4C1EF00F098EC02F08080DBECCE
:1001700003F0A7EC05F080901E2A000E1F22D8A0E5
:10018000E9D7E5D7CEEC01F0E7EC01F000EC02F0A6
:1001900043EC02F04EEC04F06B0E2C6E800E2F6ED2
:1001A0005EEC04F0030E056EE80E45DFFE0E306EC9
:1001B000040030500108D8B4E7EF00F06B0E2C6E4D
:1001C000010E2F6E5EEC04F076EC04F0F1D7030E16
:1001D000056EE80E30DF3068040030500008D8B4F7
:1001E000FAEF00F06C0E2C6E2F6A5EEC04F076ECE9
:1001F00004F0F2D7030E056EE80E1DDF251C306EED
:1002000004003050255CD8B40FEF01F01A0E2C6EAC
:1002100025C02FF05EEC04F076EC04F0F1D7030E6D
:10022000056EE80E08DF261C306E04003050265C98
:10023000D8B424EF01F01B0E2C6E26C02FF05EEC1C
:1002400004F076EC04F0F1D7030E056EE80EF3DE51
:10025000211C306E04003050215CD8B439EF01F01D
:100260001C0E2C6E21C02FF05EEC04F076EC04F036
:10027000F1D7030E056EE80EDEDE201C306E0400A2
:100280003050205CD8B44EEF01F01D0E2C6E20C013
:100290002FF05EEC04F076EC04F0F1D7030E056E5F
:1002A000E80EC9DE370E2C6E300E2F6E76EC04F0A1
:1002B000CF0E306E040030503008D8B469EF01F032
:1002C000370E2C6E300E2F6E5EEC04F076EC04F0E0
:1002D000F1D7030E056EE80EAEDEDF0E306E0400C1
:1002E00030502008D8B47EEF01F06A0E2C6E200E3C
:1002F0002F6E5EEC04F076EC04F0F1D7030E056E81
:10030000E80E99DEF20E306E040030500D08D8B4BD
:1003100093EF01F0240E2C6E0D0E2F6E5EEC04F0A8
:1003200076EC04F0F1D7030E056EE80E84DE30683B
:10033000040030500008D8B4A6EF01F0270E2C6E50
:100340002F6A5EEC04F076EC04F0F2D7030E056E33
:10035000E80E71DE0C0E2E6E0B0E2C6E010E2A6E48
:100360008FEC04F0030E056EE80E65DE0C0E2E6EAB
:100370002C6A12EC05F02BC023F023C032F0B0EC55
:1003800005F0A7EC05F0040023504808D8B4CBEFE3
:1003900001F03EEF04F047EC04F01200D4EF01F05E
:1003A00021982196E6EF01F0DAEF01F021982186FD
:1003B000E6EF01F021882196E6EF01F0E4EF01F08D
:1003C00021882186E6EF01F0218821961200EDEFC9
:1003D00001F026982696FFEF01F0F3EF01F0269842
:1003E0002686FFEF01F026882696FFEF01F0FDEF4D
:1003F00001F026882686FFEF01F026982686120057
:1004000008EF02F0208620842082209042EF02F044
:1004100010EF02F0208620842092208042EF02F02C
:1004200018EF02F0208620842092209042EF02F004
:1004300020EF02F0208620942082208042EF02F0FC
:10044000208620942082209042EF02F02EEF02F0CE
:10045000208620942092208042EF02F036EF02F0B6
:10046000208620942092209042EF02F03EEF02F08E
:10047000209620942092209042EF02F02086209433
:100480002082209012004CEF02F0268226802584E4
:100490002582259097EF02F055EF02F02682268004
:1004A00025842592258097EF02F05EEF02F02682E8
:1004B000268025842592259097EF02F067EF02F0C1
:1004C0002682268025942582258097EF02F02682B9
:1004D000268025942582259097EF02F077EF02F091
:1004E0002682268025942592258097EF02F080EFC2
:1004F00002F02682268025942592259097EF02F01F
:1005000089EF02F02692268025942592259097EF78
:1005100002F092EF02F026922690259425922590E3
:1005200097EF02F0268226802594258225901200DE
:100530008096BB0EC96E0400C7B0A0EF02F0FBD7D7
:10054000C9CF24F00A0EC96E0400C7B0A9EF02F0AB
:10055000FBD7C9CF3BF0C96A0400C7B0B1EF02F0C6
:10056000FBD7C9CF3AF00A0EC96E0400C7B0BAEF84
:1005700002F0FBD7C9CF3DF0C96A0400C7B0C2EF93
:1005800002F0FBD7C9CF3CF0C96A0400C7B0CAEF7C
:1005900002F0FBD7C9CF3FF0C96A0400C7B0D2EF61
:1005A00002F0FBD7C9CF3EF080868096C30EC96E9D
:1005B0000400C7B0DDEF02F0FBD7C9CF24F0C96A51
:1005C0000400C7B0E5EF02F0FBD7C9CF41F0C96A1C
:1005D0000400C7B0EDEF02F0FBD7C9CF40F0C96A05
:1005E0000400C7B0F5EF02F0FBD7C9CF43F0C96AEA
:1005F0000400C7B0FDEF02F0FBD7C9CF42F0C96AD3
:100600000400C7B005EF03F0FBD7C9CF45F0C96AB6
:100610000400C7B00DEF03F0FBD7C9CF44F08086CC
:100620008096250EC96E0400C7B018EF03F0FBD703
:10063000C9CF24F08C0EC96E0400C7B021EF03F0BF
:10064000FBD7C9CF24F080868096260EC96E0400A1
:10065000C7B02CEF03F0FBD7C9CF24F0030EC96E4F
:100660000400C7B035EF03F0FBD7C9CF24F0808674
:100670008096270EC96E0400C7B040EF03F0FBD789
:10068000C9CF24F0870EC96E0400C7B049EF03F04C
:10069000FBD7C9CF24F080860A0E1AEC00F08096B2
:1006A000C90EC96E0400C7B057EF03F0FBD7C9CF1E
:1006B00024F0C96A0400C7B05FEF03F0FBD7C9CFCD
:1006C00035F0C96A0400C7B067EF03F0FBD7C9CFA4
:1006D00034F0C96A0400C7B06FEF03F0FBD7C9CF8D
:1006E00037F0C96A0400C7B077EF03F0FBD7C9CF72
:1006F00036F0C96A0400C7B07FEF03F0FBD7C9CF5B
:1007000039F0C96A0400C7B087EF03F0FBD7C9CF3F
:1007100038F080868096250EC96E0400C7B092EF2F
:1007200003F0FBD7C9CF24F00C0EC96E0400C7B08C
:100730009BEF03F0FBD7C9CF24F080868096260E6E
:10074000C96E0400C7B0A6EF03F0FBD7C9CF24F0F1
:100750000A0EC96E0400C7B0AFEF03F0FBD7C9CFD4
:1007600024F080868096630EC96E0400C7B0BAEF8D
:1007700003F0FBD7C9CF24F0110EC96E0400C7B037
:10078000C3EF03F0FBD7C9CF24F080868096270EF5
:10079000C96E0400C7B0CEEF03F0FBD7C9CF24F079
:1007A000810EC96E0400C7B0D7EF03F0FBD7C9CFE5
:1007B00024F0808612001C6A1D6A1CC002F01DC055
:1007C00003F0056A0A0E3AEC00F0D8A40BEF04F02F
:1007D0001C28146E000E1D20156E14503A0FE96E81
:1007E000000E1520EA6EEFCF32F0B0EC05F01C5091
:1007F0003A0FE96E000E1D20EA6EEFCF32F0B0EC3A
:1008000005F02C0E336E76EC06F0020E1C26000E60
:100810001D22D8A0D2D71C6A1D6A1CC002F01DC0C0
:1008200003F0056A050E3AEC00F0D8A43BEF04F0A3
:100830001C28146E000E1D20156E1450340FE96E26
:10084000000E1520EA6EEFCF32F0B0EC05F01C5030
:10085000340FE96E000E1D20EA6EEFCF32F0B0ECDF
:1008600005F02C0E336E76EC06F0020E1C26000E00
:100870001D22D8A0D2D7A7EC05F01200808058DE48
:100880009ADF8090640E1AEC00F0F8D71200C76A65
:10089000300EC66E100ECB6E80861200C76A320E06
:1008A000C66E100ECB6E80861200C96A0400C7B0F7
:1008B0005BEF04F0FBD7C9CF24F012008096640EE2
:1008C00027EC00F02CC0C9FF0400C7B069EF04F0AA
:1008D000FBD7C9CF24F02FC0C9FF0400C7B072EF07
:1008E00004F0FBD7C9CF30F0808612008096640EEA
:1008F00027EC00F0800E2C10C96E0400C7B082EF08
:1009000004F0FBD7C9CF24F02FC0C9FF0400C7B043
:100910008BEF04F0FBD7C9CF30F0808612008096B1
:10092000640E27EC00F0270EC96E0400C7B09AEFE2
:1009300004F0FBD7C9CF24F0C96A0400C7B0A2EF06
:1009400004F0FBD7C9CF24F08086640E1AEC00F0C7
:100950008096640E27EC00F0250EC96E0400C7B027
:10096000B3EF04F0FBD7C9CF24F0D8902E30C96E76
:100970000400C7B0BDEF04F0FBD7C9CF24F08086D8
:10098000640E1AEC00F08096640E27EC00F0260E40
:10099000C96E0400C7B0CEEF04F0FBD7C9CF24F076
:1009A0002CC0C9FF0400C7B0D7EF04F0FBD7C9CFF4
:1009B00024F08086640E1AEC00F08096640E27EC1A
:1009C00000F0630EC96E0400C7B0E8EF04F0FBD777
:1009D000C9CF24F02AC0C9FF0400C7B0F1EF04F06A
:1009E000FBD7C9CF24F08086640E1AEC00F0809605
:1009F000640E27EC00F0270EC96E0400C7B002EFAA
:100A000005F0FBD7C9CF24F0810EC96E0400C7B032
:100A10000BEF05F0FBD7C9CF24F08086640E1AECEB
:100A200000F012008096640E27EC00F0270EC96ECD
:100A30000400C7B01DEF05F0FBD7C9CF24F0C96A89
:100A40000400C7B025EF05F0FBD7C9CF24F080869E
:100A5000640E1AEC00F08096640E27EC00F0250E70
:100A6000C96E0400C7B036EF05F0FBD7C9CF24F03C
:100A7000D8902E30C96E0400C7B040EF05F0FBD708
:100A8000C9CF24F08086640E1AEC00F08096640EC4
:100A900027EC00F0260EC96E0400C7B051EF05F038
:100AA000FBD7C9CF24F02CC0C9FF0400C7B05AEF50
:100AB00005F0FBD7C9CF24F08086640E1AEC00F055
:100AC0008096640E27EC00F0270EC96E0400C7B0B4
:100AD0006BEF05F0FBD7C9CF24F0810EC96E04007F
:100AE000C7B074EF05F0FBD7C9CF24F08086640E41
:100AF0001AEC00F08096640E27EC00F0C90EC96E67
:100B00000400C7B085EF05F0FBD7C9CF24F0C96A50
:100B10000400C7B08DEF05F0FBD7C9CF2BF080865E
:100B200012001C6A1D6A1CC002F01DC003F0056A99
:100B3000190E3AEC00F0D8A4A6EF05F0336A76EC73
:100B400006F01C2A000E1D22D8A0EDD712000D0EB3
:100B5000336E76EC06F00A0E336E76EC06F0120079
:100B6000276A0400020E275CD8B075EF06F0040077
:100B700027500008D8A4C8EF05F032C002F0036A7D
:100B8000100E046E056A4DEC00F0286ED2EF05F0F1
:100B900032C002F0036A100E046E056A4DEC00F0DC
:100BA00006C028F0040028500008D8A4DCEF05F0A7
:100BB000300E336E70EF06F0040028500108D8A400
:100BC000E6EF05F0310E336E70EF06F004002850AA
:100BD0000208D8A4F0EF05F0320E336E70EF06F085
:100BE000040028500308D8A4FAEF05F0330E336E42
:100BF00070EF06F0040028500408D8A404EF06F0B3
:100C0000340E336E70EF06F0040028500508D8A4A7
:100C10000EEF06F0350E336E70EF06F0040028502C
:100C20000608D8A418EF06F0360E336E70EF06F003
:100C3000040028500708D8A422EF06F0370E336EC0
:100C400070EF06F0040028500808D8A42CEF06F036
:100C5000380E336E70EF06F0040028500908D8A44F
:100C600036EF06F0390E336E70EF06F004002850B0
:100C70000A08D8A440EF06F0410E336E70EF06F07C
:100C8000040028500B08D8A44AEF06F0420E336E39
:100C900070EF06F0040028500C08D8A454EF06F0BA
:100CA000430E336E70EF06F0040028500D08D8A4F0
:100CB0005EEF06F0440E336E70EF06F0040028502D
:100CC0000E08D8A468EF06F0450E336E70EF06F0FC
:100CD000040028500F08D8A470EF06F0460E336EBB
:100CE00076EC06F0272AD8A03CD71200949E829E6C
:100CF000020E27EC00F0A5EC06F0A5EC06F0226A47
:100D00000400080E225CD8B099EF06F0330EE96EAD
:100D1000EA6A2250000F02EC00F0D8B4829ED8A4F8
:100D2000828E020E27EC00F0A5EC06F0222AD8A055
:100D3000E7D7030E27EC00F0828E020E27EC00F0BE
:100D4000030E27EC00F0948E120012007D0ED76E79
:100D5000CA0ED66EF294818681961000800ED56EF2
:0C0D60007D0ED76ECA0ED66EF294120003
:020000040030CA
:03000100081F3F96
:02000500BD81BB
:060008000FC00FE00F40E5
:00000001FF
