:020000040000FA
:1000000060EF00F00A6EF80BE830E830E830E926DF
:10001000D8B0EA2A10EC00F00A6EEF145DEF00F0A1
:10002000010E0AB0E8440AB2E8440AB2E8440AB44D
:10003000E8381200056A046EE86A0406055AD8A07A
:100040005DEF00F0030E036EE70E02D8F5D7036AEA
:10005000FD0F026E01D00206040000D0E86A035AC8
:10006000FAE21200046E010E00D00A6E0550035C25
:1000700002E10450025C040ED8B0010ED8B4020EA6
:100080000A14D8A4FF0E5DEF00F0076A066A100E8E
:10009000086E0334063607360450065E0550075ACC
:1000A00005E20450062605500722D8900236033692
:1000B000082EEFD702505DEF00F00001040012009F
:1000C000E80ED36E800ED26E400E9B6EF26A616AAD
:1000D0000F01386B396B3A6B010E966E0001949EDE
:1000E00095929296949A949693809386948822EC13
:1000F00003F012EC03F019EC03F08AEC00F0640E4C
:1001000099DF5CEC02F08382D3EC02F038EC03F070
:100110008392F7D792EC01F0ABEC01F0C4EC01F064
:1001200007EC02F08096F50EC96E0400C7B09AEF96
:1001300000F0FBD7C9CF22F0C96A0400C7B0A2EF14
:1001400000F0FBD7C9CF21F0808604002150700851
:10015000D8B4ADEF00F004EF03F080966B0EC96EDB
:100160000400C7B0B5EF00F0FBD7C9CF22F0800E76
:10017000C96E0400C7B0BEEF00F0FBD7C9CF22F0B4
:1001800080860A0E57DF80966B0EC96E0400C7B0DA
:10019000CBEF00F0FBD7C9CF22F0010EC96E0400EF
:1001A000C7B0D4EF00F0FBD7C9CF22F0808680968D
:1001B0006C0EC96E0400C7B0DFEF00F0FBD7C9CFEB
:1001C00022F0C96A0400C7B0E7EF00F0FBD7C9CF3F
:1001D00022F0808680961A0EC96E0400C7B0F2EF36
:1001E00000F0FBD7C9CF22F023C0C9FF0400C7B07D
:1001F000FBEF00F0FBD7C9CF22F0808680961B0E64
:10020000C96E0400C7B006EF01F0FBD7C9CF22F0DA
:1002100024C0C9FF0400C7B00FEF01F0FBD7C9CF5E
:1002200022F0808680961C0EC96E0400C7B01AEFBB
:1002300001F0FBD7C9CF22F01FC0C9FF0400C7B02F
:1002400023EF01F0FBD7C9CF22F0808680961D0EE8
:10025000C96E0400C7B02EEF01F0FBD7C9CF22F062
:100260001EC0C9FF0400C7B037EF01F0FBD7C9CFEC
:1002700022F080868096370EC96E0400C7B042EF28
:1002800001F0FBD7C9CF22F0120EC96E0400C7B02F
:100290004BEF01F0FBD7C9CF22F080868096380E55
:1002A000C96E0400C7B056EF01F0FBD7C9CF22F0EA
:1002B000010EC96E0400C7B05FEF01F0FBD7C9CFD4
:1002C00022F0808680960A0EC96E0400C7B06AEFDD
:1002D00001F0FBD7C9CF22F0110EC96E0400C7B0E0
:1002E00073EF01F0FBD7C9CF22F080868096EC0E29
:1002F000C96E0400C7B07EEF01F0FBD7C9CF22F072
:10030000C96A0400C7B086EF01F0FBD7C9CF22F05D
:100310008086040022500008D8B491EF01F004EF69
:1003200003F0120098EF01F01F981F96AAEF01F05A
:100330009EEF01F01F981F86AAEF01F01F881F96FD
:10034000AAEF01F0A8EF01F01F881F86AAEF01F0C5
:100350001F881F961200B1EF01F024982496C3EF76
:1003600001F0B7EF01F024982486C3EF01F0248850
:100370002496C3EF01F0C1EF01F024882486C3EF77
:1003800001F0249824861200CCEF01F01E861E8412
:100390001E821E9006EF02F0D4EF01F01E861E842E
:1003A0001E921E8006EF02F0DCEF01F01E861E8416
:1003B0001E921E9006EF02F0E4EF01F01E861E94DE
:1003C0001E821E8006EF02F01E861E941E821E9064
:1003D00006EF02F0F2EF01F01E861E941E921E80C0
:1003E00006EF02F0FAEF01F01E861E941E921E9098
:1003F00006EF02F002EF02F01E961E941E921E906F
:1004000006EF02F01E861E941E821E90120010EF50
:1004100002F0248224802384238223905BEF02F065
:1004200019EF02F0248224802384239223805BEF3F
:1004300002F022EF02F0248224802384239223906E
:100440005BEF02F02BEF02F02482248023942382BE
:1004500023805BEF02F02482248023942382239064
:100460005BEF02F03BEF02F024822480239423927E
:1004700023805BEF02F044EF02F024822480239477
:10048000239223905BEF02F04DEF02F02492248040
:100490002394239223905BEF02F056EF02F0249214
:1004A00024902394239223905BEF02F024822480F3
:1004B00023942382239012008096BB0EC96E040001
:1004C000C7B064EF02F0FBD7C9CF22F0C96A0400BD
:1004D000C7B06CEF02F0FBD7C9CF2DF0C96A04009A
:1004E000C7B074EF02F0FBD7C9CF2CF0C96A040083
:1004F000C7B07CEF02F0FBD7C9CF2FF0C96A040068
:10050000C7B084EF02F0FBD7C9CF2EF0C96A040050
:10051000C7B08CEF02F0FBD7C9CF31F0C96A040035
:10052000C7B094EF02F0FBD7C9CF30F08086809639
:10053000C30EC96E0400C7B09FEF02F0FBD7C9CF4E
:1005400022F0C96A0400C7B0A7EF02F0FBD7C9CFF9
:1005500033F0C96A0400C7B0AFEF02F0FBD7C9CFD0
:1005600032F0C96A0400C7B0B7EF02F0FBD7C9CFB9
:1005700035F0C96A0400C7B0BFEF02F0FBD7C9CF9E
:1005800034F0C96A0400C7B0C7EF02F0FBD7C9CF87
:1005900037F0C96A0400C7B0CFEF02F0FBD7C9CF6C
:1005A00036F0808612001C6A1D6A1CC002F01DC055
:1005B00003F0056A0A0E32EC00F0D8A403EF03F052
:1005C0001C28146E000E1D20156E14502C0FE96EA1
:1005D000000E1520EA6EEFCF2AF041EC03F01C501C
:1005E0002C0FE96E000E1D20EA6EEFCF2AF041ECD1
:1005F00003F02C0E2B6E07EC04F0020E1C26000EEE
:100600001D22D8A0D2D712008382010E056EF40EEF
:100610001BEC00F08392010E056EF40E1BEC00F053
:10062000F3D71200C76A300EC66E100ECB6E8086EE
:100630001200C96A0400C7B01FEF03F0FBD7C9CF8F
:1006400022F012001C6A1D6A1CC002F01DC003F0DB
:10065000056A190E32EC00F0D8A437EF03F02B6ACC
:1006600007EC04F01C2A000E1D22D8A0EDD71200C2
:100670000D0E2B6E07EC04F00A0E2B6E07EC04F047
:100680001200256A0400020E255CD8B006EF04F0C3
:10069000040025500008D8A459EF03F02AC002F046
:1006A000036A100E046E056A45EC00F0266E63EFD7
:1006B00003F02AC002F0036A100E046E056A45ECCE
:1006C00000F006C026F0040026500008D8A46DEF04
:1006D00003F0300E2B6E01EF04F0040026500108E9
:1006E000D8A477EF03F0310E2B6E01EF04F0040075
:1006F00026500208D8A481EF03F0320E2B6E01EFD2
:1007000004F0040026500308D8A48BEF03F0330E46
:100710002B6E01EF04F0040026500408D8A495EFD6
:1007200003F0340E2B6E01EF04F004002650050890
:10073000D8A49FEF03F0350E2B6E01EF04F00400F8
:1007400026500608D8A4A9EF03F0360E2B6E01EF51
:1007500004F0040026500708D8A4B3EF03F0370EC6
:100760002B6E01EF04F0040026500808D8A4BDEF5A
:1007700003F0380E2B6E01EF04F004002650090838
:10078000D8A4C7EF03F0390E2B6E01EF04F004007C
:1007900026500A08D8A4D1EF03F0410E2B6E01EFCA
:1007A00004F0040026500B08D8A4DBEF03F0420E3F
:1007B0002B6E01EF04F0040026500C08D8A4E5EFDE
:1007C00003F0430E2B6E01EF04F0040026500D08D9
:1007D000D8A4EFEF03F0440E2B6E01EF04F00400F9
:1007E00026500E08D8A4F9EF03F0450E2B6E01EF4A
:1007F00004F0040026500F08D8A401EF04F0460EC0
:100800002B6E07EC04F0252AD8A03CD71200949E4A
:10081000829E020E27EC00F036EC04F036EC04F079
:10082000206A0400080E205CD8B02AEF04F02B0EDA
:10083000E96EEA6A2050000F02EC00F0D8B4829E04
:10084000D8A4828E020E27EC00F036EC04F0202AA9
:10085000D8A0E7D7030E27EC00F0828E020E27EC1B
:1008600000F0030E27EC00F0948E120012007D0EB3
:10087000D76ECA0ED66EF294818681961000800ED5
:0E088000D56E7D0ED76ECA0ED66EF2941200A3
:020000040030CA
:03000100081F3F96
:02000500BD81BB
:060008000FC00FE00F40E5
:00000001FF
