:020000040000FA
:10000000B2010029B216B21EB21232190C28FE3902
:10001000B30032150310FB28321A1428A60032163A
:100020002B20031819282608322003181928B21E7D
:10003000FB282420492032113212B21136088400E4
:100040003408841780042A2836088400340980057F
:100050008417800508001E204920242045203308ED
:10006000B2190138A2000830A300A20D03181E2007
:10007000031C242049204520A30B35281E2049209D
:100080003608840034080005FF3E3708840035092F
:1000900027283708840035082128A501A400B317B4
:1000A0002730A300103060200330A300E830602028
:1000B000A30164306020A3010A30602024086B286B
:1000C000A2002508A1002408A000DF202008031DAD
:1000D000B313B31B0800303EA60036088400093075
:1000E000A70003107820A60CA70B72280314782809
:1000F0008413B31D872800083404331D34068000A0
:10010000841700083404031C340680009228000879
:100110003404031C34063319340680008417340970
:100120008005922800308A00330D0639A0009F20F8
:10013000A10000308A00200A9F200000B928A33EB9
:1001400003188A0A820001348934033429340034C4
:1001500050340C34ED34A301A200FF30A207031C7D
:10016000A307031CFB280330A100E330B920AD280E
:10017000A101F43EA000A109FE30031CC228A00783
:100180000318BF28A0076400A10FBF280000201893
:10019000C9282018CB280800A2000330CF28A800C7
:1001A00023082102031DD628220820020430031848
:1001B0000130031902302805031DFF30FB28A5017B
:1001C000A4011030A600210DA40DA50D2208A40243
:1001D0002308031C230FA5020318F5282208A407EF
:1001E00023080318230FA5070310A00DA10DA60BCC
:1001F000E3282008FB2883130313831264000800FC
:100200008316810183128B0183168C0183128C016A
:10021000831677308F00203091008501870195018A
:1002200096018312073099009F018316071105126A
:100230008512051083128A11E1218A11E9218A11A0
:10024000F9218A111322BA010530B6000130B40039
:100250000230B30049308A016C2032308A016C20B0
:1002600043308A016C2020308A016C2053308A018F
:100270006C2063308A016C2061308A016C206E3002
:100280008A016C206E308A016C2065308A016C20F6
:1002900072308A016C200730A300D0308A01AC2074
:1002A0008A112D2283168516051683128A113A2289
:1002B000BC016400FF303C028A1103189E293C08EF
:1002C000B800B9010530B6002030B4000530B700E1
:1002D0001030B5003C088A0104208A110318DA297D
:1002E00000308A0102208A110318DA293808A00098
:1002F0003908A1000330A300E8308A01CC208A111C
:10030000031D9929BA0A64003A08053C8A11031DA5
:100310008B298A1106220530B6000130B400023064
:10032000B3003C088A014D2020308A016C208A11DC
:100330002D220230BC078A11031C592964003A0897
:10034000003C8A11031DD7290530B6000130B400E6
:100350000230B3004E308A016C206F308A016C206D
:1003600020308A016C2044308A016C2065308A017B
:100370006C2076308A016C2069308A016C206330F1
:100380008A016C2065308A016C2020308A016C2043
:1003900046308A016C206F308A016C2075308A01EA
:1003A0006C206E308A016C2064308A016C206300FE
:1003B0008A01D729E830B8000330B9008A017629CC
:1003C00008008A11E92119308A01AB208A11E9213C
:1003D00008000530B6000130B4000230B300FE3032
:1003E0008A016C2001308A016C200A308A01AB201E
:1003F00008000530B6000130B4000230B300FE3012
:100400008A016C2080308A016C2008000530B6001B
:100410000130B4000230B300FE308A016C20C030DD
:100420008A016C2008000530B6000130B4000230AB
:10043000B300FE308A016C200D308A016C20080068
:100440000530B6000130B4000230B300FE308A013E
:100450006C200C308A016C2008000530B600013099
:10046000B4000230B3000A308A016C200D308A01DA
:100470006C200800BB01640002303B028A110318A3
:100480004D2A071564308A01AB20071164308A01B8
:0C049000AB20BB0A8A11031D3B2A0800A8
:020000040000FA
:02400E00FC3F75
:00000001FF
