:020000040000FA
:0400000074EF01F0A8
:020008001200E4
:0800180012000A6EF80BE8303B
:10002000E830E830E926D8B0EA2AD1EC00F00A6ED0
:10003000EF1471EF01F0076A066E018E270E056E50
:10004000100E0CD8030E056EE80E08D8056A640E73
:1000500005D8056A0A0E02D806500BD0046E075068
:10006000036E0650026E35EC01F0E866019E01BE9B
:100070001200300F086E20C0EAFF20C0E2FF1E50C1
:10008000E96E120FE16E090E096ED89007D808329A
:10009000092EFCD7D88002D871EF01F001A60BD051
:1000A000EF501C1001A41C18EF6EE7501C10D8A0D4
:1000B0001C18E76E0AD0EF501C10D8A01C1801B411
:1000C0001C18EF6E1C1CE71600D00134060BEA0F5B
:1000D000F66EF76A000EF722F86A0900F550036E13
:1000E0000800F550000000EF01F0019D033D0064A1
:1000F0000D0120C0EAFF1EC0E9FF0E50026E0F5036
:10010000036E046A056A040020D80CE3E86A04065A
:10011000055AF9E20206035A17E3780E046E010E3F
:10012000056EF1D729D80A6A080E056E26D80DD8B3
:10013000D8B00A3E0432052EF9D70DAA0A6A0DBAC4
:10014000049E1BD8D88004501200120EE9261C50C1
:10015000EF121EC0E9FFEF140DBC1C18FF0F1200B8
:10016000D96E0B0603E2D88071EF01F06BEC01F061
:10017000D8A01200DE6EF5D7018C0D501F0B000FBA
:10018000036E0C50100FD8B0032A01AC00EF01F041
:10019000019CD8900332E830D8900332E83000EF69
:1001A00001F0010E0AB0E8440AB2E8440AB2E84499
:1001B0000AB4E8381200A66AA680A850A94AAA2A5A
:1001C00071EF01F0E86AA86EA66AA684550EA76EC4
:1001D000AA0EA76EA682A6B2FED7A694A94AAA2AFC
:1001E00071EF01F0056A046EE86A0406055AD8A0AA
:1001F00071EF01F0030E036EE70E02D8F5D7036A24
:10020000FD0F026E01D00206040000D0E86A035A16
:10021000FAE21200046E030E0CD0056A046E010EA1
:1002200008D0046E060E05D0046E040E02D0046ED3
:10023000050E0A6E0550035C02E10450025C040ED8
:10024000D8B0010ED8B4020E0A14D8A4FF0E71EF74
:1002500001F0E866FF0E0214D8A4FF0E71EF01F062
:100260000210D8A4FF0E71EF01F0076A066A100EA3
:10027000086E0334063607360450065E0550075AEA
:1002800005E20450062605500722D89002360336B0
:10029000082EEFD7025071EF01F004500802F3CF9F
:1002A00006F0F4CF07F005500902F3CF02F0F4CFC7
:1002B00003F00802F3500726F4500222E86A0322F2
:1002C00004500902F3500726F4500222E86A032280
:1002D000065071EF01F0E96EFB6A1350FA6E12508E
:1002E000F96E000104001200E80ED36E800ED26E8B
:1002F000400E9B6EF26A060E616E0F01386B396B11
:100300003A6B010E966E229222942296000196EC90
:1003100014F09488938A938293849380938E948E1E
:10032000938694909290929294929496949A9296A4
:100330008290809080928086030E056EE80E53DFD7
:100340008082030E056EE80E4EDF8092939E810E32
:100350001E6E0F0E206E800E1C6E060E016E0C0EB1
:1003600089DE0A0E3FDF810E1E6E0F0E206E800E9C
:100370001C6E060E016E0E0E7DDE100E7BDE400E34
:1003800079DE4D0E77DE500E75DE550E73DE2D0EC6
:1003900071DE330E6FDE450E6DDE200E6BDE280E35
:1003A00069DE410E67DE440E65DE4D0E63DE290E0A
:1003B00061DE200E5FDE440E5DDE650E5BDE760ED6
:1003C00059DE2D0E57DE310E55DE810E1E6E0F0EDC
:1003D000206E800E1C6E060E016E100E4BDE540E4B
:1003E00049DE340E47DE2F0E45DE320E43DE370E79
:1003F00041DE2F0E3FDE320E3DDE300E3BDE310E93
:1004000039DE380E37DE938E476A486AFA0EEADE26
:100410008280010E056E2C0EE6DE82900A0EEFDE63
:100420008080010E056E2C0EDEDE80900A0EE7DE67
:100430008082010E056E2C0ED6DE80920A0EDFDE63
:1004400082800A0EDCDE8282010ED9DE8286010EF7
:10045000D6DE829A010ED3DE8182010ED0DE818447
:10046000010ECDDE69EC07F0EDEC04F063EC07F073
:10047000EAEC08F000EC09F0CFEC0EF089EC0CF09F
:100480000A0EB0DEC8EC16F063EC05F02282472AB3
:10049000000E4822828072EF02F0939E810E1E6E43
:1004A0000F0E206E800E1C6E060E016E100E3AECC2
:1004B00000F0400E3AEC00F0530E3AEC00F0540E0F
:1004C0003AEC00F0410E3AEC00F04E0E3AEC00F03F
:1004D000440E3AEC00F0420E3AEC00F0590E3AECC1
:1004E00000F0938E040081BAEAEF04F08290A4EF4A
:1004F00002F0939E810E1E6E0F0E206E800E1C6EFB
:10050000060E016E100E3AEC00F0400E3AEC00F0D0
:10051000520E3AEC00F0550E3AEC00F04E0E3AEC6A
:1005200000F0200E3AEC00F0540E3AEC00F0450ECC
:100530003AEC00F0530E3AEC00F0540E3AEC00F0B6
:100540003F0E3AEC00F0938E070E056ED00E4BDE98
:10055000040081BA92EF04F08080EFEF02F0939EE6
:10056000810E1E6E0F0E206E800E1C6E060E016E2A
:10057000100E3AEC00F0400E3AEC00F0530E3AEC5C
:1005800000F0450E3AEC00F04E0E3AEC00F0440E4E
:100590003AEC00F0200E3AEC00F0440E3AEC00F099
:1005A000410E3AEC00F0540E3AEC00F0410E3AECF9
:1005B00000F0200E3AEC00F0540E3AEC00F04F0E32
:1005C0003AEC00F0200E3AEC00F0500E3AEC00F05D
:1005D000430E3AEC00F03F0E3AEC00F0938E070E1B
:1005E000056ED00E00DE040081BA37EF04F0010E74
:1005F00006DE8082010E03DE809048EF03F0939EBA
:10060000810E1E6E0F0E206E800E1C6E060E016E89
:10061000100E3AEC00F0400E3AEC00F0450E3AECC9
:1006200000F0520E3AEC00F0410E3AEC00F0530E9E
:100630003AEC00F0450E3AEC00F03F0E3AEC00F0D8
:10064000200E3AEC00F0200E3AEC00F0200E3AECCE
:1006500000F0200E3AEC00F0200E3AEC00F0200EF4
:100660003AEC00F0200E3AEC00F0200E3AEC00F0EC
:10067000200E3AEC00F0200E3AEC00F0200E3AEC9E
:1006800000F0200E3AEC00F0200E3AEC00F0938ED1
:10069000070E056ED00EF3EC00F0040081BA59EF9E
:1006A00003F080928280808006EC0AF032D635EF2B
:1006B00004F0808282808090B2EF03F0C8EC16F0E4
:1006C000939E810E1E6E0F0E206E800E1C6E060E07
:1006D000016E100E3AEC00F0400E3AEC00F0530EB2
:1006E0003AEC00F0450E3AEC00F0430E3AEC00F024
:1006F000540E3AEC00F04F0E3AEC00F0520E3AEC89
:1007000000F0200E3AEC00F0450E3AEC00F0520EEC
:100710003AEC00F0410E3AEC00F0530E3AEC00F0E7
:10072000450E3AEC00F03F0E3AEC00F0200E3AECA9
:1007300000F0200E3AEC00F0200E3AEC00F0200E13
:100740003AEC00F0200E3AEC00F0200E3AEC00F00B
:10075000200E3AEC00F0200E3AEC00F0200E3AECBD
:1007600000F0938E040081BAB7EF03F0FBD78290BC
:100770003D6A3E6A3DC002F03EC003F0056A0C0EC1
:100780000EEC01F0D8A42EEF04F0040081BA1FEFA4
:1007900004F019EF04F0C8EC16F0939E810E1E6E63
:1007A0000F0E206E800E1C6E060E016E100E3AECBF
:1007B00000F0400E3AEC00F0420E3AEC00F0550E1C
:1007C0003AEC00F04C0E3AEC00F04B0E3AEC00F034
:1007D000200E3AEC00F0450E3AEC00F0520E3AECE6
:1007E00000F0410E3AEC00F0530E3AEC00F0490EE6
:1007F0003AEC00F04E0E3AEC00F0470E3AEC00F006
:100800003F0E3AEC00F0200E3AEC00F0200E3AECED
:1008100000F0200E3AEC00F0200E3AEC00F0200E32
:100820003AEC00F0200E3AEC00F0200E3AEC00F02A
:10083000938E82808082B5EC08F032EF04F08082E3
:100840007D0EF2EC00F0809280807D0EF2EC00F0E4
:1008500080903D2A000E3E22D8A08CD782808082D4
:1008600036EC08F0809204EF02F090EF04F08290F2
:10087000808089EF04F0C8EC16F0939E810E1E6E06
:100880000F0E206E800E1C6E060E016E100E3AECDE
:1008900000F0400E3AEC00F0530E3AEC00F0450E3A
:1008A0003AEC00F04E0E3AEC00F0440E3AEC00F058
:1008B000490E3AEC00F04E0E3AEC00F0470E3AECDE
:1008C00000F0200E3AEC00F0440E3AEC00F0410E3D
:1008D0003AEC00F0540E3AEC00F0410E3AEC00F025
:1008E000200E3AEC00F0540E3AEC00F04F0E3AECC9
:1008F00000F0200E3AEC00F0500E3AEC00F0430EFF
:100900003AEC00F0200E3AEC00F0200E3AEC00F049
:10091000938E35EC11F0C8EC16F0809004EF02F0E5
:10092000EAEF04F0E2EF04F0C8EC16F0939E810EBB
:100930001E6E0F0E206E800E1C6E060E016E100EC7
:100940003AEC00F0400E3AEC00F0520E3AEC00F0B7
:10095000550E3AEC00F04E0E3AEC00F04E0E3AEC2A
:1009600000F0490E3AEC00F04E0E3AEC00F0470E63
:100970003AEC00F0200E3AEC00F0540E3AEC00F0A5
:10098000450E3AEC00F0530E3AEC00F0540E3AECFF
:1009900000F0200E3AEC00F0200E3AEC00F0200EB1
:1009A0003AEC00F0200E3AEC00F0200E3AEC00F0A9
:1009B000200E3AEC00F0200E3AEC00F0200E3AEC5B
:1009C00000F0938E9AEC14F0C8EC16F0C8EC16F018
:1009D00004EF02F0030047EF02F093849382100EBD
:1009E0006D6E280E6C6E6B6A696A110E6E6EFCEC91
:1009F00004F003EC05F012006B8004006BA002EF22
:100A000005F0FBD712006B8404006BA409EF05F01E
:100A1000FBD71200F1DF85C06FFF04006DA012EF5D
:100A200005F0FBD7020EFFEC00F084C06FFF04005E
:100A30006DA01CEF05F0FBD7020EFFEC00F083C0A9
:100A40006FFF010EFFEC00F004006DA029EF05F030
:100A5000FBD7020EFFEC00F0D6DF1200CDDF6B9863
:100A600085C06FFF04006DA037EF05F0FBD7020EC5
:100A7000FFEC00F084C06FFF04006DA041EF05F0B3
:100A8000FBD7020EFFEC00F0B7DF85296F6E040084
:100A90006DA04CEF05F0FBD7020EFFEC00F06B866B
:100AA0006B8804006DB056EF05F0FBD76FCF83F075
:100AB000050EFFEC00F06B8604006DB061EF05F0F1
:100AC000FBD7A1DF1200A60E856F2D0E846F836BFE
:100AD000A1DFA60E856F2E0E846F836B9BDFA60EA3
:100AE000856F380E846F836B95DFA60E856F310E90
:100AF000846F0B0E836F8EDFA60E856F2C0E846FB6
:100B00000F0E836F87DFA60E856F2D0E846F080E84
:100B1000836F80DFA60E856F846BA0DF83C08DF0AE
:100B20000CEC09F000EC09F004008351E508D8B49E
:100B30009CEF05F09DEF05F012008290809080827E
:100B4000FA0EF2EC00F08092FA0EF2EC00F0F7D719
:100B50001200020E026E036A28C005F0275017EC3F
:100B600001F0D8A4B8EF05F05E985E96E7EF05F0C7
:100B7000040E026E036A28C005F0275017EC01F03E
:100B8000D8A4C7EF05F05E985E86E7EF05F0080E83
:100B9000026E036A28C005F0275017EC01F0D8A4B4
:100BA000D6EF05F05E885E96E7EF05F0100E026E58
:100BB000036A28C005F0275017EC01F0D8A4E5EF30
:100BC00005F05E885E86E7EF05F05E885E961200AF
:100BD000FA0E026E036A3CC005F03B5017EC01F0C0
:100BE000D8A4F7EF05F07F997F9729EF06F0F40E70
:100BF000026E010E036E3CC005F03B5017EC01F095
:100C0000D8A407EF06F07F997F8729EF06F0E80E5A
:100C1000026E030E036E3CC005F03B5017EC01F072
:100C2000D8A417EF06F07F897F9729EF06F0D00E42
:100C3000026E070E036E3CC005F03B5017EC01F04E
:100C4000D8A427EF06F07F897F8729EF06F07F99E8
:100C50007F871200050E026E036A24C005F0235040
:100C600017EC01F0D8A43BEF06F05D865D845D8251
:100C70005D90B8EF06F00A0E026E036A24C005F01C
:100C8000235017EC01F0D8A44CEF06F05D865D848C
:100C90005D925D80B8EF06F0140E026E036A24C008
:100CA00005F0235017EC01F0D8A45DEF06F05D8647
:100CB0005D845D925D90B8EF06F0290E026E036AC6
:100CC00024C005F0235017EC01F0D8A46EEF06F015
:100CD0005D865D945D825D80B8EF06F05C0E026E0D
:100CE000036A24C005F0235017EC01F0D8A47FEF6D
:100CF00006F05D865D945D825D90B8EF06F0B80EFB
:100D0000026E036A24C005F0235017EC01F0D8A44A
:100D100090EF06F05D865D945D925D80B8EF06F021
:100D2000CC0E026E010E036E24C005F0235017ECAA
:100D300001F0D8A4A2EF06F05D865D945D925D900F
:100D4000B8EF06F06A0E026E040E036E24C005F0C2
:100D5000235017EC01F0D8A4B4EF06F05D965D9433
:100D60005D925D90B8EF06F05D865D945D825D906A
:100D70001200050E026E036A3AC005F0395017ECF6
:100D800001F0D8A4CBEF06F07F837F817E857E8340
:100D90007E9162EF07F00A0E026E036A3AC005F018
:100DA000395017EC01F0D8A4DDEF06F07F837F8186
:100DB0007E857E937E8162EF07F0140E026E036AD9
:100DC0003AC005F0395017EC01F0D8A4EFEF06F067
:100DD0007F837F817E857E937E9162EF07F0290E6F
:100DE000026E036A3AC005F0395017EC01F0D8A43E
:100DF00001EF07F07F837F817E957E837E8162EFA6
:100E000007F05C0E026E036A3AC005F0395017EC29
:100E100001F0D8A413EF07F07F837F817E957E8356
:100E20007E9162EF07F0B80E026E036A3AC005F0D9
:100E3000395017EC01F0D8A425EF07F07F837F81AC
:100E40007E957E937E8162EF07F0FA0E026E036A52
:100E50003AC005F0395017EC01F0D8A437EF07F08D
:100E60007F837F817E957E937E9162EF07F0100EE7
:100E7000026E0E0E036E3AC005F0395017EC01F009
:100E8000D8A44AEF07F07F937F817E957E937E9171
:100E900062EF07F0600E026E220E036E3AC005F09C
:100EA000395017EC01F0D8A45DEF07F07F937F91E4
:100EB0007E957E937E9162EF07F07F837F817E95A2
:100EC0007E837E911200C76A300EC66E100ECB6E06
:100ED0001200A3EC10F08292060EC96E010EFFEC18
:100EE00000F08282010EFFEC00F08292010EC96ECA
:100EF000010EFFEC00F0C96A010EFFEC00F0C96AB8
:100F0000010EFFEC00F0C00EC96E010EFFEC00F008
:100F10008282030E056EE80EF3EC00F01200D3DFC0
:100F20003D6A3E6A3DC002F03EC003F0056AFB0E1A
:100F30000EEC01F0D8A4A9EF07F03D50A30FE96E25
:100F4000020E3E20EA6EEF6A3D2A000E3E22D8A035
:100F5000E9D73D6A3E6A3DC002F03EC003F0056A33
:100F6000FB0E0EEC01F0D8A4C2EF07F03D509F0F2E
:100F7000E96E030E3E20EA6EEF6A3D2A000E3E2225
:100F8000D8A0E9D78292130EC96E010EFFEC00F0D3
:100F90006DC0C9FF010EFFEC00F06CC0C9FF010E6F
:100FA000FFEC00F06FC0C9FF010EFFEC00F06EC057
:100FB000C9FF010EFFEC00F03D6A3E6A3DC002F041
:100FC0003EC003F0056AFB0E0EEC01F0D8A4FDEF65
:100FD00007F0C96A010EFFEC00F03D50A30FE96E67
:100FE000020E3E20EA6EC9CFEFFF010EFFEC00F0CB
:100FF0003D2A000E3E22D8A0E1D73D6A3E6A3DC0A0
:1010000002F03EC003F0056AFB0E0EEC01F0D8A41E
:101010001EEF08F0C96A010EFFEC00F03D509F0F73
:10102000E96E030E3E20EA6EC9CFEFFF010EFFEC22
:1010300000F03D2A000E3E22D8A0E1D78282026A4B
:10104000FE0E036E6FC005F06E5117EC01F0D8A4D0
:1010500031EF08F06C2B000E6D236E6B6F6B35EF6C
:1010600008F0000E6E27020E6F231200949ECFEC44
:101070000EF06C6B6D6B6E6B6F6B6CC002F06DC0C5
:1010800003F079C005F078510EEC01F0D8A4B1EF6F
:1010900008F08A910400D8968AB1D886D8B68FEF26
:1010A00008F08292010EFFEC00F0060EC96E010EF0
:1010B000FFEC00F08282010EFFEC00F08292010E44
:1010C000FFEC00F0D80EC96E010EFFEC00F06DC011
:1010D000C9FF010EFFEC00F06CC0C9FF010EFFEC70
:1010E00000F06FC0C9FF010EFFEC00F08282010E1C
:1010F000FFEC00F08292010EFFEC00F0050EC96ECD
:10110000010EFFEC00F0C96A010EFFEC00F0C9CF40
:101110008AF0010EFFEC00F082828A81BBD70400C6
:10112000D8968AA1D886D8B6AAEF08F08292010E86
:10113000FFEC00F0050EC96E010EFFEC00F0C96A6D
:10114000010EFFEC00F0C9CF8AF0010EFFEC00F0B9
:101150008282E5D7040E6C27000E6D236E6B6F6BD9
:101160008CD7496A4A6A948E1200ADDE8292060ECE
:10117000C96E010EFFEC00F08282010EFFEC00F060
:101180008292600EC96E010EFFEC00F08282030EA7
:10119000056EE80EF3EC00F08A810400D8968AA16F
:1011A000D886D8B6E7EF08F08292050EC96E010E18
:1011B000FFEC00F0C96A010EFFEC00F0C9CF8AF025
:1011C0008282030E056EE80EF3EC00F0E6D7496A62
:1011D0004A6A12003D6A3E6A3DC002F03EC003F01A
:1011E000056A0A0E0EEC01F0D8A4FFEF08F08E6B32
:1011F000D2EC09F03D2A000E3E22D8A0EDD7120015
:101200000D0E8E6FD2EC09F0010EF2EC00F00A0E1A
:101210008E6FD2EC09F01200806B0400020E805D2C
:10122000D8B0D1EF09F0040080510008D8A424EF11
:1012300009F08DC002F0036A100E046E056A35ECE9
:1012400001F0816F2EEF09F08DC002F0036A100EDD
:10125000046E056A35EC01F006C081F0040081518E
:101260000008D8A438EF09F0300E8E6FCCEF09F0EB
:10127000040081510108D8A442EF09F0310E8E6FAD
:10128000CCEF09F0040081510208D8A44CEF09F01A
:10129000320E8E6FCCEF09F0040081510308D8A400
:1012A00056EF09F0330E8E6FCCEF09F00400815138
:1012B0000408D8A460EF09F0340E8E6FCCEF09F06B
:1012C000040081510508D8A46AEF09F0350E8E6F2D
:1012D000CCEF09F0040081510608D8A474EF09F09E
:1012E000360E8E6FCCEF09F0040081510708D8A4A8
:1012F0007EEF09F0370E8E6FCCEF09F004008151BC
:101300000808D8A488EF09F0380E8E6FCCEF09F0EA
:10131000040081510908D8A492EF09F0390E8E6FAC
:10132000CCEF09F0040081510A08D8A49CEF09F021
:10133000410E8E6FCCEF09F0040081510B08D8A448
:10134000A6EF09F0420E8E6FCCEF09F00400815138
:101350000C08D8A4B0EF09F0430E8E6FCCEF09F063
:10136000040081510D08D8A4BAEF09F0440E8E6F25
:10137000CCEF09F0040081510E08D8A4C4EF09F0A5
:10138000450E8E6FCCEF09F0040081510F08D8A4F0
:10139000CCEF09F0460E8E6FD2EC09F0802BD8A06E
:1013A0003CD71200949E829E020EFFEC00F005ECEA
:1013B0000AF005EC0AF05F6A0400080E5F5CD8B022
:1013C000F5EF09F08E0EE96EEA6A5F50000F0DEC42
:1013D00000F0D8B4829ED8A4828E020EFFEC00F0FA
:1013E00005EC0AF05F2AD8A0E7D7030EFFEC00F067
:1013F000828E020EFFEC00F005EC0AF005EC0AF01C
:10140000948E020EFFEC00F0120012004AEF0AF078
:10141000C8EC16F0939E810E1E6E0F0E206E800E8D
:101420001C6E060E016E100E3AEC00F0400E3AEC07
:1014300000F0570E3AEC00F0410E3AEC00F0490E85
:101440003AEC00F0540E3AEC00F0490E3AEC00F0A1
:101450004E0E3AEC00F0470E3AEC00F0200E3AEC5B
:1014600000F0460E3AEC00F04F0E3AEC00F0520E4F
:101470003AEC00F0200E3AEC00F0440E3AEC00F0AA
:10148000410E3AEC00F0540E3AEC00F0410E3AEC0A
:1014900000F0938E810E1E6E0F0E206E010E1C6EDC
:1014A000540E0C6E0D6A100E0E6E270E0F6E79EC38
:1014B00000F0D8A0B5EF0DF05A08D8A4F8D71C0E4C
:1014C0000B6EF20E126E136ADA6A8F0EB0EC00F039
:1014D000D8A0B5EF0DF0816BD7EC0DF082C008F00D
:1014E000096A046A100E056E4DEC01F0256E07C006
:1014F00026F0010E816FD7EC0DF082C008F0096A6A
:10150000046A010E056E4DEC01F0146E07C015F073
:101510001450252615502622020E816FD7EC0DF0AF
:1015200082C008F0096A100E046E056A4DEC01F0E5
:10153000146E07C015F01450252615502622030EF0
:10154000816FD7EC0DF082512526E86A2622040E21
:10155000816FD7EC0DF082C008F0096A046A100EA2
:10156000056E4DEC01F0456E07C046F0050E816F2B
:10157000D7EC0DF082C008F0096A046A010E056E0E
:101580004DEC01F0146E07C015F0145045261550AF
:101590004622060E816FD7EC0DF082C008F0096A72
:1015A000100E046E056A4DEC01F0146E07C015F0C4
:1015B0001450452615504622070E816FD7EC0DF0CA
:1015C00082514526E86A4622080E816FD7EC0DF05D
:1015D00082C008F0096A046A100E056E4DEC01F035
:1015E000726F07C073F0090E816FD7EC0DF082C0E7
:1015F00008F0096A046A010E056E4DEC01F0146EE4
:1016000007C015F014507227155073230A0E816F0E
:10161000D7EC0DF082C008F0096A100E046E056A5E
:101620004DEC01F0146E07C015F0145072271550E0
:1016300073230B0E816FD7EC0DF082517227E86A8D
:1016400073230C0E816FD7EC0DF082C008F0096A8D
:10165000046A100E056E4DEC01F0276E07C028F0ED
:101660000D0E816FD7EC0DF082C008F0096A046A94
:10167000010E056E4DEC01F0146E07C015F014500C
:101680002726155028220E0E816FD7EC0DF082C050
:1016900008F0096A100E046E056A4DEC01F0146E34
:1016A00007C015F014502726155028220F0E816F01
:1016B000D7EC0DF082512726E86A2822100E816FA0
:1016C000D7EC0DF082C008F0096A046A100E056EAE
:1016D0004DEC01F03B6E07C03CF0110E816FD7EC72
:1016E0000DF082C008F0096A046A010E056E4DEC27
:1016F00001F0146E07C015F014503B2615503C2223
:10170000120E816FD7EC0DF082C008F0096A100E3E
:10171000046E056A4DEC01F0146E07C015F014500C
:101720003B2615503C22130E816FD7EC0DF08251F1
:101730003B26E86A3C22140E816FD7EC0DF082C084
:1017400008F0096A046A100E056E4DEC01F0236E74
:1017500007C024F0150E816FD7EC0DF082C008F0A1
:10176000096A046A010E056E4DEC01F0146E07C0A3
:1017700015F01450232615502422160E816FD7EC35
:101780000DF082C008F0096A100E046E056A4DEC77
:1017900001F0146E07C015F01450232615502422B2
:1017A000170E816FD7EC0DF082512326E86A2422B0
:1017B000180E816FD7EC0DF082C008F0096A046A38
:1017C000100E056E4DEC01F0396E07C03AF0190E9F
:1017D000816FD7EC0DF082C008F0096A046A010E2F
:1017E000056E4DEC01F0146E07C015F0145039264B
:1017F00015503A221A0E816FD7EC0DF082C008F016
:10180000096A100E046E056A4DEC01F0146E07C0F3
:1018100015F01450392615503A221B0E816FD7EC63
:101820000DF082513926E86A3A22A96AAA6A25503F
:10183000E3EC00F02650E3EC00F00A0EF2EC00F0CE
:10184000020EA96EAA6A4550E3EC00F04650E3ECA4
:1018500000F00A0EF2EC00F0040EA96EAA6A7251B2
:10186000E3EC00F07351E3EC00F00A0EF2EC00F050
:10187000060EA96EAA6A2750E3EC00F02850E3ECAC
:1018800000F00A0EF2EC00F0080EA96EAA6A3B50B6
:10189000E3EC00F03C50E3EC00F00A0EF2EC00F058
:1018A0000A0EA96EAA6A2350E3EC00F02450E3EC80
:1018B00000F00A0EF2EC00F00C0EA96EAA6A395084
:1018C000E3EC00F03A50E3EC00F00A0EF2EC00F02A
:1018D000010E3D6E3E6A3DC002F03EC003F0056A57
:1018E000040E0EEC01F0D8A487EF0CF08280010EFC
:1018F000056E5E0EF3EC00F08290010E056E5E0E3A
:10190000F3EC00F03D2A000E3E22D8A0E4D78090F0
:101910001200256A266A456A466A726B736B276AEB
:10192000286A3B6A3C6A236A246A396A3A6AA96A65
:10193000AA6ADBEC00F0256EDBEC00F0266E0A0EE6
:10194000F2EC00F0020EA96EAA6ADBEC00F0456E24
:10195000DBEC00F0466E0A0EF2EC00F0040EA96E0D
:10196000AA6ADBEC00F0726FDBEC00F0736F0A0E1A
:10197000F2EC00F0060EA96EAA6ADBEC00F0276E0E
:10198000DBEC00F0286E0A0EF2EC00F0080EA96EF7
:10199000AA6ADBEC00F03B6EDBEC00F03C6E0A0E5A
:1019A000F2EC00F00A0EA96EAA6ADBEC00F0236EDE
:1019B000DBEC00F0246E0A0EF2EC00F00C0EA96EC7
:1019C000AA6ADBEC00F0396EDBEC00F03A6E0A0E2E
:1019D000F2EC00F0C8EC16F00268036826C005F0CF
:1019E000255017EC01F0D8A4FAEF0CF0C00E256ECC
:1019F000030E266E0268036846C005F0455017ECDA
:101A000001F0D8A407EF0DF0600E456E466A02683B
:101A1000036873C005F0725117EC01F0D8A414EFFD
:101A20000DF01E0E726F736B0268036828C005F01C
:101A3000275017EC01F0D8A421EF0DF0100E276EFF
:101A4000286A026803683CC005F03B5017EC01F0BF
:101A5000D8A42FEF0DF0D00E3B6E070E3C6E02683F
:101A6000036824C005F0235017EC01F0D8A43CEF24
:101A70000DF05C0E236E246A026803683AC005F01C
:101A8000395017EC01F0D8A449EF0DF05C0E396E17
:101A90003A6A12003EDF87C08EF0D2EC09F0050EE4
:101AA000FFEC00F026C08EF0D2EC09F0050EFFEC42
:101AB00000F025C08EF0D2EC09F0050EFFEC00F02E
:101AC00046C08EF0D2EC09F0050EFFEC00F045C0E8
:101AD0008EF0D2EC09F0050EFFEC00F073C08EF032
:101AE000D2EC09F0050EFFEC00F072C08EF0D2ECE3
:101AF00009F0050EFFEC00F028C08EF0D2EC09F0E2
:101B0000050EFFEC00F027C08EF0D2EC09F0050EB8
:101B1000FFEC00F03CC08EF0D2EC09F0050EFFECBB
:101B200000F03BC08EF0D2EC09F0050EFFEC00F0A7
:101B300024C08EF0D2EC09F0050EFFEC00F023C0BB
:101B40008EF0D2EC09F0050EFFEC00F03AC08EF0FA
:101B5000D2EC09F0050EFFEC00F039C08EF0D2ECAB
:101B600009F0050EFFEC00F012008290010E3D6EB0
:101B70003E6A3DC002F03EC003F0056A040E0EEC62
:101B800001F0D8A4D5EF0DF08082010E056E5E0E37
:101B9000F3EC00F08092010E056E5E0EF3EC00F0A7
:101BA0003D2A000E3E22D8A0E4D780901200146A8D
:101BB000156A81518F0FE96E000EEA6AEA22EFCFB3
:101BC00014F0300E026E036A15C005F0145017ECC5
:101BD00001F0D8A4EFEF0DF0826BCEEF0EF0310ED6
:101BE000026E036A15C005F0145017EC01F0D8A47A
:101BF000FEEF0DF0010E826FCEEF0EF0320E026E90
:101C0000036A15C005F0145017EC01F0D8A40DEFCD
:101C10000EF0020E826FCEEF0EF0330E026E036AEC
:101C200015C005F0145017EC01F0D8A41CEF0EF00D
:101C3000030E826FCEEF0EF0340E026E036A15C0F3
:101C400005F0145017EC01F0D8A42BEF0EF0040EA1
:101C5000826FCEEF0EF0350E026E036A15C005F0EE
:101C6000145017EC01F0D8A43AEF0EF0050E826F75
:101C7000CEEF0EF0360E026E036A15C005F014505A
:101C800017EC01F0D8A449EF0EF0060E826FCEEFEC
:101C90000EF0370E026E036A15C005F0145017ECF3
:101CA00001F0D8A458EF0EF0070E826FCEEF0EF0C1
:101CB000380E026E036A15C005F0145017EC01F0DF
:101CC000D8A467EF0EF0080E826FCEEF0EF0390E3B
:101CD000026E036A15C005F0145017EC01F0D8A489
:101CE00076EF0EF0090E826FCEEF0EF0410E026E0F
:101CF000036A15C005F0145017EC01F0D8A485EF65
:101D00000EF00A0E826FCEEF0EF0420E026E036AE4
:101D100015C005F0145017EC01F0D8A494EF0EF0A4
:101D20000B0E826FCEEF0EF0430E026E036A15C0EB
:101D300005F0145017EC01F0D8A4A3EF0EF00C0E30
:101D4000826FCEEF0EF0440E026E036A15C005F0EE
:101D5000145017EC01F0D8A4B2EF0EF00D0E826F04
:101D6000CEEF0EF0450E026E036A15C005F014505A
:101D700017EC01F0D8A4C1EF0EF00E0E826FCEEF7B
:101D80000EF0460E026E036A15C005F0145017ECF3
:101D900001F0D8A4CEEF0EF00F0E826F1200A3EC6C
:101DA00010F0F40E496E010E4A6E49C002F04AC0AE
:101DB00003F0056AF80E0AEC01F0D8A49CEF0FF0CE
:101DC0004950AB0FE96E000E4A20EA6EEFCF14F0D7
:101DD0001450FF08D8A4E868FF0A146E4928166E4C
:101DE000000E4A20176E1650AB0FE96E000E17203A
:101DF000EA6EEFCF16F01650FF08D8A4E868FF0A85
:101E0000166E14C002F0165029EC01F0166E176E13
:101E1000020E4924186E000E4A20196E1850AB0F9E
:101E2000E96E000E1920EA6EEFCF18F01850FF0887
:101E3000D8A4E868FF0A186E16501710026E1850E2
:101E400029EC01F0186E196E030E49241A6E000E6B
:101E50004A201B6E1A50AB0FE96E000E1B20EA6E73
:101E6000EFCF1AF01A50FF08D8A4E868FF0A1A6EDC
:101E700018501910026E1A5029EC01F01A6E1B6EE0
:101E800004001A501B10D8B463EF0FF049C002F0E1
:101E90004AC003F0056A030E11EC01F0D8A457EF15
:101EA0000FF0040E495E000E4A5A60EF0FF0786B97
:101EB000796B7A6B020E7B6F496A4A6A64EF10F0A5
:101EC00074D79AEF0FF04950AB0FE96E000E4A201D
:101ED000EA6EEFCF79F04928146E000E4A20156E95
:101EE0001450AB0FE96E000E1520EA6EEFCF78F0BC
:101EF000020E4924146E000E4A20156E1450AB0FCA
:101F0000E96E000E1520EA6EEFCF7BF0030E492438
:101F1000146E000E4A20156E1450AB0FE96E000EC1
:101F20001520EA6EEFCF7AF0040E4926000E4A2201
:101F300064EF10F064EF10F0FC0E495C146E000EBC
:101F40004A58156E1450A70FE96E010E1520EA6E5F
:101F5000EFCF14F01450FF08D8A4E868FF0A146EFD
:101F60004928166E000E4A20176EFC0E165E000EF3
:101F7000175A1650A70FE96E010E1720EA6EEFCF21
:101F800016F01650FF08D8A4E868FF0A166E14C0B1
:101F900002F0165029EC01F0166E176E020E49245D
:101FA000186E000E4A20196EFC0E185E000E195AAB
:101FB0001850A70FE96E010E1920EA6EEFCF18F046
:101FC0001850FF08D8A4E868FF0A186E16501710BA
:101FD000026E185029EC01F0186E196E030E492498
:101FE0001A6E000E4A201B6EFC0E1A5E000E1B5A63
:101FF0001A50A70FE96E010E1B20EA6EEFCF1AF000
:102000001A50FF08D8A4E868FF0A1A6E1850191071
:10201000026E1A5029EC01F01A6E1B6E04001A5061
:102020001B10D8B41BEF10F0040E495E000E4A5A84
:10203000BCD664EF10F0FC0E495C146E000E4A58DA
:10204000156E1450A70FE96E010E1520EA6EEFCF42
:1020500079F04928146E000E4A20156EFC0E145EAD
:10206000000E155A1450A70FE96E010E1520EA6EE6
:10207000EFCF78F0020E4924146E000E4A20156E40
:10208000FC0E145E000E155A1450A70FE96E010ED7
:102090001520EA6EEFCF7BF0030E4924146E000E7C
:1020A0004A20156EFC0E145E000E155A1450A70F30
:1020B000E96E010E1520EA6EEFCF7AF0040E492684
:1020C000000E4A2264EF10F0120063EC07F08292D7
:1020D000060EC96E010EFFEC00F08282010EFFECCD
:1020E00000F08292120EC96E010EFFEC00F0C96A78
:1020F000010EFFEC00F0C96A010EFFEC00F04AC0CF
:10210000C9FF010EFFEC00F049C0C9FF010EFFEC52
:1021100000F079C0C9FF010EFFEC00F078C0C9FFE4
:10212000010EFFEC00F07BC0C9FF010EFFEC00F0D8
:102130007AC0C9FF010EFFEC00F08282040E49262E
:10214000000E4A22120063EC07F08292130EC96E51
:10215000010EFFEC00F0C96A010EFFEC00F0C96A45
:10216000010EFFEC00F0C96A010EFFEC00F0C96A35
:10217000010EFFEC00F03D6A3E6A3DC002F03EC039
:1021800003F0056AFB0E0EEC01F0D8A4D9EF10F0B5
:10219000C96A010EFFEC00F03D50AB0FE96E000E76
:1021A0003E20EA6EC9CFEFFF3D2A000E3E22D8A0A6
:1021B000E4D73D6A3E6A3DC002F03EC003F0056AC6
:1021C000FB0E0EEC01F0D8A4F7EF10F0C96A010E77
:1021D000FFEC00F03D50A70FE96E010E3E20EA6EC5
:1021E000C9CFEFFF3D2A000E3E22D8A0E4D782825D
:1021F0001200A9DF3D6A3E6A3DC002F03EC003F016
:10220000056AFB0E0EEC01F0D8A416EF11F03D505C
:10221000AB0FE96E000E3E20EA6EEFCF8DF00CECB6
:1022200009F03D2A000E3E22D8A0E6D73D6A3E6A5C
:102230003DC002F03EC003F0056AFB0E0EEC01F05B
:10224000D8A432EF11F03D50A70FE96E010E3E20E9
:10225000EA6EEFCF8DF00CEC09F03D2A000E3E2225
:10226000D8A0E6D700EC09F01200CFEC0EF06C6BB2
:102270006D6B6E6B020E6F6F026A036A4AC005F0E7
:10228000495017EC01F0D8A4B2EF11F090EF11F023
:10229000C8EC16F0939E810E1E6E0F0E206E800EFF
:1022A0001C6E060E016E100E3AEC00F0540E3AEC65
:1022B00000F04E0E3AEC00F04F0E3AEC00F0200E1B
:1022C0003AEC00F0540E3AEC00F0450E3AEC00F017
:1022D000530E3AEC00F0540E3AEC00F0200E3AECBB
:1022E00000F0440E3AEC00F0410E3AEC00F0540ECF
:1022F0003AEC00F0410E3AEC00F0200E3AEC00F01F
:10230000460E3AEC00F04F0E3AEC00F0550E3AEC67
:1023100000F04E0E3AEC00F0440E3AEC00F0938ED2
:10232000010E436E446A43C002F044C003F0056AE4
:10233000050E0EEC01F0D8A4AFEF11F08082010E73
:10234000056EF40EF3EC00F08092010E056EF40EB3
:10235000F3EC00F0432A000E4422D8A0E4D780908A
:10236000C4EF13F0010E3D6E3E6A3DC002F03EC068
:1023700003F0056A320E0EEC01F0D8A4C8EF11F09C
:102380008E6BD2EC09F03D2A000E3E22D8A0EDD78C
:1023900049C002F04AC003F0040E046E056A35EC31
:1023A00001F0876FE7EF11F0939E810E1E6E0F0E06
:1023B000206E800E1C6E060E016E100E3AEC00F0C0
:1023C000680E3AEC00F087511BEC00F0938E4AEC5B
:1023D0000DF0496A4A6AB7DE010E746F756B74C0FE
:1023E00002F075C003F087510DEC01F0D8A4C4EFE2
:1023F00013F0026A036A4AC005F0495017EC01F075
:10240000D8A43BEF12F06C6B6D6B6E6B020E6F6FAE
:102410004950AB0FE96E000E4A20EA6EEFCF30F064
:102420004928146E000E4A20156E1450AB0FE96E49
:10243000000E1520EA6EEFCF2FF0020E4924146E25
:10244000000E4A20156E1450AB0FE96E000E1520D9
:10245000EA6EEFCF32F0030E4924146E000E4A20CC
:10246000156E1450AB0FE96E000E1520EA6EEFCF1B
:1024700031F018EF13F049C002F04AC003F0056ACA
:10248000F80E0EEC01F0D8A4B0EF12F0040E495C87
:10249000146E000E4A58156E1450AB0FE96E000E04
:1024A0001520EA6EEFCF6DF0030E495C146E000E3E
:1024B0004A58156E1450AB0FE96E000E1520EA6EE7
:1024C000EFCF6CF0020E495C146E000E4A58156E88
:1024D0001450AB0FE96E000E1520EA6EEFCF6FF0CF
:1024E0004904146E000E4A58156E1450AB0FE96E75
:1024F000000E1520EA6EEFCF6EF04950AB0FE96E7B
:10250000000E4A20EA6EEFCF30F04928146E000E1C
:102510004A20156E1450AB0FE96E000E1520EA6EBE
:10252000EFCF2FF0020E4924146E000E4A20156ED4
:102530001450AB0FE96E000E1520EA6EEFCF32F0AB
:10254000030E4924146E000E4A20156E1450AB0F72
:10255000E96E000E1520EA6EEFCF31F018EF13F0A0
:10256000040E495C146E000E4A58156E1450A70FE5
:10257000E96E010E1520EA6EEFCF6DF0030E495C97
:10258000146E000E4A58156E1450A70FE96E010E16
:102590001520EA6EEFCF6CF0020E495C146E000E4F
:1025A0004A58156E1450A70FE96E010E1520EA6EF9
:1025B000EFCF6FF04904146E000E4A58156E145098
:1025C000A70FE96E010E1520EA6EEFCF6EF04950AD
:1025D000A70FE96E010E4A20EA6EEFCF30F04928CE
:1025E000146E000E4A20156E1450A70FE96E010EEE
:1025F0001520EA6EEFCF2FF0020E4924146E000E64
:102600004A20156E1450A70FE96E010E1520EA6ED0
:10261000EFCF32F0030E4924146E000E4A20156EDF
:102620001450A70FE96E010E1520EA6EEFCF31F0BE
:1026300039EF13F0C8EC16F0939E810E1E6E0F0E4C
:10264000206E800E1C6E060E016E100E3AEC00F02D
:10265000680E3AEC00F06DC007F06C511CEC00F015
:102660002C0E3AEC00F06FC007F06E511CEC00F03D
:10267000938E3D6A3E6A3DC002F03EC003F0056A9B
:10268000090E0EEC01F0D8A44FEF13F03DC08EF010
:10269000D2EC09F03D2A000E3E22D8A0ECD76CC047
:1026A00002F06DC003F030C005F02F5014EC01F0C3
:1026B000146E6EC002F06FC003F032C005F03150EE
:1026C00014EC01F0166E14C002F0165030EC01F05C
:1026D000166E176E040016501710D8B4AFEF13F033
:1026E0008FEC07F03D6A3E6A3DC002F03EC003F049
:1026F000056AFB0E0EEC01F0D8A48EEF13F03D50EE
:10270000A30FE96E020E3E20EA6EEFCF8EF0D2EC00
:1027100009F03D2A000E3E22D8A0E6D7040081AA87
:10272000C4EF13F03D6A3E6A3DC002F03EC003F0C4
:10273000056AFB0E0EEC01F0D8A4AEEF13F03D508D
:102740009F0FE96E030E3E20EA6EEFCF8EF0D2ECC3
:1027500009F03D2A000E3E22D8A0E6D7A0D7040EED
:102760004926000E4A22090E3D6E3E6A3DC08EF09B
:10277000D2EC09F03D06000E3E5AD8B0F7D7742BC4
:10278000000E7523D8A02BD6809012008280020EF6
:10279000056EEE0EF3EC00F08290FA0EF2EC00F013
:1027A0008082020E056EEE0EF3EC00F08092FA0EBF
:1027B000F2EC00F08080020E056EEE0EF3EC00F0FD
:1027C0008090FA0EF2EC00F012003C0E026E036AEA
:1027D00026C005F0255017EC01F0D8A4F8EF13F04F
:1027E000810E8B6F950E766F810E776F73EF14F0FD
:1027F000780E026E036A26C005F0255017EC01F032
:10280000D8A40BEF14F0800E8B6FFD0E766F800E48
:10281000776F73EF14F0F00E026E036A26C005F0B6
:10282000255017EC01F0D8A41EEF14F0800E8B6F2A
:10283000D70E766F3F0E776F73EF14F0E00E026ED7
:10284000010E036E26C005F0255017EC01F0D8A448
:1028500032EF14F0800E8B6F550E766F1F0E776F70
:1028600073EF14F0F40E026E010E036E26C005F035
:10287000255017EC01F0D8A445EF14F0800E8B6FB3
:1028800076691D0E776F73EF14F0C00E026E030EA3
:10289000036E26C005F0255017EC01F0D8A459EFBF
:1028A00014F0800E8B6F080E766F0F0E776F73EF3C
:1028B00014F0E80E026E030E036E26C005F02550DC
:1028C00017EC01F0D8A46DEF14F0800E8B6F690E39
:1028D000766F0E0E776F73EF14F0800E8B6FFD0E18
:1028E000766F800E776F7651FF08146EFF0E775566
:1028F000156E14C002F015C003F0046A010E056ED7
:1029000035EC01F0D76E7651FF08146EFF0E775547
:10291000156E14C002F015C003F0046A010E056EB6
:1029200035EC01F006C0D6FFF2941200D56AF2949D
:10293000229412004ADF040022B6A0EF14F026DF32
:10294000809082908082896BF28E04D0F2BE120059
:1029500042EF15F0FBDFA00EF26EF8DF010E686F9C
:10296000696BF4DF010E666F676BF0DF2290EEDFBC
:10297000949EECDF8BC0D5FFE9DF2284E7DF040003
:1029800022A6E0EF14F0E2DF040022A6DEEF14F04E
:10299000DDDF66C002F067C003F026C005F02550F9
:1029A0000EEC01F0D8A4D7EF14F0D0DFF2D7010E6F
:1029B000666F676B682B000E6923E6D70BEF15F087
:1029C00068C002F069C003F073C005F072510EECEC
:1029D00001F0D8A40BEF15F0B9DF66C002F067C0B4
:1029E00003F026C005F025500EEC01F0D8A404EF4A
:1029F00015F0ACDF040022A002EF15F0A7DF0BEF0B
:102A000015F0A4DFA3DFE9D7010E666F676B682BB3
:102A1000000E6923D5D78ADF948E7AC002F07BC07E
:102A200003F0046A020E056E35EC01F006C014F0E6
:102A300007C015F01450FF08296E010E15542A6EB8
:102A400029507A272A507B23026803687BC005F04F
:102A50007A5117EC01F0D8A435EF15F07A6B7B6B47
:102A6000782B000E792338EF15F07A2B000E7B239C
:102A70000A0EF2EC00F065EC10F00A0EF2EC00F039
:102A8000809212007651FF08146EFF0E7755156E76
:102A900014C002F015C003F0046A010E056E35EC97
:102AA00001F0D76E7651FF08146EFF0E7755156E44
:102AB00014C002F015C003F0046A010E056E35EC77
:102AC00001F006C0D6FFF294E86A81AAE868146EA5
:102AD00068C002F069C003F0056A020E0EEC01F056
:102AE000166E14C002F0165029EC01F0166E176E27
:102AF000040016501710D8B47FEF15F02280E86A52
:102B000022B2E868146EE86A22B4E868166E14C04F
:102B100002F0165029EC01F0166E176E04001650E4
:102B20001710D8B4C6EF16F0828E6B8004006BA02D
:102B30009BEF15F0FBD7A60E6F6E04006DA0A2EF01
:102B400015F0FBD7020EFFEC00F0320E6F6E0400A2
:102B50006DA0ACEF15F0FBD7020EFFEC00F06B8020
:102B600004006BA0B5EF15F0FBD7A70E6F6E040045
:102B70006DA0BCEF15F0FBD7020EFFEC00F06B86EA
:102B800004006DB0C5EF15F0FBD76B886B9A6FCF63
:102B90004BF0050EFFEC00F06B8604006DB0D2EF39
:102BA00015F0FBD76B886B9A6FCF4CF0050EFFECDE
:102BB00000F06B8604006DB0DFEF15F0FBD76B887B
:102BC0006B9A6FCF4DF0050EFFEC00F06B860400A2
:102BD0006DB0ECEF15F0FBD76B886B9A6FCF4EF0B2
:102BE000050EFFEC00F06B8604006DB0F9EF15F0F8
:102BF000FBD76B886B9A6FCF4FF0050EFFEC00F0A0
:102C00006B8604006DB006EF16F0FBD76B886B8AFD
:102C10006FCF50F0030EFFEC00F06B8404006BA448
:102C200013EF16F0FBD7030EFFEC00F08292060EB6
:102C3000C96E010EFFEC00F08282010EFFEC00F085
:102C40008292120EC96E010EFFEC00F079C0C9FF2E
:102C5000010EFFEC00F078C0C9FF010EFFEC00F0A0
:102C60007BC0C9FF010EFFEC00F07AC0C9FF010E66
:102C7000FFEC00F04CC0C9FF010EFFEC00F04BC0B0
:102C8000C9FF010EFFEC00F04EC0C9FF010EFFECC2
:102C900000F04DC0C9FF010EFFEC00F050C0C9FFAD
:102CA000010EFFEC00F04FC0C9FF010EFFEC00F079
:102CB000060E7A25146E000E7B21156EF80E026E3C
:102CC000036815C005F0145017EC01F0D8A470EF9C
:102CD00016F0782B000E79237A6B7B6BA1EF16F040
:102CE000060E7A25146E000E7B21156E14C002F0BC
:102CF00015C003F0046A020E056E35EC01F006C043
:102D000014F007C015F0F80E026E010E036E15C028
:102D100005F0145017EC01F0D8A49DEF16F0080E42
:102D20007A25146E000E7B21156E060E14247A6F20
:102D3000000E15207B6FA1EF16F0060E7A27000E0D
:102D40007B23662B000E67234CC08DF00CEC09F042
:102D50004BC08DF00CEC09F02C0E8E6FD2EC09F00C
:102D60004EC08DF00CEC09F04DC08DF00CEC09F06C
:102D70002C0E8E6FD2EC09F050C08DF00CEC09F0E7
:102D80004FC08DF00CEC09F000EC09F0829E1000B1
:102D9000A6EC14F0E4EF16F0A6EC14F0939EA6EC6B
:102DA00014F0810E1E6E0F0E206E800E1C6E060E2D
:102DB000016E0C0E3AEC00F0A6EC14F0938EA6EC2B
:102DC00014F00A0EF2EC00F0A6EC14F01200A6ECDF
:102DD00014F0939EA6EC14F0810E1E6E0F0E206E62
:102DE000800E1C6E060E016E0E0E3AEC00F0A6EC84
:102DF00014F0938EA6EC14F01200A6EC14F0939E3F
:102E0000A6EC14F0810E1E6E0F0E206E800E1C6E4E
:102E1000060E016E0F0E3AEC00F0A6EC14F0938E45
:102E2000A6EC14F01200A6EC14F0939EA6EC14F09D
:102E3000810E1E6E0F0E206E800E1C6E060E016E31
:102E4000100E3AEC00F0400E3AEC00F0A6EC14F054
:102E5000938EA6EC14F01200A6EC14F0939EA6EC50
:102E600014F0810E1E6E0F0E206E800E1C6E060E6C
:102E7000016E100E3AEC00F0540E3AEC00F0A6ECA5
:102E800014F0938EA6EC14F01200A6EC14F0939EAE
:102E9000A6EC14F0810E1E6E0F0E206E800E1C6EBE
:102EA000060E016E100E3AEC00F0680E3AEC00F0DF
:102EB000A6EC14F0938EA6EC14F01200A6EC14F01D
:102EC000939EA6EC14F0810E1E6E0F0E206E800EE7
:102ED0001C6E060E016E100E3AEC00F07C0E3AEC01
:0E2EE00000F0A6EC14F0938EA6EC14F0120095
:020000040030CA
:03000100081F3F96
:02000500BD81BB
:060008000FC00FE00F40E5
:00000001FF
