:020000040000FA
:0400000077EF01F0A5
:020008001200E4
:0800180012000A6EF80BE8303B
:10002000E830E830E926D8B0EA2AD1EC00F00A6ED0
:10003000EF1474EF01F0076A066E018E270E056E4D
:10004000100E0CD8030E056EE80E08D8056A640E73
:1000500005D8056A0A0E02D806500BD0046E075068
:10006000036E0650026E38EC01F0E866019E01BE98
:100070001200300F086E20C0EAFF20C0E2FF1E50C1
:10008000E96E120FE16E090E096ED89007D808329A
:10009000092EFCD7D88002D874EF01F001A60BD04E
:1000A000EF501C1001A41C18EF6EE7501C10D8A0D4
:1000B0001C18E76E0AD0EF501C10D8A01C1801B411
:1000C0001C18EF6E1C1CE71600D00134060BEA0F5B
:1000D000F66EF76A000EF722F86A0900F550036E13
:1000E0000800F550000000EF01F0019D033D0064A1
:1000F0000D0120C0EAFF1EC0E9FF0E50026E0F5036
:10010000036E046A056A040020D80CE3E86A04065A
:10011000055AF9E20206035A17E3780E046E010E3F
:10012000056EF1D729D80A6A080E056E26D80DD8B3
:10013000D8B00A3E0432052EF9D70DAA0A6A0DBAC4
:10014000049E1BD8D88004501200120EE9261C50C1
:10015000EF121EC0E9FFEF140DBC1C18FF0F1200B8
:10016000D96E0B0603E2D88074EF01F06EEC01F05B
:10017000D8A01200DE6EF5D7018C0D501F0B000FBA
:10018000036E0C50100FD8B0032A01AC00EF01F041
:10019000019CD8900332E830D8900332E83000EF69
:1001A00001F0010E0AB0E8440AB2E8440AB2E84499
:1001B0000AB4E8381200A66AA680A850A94AAA2A5A
:1001C00074EF01F0E86AA86EA66AA684550EA76EC1
:1001D000AA0EA76EA682A6B2FED7A694A94AAA2AFC
:1001E00074EF01F0056A046EE86A0406055AD8A0A7
:1001F00074EF01F0030E036EE70E02D8F5D7036A21
:10020000FD0F026E01D00206040000D0E86A035A16
:10021000FAE21200046E020E0FD0046E030E0CD030
:10022000056A046E010E08D0046E060E05D0046E39
:10023000040E02D0046E050E0A6E0550035C02E146
:100240000450025C040ED8B0010ED8B4020E0A1499
:10025000D8A4FF0E74EF01F0E866FF0E0214D8A4D4
:10026000FF0E74EF01F00210D8A4FF0E74EF01F03E
:10027000076A066A100E086E033406360736045005
:10028000065E0550075A05E204500626055007226F
:10029000D89002360336082EEFD7025074EF01F0E3
:1002A00004500802F3CF06F0F4CF07F0055009021E
:1002B000F3CF02F0F4CF03F00802F3500726F45016
:1002C0000222E86A032204500902F3500726F45080
:1002D0000222E86A0322065074EF01F0E96EFB6A1D
:1002E0001350FA6E1250F96E000104001200E80E6D
:1002F000D36E800ED26E400E9B6EF26A616A0F0161
:10030000386B396B3A6B010E966E00019488938AB4
:100310009388938293849380938E948E938C938608
:1003200094909290929294929496949A92968290AB
:10033000809080928082030E056EE80E54DF8092DA
:10034000939E810E1E6E0F0E206E800E1C6E060E8A
:10035000016E0C0E8FDE0A0E45DF810E1E6E0F0E33
:10036000206E800E1C6E060E016E0E0E83DE100EC9
:1003700081DE400E7FDE440E7DDE650E7BDE760E76
:1003800079DE310E77DE300E75DE4D0E73DE500EE7
:1003900071DE550E6FDE2D0E6DDE330E6BDE410EFF
:1003A00069DE2D0E67DE330E65DE420E63DE2D0E36
:1003B00061DE330E5FDE430E5DDE2D0E5BDE330E3F
:1003C00059DE440E57DE810E1E6E0F0E206E800E1B
:1003D0001C6E060E016E100E4DDE540E4BDE320EFC
:1003E00049DE2F0E47DE320E45DE360E43DE2F0E7F
:1003F00041DE320E3FDE300E3DDE310E3BDE380E8A
:1004000039DE938E040081AA0AEF02F00300640E25
:10041000E9DEF8D7FA0EE6DE8280010E056E2C0EBC
:10042000E2DE82900A0EEBDE8080010E056E2C0E5D
:10043000DADE80900A0EE3DE8082010E056E2C0E5D
:10044000D2DE80920A0EDBDE82800A0ED8DE828245
:10045000010ED5DE8286010ED2DE829A010ECFDE3B
:100460008182010ECCDE8184010EC9DE8096F7EC1C
:1004700008F05AEC04F0F1EC08F052EC0BF033EC1D
:1004800011F0EEEC0EF00A0EADDECAEC1EF082802A
:100490006FEF02F0939E810E1E6E0F0E206E800E87
:1004A0001C6E060E016E100E3AEC00F0400E3AEC97
:1004B00000F0530E3AEC00F0540E3AEC00F0410E0E
:1004C0003AEC00F04E0E3AEC00F0440E3AEC00F03C
:1004D000420E3AEC00F0590E3AEC00F0938E040014
:1004E00081BA58EF04F08290A1EF02F0939E810E42
:1004F0001E6E0F0E206E800E1C6E060E016E100E0C
:100500003AEC00F0400E3AEC00F0520E3AEC00F0FB
:10051000550E3AEC00F04E0E3AEC00F0200E3AEC9C
:1005200000F0540E3AEC00F0450E3AEC00F0530E99
:100530003AEC00F0540E3AEC00F03F0E3AEC00F0CA
:10054000938E070E056ED00E4EDE040081BA02EFC8
:1005500004F08080ECEF02F0939E810E1E6E0F0E71
:10056000206E800E1C6E060E016E100E3AEC00F02E
:10057000400E3AEC00F0530E3AEC00F0450E3AEC27
:1005800000F04E0E3AEC00F0440E3AEC00F0200E73
:100590003AEC00F0440E3AEC00F0410E3AEC00F078
:1005A000540E3AEC00F0410E3AEC00F0200E3AEC1A
:1005B00000F0540E3AEC00F04F0E3AEC00F0200E32
:1005C0003AEC00F0500E3AEC00F0430E3AEC00F03A
:1005D0003F0E3AEC00F0938E070E056ED00E03DE50
:1005E000040081BAA8EF03F0010E09DE8082010E3B
:1005F00006DE80903CEF03F0939E810E1E6E0F0E80
:10060000206E800E1C6E060E016E100E3AEC00F08D
:10061000400E3AEC00F0420E3AEC00F0550E3AEC87
:1006200000F04C0E3AEC00F04B0E3AEC00F0200ECD
:100630003AEC00F0450E3AEC00F0520E3AEC00F0C5
:10064000410E3AEC00F0530E3AEC00F0450E3AEC55
:1006500000F03F0E3AEC00F0200E3AEC00F0200ED5
:100660003AEC00F0200E3AEC00F0200E3AEC00F0EC
:10067000200E3AEC00F0938E070E056ED00EF3ECD0
:1006800000F0040081BA4DEF03F0809282808080F8
:100690006BEC0CF03BD6A6EF03F08082828080905A
:1006A000A0EF03F0CAEC1EF0939E810E1E6E0F0E9B
:1006B000206E800E1C6E060E016E100E3AEC00F0DD
:1006C000400E3AEC00F0420E3AEC00F0550E3AECD7
:1006D00000F04C0E3AEC00F04B0E3AEC00F0200E1D
:1006E0003AEC00F0450E3AEC00F0520E3AEC00F015
:1006F000410E3AEC00F0530E3AEC00F0490E3AECA1
:1007000000F04E0E3AEC00F0470E3AEC00F0200EEE
:100710003AEC00F0200E3AEC00F0200E3AEC00F03B
:10072000200E3AEC00F0200E3AEC00F0200E3AECED
:1007300000F0200E3AEC00F0200E3AEC00F0938E20
:100740001FEC0BF0CAEC1EF0809264D600EF04F0B0
:1007500082908080FAEF03F0CAEC1EF0939E810E27
:100760001E6E0F0E206E800E1C6E060E016E100E99
:100770003AEC00F0400E3AEC00F0530E3AEC00F088
:10078000450E3AEC00F04E0E3AEC00F0440E3AEC16
:1007900000F0490E3AEC00F04E0E3AEC00F0470E35
:1007A0003AEC00F0200E3AEC00F0440E3AEC00F087
:1007B000410E3AEC00F0540E3AEC00F0410E3AECE7
:1007C00000F0200E3AEC00F0540E3AEC00F04F0E20
:1007D0003AEC00F0200E3AEC00F0500E3AEC00F04B
:1007E000430E3AEC00F0200E3AEC00F0200E3AEC0A
:1007F00000F0938E53EC16F0CAEC1EF080900AD6EF
:1008000058EF04F052EF04F0CAEC1EF0939E810EF4
:100810001E6E0F0E206E800E1C6E060E016E100EE8
:100820003AEC00F0400E3AEC00F0520E3AEC00F0D8
:10083000550E3AEC00F04E0E3AEC00F04E0E3AEC4B
:1008400000F0490E3AEC00F04E0E3AEC00F0470E84
:100850003AEC00F0200E3AEC00F0540E3AEC00F0C6
:10086000450E3AEC00F0530E3AEC00F0540E3AEC20
:1008700000F0200E3AEC00F0200E3AEC00F0200ED2
:100880003AEC00F0200E3AEC00F0200E3AEC00F0CA
:10089000200E3AEC00F0200E3AEC00F0200E3AEC7C
:1008A00000F0938E4EEC19F0CAEC1EF0CAEC1EF06C
:1008B00047EF02F093849382100E6D6E280E6C6EDB
:1008C0006B6A696A110E6E6E69EC04F070EC04F0EC
:1008D00012006B8004006BA06FEF04F0FBD71200D6
:1008E0006B8404006BA476EF04F0FBD71200F1DFF9
:1008F0007CC06FFF04006DA07FEF04F0FBD7020EF9
:10090000FFEC00F07BC06FFF04006DA089EF04F0E6
:10091000FBD7020EFFEC00F07AC06FFF010EFFEC78
:1009200000F004006DA096EF04F0FBD7020EFFEC80
:1009300000F0D6DF1200CDDFD00E6F6E04006DA088
:10094000A3EF04F0FBD7020EFFEC00F03B0E6F6E3E
:1009500004006DA0ADEF04F0FBD7020EFFEC00F039
:10096000B8DFD10E6F6E04006DA0B8EF04F0FBD7B6
:10097000020EFFEC00F06B8604006DB0C1EF04F0D6
:10098000FBD76B886B9A6FCF43F0050EFFEC00F03E
:100990006B8604006DB0CEEF04F0FBD76B886B9ACA
:1009A0006FCF42F0050EFFEC00F06B8604006DB0D7
:1009B000DBEF04F0FBD76B886B9A6FCF45F0050E29
:1009C000FFEC00F06B8604006DB0E8EF04F0FBD79D
:1009D0006B886B9A6FCF44F0050EFFEC00F06B86CE
:1009E00004006DB0F5EF04F0FBD76B886B9A6FCF06
:1009F00047F0050EFFEC00F06B8604006DB002EFCF
:100A000005F0FBD76B886B8A6FCF46F0030EFFECC7
:100A100000F066DF6AEC0CF05CDFD00E6F6E040055
:100A20006DA014EF05F0FBD7020EFFEC00F0430EB3
:100A30006F6E04006DA01EEF05F0FBD7020EFFECF9
:100A400000F047DFD10E6F6E04006DA029EF05F0B6
:100A5000FBD7020EFFEC00F06B8604006DB032EFA6
:100A600005F0FBD76B886B9A6FCF49F0050EFFEC52
:100A700000F06B8604006DB03FEF05F0FBD76B888C
:100A80006B9A6FCF48F0050EFFEC00F06B86040008
:100A90006DB04CEF05F0FBD76B886B9A6FCF4BF0C6
:100AA000050EFFEC00F06B8604006DB059EF05F009
:100AB000FBD76B886B9A6FCF4AF0050EFFEC00F006
:100AC0006B8604006DB066EF05F0FBD76B886B9A00
:100AD0006FCF4DF0050EFFEC00F06B8604006DB09B
:100AE00073EF05F0FBD76B886B8A6FCF4CF0030E6A
:100AF000FFEC00F0F5DE6AEC0CF0EBDE180E6F6E2A
:100B000004006DA085EF05F0FBD7020EFFEC00F0AE
:100B1000030E6F6E04006DA08FEF05F0FBD7020E81
:100B2000FFEC00F0D6DE190E6F6E04006DA09AEF98
:100B300005F0FBD7020EFFEC00F06B8604006DB0F1
:100B4000A3EF05F0FBD76B886B9A6FCF4EF0050EC5
:100B5000FFEC00F06B8604006DB0B0EF05F0FBD742
:100B60006B886B9A6FCF4FF0050EFFEC00F06B8631
:100B700004006DB0BDEF05F0FBD76B886B9A6FCFAB
:100B800050F0050EFFEC00F06B8604006DB0CAEF6C
:100B900005F0FBD76B886B9A6FCF51F0050EFFEC19
:100BA00000F06B8604006DB0D7EF05F0FBD76B88C3
:100BB0006B9A6FCF52F0050EFFEC00F06B860400CD
:100BC0006DB0E4EF05F0FBD76B886B8A6FCF53F005
:100BD000030EFFEC00F084DE6AEC0CF0180E7C6F64
:100BE0000A0E7B6F110E7A6F82DE120072DED00E5B
:100BF0006F6E04006DA0FEEF05F0FBD7020EFFEC58
:100C000000F03B0E6F6E04006DA008EF06F0FBD7FE
:100C1000020EFFEC00F05DDED10E6F6E04006DA0E1
:100C200013EF06F0FBD7020EFFEC00F06B8604001A
:100C30006DB01CEF06F0FBD76B886B9A6FCF43F05B
:100C4000050EFFEC00F06B8604006DB029EF06F096
:100C5000FBD76B886B9A6FCF42F0050EFFEC00F06C
:100C60006B8604006DB036EF06F0FBD76B886B9A8D
:100C70006FCF45F0050EFFEC00F06B8604006DB001
:100C800043EF06F0FBD76B886B9A6FCF44F0050EED
:100C9000FFEC00F06B8604006DB050EF06F0FBD760
:100CA0006B886B9A6FCF47F0050EFFEC00F06B86F8
:100CB00004006DB05DEF06F0FBD76B886B8A6FCFD9
:100CC00046F0030EFFEC00F00BDE6AEC0CF001DEE8
:100CD000D00E6F6E04006DA06FEF06F0FBD7020E12
:100CE000FFEC00F0430E6F6E04006DA079EF06F08C
:100CF000FBD7020EFFEC00F069EC04F0D10E6F6E32
:100D000004006DA085EF06F0FBD7020EFFEC00F0AB
:100D10006B8604006DB08EEF06F0FBD76B886B9A84
:100D20006FCF49F0050EFFEC00F06B8604006DB04C
:100D30009BEF06F0FBD76B886B9A6FCF48F0050EE0
:100D4000FFEC00F06B8604006DB0A8EF06F0FBD757
:100D50006B886B9A6FCF4BF0050EFFEC00F06B8643
:100D600004006DB0B5EF06F0FBD76B886B9A6FCFC0
:100D70004AF0050EFFEC00F06B8604006DB0C2EF88
:100D800006F0FBD76B886B9A6FCF4DF0050EFFEC2A
:100D900000F06B8604006DB0CFEF06F0FBD76B88D8
:100DA0006B8A6FCF4CF0030EFFEC00F070EC04F098
:100DB000120037EC07F076EC07F0B8EC07F047ECE0
:100DC00008F0D00E7C6F6B0E7B6F800E7A6F77EC25
:100DD00004F0640EF2EC00F0D00E7C6F6B0E7B6FB3
:100DE000010E7A6F77EC04F0D00E7C6F6C0E7B6F87
:100DF0007A6B77EC04F0D00E7C6F1A0E7B6F75C0A7
:100E00007AF077EC04F0D00E7C6F1B0E7B6F76C00F
:100E10007AF077EC04F0D00E7C6F1C0E7B6F5DC017
:100E20007AF077EC04F0D00E7C6F1D0E7B6F5CC007
:100E30007AF077EC04F0D00E7C6F370E7B6F120ED9
:100E40007A6F77EC04F0D00E7C6F380E7B6F010E5A
:100E50007A6F77EC04F00A0EF2EC00F0D00E7C6FA3
:100E60000A0E7B6F110E7A6F77EC04F01200020EFF
:100E7000026E036A27C005F026501AEC01F0D8A4D0
:100E800046EF07F05D985D9675EF07F0040E026E71
:100E9000036A27C005F026501AEC01F0D8A455EFDC
:100EA00007F05D985D8675EF07F0080E026E036A25
:100EB00027C005F026501AEC01F0D8A464EF07F023
:100EC0005D885D9675EF07F0100E026E036A27C00D
:100ED00005F026501AEC01F0D8A473EF07F05D88F6
:100EE0005D8675EF07F05D885D961200FA0E026E62
:100EF000036A35C005F034501AEC01F0D8A485EF30
:100F000007F076997697B7EF07F0F40E026E010EB0
:100F1000036E35C005F034501AEC01F0D8A495EFFB
:100F200007F076997687B7EF07F0E80E026E030EAA
:100F3000036E35C005F034501AEC01F0D8A4A5EFCB
:100F400007F076897697B7EF07F0D00E026E070E9E
:100F5000036E35C005F034501AEC01F0D8A4B5EF9B
:100F600007F076897687B7EF07F0769976871200D3
:100F7000050E026E036A23C005F022501AEC01F040
:100F8000D8A4C9EF07F05C865C845C825C9046EF75
:100F900008F00A0E026E036A23C005F022501AEC14
:100FA00001F0D8A4DAEF07F05C865C845C925C8088
:100FB00046EF08F0140E026E036A23C005F02250BB
:100FC0001AEC01F0D8A4EBEF07F05C865C845C922D
:100FD0005C9046EF08F0290E026E036A23C005F00C
:100FE00022501AEC01F0D8A4FCEF07F05C865C9468
:100FF0005C825C8046EF08F05C0E026E036A23C0E0
:1010000005F022501AEC01F0D8A40DEF08F05C8630
:101010005C945C825C9046EF08F0B80E026E036A46
:1010200023C005F022501AEC01F0D8A41EEF08F0FE
:101030005C865C945C925C8046EF08F0CC0E026E9D
:10104000010E036E23C005F022501AEC01F0D8A463
:1010500030EF08F05C865C945C925C9046EF08F0A0
:101060006A0E026E040E036E23C005F022501AECC5
:1010700001F0D8A442EF08F05C965C945C925C901E
:1010800046EF08F05C865C945C825C901200050E72
:10109000026E036A33C005F032501AEC01F0D8A496
:1010A00059EF08F076837681758575837591F0EF39
:1010B00008F00A0E026E036A33C005F032501AECD3
:1010C00001F0D8A46BEF08F076837681758575936F
:1010D0007581F0EF08F0140E026E036A33C005F05C
:1010E00032501AEC01F0D8A47DEF08F076837681B7
:1010F000758575937591F0EF08F0290E026E036AFD
:1011000033C005F032501AEC01F0D8A48FEF08F08C
:1011100076837681759575837581F0EF08F05C0EA6
:10112000026E036A33C005F032501AEC01F0D8A405
:10113000A1EF08F076837681759575837591F0EF50
:1011400008F0B80E026E036A33C005F032501AEC94
:1011500001F0D8A4B3EF08F0768376817595759386
:101160007581F0EF08F0FA0E026E036A33C005F0E5
:1011700032501AEC01F0D8A4C5EF08F076837681DE
:10118000759575937591F0EF08F0100E026E0E0EC6
:10119000036E33C005F032501AEC01F0D8A4D8EF3A
:1011A00008F076937681759575937591F0EF08F058
:1011B000600E026E220E036E33C005F032501AEC40
:1011C00001F0D8A4EBEF08F07693769175957593BE
:1011D0007591F0EF08F0768376817595758375913A
:1011E0001200C76A300EC66E100ECB6E1200C1EC34
:1011F00015F08292060EC96E0400C7B001EF09F027
:10120000FBD78282010EFFEC00F08292010EC96EC4
:101210000400C7B00DEF09F0FBD7C96A0400C7B0DE
:1012200013EF09F0FBD7C96A0400C7B019EF09F042
:10123000FBD7C00EC96E0400C7B020EF09F0FBD782
:101240008282030E056EE80EF3EC00F01200C9DF97
:101250008292060EC96E0400C7B030EF09F0FBD7CA
:101260008282010EF2EC00F08292120EC96E04002E
:10127000C7B03CEF09F0FBD772C0C9FF0400C7B08C
:1012800043EF09F0FBD771C0C9FF0400C7B04AEFB4
:1012900009F0FBD774C0C9FF0400C7B051EF09F0D3
:1012A000FBD773C0C9FF0400C7B058EF09F0FBD7E4
:1012B00043C0C9FF0400C7B05FEF09F0FBD742C0CD
:1012C000C9FF0400C7B066EF09F0FBD745C0C9FFEE
:1012D0000400C7B06DEF09F0FBD744C0C9FF04009C
:1012E000C7B074EF09F0FBD747C0C9FF0400C7B00F
:1012F0007BEF09F0FBD746C0C9FF0400C7B082EFFF
:1013000009F0FBD749C0C9FF0400C7B089EF09F055
:10131000FBD748C0C9FF0400C7B090EF09F0FBD766
:101320004BC0C9FF0400C7B097EF09F0FBD74AC014
:10133000C9FF0400C7B09EEF09F0FBD74DC0C9FF3D
:101340000400C7B0A5EF09F0FBD74CC0C9FF0400EB
:10135000C7B0ACEF09F0FBD782820C0E7327000EEA
:10136000742312003EDF8292060EC96E0400C7B0DD
:10137000BBEF09F0FBD78282010EFFEC00F08292F6
:10138000120EC96E0400C7B0C7EF09F0FBD772C0D8
:10139000C9FF0400C7B0CEEF09F0FBD771C0C9FF89
:1013A0000400C7B0D5EF09F0FBD774C0C9FF040033
:1013B000C7B0DCEF09F0FBD773C0C9FF0400C7B0AA
:1013C000E3EF09F0FBD743C0C9FF0400C7B0EAEF61
:1013D00009F0FBD742C0C9FF0400C7B0F1EF09F024
:1013E000FBD745C0C9FF0400C7B0F8EF09F0FBD731
:1013F00044C0C9FF0400C7B0FFEF09F0FBD747C0E6
:10140000C9FF0400C7B006EF0AF0FBD746C0C9FF0A
:101410000400C7B00DEF0AF0FBD749C0C9FF0400B4
:10142000C7B014EF0AF0FBD748C0C9FF0400C7B02B
:101430001BEF0AF0FBD74BC0C9FF0400C7B022EF77
:101440000AF0FBD74AC0C9FF0400C7B029EF0AF071
:10145000FBD74DC0C9FF0400C7B030EF0AF0FBD77F
:101460004CC0C9FF0400C7B037EF0AF0FBD74FC02C
:10147000C9FF0400C7B03EEF0AF0FBD74EC0C9FF5A
:101480000400C7B045EF0AF0FBD751C0C9FF040004
:10149000C7B04CEF0AF0FBD750C0C9FF0400C7B07B
:1014A00053EF0AF0FBD753C0C9FF0400C7B05AEF8F
:1014B0000AF0FBD752C0C9FF0400C7B061EF0AF0C1
:1014C000FBD78282120E7327000E7423120089DE6E
:1014D000366A376A36C002F037C003F0056AFB0E81
:1014E00011EC01F0D8A481EF0AF036509A0FE96EA2
:1014F000020E3720EA6EEF6A362A000E3722D8A095
:10150000E9D7366A376A36C002F037C003F0056A99
:10151000FB0E11EC01F0D8A49AEF0AF03650960FAA
:10152000E96E030E3720EA6EEF6A362A000E372284
:10153000D8A0E9D78292130EC96E010EFFEC00F01D
:1015400066C0C9FF010EFFEC00F065C0C9FF010EC7
:10155000FFEC00F068C0C9FF010EFFEC00F067C0AF
:10156000C9FF010EFFEC00F0366A376A36C002F0A0
:1015700037C003F0056AFB0E11EC01F0D8A4D5EFDB
:101580000AF0C96A010EFFEC00F036509A0FE96EBE
:10159000020E3720EA6EC9CFEFFF010EFFEC00F01C
:1015A000362A000E3722D8A0E1D7366A376A36C00D
:1015B00002F037C003F0056AFB0E11EC01F0D8A46D
:1015C000F6EF0AF0C96A010EFFEC00F03650960FF4
:1015D000E96E030E3720EA6EC9CFEFFF010EFFEC74
:1015E00000F0362A000E3722D8A0E1D78282675158
:1015F000FF08146EFF0E6855156E14C002F015C07A
:1016000003F0020E056E000E17EC01F0D8A40FEFE8
:101610000BF0000E6727020E68231EEF0BF0652B00
:10162000000E66236751FF08146EFF0E6855156E95
:101630001450FF08676F010E1554686F1200F1EC2B
:1016400008F08292060EC96E010EFFEC00F0828255
:101650008292600EC96E010EFFEC00F08282030ED2
:10166000056EE80EF3EC00F081810400D89681A1AC
:10167000D886D8B64FEF0BF08292050EC96E010ED8
:10168000FFEC00F0C96A010EFFEC00F0C9CF81F059
:101690008282030E056EE80EF3EC00F0E6D7406A96
:1016A000416A1200366A376A36C002F037C003F06A
:1016B000056A0A0E11EC01F0D8A467EF0BF0856BF8
:1016C0003AEC0CF0362A000E3722D8A0EDD71200E3
:1016D0000D0E856F3AEC0CF0010EF2EC00F00A0EE4
:1016E000856F3AEC0CF01200776B0400020E775D08
:1016F000D8B039EF0CF0040077510008D8A48CEF73
:101700000BF084C002F0036A100E046E056A38EC18
:1017100001F0786F96EF0BF084C002F0036A100EB0
:10172000046E056A38EC01F006C078F004007851C8
:101730000008D8A4A0EF0BF0300E856F34EF0CF04A
:10174000040078510108D8A4AAEF0BF0310E856F80
:1017500034EF0CF0040078510208D8A4B4EF0BF079
:10176000320E856F34EF0CF0040078510308D8A4D2
:10177000BEEF0BF0330E856F34EF0CF004007851A0
:101780000408D8A4C8EF0BF0340E856F34EF0CF0CA
:10179000040078510508D8A4D2EF0BF0350E856F00
:1017A00034EF0CF0040078510608D8A4DCEF0BF0FD
:1017B000360E856F34EF0CF0040078510708D8A47A
:1017C000E6EF0BF0370E856F34EF0CF00400785124
:1017D0000808D8A4F0EF0BF0380E856F34EF0CF04A
:1017E000040078510908D8A4FAEF0BF0390E856F80
:1017F00034EF0CF0040078510A08D8A404EF0CF080
:10180000410E856F34EF0CF0040078510B08D8A41A
:101810000EEF0CF0420E856F34EF0CF0040078519F
:101820000C08D8A418EF0CF0430E856F34EF0CF0C1
:10183000040078510D08D8A422EF0CF0440E856FF7
:1018400034EF0CF0040078510E08D8A42CEF0CF003
:10185000450E856F34EF0CF0040078510F08D8A4C2
:1018600034EF0CF0460E856F3AEC0CF0772BD8A0D5
:101870003CD71200949E829E020EFFEC00F06AECB0
:101880000CF06AEC0CF05E6A0400080E5E5CD8B0E6
:101890005DEF0CF0850EE96EEA6A5E50000F0DEC0C
:1018A00000F0D8B4829ED8A4828E020EFFEC00F025
:1018B0006AEC0CF05E2AD8A0E7D7030EFFEC00F02C
:1018C000828E020EFFEC00F06AEC0CF06AEC0CF079
:1018D000948E12001200AFEF0CF0CAEC1EF0939E33
:1018E000810E1E6E0F0E206E800E1C6E060E016E97
:1018F000100E3AEC00F0400E3AEC00F0570E3AECC5
:1019000000F0410E3AEC00F0490E3AEC00F0540EB3
:101910003AEC00F0490E3AEC00F04E0E3AEC00F0D2
:10192000470E3AEC00F0200E3AEC00F0460E3AEC8E
:1019300000F04F0E3AEC00F0520E3AEC00F0200EA0
:101940003AEC00F0440E3AEC00F0410E3AEC00F0B4
:10195000540E3AEC00F0410E3AEC00F0938E810EFA
:101960001E6E0F0E206E010E1C6E540E0C6E0D6A54
:10197000100E0E6E270E0F6E79EC00F0D8A019EF46
:1019800010F05A08D8A4F8D71C0E0B6EF20E126E87
:10199000136ADA6A860EB0EC00F0D8A019EF10F0E6
:1019A000786B3BEC10F079C008F0096A046A100EFD
:1019B000056E50EC01F0246E07C025F0010E786F23
:1019C0003BEC10F079C008F0096A046A010E056E5C
:1019D00050EC01F0146E07C015F014502426155079
:1019E0002522020E786F3BEC10F079C008F0096AEE
:1019F000100E046E056A50EC01F0146E07C015F06D
:101A00001450242615502522030E786F3BEC10F05D
:101A100079512426E86A2522040E786F3BEC10F0F9
:101A200079C008F0096A046A100E056E50EC01F0E6
:101A30003E6E07C03FF0050E786F3BEC10F079C0AA
:101A400008F0096A046A010E056E50EC01F0146E8C
:101A500007C015F014503E2615503F22060E786F31
:101A60003BEC10F079C008F0096A100E046E056AAC
:101A700050EC01F0146E07C015F014503E261550BE
:101A80003F22070E786F3BEC10F079513E26E86A52
:101A90003F22080E786F3BEC10F079C008F0096A1D
:101AA000046A100E056E50EC01F06B6F07C06CF00D
:101AB000090E786F3BEC10F079C008F0096A046AEF
:101AC000010E056E50EC01F0146E07C015F01450B5
:101AD0006B2715506C230A0E786F3BEC10F079C021
:101AE00008F0096A100E046E056A50EC01F0146EDD
:101AF00007C015F014506B2715506C230B0E786F30
:101B00003BEC10F079516B27E86A6C230C0E786F70
:101B10003BEC10F079C008F0096A046A100E056EFB
:101B200050EC01F0266E07C027F00D0E786F3BECED
:101B300010F079C008F0096A046A010E056E50ECD5
:101B400001F0146E07C015F01450262615502722F8
:101B50000E0E786F3BEC10F079C008F0096A100E99
:101B6000046E056A50EC01F0146E07C015F01450B5
:101B70002626155027220F0E786F3BEC10F0795176
:101B80002626E86A2722100E786F3BEC10F079C009
:101B900008F0096A046A100E056E50EC01F0346E0C
:101BA00007C035F0110E786F3BEC10F079C008F0EB
:101BB000096A046A010E056E50EC01F0146E07C04C
:101BC00015F01450342615503522120E786F3BEC68
:101BD00010F079C008F0096A100E046E056A50EC26
:101BE00001F0146E07C015F014503426155035223C
:101BF000130E786F3BEC10F079513426E86A3522E9
:101C0000140E786F3BEC10F079C008F0096A046A92
:101C1000100E056E50EC01F0226E07C023F0150E79
:101C2000786F3BEC10F079C008F0096A046A010E85
:101C3000056E50EC01F0146E07C015F0145022260A
:101C400015502322160E786F3BEC10F079C008F087
:101C5000096A100E046E056A50EC01F0146E07C09C
:101C600015F01450222615502322170E786F3BECE6
:101C700010F079512226E86A2322180E786F3BEC87
:101C800010F079C008F0096A046A100E056E50EC75
:101C900001F0326E07C033F0190E786F3BEC10F094
:101CA00079C008F0096A046A010E056E50EC01F073
:101CB000146E07C015F014503226155033221A0E38
:101CC000786F3BEC10F079C008F0096A100E046ED2
:101CD000056A50EC01F0146E07C015F0145032265E
:101CE000155033221B0E786F3BEC10F079513226E1
:101CF000E86A3322A96AAA6A2450E3EC00F025506E
:101D0000E3EC00F00A0EF2EC00F0020EA96EAA6AF3
:101D10003E50E3EC00F03F50E3EC00F00A0EF2EC32
:101D200000F0040EA96EAA6A6B51E3EC00F06C514E
:101D3000E3EC00F00A0EF2EC00F0060EA96EAA6ABF
:101D40002650E3EC00F02750E3EC00F00A0EF2EC32
:101D500000F0080EA96EAA6A3450E3EC00F035508A
:101D6000E3EC00F00A0EF2EC00F00A0EA96EAA6A8B
:101D70002250E3EC00F02350E3EC00F00A0EF2EC0A
:101D800000F00C0EA96EAA6A3250E3EC00F033505A
:101D9000E3EC00F00A0EF2EC00F0010E366E376A4A
:101DA00036C002F037C003F0056A040E11EC01F0F2
:101DB000D8A4ECEF0EF08280010E056E5E0EF3ECFF
:101DC00000F08290010E056E5E0EF3EC00F0362AF4
:101DD000000E3722D8A0E4D780901200246A256A2A
:101DE0003E6A3F6A6B6B6C6B266A276A346A356A97
:101DF000226A236A326A336AA96AAA6ADBEC00F0B3
:101E0000246EDBEC00F0256E0A0EF2EC00F0020E00
:101E1000A96EAA6ADBEC00F03E6EDBEC00F03F6ED0
:101E20000A0EF2EC00F0040EA96EAA6ADBEC00F0D8
:101E30006B6FDBEC00F06C6F0A0EF2EC00F0060E3C
:101E4000A96EAA6ADBEC00F0266EDBEC00F0276ED0
:101E50000A0EF2EC00F0080EA96EAA6ADBEC00F0A4
:101E6000346EDBEC00F0356E0A0EF2EC00F00A0E78
:101E7000A96EAA6ADBEC00F0226EDBEC00F0236EA8
:101E80000A0EF2EC00F00C0EA96EAA6ADBEC00F070
:101E9000326EDBEC00F0336E0A0EF2EC00F0CAECAE
:101EA0001EF00268036825C005F024501AEC01F00A
:101EB000D8A45EEF0FF0780E246E256A02680368DE
:101EC0003FC005F03E501AEC01F0D8A46BEF0FF0C4
:101ED000780E3E6E3F6A026803686CC005F06B5175
:101EE0001AEC01F0D8A478EF0FF0050E6B6F6C6B55
:101EF0000268036827C005F026501AEC01F0D8A448
:101F000085EF0FF0080E266E276A0268036835C059
:101F100005F034501AEC01F0D8A493EF0FF0E80E5E
:101F2000346E030E356E0268036823C005F022503C
:101F30001AEC01F0D8A4A0EF0FF05C0E226E236A19
:101F40000268036833C005F032501AEC01F0D8A4DF
:101F5000ADEF0FF05C0E326E336A12003FDF7EC0D1
:101F600085F03AEC0CF0050EFFEC00F025C085F092
:101F70003AEC0CF0050EFFEC00F024C085F03AECD2
:101F80000CF0050EFFEC00F03FC085F03AEC0CF0D1
:101F9000050EFFEC00F03EC085F03AEC0CF0050EAB
:101FA000FFEC00F06CC085F03AEC0CF0050EFFEC95
:101FB00000F06BC085F03AEC0CF0050EFFEC00F081
:101FC00027C085F03AEC0CF0050EFFEC00F026C0BF
:101FD00085F03AEC0CF0050EFFEC00F035C085F012
:101FE0003AEC0CF0050EFFEC00F034C085F03AEC52
:101FF0000CF0050EFFEC00F023C085F03AEC0CF07D
:10200000050EFFEC00F022C085F03AEC0CF0050E56
:10201000FFEC00F033C085F03AEC0CF0050EFFEC5D
:1020200000F032C085F03AEC0CF0050EFFEC00F049
:1020300012008290010E366E376A36C002F037C049
:1020400003F0056A040E11EC01F0D8A439EF10F08A
:102050008082010E056E5E0EF3EC00F08092010EA0
:10206000056E5E0EF3EC00F0362A000E3722D8A083
:10207000E4D780901200146A156A7851860FE96ED1
:10208000000EEA6AEA22EFCF14F0300E026E036A05
:1020900015C005F014501AEC01F0D8A453EF10F05D
:1020A000796B32EF11F0310E026E036A15C005F044
:1020B00014501AEC01F0D8A462EF10F0010E796F01
:1020C00032EF11F0320E026E036A15C005F01450A3
:1020D0001AEC01F0D8A471EF10F0020E796F32EF14
:1020E00011F0330E026E036A15C005F014501AEC9D
:1020F00001F0D8A480EF10F0030E796F32EF11F0E9
:10210000340E026E036A15C005F014501AEC01F08B
:10211000D8A48FEF10F0040E796F32EF11F0350E66
:10212000026E036A15C005F014501AEC01F0D8A431
:102130009EEF10F0050E796F32EF11F0360E026E41
:10214000036A15C005F014501AEC01F0D8A4ADEFE5
:1021500010F0060E796F32EF11F0370E026E036A3F
:1021600015C005F014501AEC01F0D8A4BCEF10F023
:10217000070E796F32EF11F0380E026E036A15C048
:1021800005F014501AEC01F0D8A4CBEF10F0080EB3
:10219000796F32EF11F0390E026E036A15C005F047
:1021A00014501AEC01F0D8A4DAEF10F0090E796F90
:1021B00032EF11F0410E026E036A15C005F01450A3
:1021C0001AEC01F0D8A4E9EF10F00A0E796F32EFA3
:1021D00011F0420E026E036A15C005F014501AEC9D
:1021E00001F0D8A4F8EF10F00B0E796F32EF11F078
:1021F000430E026E036A15C005F014501AEC01F08C
:10220000D8A407EF11F00C0E796F32EF11F0440EE5
:10221000026E036A15C005F014501AEC01F0D8A440
:1022200016EF11F00D0E796F32EF11F0450E026EC0
:10223000036A15C005F014501AEC01F0D8A425EF7C
:1022400011F00E0E796F32EF11F0460E026E036A36
:1022500015C005F014501AEC01F0D8A432EF11F0BB
:102260000F0E796F1200C1EC15F0F40E406E010EE6
:10227000416E40C002F041C003F0056AF80E0DEC5B
:1022800001F0D8A4C4EF11F04050A20FE96E000E87
:102290004120EA6EEFCF14F01450FF08D8A4E8688C
:1022A000FF0A146E4028166E000E4120176E16505D
:1022B000A20FE96E000E1720EA6EEFCF16F016504F
:1022C000FF08D8A4E868FF0A166E14C002F0165082
:1022D0002CEC01F0166E176E020E4024186E000EE4
:1022E0004120196E1850A20FE96E000E1920EA6EF7
:1022F000EFCF18F01850FF08D8A4E868FF0A186E4E
:1023000016501710026E18502CEC01F0186E196E52
:10231000030E40241A6E000E41201B6E1A50A20FAD
:10232000E96E000E1B20EA6EEFCF1AF01A50FF087C
:10233000D8A4E868FF0A1A6E18501910026E1A50D5
:102340002CEC01F01A6E1B6E04001A501B10D8B44E
:10235000C0EF11F040C002F041C003F0056A030E67
:1023600014EC01F0D8A4BBEF11F0040E405E000E97
:10237000415ABDEF11F054EF12F07BD7C2EF11F0CC
:1023800054EF12F054EF12F0FC0E405C146E000E8D
:102390004158156E14509E0FE96E010E1520EA6E1D
:1023A000EFCF14F01450FF08D8A4E868FF0A146EA9
:1023B0004028166E000E4120176EFC0E165E000EB1
:1023C000175A16509E0FE96E010E1720EA6EEFCFD6
:1023D00016F01650FF08D8A4E868FF0A166E14C05D
:1023E00002F016502CEC01F0166E176E020E40240F
:1023F000186E000E4120196EFC0E185E000E195A60
:1024000018509E0FE96E010E1920EA6EEFCF18F0FA
:102410001850FF08D8A4E868FF0A186E1650171065
:10242000026E18502CEC01F0186E196E030E402449
:102430001A6E000E41201B6EFC0E1A5E000E1B5A17
:102440001A509E0FE96E010E1B20EA6EEFCF1AF0B4
:102450001A50FF08D8A4E868FF0A1A6E185019101D
:10246000026E1A502CEC01F01A6E1B6E04001A500A
:102470001B10D8B452EF12F040C002F041C003F07C
:10248000056A030E14EC01F0D8A44DEF12F0040E0F
:10249000405E000E415A4FEF12F054EF12F0E9D6B1
:1024A00054EF12F054EF12F024C002F025C003F0F4
:1024B0003EC004F03FC005F038EC01F006C014F057
:1024C00007C015F00A0E026E036A15C005F014501D
:1024D0001AEC01F0D8A488EF12F06BC008F06CC0C1
:1024E00009F024C004F025C005F050EC01F0146E92
:1024F00007C015F014C002F015C003F0280E046EDA
:10250000056A38EC01F0636F03C064F0A6EF12F0C7
:102510006BC008F06CC009F024C004F025C005F0C1
:1025200050EC01F0146E07C015F014C002F015C095
:1025300003F01C0E046E056A38EC01F0146E03C043
:1025400015F01428636F000E1520646F40C002F070
:1025500041C003F0056A000E0AEC01F0146EA251AE
:10256000FF08D8A4E868FF0A166E14C002F01650DF
:102570002CEC01F0166E176E040016501710D8B42C
:10258000E8EF12F0736B020E746F716B726BE6EF13
:1025900012F0939E810E1E6E0F0E206E800E1C6E2A
:1025A000060E016E100E3AEC00F0540E3AEC00F0FC
:1025B00072C007F071511CEC00F02C0E3AEC00F0E8
:1025C00074C007F073511CEC00F0938E4BEF15F0C4
:1025D00040C002F041C003F0056AFB0E0DEC01F0B3
:1025E000D8A420EF14F04050A20FE96E000E412055
:1025F000EA6EEFCF72F04028146E000E4120156E87
:102600001450A20FE96E000E1520EA6EEFCF71F0A4
:10261000020E4024146E000E4120156E1450A20FBD
:10262000E96E000E1520EA6EEFCF74F0030E402421
:10263000146E000E4120156E1450A20FE96E000EAC
:102640001520EA6EEFCF73F043EF13F0939E810EE7
:102650001E6E0F0E206E800E1C6E060E016E100E8A
:102660003AEC00F0540E3AEC00F072C007F07151F1
:102670001CEC00F02C0E3AEC00F074C007F0735123
:102680001CEC00F0938E040E4026000E4122735184
:10269000FF08146EFF0E7455156E63C008F064C019
:1026A00009F0046A020E056E50EC01F0166E07C0C8
:1026B00017F014C002F015C003F017C005F0165053
:1026C00014EC01F0D8A477EF13F063C008F064C0F5
:1026D00009F0046A020E056E50EC01F0146E07C09A
:1026E00015F014507327155074231EEF14F0735116
:1026F000FF08146EFF0E7455156E63C008F064C0B9
:1027000009F0046A020E056E50EC01F0166E07C067
:1027100017F016C002F017C003F00468056838EC23
:1027200001F006C016F007C017F014C002F015C083
:1027300003F017C005F0165014EC01F0D8A4DAEF3E
:1027400013F063C008F064C009F0046A020E056E5D
:1027500050EC01F0146E07C015F014C002F015C063
:1027600003F00468056838EC01F0146E03C015F03E
:10277000145071271550722363C008F064C009F02B
:10278000046A020E056E50EC01F0146E07C015F0DD
:1027900014C002F015C003F00468056838EC01F0BD
:1027A00006C014F007C015F0145073271550742399
:1027B0001EEF14F063C008F064C009F0046A020E52
:1027C000056E50EC01F0146E07C015F014C002F055
:1027D00015C003F00468056838EC01F0146E03C0FE
:1027E00015F071511426725115221428716F000EC4
:1027F0001520726F63C008F064C009F0046A020E0D
:10280000056E50EC01F0146E07C015F014C002F014
:1028100015C003F00468056838EC01F006C014F038
:1028200007C015F07351FF08166EFF0E7455176E32
:102830001650145C736F17501558746F4BEF15F0EA
:1028400040509E0FE96E010E4120EA6EEFCF72F00C
:102850004028146E000E4120156E14509E0FE96E34
:10286000010E1520EA6EEFCF71F0020E4024146EB7
:10287000000E4120156E14509E0FE96E010E1520BA
:10288000EA6EEFCF74F0030E4024146E000E412068
:10289000156E14509E0FE96E010E1520EA6EEFCFF3
:1028A00073F070EF14F0939E810E1E6E0F0E206E6B
:1028B000800E1C6E060E016E100E3AEC00F0540EE7
:1028C0003AEC00F072C007F071511CEC00F02C0ED5
:1028D0003AEC00F074C007F073511CEC00F0938EDA
:1028E000040E4026000E41227351FF08146EFF0EA5
:1028F0007455156E63C008F064C009F0046A020ED6
:10290000056E50EC01F0166E07C017F014C002F00F
:1029100015C003F017C005F0165014EC01F0D8A450
:10292000A4EF14F063C008F064C009F0046A020E5A
:10293000056E50EC01F0146E07C015F014507327AB
:10294000155074234BEF15F07351FF08146EFF0EF2
:102950007455156E63C008F064C009F0046A020E75
:10296000056E50EC01F0166E07C017F016C002F0AD
:1029700017C003F00468056838EC01F006C016F0D3
:1029800007C017F014C002F015C003F017C005F01F
:10299000165014EC01F0D8A407EF15F063C008F04E
:1029A00064C009F0046A020E056E50EC01F0146E6A
:1029B00007C015F014C002F015C003F004680568E4
:1029C00038EC01F0146E03C015F014507127155047
:1029D000722363C008F064C009F0046A020E056E39
:1029E00050EC01F0146E07C015F014C002F015C0D1
:1029F00003F00468056838EC01F006C014F007C065
:102A000015F014507327155074234BEF15F063C065
:102A100008F064C009F0046A020E056E50EC01F083
:102A2000146E07C015F014C002F015C003F004685E
:102A3000056838EC01F0146E03C015F071511426CE
:102A4000725115221428716F000E1520726F63C029
:102A500008F064C009F0046A020E056E50EC01F043
:102A6000146E07C015F014C002F015C003F004681E
:102A7000056838EC01F006C014F007C015F073517A
:102A8000FF08166EFF0E7455176E1650145C736FA8
:102A900017501558746F7DEF15F0939E810E1E6EC2
:102AA0000F0E206E800E1C6E060E016E100E3AEC9C
:102AB00000F0680E3AEC00F041C007F040501CEC0A
:102AC00000F0810E1E6E0F0E206E800E1C6E060E24
:102AD000016E100E3AEC00F07C0E3AEC00F072C081
:102AE00007F071511CEC00F02C0E3AEC00F074C0B1
:102AF00007F073511CEC00F0938E070E056ED00E9C
:102B0000F3EC00F01200F1EC08F08292060EC96EB0
:102B1000010EFFEC00F08282010EFFEC00F08292C9
:102B2000120EC96E010EFFEC00F0C96A010EFFEC37
:102B300000F0C96A010EFFEC00F041C0C9FF010EB0
:102B4000FFEC00F040C0C9FF010EFFEC00F072C0C6
:102B5000C9FF010EFFEC00F071C0C9FF010EFFECD0
:102B600000F074C0C9FF010EFFEC00F073C0C9FF94
:102B7000010EFFEC00F08282040E4026000E41227E
:102B80001200F1EC08F08292130EC96E010EFFECF8
:102B900000F0C96A010EFFEC00F0C96A010EFFECFB
:102BA00000F0C96A010EFFEC00F0C96A010EFFECEB
:102BB00000F0366A376A36C002F037C003F0056AA3
:102BC000FB0E11EC01F0D8A4F7EF15F0C96A010E65
:102BD000FFEC00F03650A20FE96E000E3720EA6ECF
:102BE000C9CFEFFF362A000E3722D8A0E4D7366AC5
:102BF000376A36C002F037C003F0056AFB0E11ECED
:102C000001F0D8A415EF16F0C96A010EFFEC00F030
:102C100036509E0FE96E010E3720EA6EC9CFEFFFE6
:102C2000362A000E3722D8A0E4D782821200A9DF0C
:102C3000366A376A36C002F037C003F0056AFB0E09
:102C400011EC01F0D8A434EF16F03650A20FE96E63
:102C5000000E3720EA6EEFCF84F074EC0BF0362ACA
:102C6000000E3722D8A0E6D7366A376A36C002F09F
:102C700037C003F0056AFB0E11EC01F0D8A450EF49
:102C800016F036509E0FE96E010E3720EA6EEFCF38
:102C900084F074EC0BF0362A000E3722D8A0E6D769
:102CA00068EC0BF01200656B666B676B020E686F69
:102CB00024C002F025C003F03EC004F03FC005F080
:102CC00038EC01F0146E03C015F00A0E026E036AB0
:102CD00015C005F014501AEC01F0D8A497EF16F0C7
:102CE00024C002F025C003F00A0E046E056A38EC19
:102CF00001F0146E03C015F06BC008F06CC009F051
:102D000014C004F015C005F050EC01F0146E07C0BB
:102D100015F014C002F015C003F0040E046E056A2D
:102D200038EC01F0636F03C064F0C1EF16F024C00B
:102D300002F025C003F0040E046E056A38EC01F0C1
:102D4000146E03C015F06BC008F06CC009F014C01D
:102D500004F015C005F050EC01F0146E07C015F03A
:102D600014C002F015C003F0070E046E056A38ECBB
:102D700001F0146E03C015F01428636F000E1520C7
:102D8000646F026A036A41C005F040501AEC01F01A
:102D9000D8A437EF17F015EF17F0CAEC1EF0939E8A
:102DA000810E1E6E0F0E206E800E1C6E060E016EC2
:102DB000100E3AEC00F0540E3AEC00F04E0E3AECE5
:102DC00000F04F0E3AEC00F0200E3AEC00F0540EFA
:102DD0003AEC00F0450E3AEC00F0530E3AEC00F0FD
:102DE000540E3AEC00F0200E3AEC00F0440E3AECAF
:102DF00000F0410E3AEC00F0540E3AEC00F0410EB7
:102E00003AEC00F0200E3AEC00F0460E3AEC00F0FE
:102E10004F0E3AEC00F0550E3AEC00F04E0E3AEC44
:102E200000F0440E3AEC00F0938E010E3C6E3D6AC9
:102E30003CC002F03DC003F0056A050E11EC01F044
:102E4000D8A434EF17F08082010E056EF40EF3EC77
:102E500000F08092010E056EF40EF3EC00F03C2AB7
:102E6000000E3D22D8A0E4D780907BEF18F0010E31
:102E7000366E376A36C002F037C003F0056A320E8C
:102E800011EC01F0D8A44DEF17F0856B3AEC0CF083
:102E9000362A000E3722D8A0EDD740C002F041C03C
:102EA00003F0040E046E056A38EC01F07E6F6CEFDF
:102EB00017F0939E810E1E6E0F0E206E800E1C6EFC
:102EC000060E016E100E3AEC00F0680E3AEC00F0BF
:102ED0007E511BEC00F0938EAEEC0FF0406A416A1D
:102EE00050DE010E6D6F6E6B6DC002F06EC003F0B0
:102EF0007E5110EC01F0D8A47BEF18F040C002F036
:102F000041C003F0056AF80E11EC01F0D8A4BCEF43
:102F100017F04050A20FE96E000E4120EA6EEFCF8D
:102F200066F04028146E000E4120156E1450A20F5A
:102F3000E96E000E1520EA6EEFCF65F0020E402418
:102F4000146E000E4120156E1450A20FE96E000E93
:102F50001520EA6EEFCF68F0030E4024146E000EC9
:102F60004120156E1450A20FE96E000E1520EA6E76
:102F7000EFCF67F0EDEF17F040509E0FE96E010EB6
:102F80004120EA6EEFCF66F04028146E000E41201B
:102F9000156E14509E0FE96E010E1520EA6EEFCFEC
:102FA00065F0020E4024146E000E4120156E145080
:102FB0009E0FE96E010E1520EA6EEFCF68F0030E4A
:102FC0004024146E000E4120156E14509E0FE96EC1
:102FD000010E1520EA6EEFCF67F00EEF18F0CAEC85
:102FE0001EF0939E810E1E6E0F0E206E800E1C6EC4
:102FF000060E016E100E3AEC00F0680E3AEC00F08E
:1030000066C007F065511CEC00F02C0E3AEC00F0A5
:1030100068C007F067511CEC00F0938E366A376A7F
:1030200036C002F037C003F0056A090E11EC01F05A
:10303000D8A424EF18F036C085F03AEC0CF0362A0C
:10304000000E3722D8A0ECD7010E2E6E2F6A2EC0AC
:1030500002F02FC003F064C005F0635111EC01F0E1
:10306000D8A472EF18F067EC0AF0366A376A36C0F7
:1030700002F037C003F0056AFB0E11EC01F0D8A492
:1030800051EF18F036509A0FE96E020E3720EA6EB3
:10309000EFCF85F03AEC0CF0362A000E3722D8A09C
:1030A000E6D7366A376A36C002F037C003F0056AE1
:1030B000FB0E11EC01F0D8A46DEF18F03650960F0E
:1030C000E96E030E3720EA6EEFCF85F03AEC0CF094
:1030D000362A000E3722D8A0E6D72E2A000E2F223D
:1030E000D8A0B5D7040E4026000E41226D2B000E4D
:1030F0006E23D8A0F9D6809012008280020E056E51
:10310000EE0EF3EC00F08290FA0EF2EC00F080820A
:10311000020E056EEE0EF3EC00F08092FA0EF2EC69
:1031200000F08080020E056EEE0EF3EC00F0809051
:10313000FA0EF2EC00F012003C0E026E036A25C09B
:1031400005F024501AEC01F0D8A4AFEF18F0810E6E
:10315000826F9F0E6F6F810E706F2BEF19F0780EDC
:10316000026E036A25C005F024501AEC01F0D8A4C1
:10317000C2EF18F0800E826FFD0E6F6F800E706FC1
:103180002BEF19F0F00E026E036A25C005F02450F3
:103190001AEC01F0D8A4D5EF18F0800E826FD90E8A
:1031A0006F6F3F0E706F2BEF19F0E00E026E010E85
:1031B000036E25C005F024501AEC01F0D8A4E9EF05
:1031C00018F0800E826F540E6F6F1F0E706F2BEF12
:1031D00019F0F40E026E010E036E25C005F02450A6
:1031E0001AEC01F0D8A4FDEF18F0800E826F080EE3
:1031F0006F6F1E0E706F2BEF19F0C00E026E030E74
:10320000036E25C005F024501AEC01F0D8A411EF8C
:1032100019F0800E826F080E6F6F0F0E706F2BEF1C
:1032200019F0E80E026E030E036E25C005F024505F
:103230001AEC01F0D8A425EF19F0800E826F690E08
:103240006F6F0E0E706F2BEF19F0800E826FFD0EF8
:103250006F6F800E706F6F51FF08146EFF0E705508
:10326000156E14C002F015C003F0046A010E056E5D
:1032700038EC01F0D76E6F51FF08146EFF0E7055D9
:10328000156E14C002F015C003F0046A010E056E3D
:1032900038EC01F006C0D6FFF2941200D9EC06F02B
:1032A00083EC15F00A0EF2EC00F046DF26DF808298
:1032B000806BF28E04D0F2BE1200C4EF19F0FBDF77
:1032C000A00EF26EF8DF010E616F626BF4DF010E8B
:1032D0005A6E5B6AF0DF949EEEDF82C0D5FFEBDFB3
:1032E00061C002F062C003F06CC005F06B5111ECDC
:1032F00001F0D8A495EF19F0DEDF5AC002F05BC0F0
:1033000003F025C005F0245011EC01F0D8A48BEF98
:1033100019F0D1DFF2D7CFDF010E5A6E5B6ACBDF37
:10332000612B000E6223C7DFDBD7948ED56A73C092
:1033300002F074C003F0046A020E056E38EC01F06E
:1033400006C014F007C015F01450FF08286E010ED7
:103350001554296E28507327295074230268036876
:1033600074C005F073511AEC01F0D8A4BFEF19F046
:10337000736B746B712B000E7223C2EF19F0732BF9
:10338000000E7423809212006F51FF08146EFF0E1E
:103390007055156E14C002F015C003F0046A010EDA
:1033A000056E38EC01F0D76E6F51FF08146EFF0EFA
:1033B0007055156E14C002F015C003F0046A010EBA
:1033C000056E38EC01F006C0D6FFF294828E24C060
:1033D00002F025C003F03EC004F03FC005F038EC19
:1033E00001F0146E03C015F05AC002F05BC003F088
:1033F00014C004F015C005F038EC01F006C014F05C
:1034000007C015F014C002F015C003F0056A010EE4
:103410000AEC01F0146E24C002F025C003F03FC096
:1034200005F03E500AEC01F0166E14C002F0165082
:1034300033EC01F0166E176E040016501710D8B456
:10344000BDEF1CF093849382100E6D6E280E6C6E8F
:103450006B6A696A110E6E6E69EC04F070EC04F030
:103460006B8004006BA036EF1AF0FBD7D00E6F6EA6
:1034700004006DA03DEF1AF0FBD7020EFFEC00F048
:103480003B0E6F6E04006DA047EF1AF0FBD7020EE3
:10349000FFEC00F06B8004006BA050EF1AF0FBD73C
:1034A000D10E6F6E04006DA057EF1AF0FBD7020E1D
:1034B000FFEC00F06B8604006DB060EF1AF0FBD7F4
:1034C0006B886B9A6FCF43F0050EFFEC00F06B86B4
:1034D00004006DB06DEF1AF0FBD76B886B9A6FCF5D
:1034E00042F0050EFFEC00F06B8604006DB07AEF41
:1034F0001AF0FBD76B886B9A6FCF45F0050EFFEC87
:1035000000F06B8604006DB087EF1AF0FBD76B8874
:103510006B9A6FCF44F0050EFFEC00F06B86040051
:103520006DB094EF1AF0FBD76B886B9A6FCF47F0B2
:10353000050EFFEC00F06B8604006DB0A1EF1AF0F1
:10354000FBD76B886B8A6FCF46F0030EFFEC00F061
:103550006B8404006BA4AEEF1AF0FBD7030EFFECF4
:1035600000F06B8004006BA0B7EF1AF0FBD7D00E11
:103570006F6E04006DA0BEEF1AF0FBD7020EFFECD9
:1035800000F0430E6F6E04006DA0C8EF1AF0FBD779
:10359000020EFFEC00F06B8004006BA0D1EF1AF07C
:1035A000FBD7D10E6F6E04006DA0D8EF1AF0FBD7D9
:1035B000020EFFEC00F06B8604006DB0E1EF1AF034
:1035C000FBD76B886B9A6FCF49F0050EFFEC00F0CC
:1035D0006B8604006DB0EEEF1AF0FBD76B886B9A28
:1035E0006FCF48F0050EFFEC00F06B8604006DB065
:1035F000FBEF1AF0FBD76B886B9A6FCF4BF0050E81
:10360000FFEC00F06B8604006DB008EF1BF0FBD7F9
:103610006B886B9A6FCF4AF0050EFFEC00F06B865B
:1036200004006DB015EF1BF0FBD76B886B9A6FCF62
:103630004DF0050EFFEC00F06B8604006DB022EF3C
:103640001BF0FBD76B886B8A6FCF4CF0030EFFEC3F
:1036500000F06B8404006BA42FEF1BF0FBD7030E6C
:10366000FFEC00F06B8004006BA038EF1BF0FBD781
:10367000180E6F6E04006DA03FEF1BF0FBD7020E1B
:10368000FFEC00F0030E6F6E04006DA049EF1BF01D
:10369000FBD7020EFFEC00F06B8004006BA052EF32
:1036A0001BF0FBD7190E6F6E04006DA059EF1BF0D5
:1036B000FBD7020EFFEC00F06B8604006DB062EFEA
:1036C0001BF0FBD76B886B9A6FCF4EF0050EFFECAB
:1036D00000F06B8604006DB06FEF1BF0FBD76B88BA
:1036E0006B9A6FCF4FF0050EFFEC00F06B86040075
:1036F0006DB07CEF1BF0FBD76B886B9A6FCF50F0EF
:10370000050EFFEC00F06B8604006DB089EF1BF036
:10371000FBD76B886B9A6FCF51F0050EFFEC00F072
:103720006B8604006DB096EF1BF0FBD76B886B9A2D
:103730006FCF52F0050EFFEC00F06B8604006DB009
:10374000A3EF1BF0FBD76B886B8A6FCF53F0030E90
:10375000FFEC00F06B8404006BA4B0EF1BF0FBD710
:10376000030EFFEC00F0180E7C6F0A0E7B6F110E3B
:103770007A6F6B8004006BA0BFEF1BF0FBD77CC09F
:103780006FFF04006DA0C6EF1BF0FBD7020EFFEC2D
:1037900000F07BC06FFF04006DA0D0EF1BF0FBD7E3
:1037A000020EFFEC00F07AC06FFF010EFFEC00F09C
:1037B00004006DA0DDEF1BF0FBD7020EFFEC00F064
:1037C0006B8404006BA4E6EF1BF0FBD7030EFFEC49
:1037D00000F043C084F074EC0BF042C084F074EC51
:1037E0000BF0F1EC08F08292060EC96E010EFFECB0
:1037F00000F08282010EFFEC00F08292120EC96E80
:10380000010EFFEC00F072C0C9FF010EFFEC00F0EA
:1038100071C0C9FF010EFFEC00F074C0C9FF010EBA
:10382000FFEC00F073C0C9FF010EFFEC00F043C0D5
:10383000C9FF010EFFEC00F042C0C9FF010EFFEC12
:1038400000F045C0C9FF010EFFEC00F044C0C9FF05
:10385000010EFFEC00F047C0C9FF010EFFEC00F0C5
:1038600046C0C9FF010EFFEC00F049C0C9FF010EC0
:10387000FFEC00F048C0C9FF010EFFEC00F04BC0A8
:10388000C9FF010EFFEC00F04AC0C9FF010EFFECBA
:1038900000F04DC0C9FF010EFFEC00F04CC0C9FFA5
:1038A000010EFFEC00F04FC0C9FF010EFFEC00F06D
:1038B0004EC0C9FF010EFFEC00F051C0C9FF010E60
:1038C000FFEC00F050C0C9FF010EFFEC00F053C048
:1038D000C9FF010EFFEC00F052C0C9FF010EFFEC62
:1038E00000F08282120E7325146E000E7421156E84
:1038F000F80E026E036815C005F014501AEC01F0C2
:10390000D8A48AEF1CF0712B000E7223736B746BBA
:10391000BBEF1CF0120E7325146E000E7421156E91
:1039200014C002F015C003F0046A020E056E38ECF4
:1039300001F006C014F007C015F0F80E026E010E7B
:10394000036E15C005F014501AEC01F0D8A4B7EFBF
:103950001CF0080E7325146E000E7421156E120EE5
:103960001424736F000E1520746FBBEF1CF0120E41
:103970007327000E7423C5EF1EF093849382100EFC
:103980006D6E280E6C6E6B6A696A110E6E6E69EC54
:1039900004F070EC04F06B8004006BA0D1EF1CF01D
:1039A000FBD7D00E6F6E04006DA0D8EF1CF0FBD7D4
:1039B000020EFFEC00F03B0E6F6E04006DA0E2EF14
:1039C0001CF0FBD7020EFFEC00F06B8004006BA034
:1039D000EBEF1CF0FBD7D10E6F6E04006DA0F2EF81
:1039E0001CF0FBD7020EFFEC00F06B8604006DB0FC
:1039F000FBEF1CF0FBD76B886B9A6FCF43F0050E83
:103A0000FFEC00F06B8604006DB008EF1DF0FBD7F3
:103A10006B886B9A6FCF42F0050EFFEC00F06B865F
:103A200004006DB015EF1DF0FBD76B886B9A6FCF5C
:103A300045F0050EFFEC00F06B8604006DB022EF40
:103A40001DF0FBD76B886B9A6FCF44F0050EFFEC2F
:103A500000F06B8604006DB02FEF1DF0FBD76B8874
:103A60006B9A6FCF47F0050EFFEC00F06B860400F9
:103A70006DB03CEF1DF0FBD76B886B8A6FCF46F0C3
:103A8000030EFFEC00F06B8404006BA449EF1DF003
:103A9000FBD7030EFFEC00F06B8004006BA052EF2D
:103AA0001DF0FBD7D00E6F6E04006DA059EF1DF016
:103AB000FBD7020EFFEC00F0430E6F6E04006DA00A
:103AC00063EF1DF0FBD7020EFFEC00F06B800400EB
:103AD0006BA06CEF1DF0FBD7D10E6F6E04006DA0D4
:103AE00073EF1DF0FBD7020EFFEC00F06B860400B5
:103AF0006DB07CEF1DF0FBD76B886B9A6FCF49F0F0
:103B0000050EFFEC00F06B8604006DB089EF1DF030
:103B1000FBD76B886B9A6FCF48F0050EFFEC00F077
:103B20006B8604006DB096EF1DF0FBD76B886B9A27
:103B30006FCF4BF0050EFFEC00F06B8604006DB00C
:103B4000A3EF1DF0FBD76B886B9A6FCF4AF0050E81
:103B5000FFEC00F06B8604006DB0B0EF1DF0FBD7FA
:103B60006B886B9A6FCF4DF0050EFFEC00F06B8603
:103B700004006DB0BDEF1DF0FBD76B886B8A6FCF73
:103B80004CF0030EFFEC00F06B8404006BA4CAEF52
:103B90001DF0FBD7030EFFEC00F08292060EC96EFB
:103BA000010EFFEC00F08282010EFFEC00F0829229
:103BB000120EC96E010EFFEC00F072C0C9FF010EBB
:103BC000FFEC00F071C0C9FF010EFFEC00F074C003
:103BD000C9FF010EFFEC00F073C0C9FF010EFFEC3E
:103BE00000F043C0C9FF010EFFEC00F042C0C9FF66
:103BF000010EFFEC00F045C0C9FF010EFFEC00F024
:103C000044C0C9FF010EFFEC00F047C0C9FF010E20
:103C1000FFEC00F046C0C9FF010EFFEC00F049C008
:103C2000C9FF010EFFEC00F048C0C9FF010EFFEC18
:103C300000F04BC0C9FF010EFFEC00F04AC0C9FF05
:103C4000010EFFEC00F04DC0C9FF010EFFEC00F0CB
:103C50004CC0C9FF010EFFEC00F082820C0E7325F0
:103C6000146E000E7421156EF80E026E036815C0F6
:103C700005F014501AEC01F0D8A446EF1EF0712B99
:103C8000000E7223736B746BC5EF1EF00C0E732560
:103C9000146E000E7421156E14C002F015C003F0EE
:103CA000046A020E056E38EC01F006C014F007C07D
:103CB00015F0F80E026E010E036E15C005F01450DB
:103CC0001AEC01F0D8A473EF1EF0080E7325146EE1
:103CD000000E7421156E0C0E1424736F000E152047
:103CE000746FC5EF1EF0120E7325146E000E742152
:103CF000156E14C002F015C003F0046A020E056EC2
:103D000038EC01F006C014F007C015F014C002F042
:103D100015C003F0010E056EF80E0AEC01F0146EEA
:103D200024C002F025C003F03EC004F03FC005F0FF
:103D300038EC01F0166E03C017F016C002F017C081
:103D400003F0056A0A0E0AEC01F0166E14C002F0C8
:103D500016502CEC01F0166E176E0400165017105A
:103D6000D8B4C1EF1EF0080E7325146E000E742136
:103D7000156E120E1424736F000E1520746FC5EFAC
:103D80001EF00C0E7327000E7423829E5A2A000E1A
:103D90005B2210005BEC19F0E6EF1EF05BEC19F013
:103DA000939E5BEC19F0810E1E6E0F0E206E800E3E
:103DB0001C6E060E016E0C0E3AEC00F05BEC19F076
:103DC000938E5BEC19F00A0EF2EC00F05BEC19F04C
:103DD00012005BEC19F0939E5BEC19F0810E1E6EE5
:103DE0000F0E206E800E1C6E060E016E0E0E3AEC4B
:103DF00000F05BEC19F0938E5BEC19F012005BECB9
:103E000019F0939E5BEC19F0810E1E6E0F0E206E62
:103E1000800E1C6E060E016E0F0E3AEC00F05BEC8D
:103E200019F0938E5BEC19F012005BEC19F0939E85
:103E30005BEC19F0810E1E6E0F0E206E800E1C6E54
:103E4000060E016E100E3AEC00F0400E3AEC00F057
:103E50005BEC19F0938E5BEC19F012005BEC19F03F
:103E6000939E5BEC19F0810E1E6E0F0E206E800E7D
:103E70001C6E060E016E100E3AEC00F0540E3AEC79
:103E800000F05BEC19F0938E5BEC19F012005BEC28
:103E900019F0939E5BEC19F0810E1E6E0F0E206ED2
:103EA000800E1C6E060E016E100E3AEC00F0680ECD
:103EB0003AEC00F05BEC19F0938E5BEC19F0120019
:103EC0005BEC19F0939E5BEC19F0810E1E6E0F0EE9
:103ED000206E800E1C6E060E016E100E3AEC00F085
:103EE0007C0E3AEC00F05BEC19F0938E5BEC19F071
:023EF0001200BE
:020000040030CA
:03000100081F3F96
:02000500BD81BB
:060008000FC00FE00F40E5
:00000001FF
