:020000040000FA
:0400000077EF01F0A5
:020008001200E4
:0800180012000A6EF80BE8303B
:10002000E830E830E926D8B0EA2AD1EC00F00A6ED0
:10003000EF1474EF01F0076A066E018E270E056E4D
:10004000100E0CD8030E056EE80E08D8056A640E73
:1000500005D8056A0A0E02D806500BD0046E075068
:10006000036E0650026E38EC01F0E866019E01BE98
:100070001200300F086E20C0EAFF20C0E2FF1E50C1
:10008000E96E120FE16E090E096ED89007D808329A
:10009000092EFCD7D88002D874EF01F001A60BD04E
:1000A000EF501C1001A41C18EF6EE7501C10D8A0D4
:1000B0001C18E76E0AD0EF501C10D8A01C1801B411
:1000C0001C18EF6E1C1CE71600D00134060BEA0F5B
:1000D000F66EF76A000EF722F86A0900F550036E13
:1000E0000800F550000000EF01F0019D033D0064A1
:1000F0000D0120C0EAFF1EC0E9FF0E50026E0F5036
:10010000036E046A056A040020D80CE3E86A04065A
:10011000055AF9E20206035A17E3780E046E010E3F
:10012000056EF1D729D80A6A080E056E26D80DD8B3
:10013000D8B00A3E0432052EF9D70DAA0A6A0DBAC4
:10014000049E1BD8D88004501200120EE9261C50C1
:10015000EF121EC0E9FFEF140DBC1C18FF0F1200B8
:10016000D96E0B0603E2D88074EF01F06EEC01F05B
:10017000D8A01200DE6EF5D7018C0D501F0B000FBA
:10018000036E0C50100FD8B0032A01AC00EF01F041
:10019000019CD8900332E830D8900332E83000EF69
:1001A00001F0010E0AB0E8440AB2E8440AB2E84499
:1001B0000AB4E8381200A66AA680A850A94AAA2A5A
:1001C00074EF01F0E86AA86EA66AA684550EA76EC1
:1001D000AA0EA76EA682A6B2FED7A694A94AAA2AFC
:1001E00074EF01F0056A046EE86A0406055AD8A0A7
:1001F00074EF01F0030E036EE70E02D8F5D7036A21
:10020000FD0F026E01D00206040000D0E86A035A16
:10021000FAE21200046E020E0FD0046E030E0CD030
:10022000056A046E010E08D0046E060E05D0046E39
:10023000040E02D0046E050E0A6E0550035C02E146
:100240000450025C040ED8B0010ED8B4020E0A1499
:10025000D8A4FF0E74EF01F0E866FF0E0214D8A4D4
:10026000FF0E74EF01F00210D8A4FF0E74EF01F03E
:10027000076A066A100E086E033406360736045005
:10028000065E0550075A05E204500626055007226F
:10029000D89002360336082EEFD7025074EF01F0E3
:1002A00004500802F3CF06F0F4CF07F0055009021E
:1002B000F3CF02F0F4CF03F00802F3500726F45016
:1002C0000222E86A032204500902F3500726F45080
:1002D0000222E86A0322065074EF01F0E96EFB6A1D
:1002E0001350FA6E1250F96E000104001200E80E6D
:1002F000D36E800ED26E400E9B6EF26A616A0F0161
:10030000386B396B3A6B010E966E00019488938AB4
:100310009388938293849380938E948E938C938608
:1003200094909290929294929496949A92968290AB
:10033000809080928082030E056EE80E54DF8092DA
:10034000939E810E1E6E0F0E206E800E1C6E060E8A
:10035000016E0C0E8FDE0A0E45DF810E1E6E0F0E33
:10036000206E800E1C6E060E016E0E0E83DE100EC9
:1003700081DE400E7FDE440E7DDE650E7BDE760E76
:1003800079DE390E77DE200E75DE4D0E73DE500EEF
:1003900071DE550E6FDE2D0E6DDE330E6BDE410EFF
:1003A00069DE2D0E67DE330E65DE420E63DE2D0E36
:1003B00061DE330E5FDE430E5DDE2D0E5BDE330E3F
:1003C00059DE440E57DE810E1E6E0F0E206E800E1B
:1003D0001C6E060E016E100E4DDE540E4BDE320EFC
:1003E00049DE2F0E47DE320E45DE310E43DE2F0E84
:1003F00041DE320E3FDE300E3DDE310E3BDE380E8A
:1004000039DE938E040081AA0AEF02F00300640E25
:10041000E9DEF8D7FA0EE6DE8280010E056E2C0EBC
:10042000E2DE82900A0EEBDE8080010E056E2C0E5D
:10043000DADE80900A0EE3DE8082010E056E2C0E5D
:10044000D2DE80920A0EDBDE82800A0ED8DE828245
:10045000010ED5DE8286010ED2DE829A010ECFDE3B
:100460008182010ECCDE8184010EC9DE8096FBEC18
:1004700008F058EC04F0F5EC08F0B0EC10F06AEC81
:100480000EF00A0EAFDEC6EC1DF082806DEF02F0BA
:10049000939E810E1E6E0F0E206E800E1C6E060E39
:1004A000016E100E3AEC00F0400E3AEC00F0530EE4
:1004B0003AEC00F0540E3AEC00F0410E3AEC00F049
:1004C0004E0E3AEC00F0440E3AEC00F0420E3AECDC
:1004D00000F0590E3AEC00F0938E040081BA56EF0A
:1004E00004F082909FEF02F0939E810E1E6E0F0E1D
:1004F000206E800E1C6E060E016E100E3AEC00F09F
:10050000400E3AEC00F0520E3AEC00F0550E3AEC88
:1005100000F04E0E3AEC00F0200E3AEC00F0540ED3
:100520003AEC00F0450E3AEC00F0530E3AEC00F0D5
:10053000540E3AEC00F03F0E3AEC00F0938E070EAA
:10054000056ED00E50DE040081BA00EF04F080800A
:10055000EAEF02F0939E810E1E6E0F0E206E800E4B
:100560001C6E060E016E100E3AEC00F0400E3AECD6
:1005700000F0530E3AEC00F0450E3AEC00F04E0E4F
:100580003AEC00F0440E3AEC00F0200E3AEC00F0A9
:10059000440E3AEC00F0410E3AEC00F0540E3AEC06
:1005A00000F0410E3AEC00F0200E3AEC00F0540E50
:1005B0003AEC00F04F0E3AEC00F0200E3AEC00F06E
:1005C000500E3AEC00F0430E3AEC00F03F0E3AECDD
:1005D00000F0938E070E056ED00E05DE040081BA82
:1005E000A6EF03F0010E0BDE8082010E08DE809084
:1005F0003AEF03F0939E810E1E6E0F0E206E800E5A
:100600001C6E060E016E100E3AEC00F0400E3AEC35
:1006100000F0420E3AEC00F0550E3AEC00F04C0EB1
:100620003AEC00F04B0E3AEC00F0200E3AEC00F001
:10063000450E3AEC00F0520E3AEC00F0410E3AEC66
:1006400000F0530E3AEC00F0450E3AEC00F03F0E8D
:100650003AEC00F0200E3AEC00F0200E3AEC00F0FC
:10066000200E3AEC00F0200E3AEC00F0200E3AECAE
:1006700000F0938E070E056ED00EF3EC00F0040030
:1006800081BA4BEF03F0809282808080E7EC0BF020
:100690003DD6A4EF03F08082828080909EEF03F02D
:1006A000C6EC1DF0939E810E1E6E0F0E206E800E06
:1006B0001C6E060E016E100E3AEC00F0400E3AEC85
:1006C00000F0420E3AEC00F0550E3AEC00F04C0E01
:1006D0003AEC00F04B0E3AEC00F0200E3AEC00F051
:1006E000450E3AEC00F0520E3AEC00F0410E3AECB6
:1006F00000F0530E3AEC00F0490E3AEC00F04E0ECA
:100700003AEC00F0470E3AEC00F0200E3AEC00F024
:10071000200E3AEC00F0200E3AEC00F0200E3AECFD
:1007200000F0200E3AEC00F0200E3AEC00F0200E23
:100730003AEC00F0200E3AEC00F0938EC6EC0AF092
:10074000C6EC1DF0809266D6FEEF03F082908080AA
:10075000F8EF03F0C6EC1DF0939E810E1E6E0F0E97
:10076000206E800E1C6E060E016E100E3AEC00F02C
:10077000400E3AEC00F0530E3AEC00F0450E3AEC25
:1007800000F04E0E3AEC00F0440E3AEC00F0490E48
:100790003AEC00F04E0E3AEC00F0470E3AEC00F066
:1007A000200E3AEC00F0440E3AEC00F0410E3AEC28
:1007B00000F0540E3AEC00F0410E3AEC00F0200E3E
:1007C0003AEC00F0540E3AEC00F04F0E3AEC00F028
:1007D000200E3AEC00F0500E3AEC00F0430E3AECEA
:1007E00000F0200E3AEC00F0200E3AEC00F0938E70
:1007F000CAEC15F0C6EC1DF080900CD656EF04F054
:1008000050EF04F0C6EC1DF0939E810E1E6E0F0E8D
:10081000206E800E1C6E060E016E100E3AEC00F07B
:10082000400E3AEC00F0520E3AEC00F0550E3AEC65
:1008300000F04E0E3AEC00F04E0E3AEC00F0490E8D
:100840003AEC00F04E0E3AEC00F0470E3AEC00F0B5
:10085000200E3AEC00F0540E3AEC00F0450E3AEC63
:1008600000F0530E3AEC00F0540E3AEC00F0200E7B
:100870003AEC00F0200E3AEC00F0200E3AEC00F0DA
:10088000200E3AEC00F0200E3AEC00F0200E3AEC8C
:1008900000F0200E3AEC00F0200E3AEC00F0938EBF
:1008A000C5EC18F0C6EC1DF0C6EC1DF045EF02F0EB
:1008B00093849382100E6D6E280E6C6E6B6A696A5B
:1008C000110E6E6E67EC04F06EEC04F012006B809B
:1008D00004006BA06DEF04F0FBD712006B840400E2
:1008E0006BA474EF04F0FBD71200F1DF7CC06FFF44
:1008F00004006DA07DEF04F0FBD7020EFFEC00F0CA
:100900007BC06FFF04006DA087EF04F0FBD7020EE1
:10091000FFEC00F07AC06FFF010EFFEC00F0040066
:100920006DA094EF04F0FBD7020EFFEC00F0D6DFD1
:100930001200CDDFD00E6F6E04006DA0A1EF04F0A9
:10094000FBD7020EFFEC00F03B0E6F6E04006DA0B3
:10095000ABEF04F0FBD7020EFFEC00F0B8DFD10ED6
:100960006F6E04006DA0B6EF04F0FBD7020EFFEC33
:1009700000F06B8604006DB0BFEF04F0FBD76B880E
:100980006B9A6FCF43F0050EFFEC00F06B8604000E
:100990006DB0CCEF04F0FBD76B886B9A6FCF42F051
:1009A000050EFFEC00F06B8604006DB0D9EF04F08B
:1009B000FBD76B886B9A6FCF45F0050EFFEC00F00C
:1009C0006B8604006DB0E6EF04F0FBD76B886B9A82
:1009D0006FCF44F0050EFFEC00F06B8604006DB0A5
:1009E000F3EF04F0FBD76B886B9A6FCF47F0050EDF
:1009F000FFEC00F06B8604006DB000EF05F0FBD754
:100A00006B886B8A6FCF46F0030EFFEC00F066DF59
:100A1000E6EC0BF05CDFD00E6F6E04006DA012EF01
:100A200005F0FBD7020EFFEC00F0430E6F6E0400E2
:100A30006DA01CEF05F0FBD7020EFFEC00F047DFC6
:100A4000D10E6F6E04006DA027EF05F0FBD7020EEC
:100A5000FFEC00F06B8604006DB030EF05F0FBD7C3
:100A60006B886B9A6FCF49F0050EFFEC00F06B8638
:100A700004006DB03DEF05F0FBD76B886B9A6FCF2C
:100A800048F0050EFFEC00F06B8604006DB04AEFF5
:100A900005F0FBD76B886B9A6FCF4BF0050EFFEC20
:100AA00000F06B8604006DB057EF05F0FBD76B8844
:100AB0006B9A6FCF4AF0050EFFEC00F06B860400D6
:100AC0006DB064EF05F0FBD76B886B9A6FCF4DF07C
:100AD000050EFFEC00F06B8604006DB071EF05F0C1
:100AE000FBD76B886B8A6FCF4CF0030EFFEC00F0E6
:100AF000F5DEE6EC0BF0EBDE180E6F6E04006DA079
:100B000083EF05F0FBD7020EFFEC00F0030E6F6ED3
:100B100004006DA08DEF05F0FBD7020EFFEC00F096
:100B2000D6DE190E6F6E04006DA098EF05F0FBD7AE
:100B3000020EFFEC00F06B8604006DB0A1EF05F033
:100B4000FBD76B886B9A6FCF4EF0050EFFEC00F071
:100B50006B8604006DB0AEEF05F0FBD76B886B9A27
:100B60006FCF4FF0050EFFEC00F06B8604006DB008
:100B7000BBEF05F0FBD76B886B9A6FCF50F0050E7B
:100B8000FFEC00F06B8604006DB0C8EF05F0FBD7FA
:100B90006B886B9A6FCF51F0050EFFEC00F06B86FF
:100BA00004006DB0D5EF05F0FBD76B886B9A6FCF63
:100BB00052F0050EFFEC00F06B8604006DB0E2EF22
:100BC00005F0FBD76B886B8A6FCF53F0030EFFECF9
:100BD00000F084DEE6EC0BF0180E7C6F0A0E7B6FE3
:100BE000110E7A6F82DE120072DED00E6F6E04007C
:100BF0006DA0FCEF05F0FBD7020EFFEC00F03B0E02
:100C00006F6E04006DA006EF06F0FBD7020EFFEC3E
:100C100000F05DDED10E6F6E04006DA011EF06F0E6
:100C2000FBD7020EFFEC00F06B8604006DB01AEFEC
:100C300006F0FBD76B886B9A6FCF43F0050EFFEC85
:100C400000F06B8604006DB027EF06F0FBD76B88D1
:100C50006B9A6FCF42F0050EFFEC00F06B8604003C
:100C60006DB034EF06F0FBD76B886B9A6FCF45F011
:100C7000050EFFEC00F06B8604006DB041EF06F04E
:100C8000FBD76B886B9A6FCF44F0050EFFEC00F03A
:100C90006B8604006DB04EEF06F0FBD76B886B9A45
:100CA0006FCF47F0050EFFEC00F06B8604006DB0CF
:100CB0005BEF06F0FBD76B886B8A6FCF46F0030EB5
:100CC000FFEC00F00BDEE6EC0BF001DED00E6F6EF9
:100CD00004006DA06DEF06F0FBD7020EFFEC00F0F4
:100CE000430E6F6E04006DA077EF06F0FBD7020E87
:100CF000FFEC00F067EC04F0D10E6F6E04006DA005
:100D000083EF06F0FBD7020EFFEC00F06B860400C9
:100D10006DB08CEF06F0FBD76B886B9A6FCF49F004
:100D2000050EFFEC00F06B8604006DB099EF06F045
:100D3000FBD76B886B9A6FCF48F0050EFFEC00F085
:100D40006B8604006DB0A6EF06F0FBD76B886B9A3C
:100D50006FCF4BF0050EFFEC00F06B8604006DB01A
:100D6000B3EF06F0FBD76B886B9A6FCF4AF0050E96
:100D7000FFEC00F06B8604006DB0C0EF06F0FBD70F
:100D80006B886B9A6FCF4DF0050EFFEC00F06B8611
:100D900004006DB0CDEF06F0FBD76B886B8A6FCF88
:100DA0004CF0030EFFEC00F06EEC04F012003BEC94
:100DB00007F07AEC07F0BCEC07F04BEC08F0D00E33
:100DC0007C6F6B0E7B6F800E7A6F75EC04F0640E97
:100DD000F2EC00F0D00E7C6F6B0E7B6F010E7A6F21
:100DE00075EC04F0D00E7C6F6C0E7B6F7A6B75EC3B
:100DF00004F0D00E7C6F1A0E7B6F75C07AF075EC24
:100E000004F0D00E7C6F1B0E7B6F76C07AF075EC11
:100E100004F0D00E7C6F1C0E7B6F5DC07AF075EC19
:100E200004F0D00E7C6F1D0E7B6F5CC07AF075EC09
:100E300004F0D00E7C6F370E7B6F120E7A6F75EC5C
:100E400004F0D00E7C6F380E7B6F010E7A6F75EC5C
:100E500004F00A0EF2EC00F0D00E7C6F0A0E7B6FED
:100E6000110E7A6F75EC04F0949E5DC085F0B6ECBF
:100E70000BF0948E1200020E026E036A27C005F07A
:100E800026501AEC01F0D8A44AEF07F05D985D9661
:100E900079EF07F0040E026E036A27C005F02650B2
:100EA0001AEC01F0D8A459EF07F05D985D8679EF50
:100EB00007F0080E026E036A27C005F026501AECF0
:100EC00001F0D8A468EF07F05D885D9679EF07F030
:100ED000100E026E036A27C005F026501AEC01F0CE
:100EE000D8A477EF07F05D885D8679EF07F05D881D
:100EF0005D961200FA0E026E036A35C005F034509A
:100F00001AEC01F0D8A489EF07F076997697BBEF39
:100F100007F0F40E026E010E036E35C005F034507A
:100F20001AEC01F0D8A499EF07F076997687BBEF19
:100F300007F0E80E026E030E036E35C005F0345064
:100F40001AEC01F0D8A4A9EF07F076897697BBEFE9
:100F500007F0D00E026E070E036E35C005F0345058
:100F60001AEC01F0D8A4B9EF07F076897687BBEFC9
:100F700007F0769976871200050E026E036A23C089
:100F800005F022501AEC01F0D8A4CDEF07F05C86F2
:100F90005C845C825C904AEF08F00A0E026E036A81
:100FA00023C005F022501AEC01F0D8A4DEEF07F0C0
:100FB0005C865C845C925C804AEF08F0140E026EE2
:100FC000036A23C005F022501AEC01F0D8A4EFEF19
:100FD00007F05C865C845C925C904AEF08F0290E16
:100FE000026E036A23C005F022501AEC01F0D8A467
:100FF00000EF08F05C865C945C825C804AEF08F04D
:101000005C0E026E036A23C005F022501AEC01F058
:10101000D8A411EF08F05C865C945C825C904AEF87
:1010200008F0B80E026E036A23C005F022501AECD5
:1010300001F0D8A422EF08F05C865C945C925C809E
:101040004AEF08F0CC0E026E010E036E23C005F0CD
:1010500022501AEC01F0D8A434EF08F05C865C94BE
:101060005C925C904AEF08F06A0E026E040E036E0A
:1010700023C005F022501AEC01F0D8A446EF08F086
:101080005C965C945C925C904AEF08F05C865C94A1
:101090005C825C901200050E026E036A33C005F09C
:1010A00032501AEC01F0D8A45DEF08F07683768117
:1010B000758575837591F4EF08F00A0E026E036A68
:1010C00033C005F032501AEC01F0D8A46FEF08F0ED
:1010D00076837681758575937581F4EF08F0140E2B
:1010E000026E036A33C005F032501AEC01F0D8A446
:1010F00081EF08F076837681758575937591F4EFAD
:1011000008F0290E026E036A33C005F032501AEC63
:1011100001F0D8A493EF08F07683768175957583F6
:101120007581F4EF08F05C0E026E036A33C005F0BF
:1011300032501AEC01F0D8A4A5EF08F0768376813E
:10114000759575837591F4EF08F0B80E026E036A19
:1011500033C005F032501AEC01F0D8A4B7EF08F014
:1011600076837681759575937581F4EF08F0FA0EA4
:10117000026E036A33C005F032501AEC01F0D8A4B5
:10118000C9EF08F076837681759575937591F4EFC4
:1011900008F0100E026E0E0E036E33C005F03250D2
:1011A0001AEC01F0D8A4DCEF08F0769376817595FF
:1011B00075937591F4EF08F0600E026E220E036EC7
:1011C00033C005F032501AEC01F0D8A4EFEF08F06C
:1011D00076937691759575937591F4EF08F0768313
:1011E00076817595758375911200C76A300EC66E4B
:1011F000100ECB6E12003CEC15F08292060EC96EFA
:10120000010EFFEC00F08282010EFFEC00F08292F2
:10121000010EC96E010EFFEC00F0C96A010EFFEC71
:1012200000F0C96A010EFFEC00F0C00EC96E010E9D
:10123000FFEC00F08282030E056EE80EF3EC00F086
:1012400012008292060EC96E010EFFEC00F082823F
:10125000010EFFEC00F08292120EC96E010EFFEC3F
:1012600000F072C0C9FF010EFFEC00F071C0C9FFB1
:10127000010EFFEC00F074C0C9FF010EFFEC00F09E
:1012800073C0C9FF010EFFEC00F043C0C9FF010E9F
:10129000FFEC00F042C0C9FF010EFFEC00F045C0BA
:1012A000C9FF010EFFEC00F044C0C9FF010EFFECC6
:1012B00000F047C0C9FF010EFFEC00F046C0C9FFB7
:1012C000010EFFEC00F049C0C9FF010EFFEC00F079
:1012D00048C0C9FF010EFFEC00F04BC0C9FF010E72
:1012E000FFEC00F04AC0C9FF010EFFEC00F04DC05A
:1012F000C9FF010EFFEC00F04CC0C9FF010EFFEC6E
:1013000000F082820C0E7327000E7423120082926A
:10131000060EC96E010EFFEC00F08282010EFFEC9A
:1013200000F08292120EC96E010EFFEC00F072C046
:10133000C9FF010EFFEC00F071C0C9FF010EFFEC08
:1013400000F074C0C9FF010EFFEC00F073C0C9FFCC
:10135000010EFFEC00F043C0C9FF010EFFEC00F0EE
:1013600042C0C9FF010EFFEC00F045C0C9FF010EED
:10137000FFEC00F044C0C9FF010EFFEC00F047C0D5
:10138000C9FF010EFFEC00F046C0C9FF010EFFECE3
:1013900000F049C0C9FF010EFFEC00F048C0C9FFD2
:1013A000010EFFEC00F04BC0C9FF010EFFEC00F096
:1013B0004AC0C9FF010EFFEC00F04DC0C9FF010E8D
:1013C000FFEC00F04CC0C9FF010EFFEC00F04FC075
:1013D000C9FF010EFFEC00F04EC0C9FF010EFFEC8B
:1013E00000F051C0C9FF010EFFEC00F050C0C9FF72
:1013F000010EFFEC00F053C0C9FF010EFFEC00F03E
:1014000052C0C9FF010EFFEC00F08282120E73275A
:10141000000E74231200E9DE366A376A36C002F025
:1014200037C003F0056AFB0E11EC01F0D8A425EFDC
:101430000AF036509A0FE96E020E3720EA6EEF6A14
:10144000362A000E3722D8A0E9D7366A376A36C066
:1014500002F037C003F0056AFB0E11EC01F0D8A4CE
:101460003EEF0AF03650960FE96E030E3720EA6E13
:10147000EF6A362A000E3722D8A0E9D78292010EF1
:10148000FFEC00F0130EC96E010EFFEC00F066C019
:10149000C9FF010EFFEC00F065C0C9FF010EFFECB3
:1014A00000F068C0C9FF010EFFEC00F067C0C9FF83
:1014B000010EFFEC00F0366A376A36C002F037C022
:1014C00003F0056AFB0E11EC01F0D8A47CEF0AF0E2
:1014D000C96A010EFFEC00F036509A0FE96E020E59
:1014E0003720EA6EC9CFEFFF010EFFEC00F0362A7D
:1014F000000E3722D8A0E1D7366A376A36C002F02C
:1015000037C003F0056AFB0E11EC01F0D8A49DEF83
:101510000AF0C96A010EFFEC00F03650960FE96E32
:10152000030E3720EA6EC9CFEFFF010EFFEC00F08B
:10153000362A000E3722D8A0E1D782826751FF08F1
:10154000146EFF0E6855156E14C002F015C003F03E
:10155000020E056E000E17EC01F0D8A4B6EF0AF0EB
:10156000000E6727020E6823C5EF0AF0652B000EF8
:1015700066236751FF08146EFF0E6855156E1450F0
:10158000FF08676F010E1554686F12008292060EF5
:10159000C96E010EFFEC00F082828292600EC96E6D
:1015A000010EFFEC00F08282270E056E100EF3ECA8
:1015B00000F0270E056E100EF3EC00F0270E056EFE
:1015C000100EF3EC00F0270E056E100EF3EC00F099
:1015D000270E056E100EF3EC00F0406A416A12000F
:1015E000776B0400020E775DD8B0B5EF0BF0040006
:1015F00077510008D8A408EF0BF084C002F0036A0A
:10160000100E046E056A38EC01F0786F12EF0BF0E3
:1016100084C002F0036A100E046E056A38EC01F013
:1016200006C078F0040078510008D8A41CEF0BF035
:10163000300E856FB0EF0BF0040078510108D8A48C
:1016400026EF0BF0310E856FB0EF0BF004007851F0
:101650000208D8A430EF0BF0320E856FB0EF0BF01C
:10166000040078510308D8A43AEF0BF0330E856FCD
:10167000B0EF0BF0040078510408D8A444EF0BF04D
:10168000340E856FB0EF0BF0040078510508D8A434
:101690004EEF0BF0350E856FB0EF0BF00400785174
:1016A0000608D8A458EF0BF0360E856FB0EF0BF09C
:1016B000040078510708D8A462EF0BF0370E856F4D
:1016C000B0EF0BF0040078510808D8A46CEF0BF0D1
:1016D000380E856FB0EF0BF0040078510908D8A4DC
:1016E00076EF0BF0390E856FB0EF0BF004007851F8
:1016F0000A08D8A480EF0BF0410E856FB0EF0BF015
:10170000040078510B08D8A48AEF0BF0420E856FC5
:10171000B0EF0BF0040078510C08D8A494EF0BF054
:10172000430E856FB0EF0BF0040078510D08D8A47C
:101730009EEF0BF0440E856FB0EF0BF00400785174
:101740000E08D8A4A8EF0BF0450E856FB0EF0BF094
:10175000040078510F08D8A4B0EF0BF0460E856F47
:10176000B6EC0BF0772BD8A03CD71200949E829E4B
:10177000020EFFEC00F0E6EC0BF0E6EC0BF05E6A1C
:101780000400080E5E5CD8B0D9EF0BF0850EE96E50
:10179000EA6A5E50000F0DEC00F0D8B4829ED8A427
:1017A000828E020EFFEC00F0E6EC0BF05E2AD8A071
:1017B000E7D7030EFFEC00F0828E020EFFEC00F084
:1017C000E6EC0BF0E6EC0BF0948E120012002BEF1F
:1017D0000CF0C6EC1DF0939E810E1E6E0F0E206E57
:1017E000800E1C6E060E016E100E3AEC00F0400EDC
:1017F0003AEC00F0570E3AEC00F0410E3AEC00F0F3
:10180000490E3AEC00F0540E3AEC00F0490E3AEC76
:1018100000F04E0E3AEC00F0470E3AEC00F0200ECD
:101820003AEC00F0460E3AEC00F04F0E3AEC00F0C5
:10183000520E3AEC00F0200E3AEC00F0440E3AEC76
:1018400000F0410E3AEC00F0540E3AEC00F0410E7C
:101850003AEC00F0938E810E1E6E0F0E206E010E7C
:101860001C6E060E0C6E0D6A100E0E6E270E0F6E9D
:1018700079EC00F0D8A096EF0FF05A08D8A4F8D76A
:101880001C0E0B6EF20E126E136ADA6A860EB0EC44
:1018900000F0D8A096EF0FF0786BB8EC0FF079C09D
:1018A00008F0096A046A100E056E50EC01F0246E0F
:1018B00007C025F0010E786FB8EC0FF079C008F082
:1018C000096A046A010E056E50EC01F0146E07C03F
:1018D00015F01450242615502522020E786FB8EC0E
:1018E0000FF079C008F0096A100E046E056A50EC1A
:1018F00001F0146E07C015F014502426155025224F
:10190000030E786FB8EC0FF079512426E86A25228F
:10191000040E786FB8EC0FF079C008F0096A046A19
:10192000100E056E50EC01F03E6E07C03FF0050E44
:10193000786FB8EC0FF079C008F0096A046A010EFC
:10194000056E50EC01F0146E07C015F014503E26E1
:1019500015503F22060E786FB8EC0FF079C008F0F2
:10196000096A100E046E056A50EC01F0146E07C08F
:1019700015F014503E2615503F22070E786FB8EC34
:101980000FF079513E26E86A3F22080E786FB8ECD6
:101990000FF079C008F0096A046A100E056E50EC69
:1019A00001F06B6F07C06CF0090E786FB8EC0FF0A8
:1019B00079C008F0096A046A010E056E50EC01F066
:1019C000146E07C015F014506B2715506C230A0EC7
:1019D000786FB8EC0FF079C008F0096A100E046E49
:1019E000056A50EC01F0146E07C015F014506B2717
:1019F00015506C230B0E786FB8EC0FF079516B27F4
:101A0000E86A6C230C0E786FB8EC0FF079C008F020
:101A1000096A046A100E056E50EC01F0266E07C0CC
:101A200027F00D0E786FB8EC0FF079C008F0096A56
:101A3000046A010E056E50EC01F0146E07C015F03B
:101A400014502626155027220E0E786FB8EC0FF092
:101A500079C008F0096A100E046E056A50EC01F0B6
:101A6000146E07C015F014502626155027220F0EAD
:101A7000786FB8EC0FF079512626E86A2722100E0D
:101A8000786FB8EC0FF079C008F0096A046A100E9C
:101A9000056E50EC01F0346E07C035F0110E786F12
:101AA000B8EC0FF079C008F0096A046A010E056EFF
:101AB00050EC01F0146E07C015F014503426155088
:101AC0003522120E786FB8EC0FF079C008F0096A71
:101AD000100E046E056A50EC01F0146E07C015F08C
:101AE0001450342615503522130E786FB8EC0FF0D1
:101AF00079513426E86A3522140E786FB8EC0FF06D
:101B000079C008F0096A046A100E056E50EC01F005
:101B1000226E07C023F0150E786FB8EC0FF079C075
:101B200008F0096A046A010E056E50EC01F0146EAB
:101B300007C015F01450222615502322160E786F78
:101B4000B8EC0FF079C008F0096A100E046E056A4F
:101B500050EC01F0146E07C015F0145022261550F9
:101B60002322170E786FB8EC0FF079512226E86A1D
:101B70002322180E786FB8EC0FF079C008F0096ACC
:101B8000046A100E056E50EC01F0326E07C033F09F
:101B9000190E786FB8EC0FF079C008F0096A046A82
:101BA000010E056E50EC01F0146E07C015F01450D4
:101BB0003226155033221A0E786FB8EC0FF079C028
:101BC00008F0096A100E046E056A50EC01F0146EFC
:101BD00007C015F014503226155033221B0E786FB3
:101BE000B8EC0FF079513226E86A3322A96AAA6A62
:101BF0002450E3EC00F02550E3EC00F00A0EF2EC88
:101C000000F0020EA96EAA6A3E50E3EC00F03F50CD
:101C1000E3EC00F00A0EF2EC00F0040EA96EAA6AE2
:101C20006B51E3EC00F06C51E3EC00F00A0EF2ECC7
:101C300000F0060EA96EAA6A2650E3EC00F02750C9
:101C4000E3EC00F00A0EF2EC00F0080EA96EAA6AAE
:101C50003450E3EC00F03550E3EC00F00A0EF2EC07
:101C600000F00A0EA96EAA6A2250E3EC00F023509D
:101C7000E3EC00F00A0EF2EC00F00C0EA96EAA6A7A
:101C80003250E3EC00F03350E3EC00F00A0EF2ECDB
:101C900000F0010E366E376A36C002F037C003F02E
:101CA000056A040E11EC01F0D8A468EF0EF08280F2
:101CB000010E056E5E0EF3EC00F08290010E056ED3
:101CC0005E0EF3EC00F0362A000E3722D8A0E4D7DF
:101CD00080901200246A256A3E6A3F6A6B6B6C6BC7
:101CE000266A276A346A356A226A236A326A336A44
:101CF000A96AAA6ADBEC00F0246EDBEC00F0256E2A
:101D00000A0EF2EC00F0020EA96EAA6ADBEC00F0FB
:101D10003E6EDBEC00F03F6E0A0EF2EC00F0040EBB
:101D2000A96EAA6ADBEC00F06B6FDBEC00F06C6F65
:101D30000A0EF2EC00F0060EA96EAA6ADBEC00F0C7
:101D4000266EDBEC00F0276E0A0EF2EC00F0080EB7
:101D5000A96EAA6ADBEC00F0346EDBEC00F0356EA5
:101D60000A0EF2EC00F00A0EA96EAA6ADBEC00F093
:101D7000226EDBEC00F0236E0A0EF2EC00F00C0E8B
:101D8000A96EAA6ADBEC00F0326EDBEC00F0336E79
:101D90000A0EF2EC00F0C6EC1DF00268036825C0E4
:101DA00005F024501AEC01F0D8A4DBEF0EF0E80E99
:101DB000246E030E256E026803683FC005F03E5096
:101DC0001AEC01F0D8A4E8EF0EF0640E3E6E3F6A04
:101DD000026803686CC005F06B511AEC01F0D8A4DE
:101DE000F5EF0EF0190E6B6F6C6B0268036827C07D
:101DF00005F026501AEC01F0D8A402EF0FF0080EFF
:101E0000266E276A0268036835C005F034501AEC64
:101E100001F0D8A410EF0FF0E80E346E030E356E0B
:101E20000268036823C005F022501AEC01F0D8A420
:101E30001DEF0FF05C0E226E236A0268036833C048
:101E400005F032501AEC01F0D8A42AEF0FF05C0E26
:101E5000326E336A12003EDF7EC085F0B6EC0BF0C6
:101E6000050EFFEC00F025C085F0B6EC0BF0050E7A
:101E7000FFEC00F024C085F0B6EC0BF0050EFFEC93
:101E800000F03FC085F0B6EC0BF0050EFFEC00F063
:101E90003EC085F0B6EC0BF0050EFFEC00F06CC018
:101EA00085F0B6EC0BF0050EFFEC00F06BC085F092
:101EB000B6EC0BF0050EFFEC00F027C085F0B6EC99
:101EC0000BF0050EFFEC00F026C085F0B6EC0BF031
:101ED000050EFFEC00F035C085F0B6EC0BF0050EFA
:101EE000FFEC00F034C085F0B6EC0BF0050EFFEC13
:101EF00000F023C085F0B6EC0BF0050EFFEC00F00F
:101F000022C085F0B6EC0BF0050EFFEC00F033C0FC
:101F100085F0B6EC0BF0050EFFEC00F032C085F05A
:101F2000B6EC0BF0050EFFEC00F012008290010EF3
:101F3000366E376A36C002F037C003F0056A040E09
:101F400011EC01F0D8A4B6EF0FF08082010E056EFF
:101F50005E0EF3EC00F08092010E056E5E0EF3EC67
:101F600000F0362A000E3722D8A0E4D78090120065
:101F7000146A156A7851860FE96E000EEA6AEA2241
:101F8000EFCF14F0300E026E036A15C005F0145046
:101F90001AEC01F0D8A4D0EF0FF0796BAFEF10F08E
:101FA000310E026E036A15C005F014501AEC01F0F0
:101FB000D8A4DFEF0FF0010E796FAFEF10F0320E03
:101FC000026E036A15C005F014501AEC01F0D8A493
:101FD000EEEF0FF0020E796FAFEF10F0330E026EDE
:101FE000036A15C005F014501AEC01F0D8A4FDEFF7
:101FF0000FF0030E796FAFEF10F0340E026E036A2C
:1020000015C005F014501AEC01F0D8A40CEF10F034
:10201000040E796FAFEF10F0350E026E036A15C033
:1020200005F014501AEC01F0D8A41BEF10F0050EC7
:10203000796FAFEF10F0360E026E036A15C005F02F
:1020400014501AEC01F0D8A42AEF10F0060E796FA4
:10205000AFEF10F0370E026E036A15C005F0145092
:102060001AEC01F0D8A439EF10F0070E796FAFEF3A
:1020700010F0380E026E036A15C005F014501AEC09
:1020800001F0D8A448EF10F0080E796FAFEF10F010
:10209000390E026E036A15C005F014501AEC01F0F7
:1020A000D8A457EF10F0090E796FAFEF10F0410E82
:1020B000026E036A15C005F014501AEC01F0D8A4A2
:1020C00066EF10F00A0E796FAFEF10F0420E026E5D
:1020D000036A15C005F014501AEC01F0D8A475EF8E
:1020E00010F00B0E796FAFEF10F0430E026E036A23
:1020F00015C005F014501AEC01F0D8A484EF10F0CC
:102100000C0E796FAFEF10F0440E026E036A15C02B
:1021100005F014501AEC01F0D8A493EF10F00D0E56
:10212000796FAFEF10F0450E026E036A15C005F02F
:1021300014501AEC01F0D8A4A2EF10F00E0E796F33
:10214000AFEF10F0460E026E036A15C005F0145092
:102150001AEC01F0D8A4AFEF10F00F0E796F120057
:102160003CEC15F0F40E406E010E416E40C002F0E2
:1021700041C003F0056AF80E0DEC01F0D8A441EF60
:1021800011F04050A20FE96E000E4120EA6EEFCF31
:1021900014F01450FF08D8A4E868FF0A146E402811
:1021A000166E000E4120176E1650A20FE96E000E3B
:1021B0001720EA6EEFCF16F01650FF08D8A4E86893
:1021C000FF0A166E14C002F016502CEC01F0166EC9
:1021D000176E020E4024186E000E4120196E185022
:1021E000A20FE96E000E1920EA6EEFCF18F018501A
:1021F000FF08D8A4E868FF0A186E16501710026E80
:1022000018502CEC01F0186E196E030E40241A6E53
:10221000000E41201B6E1A50A20FE96E000E1B200B
:10222000EA6EEFCF1AF01A50FF08D8A4E868FF0A48
:102230001A6E18501910026E1A502CEC01F01A6E1A
:102240001B6E04001A501B10D8B43DEF11F040C0B3
:1022500002F041C003F0056A030E14EC01F0D8A4AB
:1022600038EF11F0040E405E000E415A3AEF11F0C3
:10227000D1EF11F07BD73FEF11F0D1EF11F0D1EF9B
:1022800011F0FC0E405C146E000E4158156E145097
:102290009E0FE96E010E1520EA6EEFCF14F0145078
:1022A000FF08D8A4E868FF0A146E4028166E000ED6
:1022B0004120176EFC0E165E000E175A16509E0F28
:1022C000E96E010E1720EA6EEFCF16F01650FF08E8
:1022D000D8A4E868FF0A166E14C002F016502CEC61
:1022E00001F0166E176E020E4024186E000E41208B
:1022F000196EFC0E185E000E195A18509E0FE96EEA
:10230000010E1920EA6EEFCF18F01850FF08D8A47C
:10231000E868FF0A186E16501710026E18502CEC61
:1023200001F0186E196E030E40241A6E000E412043
:102330001B6EFC0E1A5E000E1B5A1A509E0FE96EA1
:10234000010E1B20EA6EEFCF1AF01A50FF08D8A436
:10235000E868FF0A1A6E18501910026E1A502CEC19
:1023600001F01A6E1B6E04001A501B10D8B4CFEF88
:1023700011F040C002F041C003F0056A030E14ECF6
:1023800001F0D8A4CAEF11F0040E405E000E415ACD
:10239000CCEF11F0D1EF11F0E9D6D1EF11F0D1EF80
:1023A00011F024C002F025C003F03EC004F03FC08D
:1023B00005F038EC01F006C014F007C015F00A0E65
:1023C000026E036A15C005F014501AEC01F0D8A48F
:1023D00005EF12F06BC008F06CC009F024C004F0E7
:1023E00025C005F050EC01F0146E07C015F014C0C4
:1023F00002F015C003F0280E046E056A38EC01F0F7
:10240000636F03C064F023EF12F06BC008F06CC080
:1024100009F024C004F025C005F050EC01F0146E62
:1024200007C015F014C002F015C003F01C0E046EB6
:10243000056A38EC01F0146E03C015F01428636FC0
:10244000000E1520646F40C002F041C003F0056A21
:10245000000E0AEC01F0146EA251FF08D8A4E8683F
:10246000FF0A166E14C002F016502CEC01F0166E26
:10247000176E040016501710D8B465EF12F0736B86
:10248000020E746F716B726B63EF12F0939E810E8C
:102490001E6E0F0E206E800E1C6E060E016E100E4C
:1024A0003AEC00F0540E3AEC00F072C007F07151B3
:1024B0001CEC00F02C0E3AEC00F074C007F07351E5
:1024C0001CEC00F0938EC8EF14F040C002F041C045
:1024D00003F0056AFB0E0DEC01F0D8A49DEF13F09C
:1024E0004050A20FE96E000E4120EA6EEFCF72F06D
:1024F0004028146E000E4120156E1450A20FE96E94
:10250000000E1520EA6EEFCF71F0020E4024146E1B
:10251000000E4120156E1450A20FE96E000E15201A
:10252000EA6EEFCF74F0030E4024146E000E4120CB
:10253000156E1450A20FE96E000E1520EA6EEFCF53
:1025400073F0C0EF12F0939E810E1E6E0F0E206E80
:10255000800E1C6E060E016E100E3AEC00F0540E4A
:102560003AEC00F072C007F071511CEC00F02C0E38
:102570003AEC00F074C007F073511CEC00F0938E3D
:10258000040E4026000E41227351FF08146EFF0E08
:102590007455156E63C008F064C009F0046A020E39
:1025A000056E50EC01F0166E07C017F014C002F073
:1025B00015C003F017C005F0165014EC01F0D8A4B4
:1025C000F4EF12F063C008F064C009F0046A020E70
:1025D000056E50EC01F0146E07C015F0145073270F
:1025E000155074239BEF13F07351FF08146EFF0E08
:1025F0007455156E63C008F064C009F0046A020ED9
:10260000056E50EC01F0166E07C017F016C002F010
:1026100017C003F00468056838EC01F006C016F036
:1026200007C017F014C002F015C003F017C005F082
:10263000165014EC01F0D8A457EF13F063C008F063
:1026400064C009F0046A020E056E50EC01F0146ECD
:1026500007C015F014C002F015C003F00468056847
:1026600038EC01F0146E03C015F0145071271550AA
:10267000722363C008F064C009F0046A020E056E9C
:1026800050EC01F0146E07C015F014C002F015C034
:1026900003F00468056838EC01F006C014F007C0C8
:1026A00015F014507327155074239BEF13F063C07B
:1026B00008F064C009F0046A020E056E50EC01F0E7
:1026C000146E07C015F014C002F015C003F00468C2
:1026D000056838EC01F0146E03C015F07151142632
:1026E000725115221428716F000E1520726F63C08D
:1026F00008F064C009F0046A020E056E50EC01F0A7
:10270000146E07C015F014C002F015C003F0046881
:10271000056838EC01F006C014F007C015F07351DD
:10272000FF08166EFF0E7455176E1650145C736F0B
:1027300017501558746FC8EF14F040509E0FE96E93
:10274000010E4120EA6EEFCF72F04028146E000EA9
:102750004120156E14509E0FE96E010E1520EA6E91
:10276000EFCF71F0020E4024146E000E4120156E62
:1027700014509E0FE96E010E1520EA6EEFCF74F033
:10278000030E4024146E000E4120156E14509E0F4F
:10279000E96E010E1520EA6EEFCF73F0EDEF13F046
:1027A000939E810E1E6E0F0E206E800E1C6E060E06
:1027B000016E100E3AEC00F0540E3AEC00F072C0CC
:1027C00007F071511CEC00F02C0E3AEC00F074C0D4
:1027D00007F073511CEC00F0938E040E4026000E9F
:1027E00041227351FF08146EFF0E7455156E63C0BD
:1027F00008F064C009F0046A020E056E50EC01F0A6
:10280000166E07C017F014C002F015C003F017C011
:1028100005F0165014EC01F0D8A421EF14F063C0B9
:1028200008F064C009F0046A020E056E50EC01F075
:10283000146E07C015F01450732715507423C8EF99
:1028400014F07351FF08146EFF0E7455156E63C0BB
:1028500008F064C009F0046A020E056E50EC01F045
:10286000166E07C017F016C002F017C003F0046818
:10287000056838EC01F006C016F007C017F014C068
:1028800002F015C003F017C005F0165014EC01F06B
:10289000D8A484EF14F063C008F064C009F0046A9F
:1028A000020E056E50EC01F0146E07C015F014C056
:1028B00002F015C003F00468056838EC01F0146EEE
:1028C00003C015F0145071271550722363C008F02F
:1028D00064C009F0046A020E056E50EC01F0146E3B
:1028E00007C015F014C002F015C003F004680568B5
:1028F00038EC01F006C014F007C015F0145073272F
:1029000015507423C8EF14F063C008F064C009F0D8
:10291000046A020E056E50EC01F0146E07C015F04B
:1029200014C002F015C003F00468056838EC01F02B
:10293000146E03C015F0715114267251152214281B
:10294000716F000E1520726F63C008F064C009F04B
:10295000046A020E056E50EC01F0146E07C015F00B
:1029600014C002F015C003F00468056838EC01F0EB
:1029700006C014F007C015F07351FF08166EFF0E65
:102980007455176E1650145C736F17501558746F8A
:10299000FAEF14F0939E810E1E6E0F0E206E800EC5
:1029A0001C6E060E016E100E3AEC00F0680E3AEC4A
:1029B00000F041C007F040501CEC00F0810E1E6E8C
:1029C0000F0E206E800E1C6E060E016E100E3AEC7D
:1029D00000F07C0E3AEC00F072C007F071511CEC74
:1029E00000F02C0E3AEC00F074C007F073511CECB0
:1029F00000F0938E070E056ED00EF3EC00F012007F
:102A00008292060EC96E010EFFEC00F08282010E6A
:102A1000FFEC00F08292120EC96E010EFFEC00F086
:102A2000C96A010EFFEC00F0C96A010EFFEC00F06C
:102A300041C0C9FF010EFFEC00F040C0C9FF010E0C
:102A4000FFEC00F072C0C9FF010EFFEC00F071C096
:102A5000C9FF010EFFEC00F074C0C9FF010EFFECCE
:102A600000F073C0C9FF010EFFEC00F08282040E7B
:102A70004026000E412212008292130EC96E010EF2
:102A8000FFEC00F0C96A010EFFEC00F0C96A010E0C
:102A9000FFEC00F0C96A010EFFEC00F0C96A010EFC
:102AA000FFEC00F0366A376A36C002F037C003F038
:102AB000056AFB0E11EC01F0D8A470EF15F0C96A9D
:102AC000010EFFEC00F03650A20FE96E000E372029
:102AD000EA6EC9CFEFFF362A000E3722D8A0E4D71E
:102AE000366A376A36C002F037C003F0056AFB0E5B
:102AF00011EC01F0D8A48EEF15F0C96A010EFFECBD
:102B000000F036509E0FE96E010E3720EA6EC9CFF5
:102B1000EFFF362A000E3722D8A0E4D782821200B7
:102B2000ABDF366A376A36C002F037C003F0056A99
:102B3000FB0E11EC01F0D8A4ADEF15F03650A20F4A
:102B4000E96E000E3720EA6EEFCF84F0F0EC0AF069
:102B5000362A000E3722D8A0E6D7366A376A36C042
:102B600002F037C003F0056AFB0E11EC01F0D8A4A7
:102B7000C9EF15F036509E0FE96E010E3720EA6E50
:102B8000EFCF84F0F0EC0AF0362A000E3722D8A0FE
:102B9000E6D71200656B666B676B020E686F24C028
:102BA00002F025C003F03EC004F03FC005F038EC51
:102BB00001F0146E03C015F00A0E026E036A15C010
:102BC00005F014501AEC01F0D8A40EEF16F024C052
:102BD00002F025C003F00A0E046E056A38EC01F01D
:102BE000146E03C015F06BC008F06CC009F014C07F
:102BF00004F015C005F050EC01F0146E07C015F09C
:102C000014C002F015C003F0040E046E056A38EC1F
:102C100001F0636F03C064F038EF16F024C002F0D7
:102C200025C003F0040E046E056A38EC01F0146E42
:102C300003C015F06BC008F06CC009F014C004F0BC
:102C400015C005F050EC01F0146E07C015F014C06B
:102C500002F015C003F0070E046E056A38EC01F0AF
:102C6000146E03C015F01428636F000E1520646FF6
:102C7000026A036A41C005F040501AEC01F0D8A482
:102C8000AEEF16F08CEF16F0C6EC1DF0939E810EA1
:102C90001E6E0F0E206E800E1C6E060E016E100E44
:102CA0003AEC00F0540E3AEC00F04E0E3AEC00F024
:102CB0004F0E3AEC00F0200E3AEC00F0540E3AECD5
:102CC00000F0450E3AEC00F0530E3AEC00F0540ED2
:102CD0003AEC00F0200E3AEC00F0440E3AEC00F032
:102CE000410E3AEC00F0540E3AEC00F0410E3AEC92
:102CF00000F0200E3AEC00F0460E3AEC00F04F0ED9
:102D00003AEC00F0550E3AEC00F04E0E3AEC00F0C2
:102D1000440E3AEC00F0938E010E3C6E3D6A3CC0CE
:102D200002F03DC003F0056A050E11EC01F0D8A4D5
:102D3000ABEF16F08082010E056EF40EF3EC00F09E
:102D40008092010E056EF40EF3EC00F03C2A000EAA
:102D50003D22D8A0E4D78090F2EF17F0010E366E36
:102D6000376A36C002F037C003F0056A320E11EC44
:102D700001F0D8A4C4EF16F0856BB6EC0BF0362A40
:102D8000000E3722D8A0EDD740C002F041C003F0BA
:102D9000040E046E056A38EC01F07E6FE3EF16F066
:102DA000939E810E1E6E0F0E206E800E1C6E060E00
:102DB000016E100E3AEC00F0680E3AEC00F07E5115
:102DC0001BEC00F0938E2BEC0FF0406A416A54DE4E
:102DD000010E6D6F6E6B6DC002F06EC003F07E5120
:102DE00010EC01F0D8A4F2EF17F040C002F041C09F
:102DF00003F0056AF80E11EC01F0D8A433EF17F0D8
:102E00004050A20FE96E000E4120EA6EEFCF66F04F
:102E10004028146E000E4120156E1450A20FE96E6A
:102E2000000E1520EA6EEFCF65F0020E4024146EFE
:102E3000000E4120156E1450A20FE96E000E1520F1
:102E4000EA6EEFCF68F0030E4024146E000E4120AE
:102E5000156E1450A20FE96E000E1520EA6EEFCF2A
:102E600067F064EF17F040509E0FE96E010E4120AD
:102E7000EA6EEFCF66F04028146E000E4120156E0A
:102E800014509E0FE96E010E1520EA6EEFCF65F02B
:102E9000020E4024146E000E4120156E14509E0F39
:102EA000E96E010E1520EA6EEFCF68F0030E4024A4
:102EB000146E000E4120156E14509E0FE96E010E27
:102EC0001520EA6EEFCF67F085EF17F0C6EC1DF026
:102ED000939E810E1E6E0F0E206E800E1C6E060ECF
:102EE000016E100E3AEC00F0680E3AEC00F066C08D
:102EF00007F065511CEC00F02C0E3AEC00F068C0B5
:102F000007F067511CEC00F0938E366A376A36C0C2
:102F100002F037C003F0056A090E11EC01F0D8A4E5
:102F20009BEF17F036C085F0B6EC0BF0362A000E9A
:102F30003722D8A0ECD7010E2E6E2F6A2EC002F0D9
:102F40002FC003F064C005F0635111EC01F0D8A468
:102F5000E9EF17F00BEC0AF0366A376A36C002F078
:102F600037C003F0056AFB0E11EC01F0D8A4C8EFDE
:102F700017F036509A0FE96E020E3720EA6EEFCF47
:102F800085F0B6EC0BF0362A000E3722D8A0E6D733
:102F9000366A376A36C002F037C003F0056AFB0EA6
:102FA00011EC01F0D8A4E4EF17F03650960FE96E5B
:102FB000030E3720EA6EEFCF85F0B6EC0BF0362A21
:102FC000000E3722D8A0E6D72E2A000E2F22D8A036
:102FD000B5D7040E4026000E41226D2B000E6E2345
:102FE000D8A0F9D6809012008280020E056EEE0EF7
:102FF000F3EC00F08290FA0EF2EC00F08082020E08
:10300000056EEE0EF3EC00F08092FA0EF2EC00F09A
:103010008080020E056EEE0EF3EC00F08090FA0E4A
:10302000F2EC00F012003C0E026E036A25C005F0BF
:1030300024501AEC01F0D8A426EF18F0810E826F0C
:103040009F0E6F6F810E706FA2EF18F0780E026EF8
:10305000036A25C005F024501AEC01F0D8A439EF1A
:1030600018F0800E826FFD0E6F6F800E706FA2EFF2
:1030700018F0F00E026E036A25C005F024501AEC19
:1030800001F0D8A44CEF18F0800E826FD90E6F6F4C
:103090003F0E706FA2EF18F0E00E026E010E036E8D
:1030A00025C005F024501AEC01F0D8A460EF18F008
:1030B000800E826F540E6F6F1F0E706FA2EF18F0AC
:1030C000F40E026E010E036E25C005F024501AECBA
:1030D00001F0D8A474EF18F0800E826F080E6F6FA5
:1030E0001E0E706FA2EF18F0C00E026E030E036E7C
:1030F00025C005F024501AEC01F0D8A488EF18F090
:10310000800E826F080E6F6F0F0E706FA2EF18F0B7
:10311000E80E026E030E036E25C005F024501AEC73
:1031200001F0D8A49CEF18F0800E826F690E6F6FCB
:103130000E0E706FA2EF18F0800E826FFD0E6F6F93
:10314000800E706F6F51FF08146EFF0E7055156E74
:1031500014C002F015C003F0046A010E056E38ECCD
:1031600001F0D76E6F51FF08146EFF0E7055156E8B
:1031700014C002F015C003F0046A010E056E38ECAD
:1031800001F006C0D6FFF2941200D7EC06F000EC76
:1031900015F00A0EF2EC00F046DF26DF8082806B2D
:1031A000F28E04D0F2BE12003BEF19F0FBDFA00E4E
:1031B000F26EF8DF010E616F626BF4DF010E5A6E82
:1031C0005B6AF0DF949EEEDF82C0D5FFEBDF61C06B
:1031D00002F062C003F06CC005F06B5111EC01F01D
:1031E000D8A40CEF19F0DEDF5AC002F05BC003F088
:1031F00025C005F0245011EC01F0D8A402EF19F01D
:10320000D1DFF2D7CFDF010E5A6E5B6ACBDF612BC5
:10321000000E6223C7DFDBD7948ED56A73C002F03D
:1032200074C003F0046A020E056E38EC01F006C0AB
:1032300014F007C015F01450FF08286E010E155445
:10324000296E28507327295074230268036874C0BC
:1032500005F073511AEC01F0D8A436EF19F0736B36
:10326000746B712B000E722339EF19F0732B000E63
:103270007423809212006F51FF08146EFF0E705578
:10328000156E14C002F015C003F0046A010E056E3D
:1032900038EC01F0D76E6F51FF08146EFF0E7055B9
:1032A000156E14C002F015C003F0046A010E056E1D
:1032B00038EC01F006C0D6FFF294828E24C002F0F2
:1032C00025C003F03EC004F03FC005F038EC01F02B
:1032D000146E03C015F05AC002F05BC003F014C0B6
:1032E00004F015C005F038EC01F006C014F007C07A
:1032F00015F014C002F015C003F0056A010E0AECC7
:1033000001F0146E24C002F025C003F03FC005F0A8
:103310003E500AEC01F0166E14C002F0165033EC69
:1033200001F0166E176E040016501710D8B4D7EFC0
:103330001BF06B8004006BA09FEF19F0FBD7D00E41
:103340006F6E04006DA0A6EF19F0FBD7020EFFEC24
:1033500000F03B0E6F6E04006DA0B0EF19F0FBD7CC
:10336000020EFFEC00F06B8004006BA0B9EF19F0C7
:10337000FBD7D10E6F6E04006DA0C0EF19F0FBD724
:10338000020EFFEC00F06B8604006DB0C9EF19F07F
:10339000FBD76B886B9A6FCF43F0050EFFEC00F004
:1033A0006B8604006DB0D6EF19F0FBD76B886B9A73
:1033B0006FCF42F0050EFFEC00F06B8604006DB09D
:1033C000E3EF19F0FBD76B886B9A6FCF45F0050ED2
:1033D000FFEC00F06B8604006DB0F0EF19F0FBD746
:1033E0006B886B9A6FCF44F0050EFFEC00F06B8694
:1033F00004006DB0FDEF19F0FBD76B886B9A6FCFAF
:1034000047F0050EFFEC00F06B8604006DB00AEF8C
:103410001AF0FBD76B886B8A6FCF46F0030EFFEC78
:1034200000F06B8404006BA417EF1AF0FBD7030EB7
:10343000FFEC00F06B8004006BA020EF1AF0FBD7CC
:10344000D00E6F6E04006DA027EF1AF0FBD7020EAE
:10345000FFEC00F0430E6F6E04006DA031EF1AF028
:10346000FBD7020EFFEC00F06B8004006BA03AEF7C
:103470001AF0FBD7D10E6F6E04006DA041EF1AF069
:10348000FBD7020EFFEC00F06B8604006DB04AEF34
:103490001AF0FBD76B886B9A6FCF49F0050EFFECE3
:1034A00000F06B8604006DB057EF1AF0FBD76B8805
:1034B0006B9A6FCF48F0050EFFEC00F06B860400AE
:1034C0006DB064EF1AF0FBD76B886B9A6FCF4BF03F
:1034D000050EFFEC00F06B8604006DB071EF1AF082
:1034E000FBD76B886B9A6FCF4AF0050EFFEC00F0AC
:1034F0006B8604006DB07EEF1AF0FBD76B886B9A79
:103500006FCF4DF0050EFFEC00F06B8604006DB040
:103510008BEF1AF0FBD76B886B8A6FCF4CF0030EE2
:10352000FFEC00F06B8404006BA498EF1AF0FBD75B
:10353000030EFFEC00F06B8004006BA0A1EF1AF00B
:10354000FBD7180E6F6E04006DA0A8EF1AF0FBD722
:10355000020EFFEC00F0030E6F6E04006DA0B2EFE0
:103560001AF0FBD7020EFFEC00F06B8004006BA09A
:10357000BBEF1AF0FBD7190E6F6E04006DA0C2EFFF
:103580001AF0FBD7020EFFEC00F06B8604006DB062
:10359000CBEF1AF0FBD76B886B9A6FCF4EF0050E0E
:1035A000FFEC00F06B8604006DB0D8EF1AF0FBD78B
:1035B0006B886B9A6FCF4FF0050EFFEC00F06B86B7
:1035C00004006DB0E5EF1AF0FBD76B886B9A6FCFF4
:1035D00050F0050EFFEC00F06B8604006DB0F2EFCA
:1035E0001AF0FBD76B886B9A6FCF51F0050EFFEC8A
:1035F00000F06B8604006DB0FFEF1AF0FBD76B880C
:103600006B9A6FCF52F0050EFFEC00F06B86040052
:103610006DB00CEF1BF0FBD76B886B8A6FCF53F04C
:10362000030EFFEC00F06B8404006BA419EF1BF099
:10363000FBD7030EFFEC00F0180E7C6F0A0E7B6FB9
:10364000110E7A6F6B8004006BA028EF1BF0FBD784
:103650007CC06FFF04006DA02FEF1BF0FBD7020EA4
:10366000FFEC00F07BC06FFF04006DA039EF1BF092
:10367000FBD7020EFFEC00F07AC06FFF010EFFECEB
:1036800000F004006DA046EF1BF0FBD7020EFFEC2C
:1036900000F06B8404006BA44FEF1BF0FBD7030E0C
:1036A000FFEC00F08292060EC96E010EFFEC00F0F6
:1036B0008282010EFFEC00F08292120EC96E010EA2
:1036C000FFEC00F072C0C9FF010EFFEC00F071C00A
:1036D000C9FF010EFFEC00F074C0C9FF010EFFEC42
:1036E00000F073C0C9FF010EFFEC00F043C0C9FF3A
:1036F000010EFFEC00F042C0C9FF010EFFEC00F02C
:1037000045C0C9FF010EFFEC00F044C0C9FF010E27
:10371000FFEC00F047C0C9FF010EFFEC00F046C00F
:10372000C9FF010EFFEC00F049C0C9FF010EFFEC1C
:1037300000F048C0C9FF010EFFEC00F04BC0C9FF0C
:10374000010EFFEC00F04AC0C9FF010EFFEC00F0D3
:103750004DC0C9FF010EFFEC00F04CC0C9FF010EC7
:10376000FFEC00F04FC0C9FF010EFFEC00F04EC0AF
:10377000C9FF010EFFEC00F051C0C9FF010EFFECC4
:1037800000F050C0C9FF010EFFEC00F053C0C9FFAC
:10379000010EFFEC00F052C0C9FF010EFFEC00F07B
:1037A0008282120E7327000E74233EEF1DF06B8091
:1037B00004006BA0DDEF1BF0FBD7D00E6F6E040092
:1037C0006DA0E4EF1BF0FBD7020EFFEC00F03B0E08
:1037D0006F6E04006DA0EEEF1BF0FBD7020EFFEC46
:1037E00000F06B8004006BA0F7EF1BF0FBD7D10E4D
:1037F0006F6E04006DA0FEEF1BF0FBD7020EFFEC16
:1038000000F06B8604006DB007EF1CF0FBD76B88EF
:103810006B9A6FCF43F0050EFFEC00F06B8604004F
:103820006DB014EF1CF0FBD76B886B9A6FCF42F032
:10383000050EFFEC00F06B8604006DB021EF1CF06C
:10384000FBD76B886B9A6FCF45F0050EFFEC00F04D
:103850006B8604006DB02EEF1CF0FBD76B886B9A63
:103860006FCF44F0050EFFEC00F06B8604006DB0E6
:103870003BEF1CF0FBD76B886B9A6FCF47F0050EC0
:10388000FFEC00F06B8604006DB048EF1CF0FBD736
:103890006B886B8A6FCF46F0030EFFEC00F06B84F1
:1038A00004006BA455EF1CF0FBD7030EFFEC00F0F7
:1038B0006B8004006BA05EEF1CF0FBD7D00E6F6E28
:1038C00004006DA065EF1CF0FBD7020EFFEC00F0CA
:1038D000430E6F6E04006DA06FEF1CF0FBD7020E5D
:1038E000FFEC00F06B8004006BA078EF1CF0FBD7BE
:1038F000D10E6F6E04006DA07FEF1CF0FBD7020E9F
:10390000FFEC00F06B8604006DB088EF1CF0FBD775
:103910006B886B9A6FCF49F0050EFFEC00F06B8659
:1039200004006DB095EF1CF0FBD76B886B9A6FCFDE
:1039300048F0050EFFEC00F06B8604006DB0A2EFBE
:103940001CF0FBD76B886B9A6FCF4BF0050EFFEC2A
:1039500000F06B8604006DB0AFEF1CF0FBD76B88F6
:103960006B9A6FCF4AF0050EFFEC00F06B860400F7
:103970006DB0BCEF1CF0FBD76B886B9A6FCF4DF02E
:10398000050EFFEC00F06B8604006DB0C9EF1CF073
:10399000FBD76B886B8A6FCF4CF0030EFFEC00F007
:1039A0006B8404006BA4D6EF1CF0FBD7030EFFEC76
:1039B00000F08292060EC96E010EFFEC00F08282CA
:1039C000010EFFEC00F08292120EC96E010EFFECA8
:1039D00000F072C0C9FF010EFFEC00F071C0C9FF1A
:1039E000010EFFEC00F074C0C9FF010EFFEC00F007
:1039F00073C0C9FF010EFFEC00F043C0C9FF010E08
:103A0000FFEC00F042C0C9FF010EFFEC00F045C022
:103A1000C9FF010EFFEC00F044C0C9FF010EFFEC2E
:103A200000F047C0C9FF010EFFEC00F046C0C9FF1F
:103A3000010EFFEC00F049C0C9FF010EFFEC00F0E1
:103A400048C0C9FF010EFFEC00F04BC0C9FF010EDA
:103A5000FFEC00F04AC0C9FF010EFFEC00F04DC0C2
:103A6000C9FF010EFFEC00F04CC0C9FF010EFFECD6
:103A700000F082820C0E7327000E742380511B0805
:103A8000D8A4E868FF0A146E24C002F025C003F031
:103A90003FC005F03E500AEC01F0166E14C002F073
:103AA00016502CEC01F0166E176E0400165017100D
:103AB000D8B479EF1DF0070E7325146E000E742133
:103AC000156E0268036815C005F014501AEC01F079
:103AD000D8A472EF1DF0736B746B712B000E722300
:103AE00076EF1DF0080E7327000E7423806BC1EF74
:103AF0001DF080512708D8A4E868FF0A146E24C07E
:103B000002F025C003F03EC004F03FC005F038ECE1
:103B100001F0166E03C017F016C002F017C003F0D4
:103B2000056A0A0E0AEC01F0166E14C002F0165077
:103B30002CEC01F0166E176E040016501710D8B456
:103B4000C0EF1DF0070E7325146E000E7421156E64
:103B50000268036815C005F014501AEC01F0D8A4EF
:103B6000B9EF1DF0736B746B712B000E7223BDEFF8
:103B70001DF0080E7327000E7423806BC1EF1DF03B
:103B8000802B829E5A2A000E5B221000D2EC18F085
:103B9000E2EF1DF0D2EC18F0939ED2EC18F0810EFB
:103BA0001E6E0F0E206E800E1C6E060E016E0C0E29
:103BB0003AEC00F0D2EC18F0938ED2EC18F00A0E2A
:103BC000F2EC00F0D2EC18F01200D2EC18F0939E58
:103BD000D2EC18F0810E1E6E0F0E206E800E1C6E41
:103BE000060E016E0E0E3AEC00F0D2EC18F0938E39
:103BF000D2EC18F01200D2EC18F0939ED2EC18F030
:103C0000810E1E6E0F0E206E800E1C6E060E016E53
:103C10000F0E3AEC00F0D2EC18F0938ED2EC18F0C4
:103C20001200D2EC18F0939ED2EC18F0810E1E6EAA
:103C30000F0E206E800E1C6E060E016E100E3AECFA
:103C400000F0400E3AEC00F0D2EC18F0938ED2EC7B
:103C500018F01200D2EC18F0939ED2EC18F0810EFE
:103C60001E6E0F0E206E800E1C6E060E016E100E64
:103C70003AEC00F0540E3AEC00F0D2EC18F0938ECF
:103C8000D2EC18F01200D2EC18F0939ED2EC18F09F
:103C9000810E1E6E0F0E206E800E1C6E060E016EC3
:103CA000100E3AEC00F0680E3AEC00F0D2EC18F08E
:103CB000938ED2EC18F01200D2EC18F0939ED2EC56
:103CC00018F0810E1E6E0F0E206E800E1C6E060EFA
:103CD000016E100E3AEC00F07C0E3AEC00F0D2ECE3
:0A3CE00018F0938ED2EC18F01200D9
:020000040030CA
:03000100081F3F96
:02000500BD81BB
:060008000FC00FE00F40E5
:00000001FF
