:020000040000FA
:0400000077EF01F0A5
:020008001200E4
:0800180012000A6EF80BE8303B
:10002000E830E830E926D8B0EA2AD1EC00F00A6ED0
:10003000EF1474EF01F0076A066E018E270E056E4D
:10004000100E0CD8030E056EE80E08D8056A640E73
:1000500005D8056A0A0E02D806500BD0046E075068
:10006000036E0650026E38EC01F0E866019E01BE98
:100070001200300F086E20C0EAFF20C0E2FF1E50C1
:10008000E96E120FE16E090E096ED89007D808329A
:10009000092EFCD7D88002D874EF01F001A60BD04E
:1000A000EF501C1001A41C18EF6EE7501C10D8A0D4
:1000B0001C18E76E0AD0EF501C10D8A01C1801B411
:1000C0001C18EF6E1C1CE71600D00134060BEA0F5B
:1000D000F66EF76A000EF722F86A0900F550036E13
:1000E0000800F550000000EF01F0019D033D0064A1
:1000F0000D0120C0EAFF1EC0E9FF0E50026E0F5036
:10010000036E046A056A040020D80CE3E86A04065A
:10011000055AF9E20206035A17E3780E046E010E3F
:10012000056EF1D729D80A6A080E056E26D80DD8B3
:10013000D8B00A3E0432052EF9D70DAA0A6A0DBAC4
:10014000049E1BD8D88004501200120EE9261C50C1
:10015000EF121EC0E9FFEF140DBC1C18FF0F1200B8
:10016000D96E0B0603E2D88074EF01F06EEC01F05B
:10017000D8A01200DE6EF5D7018C0D501F0B000FBA
:10018000036E0C50100FD8B0032A01AC00EF01F041
:10019000019CD8900332E830D8900332E83000EF69
:1001A00001F0010E0AB0E8440AB2E8440AB2E84499
:1001B0000AB4E8381200A66AA680A850A94AAA2A5A
:1001C00074EF01F0E86AA86EA66AA684550EA76EC1
:1001D000AA0EA76EA682A6B2FED7A694A94AAA2AFC
:1001E00074EF01F0056A046EE86A0406055AD8A0A7
:1001F00074EF01F0030E036EE70E02D8F5D7036A21
:10020000FD0F026E01D00206040000D0E86A035A16
:10021000FAE21200046E020E0FD0046E030E0CD030
:10022000056A046E010E08D0046E060E05D0046E39
:10023000040E02D0046E050E0A6E0550035C02E146
:100240000450025C040ED8B0010ED8B4020E0A1499
:10025000D8A4FF0E74EF01F0E866FF0E0214D8A4D4
:10026000FF0E74EF01F00210D8A4FF0E74EF01F03E
:10027000076A066A100E086E033406360736045005
:10028000065E0550075A05E204500626055007226F
:10029000D89002360336082EEFD7025074EF01F0E3
:1002A00004500802F3CF06F0F4CF07F0055009021E
:1002B000F3CF02F0F4CF03F00802F3500726F45016
:1002C0000222E86A032204500902F3500726F45080
:1002D0000222E86A0322065074EF01F0E96EFB6A1D
:1002E0001350FA6E1250F96E000104001200E80E6D
:1002F000D36E800ED26E400E9B6EF26A616A0F0161
:10030000386B396B3A6B010E966E00019488938AB4
:100310009388938293849380938E948E938C938608
:1003200094909290929294929496949A92968290AB
:10033000809080928082030E056EE80E54DF8092DA
:10034000939E810E1E6E0F0E206E800E1C6E060E8A
:10035000016E0C0E8FDE0A0E45DF810E1E6E0F0E33
:10036000206E800E1C6E060E016E0E0E83DE100EC9
:1003700081DE400E7FDE440E7DDE650E7BDE760E76
:1003800079DE310E77DE310E75DE4D0E73DE500EE6
:1003900071DE550E6FDE2D0E6DDE350E6BDE410EFD
:1003A00069DE2D0E67DE350E65DE420E63DE2D0E34
:1003B00061DE350E5FDE430E5DDE2D0E5BDE350E3B
:1003C00059DE440E57DE810E1E6E0F0E206E800E1B
:1003D0001C6E060E016E100E4DDE540E4BDE330EFB
:1003E00049DE2F0E47DE340E45DE2F0E43DE320E81
:1003F00041DE300E3FDE310E3DDE380E3BDE938EA9
:10040000040081AA08EF02F00300640EEBDEF8D7C7
:10041000FA0EE8DE8280010E056E2C0EE4DE82907C
:100420000A0EEDDE8080010E056E2C0EDCDE809063
:100430000A0EE5DE8082010E056E2C0ED4DE80925F
:100440000A0EDDDE82800A0EDADE8282010ED7DE3F
:100450008286010ED4DE829A010ED1DE8182010EE7
:10046000CEDE8184010ECBDE8096ABEC06F056EC3E
:1004700004F0A5EC06F01CEC0EF0D7EC0BF00A0E25
:10048000B1DE8DEC1BF082806BEF02F0939E810E4B
:100490001E6E0F0E206E800E1C6E060E016E100E6C
:1004A0003AEC00F0400E3AEC00F0530E3AEC00F05B
:1004B000540E3AEC00F0410E3AEC00F04E0E3AECDD
:1004C00000F0440E3AEC00F0420E3AEC00F0590E07
:1004D0003AEC00F0938E040081BA54EF04F082905D
:1004E0009DEF02F0939E810E1E6E0F0E206E800E09
:1004F0001C6E060E016E100E3AEC00F0400E3AEC47
:1005000000F0520E3AEC00F0550E3AEC00F04E0EB0
:100510003AEC00F0200E3AEC00F0540E3AEC00F009
:10052000450E3AEC00F0530E3AEC00F0540E3AEC63
:1005300000F03F0E3AEC00F0938E070E056ED00EE1
:1005400052DE040081BAFEEF03F08080E8EF02F093
:10055000939E810E1E6E0F0E206E800E1C6E060E78
:10056000016E100E3AEC00F0400E3AEC00F0530E23
:100570003AEC00F0450E3AEC00F04E0E3AEC00F08A
:10058000440E3AEC00F0200E3AEC00F0440E3AEC47
:1005900000F0410E3AEC00F0540E3AEC00F0410E3F
:1005A0003AEC00F0200E3AEC00F0540E3AEC00F079
:1005B0004F0E3AEC00F0200E3AEC00F0500E3AEC00
:1005C00000F0430E3AEC00F03F0E3AEC00F0938E50
:1005D000070E056ED00E07DE040081BAA4EF03F00B
:1005E000010E0DDE8082010E0ADE809038EF03F0EE
:1005F000939E810E1E6E0F0E206E800E1C6E060ED8
:10060000016E100E3AEC00F0400E3AEC00F0420E93
:100610003AEC00F0550E3AEC00F04C0E3AEC00F0DB
:100620004B0E3AEC00F0200E3AEC00F0450E3AEC9E
:1006300000F0520E3AEC00F0410E3AEC00F0530E8E
:100640003AEC00F0450E3AEC00F03F0E3AEC00F0C8
:10065000200E3AEC00F0200E3AEC00F0200E3AECBE
:1006600000F0200E3AEC00F0200E3AEC00F0938EF1
:10067000070E056ED00EF3EC00F0040081BA49EFCE
:1006800003F080928280808054EC09F03FD6A2EF84
:1006900003F08082828080909CEF03F08DEC1BF051
:1006A000939E810E1E6E0F0E206E800E1C6E060E27
:1006B000016E100E3AEC00F0400E3AEC00F0420EE3
:1006C0003AEC00F0550E3AEC00F04C0E3AEC00F02B
:1006D0004B0E3AEC00F0200E3AEC00F0450E3AECEE
:1006E00000F0520E3AEC00F0410E3AEC00F0530EDE
:1006F0003AEC00F0490E3AEC00F04E0E3AEC00F005
:10070000470E3AEC00F0200E3AEC00F0200E3AECE6
:1007100000F0200E3AEC00F0200E3AEC00F0200E33
:100720003AEC00F0200E3AEC00F0200E3AEC00F02B
:10073000200E3AEC00F0938E93EC07F08DEC1BF05A
:10074000809266D6FCEF03F082908080F6EF03F093
:100750008DEC1BF0939E810E1E6E0F0E206E800E90
:100760001C6E060E016E100E3AEC00F0400E3AECD4
:1007700000F0530E3AEC00F0450E3AEC00F04E0E4D
:100780003AEC00F0440E3AEC00F0490E3AEC00F07E
:100790004E0E3AEC00F0470E3AEC00F0200E3AEC28
:1007A00000F0440E3AEC00F0410E3AEC00F0540E2A
:1007B0003AEC00F0410E3AEC00F0200E3AEC00F07A
:1007C000540E3AEC00F04F0E3AEC00F0200E3AECEA
:1007D00000F0500E3AEC00F0430E3AEC00F0200E20
:1007E0003AEC00F0200E3AEC00F0938E3CEC13F063
:1007F0008DEC1BF080900CD654EF04F04EEF04F01B
:100800008DEC1BF0939E810E1E6E0F0E206E800EDF
:100810001C6E060E016E100E3AEC00F0400E3AEC23
:1008200000F0520E3AEC00F0550E3AEC00F04E0E8D
:100830003AEC00F04E0E3AEC00F0490E3AEC00F0C3
:100840004E0E3AEC00F0470E3AEC00F0200E3AEC77
:1008500000F0540E3AEC00F0450E3AEC00F0530E66
:100860003AEC00F0540E3AEC00F0200E3AEC00F0B6
:10087000200E3AEC00F0200E3AEC00F0200E3AEC9C
:1008800000F0200E3AEC00F0200E3AEC00F0200EC2
:100890003AEC00F0200E3AEC00F0938E37EC16F0B4
:1008A0008DEC1BF08DEC1BF043EF02F093849382F0
:1008B000100E6D6E280E6C6E6B6A696A110E6E6E8C
:1008C00065EC04F06CEC04F012006B8004006BA08B
:1008D0006BEF04F0FBD712006B8404006BA472EF83
:1008E00004F0FBD71200F1DF7EC06FFF04006DA0A3
:1008F0007BEF04F0FBD7020EFFEC00F07DC06FFF32
:1009000004006DA085EF04F0FBD7020EFFEC00F0B1
:100910007CC06FFF010EFFEC00F004006DA092EFB1
:1009200004F0FBD7020EFFEC00F0D6DF1200EBEC78
:1009300004F02AEC05F06CEC05F0FBEC05F0D00EB1
:100940007E6F6B0E7D6F800E7C6FCDDF640EF2ECE0
:1009500000F0D00E7E6F6B0E7D6F010E7C6FC3DFDB
:10096000D00E7E6F6C0E7D6F7C6BBDDFD00E7E6F08
:100970001A0E7D6F77C07CF0B6DFD00E7E6F1B0E37
:100980007D6F78C07CF0AFDFD00E7E6F1C0E7D6F68
:100990005DC07CF0A8DFD00E7E6F1D0E7D6F5CC049
:1009A0007CF0A1DFD00E7E6F370E7D6F120E7C6F54
:1009B0009ADFD00E7E6F380E7D6F010E7C6F93DF55
:1009C0000A0EF2EC00F0D00E7E6F0A0E7D6F110E53
:1009D0007C6F89DF1200020E026E036A27C005F0E9
:1009E00026501AEC01F0D8A4FAEF04F05D985D9659
:1009F00029EF05F0040E026E036A27C005F02650A9
:100A00001AEC01F0D8A409EF05F05D985D8629EF96
:100A100005F0080E026E036A27C005F026501AEC96
:100A200001F0D8A418EF05F05D885D9629EF05F078
:100A3000100E026E036A27C005F026501AEC01F072
:100A4000D8A427EF05F05D885D8629EF05F05D8865
:100A50005D961200FA0E026E036A37C005F036503A
:100A60001AEC01F0D8A439EF05F0789978976BEF7C
:100A700005F0F40E026E010E036E37C005F036501D
:100A80001AEC01F0D8A449EF05F0789978876BEF5C
:100A900005F0E80E026E030E036E37C005F0365007
:100AA0001AEC01F0D8A459EF05F0788978976BEF2C
:100AB00005F0D00E026E070E036E37C005F03650FB
:100AC0001AEC01F0D8A469EF05F0788978876BEF0C
:100AD00005F0789978871200050E026E036A23C02C
:100AE00005F022501AEC01F0D8A47DEF05F05C86E9
:100AF0005C845C825C90FAEF05F00A0E026E036A79
:100B000023C005F022501AEC01F0D8A48EEF05F0B6
:100B10005C865C845C925C80FAEF05F0140E026ED9
:100B2000036A23C005F022501AEC01F0D8A49FEF0D
:100B300005F05C865C845C925C90FAEF05F0290E0F
:100B4000026E036A23C005F022501AEC01F0D8A40B
:100B5000B0EF05F05C865C945C825C80FAEF05F097
:100B60005C0E026E036A23C005F022501AEC01F0FD
:100B7000D8A4C1EF05F05C865C945C825C90FAEFCF
:100B800005F0B80E026E036A23C005F022501AEC7D
:100B900001F0D8A4D2EF05F05C865C945C925C8096
:100BA000FAEF05F0CC0E026E010E036E23C005F0C5
:100BB00022501AEC01F0D8A4E4EF05F05C865C94B6
:100BC0005C925C90FAEF05F06A0E026E040E036E02
:100BD00023C005F022501AEC01F0D8A4F6EF05F07E
:100BE0005C965C945C925C90FAEF05F05C865C9499
:100BF0005C825C901200050E026E036A35C005F03F
:100C000034501AEC01F0D8A40DEF06F07883788107
:100C1000778577837791A4EF06F00A0E026E036A58
:100C200035C005F034501AEC01F0D8A41FEF06F0DF
:100C300078837881778577937781A4EF06F0140E17
:100C4000026E036A35C005F034501AEC01F0D8A4E6
:100C500031EF06F078837881778577937791A4EFE9
:100C600006F0290E026E036A35C005F034501AEC06
:100C700001F0D8A443EF06F07883788177957783E5
:100C80007781A4EF06F05C0E026E036A35C005F0B2
:100C900034501AEC01F0D8A455EF06F0788378812F
:100CA000779577837791A4EF06F0B80E026E036A0A
:100CB00035C005F034501AEC01F0D8A467EF06F007
:100CC00078837881779577937781A4EF06F0FA0E91
:100CD000026E036A35C005F034501AEC01F0D8A456
:100CE00079EF06F078837881779577937791A4EF01
:100CF00006F0100E026E0E0E036E35C005F0345075
:100D00001AEC01F0D8A48CEF06F0789378817795EF
:100D100077937791A4EF06F0600E026E220E036EB9
:100D200035C005F034501AEC01F0D8A49FEF06F05E
:100D300078937891779577937791A4EF06F07883FD
:100D400078817795778377911200C76A300EC66EE7
:100D5000100ECB6E1200AAEC12F08292060EC96E33
:100D60000400C7B0B5EF06F0FBD78282010EFFEC9E
:100D700000F08292010EC96E0400C7B0C1EF06F008
:100D8000FBD7C96A0400C7B0C7EF06F0FBD7C96A32
:100D90000400C7B0CDEF06F0FBD7C00EC96E04004B
:100DA000C7B0D4EF06F0FBD78282030E056EE80EC3
:100DB000F3EC00F01200C9DF386A396A38C002F07B
:100DC00039C003F0056AFB0E11EC01F0D8A4F5EF71
:100DD00006F038509C0FE96E020E3920EA6EEF6A79
:100DE000382A000E3922D8A0E9D7386A396A38C0C3
:100DF00002F039C003F0056AFB0E11EC01F0D8A433
:100E00000EEF07F03850980FE96E030E3920EA6EA6
:100E1000EF6A382A000E3922D8A0E9D78292130E41
:100E2000C96E010EFFEC00F068C0C9FF010EFFECB7
:100E300000F067C0C9FF010EFFEC00F06AC0C9FFF7
:100E4000010EFFEC00F069C0C9FF010EFFEC00F0DD
:100E5000386A396A38C002F039C003F0056AFB0EFF
:100E600011EC01F0D8A449EF07F0C96A010EFFECBC
:100E700000F038509C0FE96E020E3920EA6EC9CF9F
:100E8000EFFF010EFFEC00F0382A000E3922D8A047
:100E9000E1D7386A396A38C002F039C003F0056A10
:100EA000FB0E11EC01F0D8A46AEF07F0C96A010E3D
:100EB000FFEC00F03850980FE96E030E3920EA6E0F
:100EC000C9CFEFFF010EFFEC00F0382A000E3922E7
:100ED000D8A0E1D782826951FF08146EFF0E6A55CF
:100EE000156E14C002F015C003F0020E056E000E60
:100EF00017EC01F0D8A483EF07F0000E6927020E6B
:100F00006A2392EF07F0672B000E68236951FF08F0
:100F1000146EFF0E6A55156E1450FF08696F010EAE
:100F200015546A6F120073C002F074C003F0040E0F
:100F3000046E056A38EC01F0146E03C015F0142835
:100F40002E6E000E15202F6E00DF386A396A38C009
:100F500002F039C003F02FC005F02E5011EC01F063
:100F6000D8A406EF08F038C008F039C009F0040E24
:100F7000046E056A50EC01F0676F07C068F0696B9A
:100F80006A6B8292060EC96E010EFFEC00F082823F
:100F9000010EFFEC00F08292D80EC96E010EFFEC3C
:100FA00000F068C0C9FF010EFFEC00F067C0C9FF88
:100FB000010EFFEC00F06AC0C9FF010EFFEC00F06B
:100FC0008282030E056EE80EF3EC00F083810400CC
:100FD000D89683A1D886D8B601EF08F08292050E84
:100FE000C96E010EFFEC00F0C96A010EFFEC00F0C3
:100FF000C9CF83F08282030E056EE80EF3EC00F099
:10100000E6D7382A000E3922D8A0A1D7426A436A0F
:1010100012009BDE8292060EC96E010EFFEC00F0FC
:1010200082828292600EC96E010EFFEC00F0828215
:10103000030E056EE80EF3EC00F083810400D896F1
:1010400083A1D886D8B638EF08F08292050EC96E13
:10105000010EFFEC00F0C96A010EFFEC00F0C9CFF1
:1010600083F08282030E056EE80EF3EC00F0E6D703
:10107000426A436A1200386A396A38C002F039C0DD
:1010800003F0056A0A0E11EC01F0D8A450EF08F045
:10109000876B23EC09F0382A000E3922D8A0EDD74F
:1010A00012000D0E876F23EC09F0010EF2EC00F038
:1010B0000A0E876F23EC09F01200796B0400020E10
:1010C000795DD8B022EF09F0040079510008D8A466
:1010D00075EF08F086C002F0036A100E046E056A10
:1010E00038EC01F07A6F7FEF08F086C002F0036AF7
:1010F000100E046E056A38EC01F006C07AF00400A8
:101100007A510008D8A489EF08F0300E876F1DEFE0
:1011100009F004007A510108D8A493EF08F0310EC9
:10112000876F1DEF09F004007A510208D8A49DEFE3
:1011300008F0320E876F1DEF09F004007A510308A2
:10114000D8A4A7EF08F0330E876F1DEF09F0040055
:101150007A510408D8A4B1EF08F0340E876F1DEF60
:1011600009F004007A510508D8A4BBEF08F0350E49
:10117000876F1DEF09F004007A510608D8A4C5EF67
:1011800008F0360E876F1DEF09F004007A5107084A
:10119000D8A4CFEF08F0370E876F1DEF09F00400D9
:1011A0007A510808D8A4D9EF08F0380E876F1DEFE0
:1011B00009F004007A510908D8A4E3EF08F0390EC9
:1011C000876F1DEF09F004007A510A08D8A4EDEFEB
:1011D00008F0410E876F1DEF09F004007A510B08EB
:1011E000D8A4F7EF08F0420E876F1DEF09F0040056
:1011F0007A510C08D8A401EF09F0430E876F1DEF58
:1012000009F004007A510D08D8A40BEF09F0440E40
:10121000876F1DEF09F004007A510E08D8A415EF6E
:1012200009F0450E876F1DEF09F004007A510F0891
:10123000D8A41DEF09F0460E876F23EC09F0792B37
:10124000D8A03CD71200949E829E020EFFEC00F0C4
:1012500053EC09F053EC09F05E6A0400080E5E5C82
:10126000D8B046EF09F0870EE96EEA6A5E50000FCB
:101270000DEC00F0D8B4829ED8A4828E020EFFEC52
:1012800000F053EC09F05E2AD8A0E7D7030EFFEC7C
:1012900000F0828E020EFFEC00F053EC09F053ECEC
:1012A00009F0948E1200120098EF09F08DEC1BF0FB
:1012B000939E810E1E6E0F0E206E800E1C6E060E0B
:1012C000016E100E3AEC00F0400E3AEC00F0570EB2
:1012D0003AEC00F0410E3AEC00F0490E3AEC00F026
:1012E000540E3AEC00F0490E3AEC00F04E0E3AEC97
:1012F00000F0470E3AEC00F0200E3AEC00F0460EFB
:101300003AEC00F04F0E3AEC00F0520E3AEC00F0DE
:10131000200E3AEC00F0440E3AEC00F0410E3AECAC
:1013200000F0540E3AEC00F0410E3AEC00F0938ECF
:10133000810E1E6E0F0E206E010E1C6E540E0C6E72
:101340000D6A100E0E6E270E0F6E79EC00F0D8A00D
:1013500002EF0DF05A08D8A4F8D71C0E0B6EF20E4F
:10136000126E136ADA6A880EB0EC00F0D8A002EFB1
:101370000DF07A6B24EC0DF07BC008F0096A046A6A
:10138000100E056E50EC01F0246E07C025F0010E22
:101390007A6F24EC0DF07BC008F0096A046A010E34
:1013A000056E50EC01F0146E07C015F014502426A1
:1013B00015502522020E7A6F24EC0DF07BC008F048
:1013C000096A100E046E056A50EC01F0146E07C035
:1013D00015F01450242615502522030E7A6F24ECA4
:1013E0000DF07B512426E86A2522040E7A6F24EC46
:1013F0000DF07BC008F0096A046A100E056E50EC0F
:1014000001F0406E07C041F0050E7A6F24EC0DF03C
:101410007BC008F0096A046A010E056E50EC01F009
:10142000146E07C015F01450402615504122060EC8
:101430007A6F24EC0DF07BC008F0096A100E046E80
:10144000056A50EC01F0146E07C015F014504026E8
:1014500015504122070E7A6F24EC0DF07B51402687
:10146000E86A4122080E7A6F24EC0DF07BC008F088
:10147000096A046A100E056E50EC01F06D6F07C02A
:101480006EF0090E7A6F24EC0DF07BC008F0096A4B
:10149000046A010E056E50EC01F0146E07C015F0E1
:1014A00014506D2715506E230A0E7A6F24EC0DF040
:1014B0007BC008F0096A100E046E056A50EC01F05A
:1014C000146E07C015F014506D2715506E230B0EC7
:1014D0007A6F24EC0DF07B516D27E86A6E230C0EB9
:1014E0007A6F24EC0DF07BC008F0096A046A100ED4
:1014F000056E50EC01F0266E07C027F00D0E7A6FD6
:1015000024EC0DF07BC008F0096A046A010E056E38
:1015100050EC01F0146E07C015F01450262615503B
:1015200027220E0E7A6F24EC0DF07BC008F0096ABA
:10153000100E046E056A50EC01F0146E07C015F031
:1015400014502626155027220F0E7A6F24EC0DF02A
:101550007B512626E86A2722100E7A6F24EC0DF0C4
:101560007BC008F0096A046A100E056E50EC01F0A9
:10157000366E07C037F0110E7A6F24EC0DF07BC089
:1015800008F0096A046A010E056E50EC01F0146E51
:1015900007C015F01450362615503722120E7A6FF8
:1015A00024EC0DF07BC008F0096A100E046E056A89
:1015B00050EC01F0146E07C015F01450362615508B
:1015C0003722130E7A6F24EC0DF07B513626E86A31
:1015D0003722140E7A6F24EC0DF07BC008F0096AF4
:1015E000046A100E056E50EC01F0226E07C023F065
:1015F000150E7A6F24EC0DF07BC008F0096A046ABE
:10160000010E056E50EC01F0146E07C015F0145079
:10161000222615502322160E7A6F24EC0DF07BC083
:1016200008F0096A100E046E056A50EC01F0146EA1
:1016300007C015F01450222615502322170E7A6F7A
:1016400024EC0DF07B512226E86A2322180E7A6FD3
:1016500024EC0DF07BC008F0096A046A100E056ED8
:1016600050EC01F0346E07C035F0190E7A6F24EC9F
:101670000DF07BC008F0096A046A010E056E50EC9B
:1016800001F0146E07C015F01450342615503522A1
:101690001A0E7A6F24EC0DF07BC008F0096A100E68
:1016A000046E056A50EC01F0146E07C015F014507A
:1016B0003426155035221B0E7A6F24EC0DF07B5129
:1016C0003426E86A3522A96AAA6A2450E3EC00F0BD
:1016D0002550E3EC00F00A0EF2EC00F0020EA96EC9
:1016E000AA6A4050E3EC00F04150E3EC00F00A0E2F
:1016F000F2EC00F0040EA96EAA6A6D51E3EC00F062
:101700006E51E3EC00F00A0EF2EC00F0060EA96E4A
:10171000AA6A2650E3EC00F02750E3EC00F00A0E32
:10172000F2EC00F0080EA96EAA6A3650E3EC00F065
:101730003750E3EC00F00A0EF2EC00F00A0EA96E4E
:10174000AA6A2250E3EC00F02350E3EC00F00A0E0A
:10175000F2EC00F00C0EA96EAA6A3450E3EC00F033
:101760003550E3EC00F00A0EF2EC00F0010E386E9A
:10177000396A38C002F039C003F0056A040E11EC72
:1017800001F0D8A4D5EF0BF08280010E056E5E0E3D
:10179000F3EC00F08290010E056E5E0EF3EC00F0AB
:1017A000382A000E3922D8A0E4D780901200246A8B
:1017B000256A406A416A6D6B6E6B266A276A366AD3
:1017C000376A226A236A346A356AA96AAA6ADBEC34
:1017D00000F0246EDBEC00F0256E0A0EF2EC00F057
:1017E000020EA96EAA6ADBEC00F0406EDBEC00F0A2
:1017F000416E0A0EF2EC00F0040EA96EAA6ADBEC50
:1018000000F06D6FDBEC00F06E6F0A0EF2EC00F092
:10181000060EA96EAA6ADBEC00F0266EDBEC00F087
:10182000276E0A0EF2EC00F0080EA96EAA6ADBEC35
:1018300000F0366EDBEC00F0376E0A0EF2EC00F0D2
:101840000A0EA96EAA6ADBEC00F0226EDBEC00F057
:10185000236E0A0EF2EC00F00C0EA96EAA6ADBEC05
:1018600000F0346EDBEC00F0356E0A0EF2EC00F0A6
:101870008DEC1BF00268036825C005F024501AECBB
:1018800001F0D8A447EF0CF0780E246E256A0268A8
:10189000036841C005F040501AEC01F0D8A454EFA1
:1018A0000CF0780E406E416A026803686EC005F065
:1018B0006D511AEC01F0D8A461EF0CF0050E6D6FBC
:1018C0006E6B0268036827C005F026501AEC01F021
:1018D000D8A46EEF0CF0080E266E276A0268036823
:1018E00037C005F036501AEC01F0D8A47CEF0CF0AC
:1018F000E80E366E030E376E0268036823C005F0EB
:1019000022501AEC01F0D8A489EF0CF05C0E226E84
:10191000236A0268036835C005F034501AEC01F000
:10192000D8A496EF0CF05C0E346E356A12003FDFDF
:1019300080C087F023EC09F0050EFFEC00F025C015
:1019400087F023EC09F0050EFFEC00F024C087F0CF
:1019500023EC09F0050EFFEC00F041C087F023EC0A
:1019600009F0050EFFEC00F040C087F023EC09F011
:10197000050EFFEC00F06EC087F023EC09F0050EB9
:10198000FFEC00F06DC087F023EC09F0050EFFECD2
:1019900000F027C087F023EC09F0050EFFEC00F003
:1019A00026C087F023EC09F0050EFFEC00F037C0ED
:1019B00087F023EC09F0050EFFEC00F036C087F04D
:1019C00023EC09F0050EFFEC00F023C087F023ECB8
:1019D00009F0050EFFEC00F022C087F023EC09F0BF
:1019E000050EFFEC00F035C087F023EC09F0050E82
:1019F000FFEC00F034C087F023EC09F0050EFFEC9B
:101A000000F012008290010E386E396A38C002F080
:101A100039C003F0056A040E11EC01F0D8A422EFDE
:101A20000DF08082010E056E5E0EF3EC00F08092E8
:101A3000010E056E5E0EF3EC00F0382A000E39221E
:101A4000D8A0E4D780901200146A156A7A51880FE2
:101A5000E96E000EEA6AEA22EFCF14F0300E026E51
:101A6000036A15C005F014501AEC01F0D8A43CEF3D
:101A70000DF07B6B1BEF0EF0310E026E036A15C08A
:101A800005F014501AEC01F0D8A44BEF0DF0010E44
:101A90007B6F1BEF0EF0320E026E036A15C005F06D
:101AA00014501AEC01F0D8A45AEF0DF0020E7B6F1F
:101AB0001BEF0EF0330E026E036A15C005F01450D2
:101AC0001AEC01F0D8A469EF0DF0030E7B6F1BEF49
:101AD0000EF0340E026E036A15C005F014501AECB5
:101AE00001F0D8A478EF0DF0040E7B6F1BEF0EF021
:101AF000350E026E036A15C005F014501AEC01F0A1
:101B0000D8A487EF0DF0050E7B6F1BEF0EF0360E9D
:101B1000026E036A15C005F014501AEC01F0D8A447
:101B200096EF0DF0060E7B6F1BEF0EF0370E026E78
:101B3000036A15C005F014501AEC01F0D8A4A5EF03
:101B40000DF0070E7B6F1BEF0EF0380E026E036A6E
:101B500015C005F014501AEC01F0D8A4B4EF0DF044
:101B6000080E7B6F1BEF0EF0390E026E036A15C074
:101B700005F014501AEC01F0D8A4C3EF0DF0090ED3
:101B80007B6F1BEF0EF0410E026E036A15C005F06D
:101B900014501AEC01F0D8A4D2EF0DF00A0E7B6FAE
:101BA0001BEF0EF0420E026E036A15C005F01450D2
:101BB0001AEC01F0D8A4E1EF0DF00B0E7B6F1BEFD8
:101BC0000EF0430E026E036A15C005F014501AECB5
:101BD00001F0D8A4F0EF0DF00C0E7B6F1BEF0EF0B0
:101BE000440E026E036A15C005F014501AEC01F0A1
:101BF000D8A4FFEF0DF00D0E7B6F1BEF0EF0450E1E
:101C0000026E036A15C005F014501AEC01F0D8A456
:101C10000EEF0EF00E0E7B6F1BEF0EF0460E026EF7
:101C2000036A15C005F014501AEC01F0D8A41BEF9C
:101C30000EF00F0E7B6F1200AAEC12F0F40E426E43
:101C4000010E436E42C002F043C003F0056AF80E75
:101C50000DEC01F0D8A4ADEF0EF04250A40FE96EE8
:101C6000000E4320EA6EEFCF14F01450FF08D8A402
:101C7000E868FF0A146E4228166E000E4320176EA5
:101C80001650A40FE96E000E1720EA6EEFCF16F083
:101C90001650FF08D8A4E868FF0A166E14C002F0B8
:101CA00016502CEC01F0166E176E020E4224186EC0
:101CB000000E4320196E1850A40FE96E000E192073
:101CC000EA6EEFCF18F01850FF08D8A4E868FF0AB2
:101CD000186E16501710026E18502CEC01F0186E8A
:101CE000196E030E42241A6E000E43201B6E1A500A
:101CF000A40FE96E000E1B20EA6EEFCF1AF01A5007
:101D0000FF08D8A4E868FF0A1A6E18501910026E6E
:101D10001A502CEC01F01A6E1B6E04001A501B10A6
:101D2000D8B4A9EF0EF042C002F043C003F0056A38
:101D3000030E14EC01F0D8A4A4EF0EF0040E425EE2
:101D4000000E435AA6EF0EF03DEF0FF07BD7ABEF3E
:101D50000EF03DEF0FF03DEF0FF0FC0E425C146E05
:101D6000000E4358156E1450A00FE96E010E152099
:101D7000EA6EEFCF14F01450FF08D8A4E868FF0A09
:101D8000146E4228166E000E4320176EFC0E165E6F
:101D9000000E175A1650A00FE96E010E1720EA6EBA
:101DA000EFCF16F01650FF08D8A4E868FF0A166EA9
:101DB00014C002F016502CEC01F0166E176E020ED5
:101DC0004224186E000E4320196EFC0E185E000EA1
:101DD000195A1850A00FE96E010E1920EA6EEFCFC4
:101DE00018F01850FF08D8A4E868FF0A186E1650BB
:101DF0001710026E18502CEC01F0186E196E030EBD
:101E000042241A6E000E43201B6EFC0E1A5E000E5A
:101E10001B5A1A50A00FE96E010E1B20EA6EEFCF7D
:101E20001AF01A50FF08D8A4E868FF0A1A6E185072
:101E30001910026E1A502CEC01F01A6E1B6E040081
:101E40001A501B10D8B43BEF0FF042C002F043C051
:101E500003F0056A030E14EC01F0D8A436EF0FF07E
:101E6000040E425E000E435A38EF0FF03DEF0FF0C4
:101E7000E9D63DEF0FF03DEF0FF024C002F025C092
:101E800003F040C004F041C005F038EC01F006C09A
:101E900014F007C015F00A0E026E036A15C005F0B3
:101EA00014501AEC01F0D8A471EF0FF06DC008F0D7
:101EB0006EC009F024C004F025C005F050EC01F01C
:101EC000146E07C015F014C002F015C003F0280E00
:101ED000046E056A38EC01F0656F03C066F08FEFA1
:101EE0000FF06DC008F06EC009F024C004F025C0EA
:101EF00005F050EC01F0146E07C015F014C002F0AC
:101F000015C003F01C0E046E056A38EC01F0146E67
:101F100003C015F01428656F000E1520666F42C0CF
:101F200002F043C003F0056A000E0AEC01F0146EE3
:101F3000A451FF08D8A4E868FF0A166E14C002F086
:101F400016502CEC01F0166E176E04001650171088
:101F5000D8B4D1EF0FF0756B020E766F736B746BA4
:101F6000CFEF0FF0939E810E1E6E0F0E206E800E2F
:101F70001C6E060E016E100E3AEC00F0540E3AEC98
:101F800000F074C007F073511CEC00F02C0E3AEC1A
:101F900000F076C007F075511CEC00F0938E34EF22
:101FA00012F042C002F043C003F0056AFB0E0DECD4
:101FB00001F0D8A409EF11F04250A40FE96E000E11
:101FC0004320EA6EEFCF74F04228146E000E4320D7
:101FD000156E1450A40FE96E000E1520EA6EEFCFB7
:101FE00073F0020E4224146E000E4320156E14503E
:101FF000A40FE96E000E1520EA6EEFCF76F0030E07
:102000004224146E000E4320156E1450A40FE96E86
:10201000000E1520EA6EEFCF75F02CEF10F0939EB6
:10202000810E1E6E0F0E206E800E1C6E060E016E4F
:10203000100E3AEC00F0540E3AEC00F074C007F0C9
:1020400073511CEC00F02C0E3AEC00F076C007F057
:1020500075511CEC00F0938E040E4226000E4322B4
:102060007551FF08146EFF0E7655156E65C008F0A9
:1020700066C009F0046A020E056E50EC01F0166E9F
:1020800007C017F014C002F015C003F017C005F028
:10209000165014EC01F0D8A460EF10F065C008F001
:1020A00066C009F0046A020E056E50EC01F0146E71
:1020B00007C015F0145075271550762307EF11F05F
:1020C0007551FF08146EFF0E7655156E65C008F049
:1020D00066C009F0046A020E056E50EC01F0166E3F
:1020E00007C017F016C002F017C003F004680568B7
:1020F00038EC01F006C016F007C017F014C002F06B
:1021000015C003F017C005F0165014EC01F0D8A468
:10211000C3EF10F065C008F066C009F0046A020E53
:10212000056E50EC01F0146E07C015F014C002F0FB
:1021300015C003F00468056838EC01F0146E03C0A4
:1021400015F0145073271550742365C008F066C04D
:1021500009F0046A020E056E50EC01F0146E07C01F
:1021600015F014C002F015C003F00468056838ECDF
:1021700001F006C014F007C015F014507527155073
:10218000762307EF11F065C008F066C009F0046A15
:10219000020E056E50EC01F0146E07C015F014C06D
:1021A00002F015C003F00468056838EC01F0146E05
:1021B00003C015F073511426745115221428736F3F
:1021C000000E1520746F65C008F066C009F0046A3F
:1021D000020E056E50EC01F0146E07C015F014C02D
:1021E00002F015C003F00468056838EC01F006C081
:1021F00014F007C015F07551FF08166EFF0E7655E6
:10220000176E1650145C756F17501558766F34EFB3
:1022100012F04250A00FE96E010E4320EA6EEFCF9C
:1022200074F04228146E000E4320156E1450A00F57
:10223000E96E010E1520EA6EEFCF73F0020E422414
:10224000146E000E4320156E1450A00FE96E010E9F
:102250001520EA6EEFCF76F0030E4224146E000EC6
:102260004320156E1450A00FE96E010E1520EA6E82
:10227000EFCF75F059EF11F0939E810E1E6E0F0E89
:10228000206E800E1C6E060E016E100E3AEC00F0F1
:10229000540E3AEC00F074C007F073511CEC00F0DF
:1022A0002C0E3AEC00F076C007F075511CEC00F0F3
:1022B000938E040E4226000E43227551FF08146EC1
:1022C000FF0E7655156E65C008F066C009F0046A09
:1022D000020E056E50EC01F0166E07C017F014C028
:1022E00002F015C003F017C005F0165014EC01F011
:1022F000D8A48DEF11F065C008F066C009F0046A3B
:10230000020E056E50EC01F0146E07C015F014506B
:1023100075271550762334EF12F07551FF08146EAF
:10232000FF0E7655156E65C008F066C009F0046AA8
:10233000020E056E50EC01F0166E07C017F016C0C5
:1023400002F017C003F00468056838EC01F006C01D
:1023500016F007C017F014C002F015C003F017C044
:1023600005F0165014EC01F0D8A4F0EF11F065C0A0
:1023700008F066C009F0046A020E056E50EC01F028
:10238000146E07C015F014C002F015C003F0046805
:10239000056838EC01F0146E03C015F01450732773
:1023A0001550742365C008F066C009F0046A020E77
:1023B000056E50EC01F0146E07C015F014C002F069
:1023C00015C003F00468056838EC01F006C014F08D
:1023D00007C015F0145075271550762334EF12F00E
:1023E00065C008F066C009F0046A020E056E50EC84
:1023F00001F0146E07C015F014C002F015C003F010
:102400000468056838EC01F0146E03C015F07351D0
:102410001426745115221428736F000E1520746F42
:1024200065C008F066C009F0046A020E056E50EC43
:1024300001F0146E07C015F014C002F015C003F0CF
:102440000468056838EC01F006C014F007C015F008
:102450007551FF08166EFF0E7655176E1650145CF8
:10246000756F17501558766F66EF12F0939E810EB8
:102470001E6E0F0E206E800E1C6E060E016E100E6C
:102480003AEC00F0680E3AEC00F043C007F042501E
:102490001CEC00F0810E1E6E0F0E206E800E1C6E66
:1024A000060E016E100E3AEC00F07C0E3AEC00F0D5
:1024B00074C007F073511CEC00F02C0E3AEC00F0E5
:1024C00076C007F075511CEC00F0938E070E056E78
:1024D000D00EF3EC00F01200A5EC06F08292060E8E
:1024E000C96E010EFFEC00F08282010EFFEC00F0DD
:1024F0008292120EC96E010EFFEC00F0C96A010E45
:10250000FFEC00F0C96A010EFFEC00F043C0C9FF08
:10251000010EFFEC00F042C0C9FF010EFFEC00F01D
:1025200074C0C9FF010EFFEC00F073C0C9FF010EBB
:10253000FFEC00F076C0C9FF010EFFEC00F075C0A3
:10254000C9FF010EFFEC00F08282040E4226000E4D
:1025500043221200A5EC06F08292130EC96E010E02
:10256000FFEC00F0C96A010EFFEC00F0C96A010E31
:10257000FFEC00F0C96A010EFFEC00F0C96A010E21
:10258000FFEC00F0386A396A38C002F039C003F055
:10259000056AFB0E11EC01F0D8A4E0EF12F0C96A55
:1025A000010EFFEC00F03850A40FE96E000E392048
:1025B000EA6EC9CFEFFF382A000E3922D8A0E4D73F
:1025C000386A396A38C002F039C003F0056AFB0E78
:1025D00011EC01F0D8A4FEEF12F0C96A010EFFEC75
:1025E00000F03850A00FE96E010E3920EA6EC9CF15
:1025F000EFFF382A000E3922D8A0E4D782821200D9
:10260000A9DF386A396A38C002F039C003F0056AB8
:10261000FB0E11EC01F0D8A41DEF13F03850A40FFD
:10262000E96E000E3920EA6EEFCF86F05DEC08F01F
:10263000382A000E3922D8A0E6D7386A396A38C05D
:1026400002F039C003F0056AFB0E11EC01F0D8A4CA
:1026500039EF13F03850A00FE96E010E3920EA6E01
:10266000EFCF86F05DEC08F0382A000E3922D8A0B2
:10267000E6D751EC08F01200676B686B696B020ECD
:102680006A6F24C002F025C003F040C004F041C0CE
:1026900005F038EC01F0146E03C015F00A0E026E5E
:1026A000036A15C005F014501AEC01F0D8A480EFAD
:1026B00013F024C002F025C003F00A0E046E056A70
:1026C00038EC01F0146E03C015F06DC008F06EC058
:1026D00009F014C004F015C005F050EC01F0146EC0
:1026E00007C015F014C002F015C003F0040E046E0C
:1026F000056A38EC01F0656F03C066F0AAEF13F0CD
:1027000024C002F025C003F0040E046E056A38EC04
:1027100001F0146E03C015F06DC008F06EC009F032
:1027200014C004F015C005F050EC01F0146E07C0A1
:1027300015F014C002F015C003F0070E046E056A10
:1027400038EC01F0146E03C015F01428656F000E0C
:102750001520666F026A036A43C005F042501AEC06
:1027600001F0D8A420EF14F0FEEF13F08DEC1BF075
:10277000939E810E1E6E0F0E206E800E1C6E060E36
:10278000016E100E3AEC00F0540E3AEC00F04E0ED2
:102790003AEC00F04F0E3AEC00F0200E3AEC00F06C
:1027A000540E3AEC00F0450E3AEC00F0530E3AECC1
:1027B00000F0540E3AEC00F0200E3AEC00F0440E1B
:1027C0003AEC00F0410E3AEC00F0540E3AEC00F016
:1027D000410E3AEC00F0200E3AEC00F0460E3AECD6
:1027E00000F04F0E3AEC00F0550E3AEC00F04E0EB1
:1027F0003AEC00F0440E3AEC00F0938E010E3E6E7F
:102800003F6A3EC002F03FC003F0056A050E11ECBE
:1028100001F0D8A41DEF14F08082010E056EF40EB5
:10282000F3EC00F08092010E056EF40EF3EC00F074
:102830003E2A000E3F22D8A0E4D7809064EF15F026
:10284000010E386E396A38C002F039C003F0056AEB
:10285000320E11EC01F0D8A436EF14F0876B23ECA4
:1028600009F0382A000E3922D8A0EDD742C002F074
:1028700043C003F0040E046E056A38EC01F0806F6B
:1028800055EF14F0939E810E1E6E0F0E206E800E7B
:102890001C6E060E016E100E3AEC00F0680E3AEC5B
:1028A00000F080511BEC00F0938E97EC0CF0426A24
:1028B000436A50DE010E6F6F706B6FC002F070C024
:1028C00003F0805110EC01F0D8A464EF15F042C081
:1028D00002F043C003F0056AF80E11EC01F0D8A431
:1028E000A5EF14F04250A40FE96E000E4320EA6EEB
:1028F000EFCF68F04228146E000E4320156E14507E
:10290000A40FE96E000E1520EA6EEFCF67F0020EFD
:102910004224146E000E4320156E1450A40FE96E6D
:10292000000E1520EA6EEFCF6AF0030E4224146EFB
:10293000000E4320156E1450A40FE96E000E1520F2
:10294000EA6EEFCF69F0D6EF14F04250A00FE96EB7
:10295000010E4320EA6EEFCF68F04228146E000E9D
:102960004320156E1450A00FE96E010E1520EA6E7B
:10297000EFCF67F0020E4224146E000E4320156E56
:102980001450A00FE96E010E1520EA6EEFCF6AF029
:10299000030E4224146E000E4320156E1450A00F37
:1029A000E96E010E1520EA6EEFCF69F0F7EF14F033
:1029B0008DEC1BF0939E810E1E6E0F0E206E800E0E
:1029C0001C6E060E016E100E3AEC00F0680E3AEC2A
:1029D00000F068C007F067511CEC00F02C0E3AECD8
:1029E00000F06AC007F069511CEC00F0938E386A61
:1029F000396A38C002F039C003F0056A090E11ECDB
:102A000001F0D8A40DEF15F038C087F023EC09F0E1
:102A1000382A000E3922D8A0ECD7010E306E316A68
:102A200030C002F031C003F066C005F0655111EC12
:102A300001F0D8A45BEF15F0DBEC06F0386A396AD8
:102A400038C002F039C003F0056AFB0E11EC01F04A
:102A5000D8A43AEF15F038509C0FE96E020E3920D9
:102A6000EA6EEFCF87F023EC09F0382A000E392206
:102A7000D8A0E6D7386A396A38C002F039C003F006
:102A8000056AFB0E11EC01F0D8A456EF15F0385092
:102A9000980FE96E030E3920EA6EEFCF87F023EC32
:102AA00009F0382A000E3922D8A0E6D7302A000EC5
:102AB0003122D8A0B5D7040E4226000E43226F2B38
:102AC000000E7023D8A0F9D6809012008280020EEA
:102AD000056EEE0EF3EC00F08290FA0EF2EC00F0D0
:102AE0008082020E056EEE0EF3EC00F08092FA0E7C
:102AF000F2EC00F08080020E056EEE0EF3EC00F0BA
:102B00008090FA0EF2EC00F012003C0E026E036AA6
:102B100025C005F024501AEC01F0D8A498EF15F068
:102B2000810E846F9F0E716F810E726F14EF16F01D
:102B3000780E026E036A25C005F024501AEC01F0ED
:102B4000D8A4ABEF15F0800E846FFD0E716F800E70
:102B5000726F14EF16F0F00E026E036A25C005F0D6
:102B600024501AEC01F0D8A4BEEF15F0800E846F4B
:102B7000D90E716F3F0E726F14EF16F0E00E026EF9
:102B8000010E036E25C005F024501AEC01F0D8A404
:102B9000D2EF15F0800E846F540E716F1F0E726F9E
:102BA00014EF16F0F40E026E010E036E25C005F050
:102BB00024501AEC01F0D8A4E6EF15F0800E846FD3
:102BC000080E716F1E0E726F14EF16F0C00E026EBB
:102BD000030E036E25C005F024501AEC01F0D8A4B2
:102BE000FAEF15F0800E846F080E716F0F0E726F82
:102BF00014EF16F0E80E026E030E036E25C005F00A
:102C000024501AEC01F0D8A40EEF16F0800E846F59
:102C1000690E716F0E0E726F14EF16F0800E846FD6
:102C2000FD0E716F800E726F7151FF08146EFF0EF2
:102C30007255156E14C002F015C003F0046A010E3F
:102C4000056E38EC01F0D76E7151FF08146EFF0E5F
:102C50007255156E14C002F015C003F0046A010E1F
:102C6000056E38EC01F006C0D6FFF294120097EC26
:102C700004F06CEC12F00A0EF2EC00F046DF26DFF6
:102C80008082826BF28E04D0F2BE1200ADEF16F09D
:102C9000FBDFA00EF26EF8DF010E636F646BF4DFF2
:102CA000010E616F626BF0DF949EEEDF84C0D5FF92
:102CB000EBDF63C002F064C003F06EC005F06D513D
:102CC00011EC01F0D8A47EEF16F0DEDF61C002F057
:102CD00062C003F025C005F0245011EC01F0D8A427
:102CE00074EF16F0D1DFF2D7CFDF010E616F626BA8
:102CF000CBDF632B000E6423C7DFDBD7948ED56A4E
:102D000075C002F076C003F0046A020E056E38EC5E
:102D100001F006C014F007C015F01450FF08286E2B
:102D2000010E1554296E2850752729507623026804
:102D3000036876C005F075511AEC01F0D8A4A8EF2D
:102D400016F0756B766B732B000E7423ABEF16F0D9
:102D5000752B000E7623809212007151FF08146EBD
:102D6000FF0E7255156E14C002F015C003F0046A10
:102D7000010E056E38EC01F0D76E7151FF08146E2C
:102D8000FF0E7255156E14C002F015C003F0046AF0
:102D9000010E056E38EC01F006C0D6FFF294828E6B
:102DA00024C002F025C003F040C004F041C005F08B
:102DB00038EC01F0146E03C015F061C002F062C07F
:102DC00003F014C004F015C005F038EC01F006C0A3
:102DD00014F007C015F014C002F015C003F0056A26
:102DE000010E0AEC01F0146E24C002F025C003F0BD
:102DF00041C005F040500AEC01F0166E14C002F01C
:102E0000165033EC01F0166E176E040016501710B2
:102E1000D8B48EEF19F06B8004006BA011EF17F09F
:102E2000FBD7D00E6F6E04006DA018EF17F0FBD724
:102E3000020EFFEC00F03B0E6F6E04006DA022EF5F
:102E400017F0FBD7020EFFEC00F06B8004006BA0C4
:102E50002BEF17F0FBD7D10E6F6E04006DA032EF91
:102E600017F0FBD7020EFFEC00F06B8604006DB08C
:102E70003BEF17F0FBD76B886B9A6FCF45F0050ED1
:102E8000FFEC00F06B8604006DB048EF17F0FBD745
:102E90006B886B9A6FCF44F0050EFFEC00F06B86E9
:102EA00004006DB055EF17F0FBD76B886B9A6FCFAE
:102EB00047F0050EFFEC00F06B8604006DB062EF8A
:102EC00017F0FBD76B886B9A6FCF46F0050EFFECBF
:102ED00000F06B8604006DB06FEF17F0FBD76B88C6
:102EE0006B9A6FCF49F0050EFFEC00F06B86040083
:102EF0006DB07CEF17F0FBD76B886B8A6FCF48F013
:102F0000030EFFEC00F06B8404006BA489EF17F054
:102F1000FBD7030EFFEC00F06B8004006BA092EF78
:102F200017F0FBD7D00E6F6E04006DA099EF17F06D
:102F3000FBD7020EFFEC00F0430E6F6E04006DA095
:102F4000A3EF17F0FBD7020EFFEC00F06B8004003C
:102F50006BA0ACEF17F0FBD7D10E6F6E04006DA025
:102F6000B3EF17F0FBD7020EFFEC00F06B86040006
:102F70006DB0BCEF17F0FBD76B886B9A6FCF4BF03F
:102F8000050EFFEC00F06B8604006DB0C9EF17F082
:102F9000FBD76B886B9A6FCF4AF0050EFFEC00F001
:102FA0006B8604006DB0D6EF17F0FBD76B886B9A79
:102FB0006FCF4DF0050EFFEC00F06B8604006DB096
:102FC000E3EF17F0FBD76B886B9A6FCF4CF0050ED1
:102FD000FFEC00F06B8604006DB0F0EF17F0FBD74C
:102FE0006B886B9A6FCF4FF0050EFFEC00F06B868D
:102FF00004006DB0FDEF17F0FBD76B886B8A6FCFC5
:103000004EF0030EFFEC00F06B8404006BA40AEF9B
:1030100018F0FBD7030EFFEC00F06B8004006BA0F0
:1030200013EF18F0FBD7180E6F6E04006DA01AEFA7
:1030300018F0FBD7020EFFEC00F0030E6F6E0400D9
:103040006DA024EF18F0FBD7020EFFEC00F06B80B0
:1030500004006BA02DEF18F0FBD7190E6F6E040063
:103060006DA034EF18F0FBD7020EFFEC00F06B867A
:1030700004006DB03DEF18F0FBD76B886B9A6FCFF3
:1030800050F0050EFFEC00F06B8604006DB04AEFC7
:1030900018F0FBD76B886B9A6FCF51F0050EFFECE1
:1030A00000F06B8604006DB057EF18F0FBD76B880B
:1030B0006B9A6FCF52F0050EFFEC00F06B860400A8
:1030C0006DB064EF18F0FBD76B886B9A6FCF53F03D
:1030D000050EFFEC00F06B8604006DB071EF18F088
:1030E000FBD76B886B9A6FCF54F0050EFFEC00F0A6
:1030F0006B8604006DB07EEF18F0FBD76B886B8A8F
:103100006FCF55F0030EFFEC00F06B8404006BA44E
:103110008BEF18F0FBD7030EFFEC00F0180E7E6F5C
:103120000A0E7D6F110E7C6F6B8004006BA09AEF0E
:1031300018F0FBD77EC06FFF04006DA0A1EF18F060
:10314000FBD7020EFFEC00F07DC06FFF04006DA006
:10315000ABEF18F0FBD7020EFFEC00F07CC06FFF66
:10316000010EFFEC00F004006DA0B8EF18F0FBD7E3
:10317000020EFFEC00F06B8404006BA4C1EF18F0AA
:10318000FBD7030EFFEC00F08292060EC96E010E13
:10319000FFEC00F08282010EFFEC00F08292120E32
:1031A000C96E010EFFEC00F074C0C9FF010EFFEC08
:1031B00000F073C0C9FF010EFFEC00F076C0C9FF3C
:1031C000010EFFEC00F075C0C9FF010EFFEC00F02E
:1031D00045C0C9FF010EFFEC00F044C0C9FF010E5D
:1031E000FFEC00F047C0C9FF010EFFEC00F046C045
:1031F000C9FF010EFFEC00F049C0C9FF010EFFEC52
:1032000000F048C0C9FF010EFFEC00F04BC0C9FF41
:10321000010EFFEC00F04AC0C9FF010EFFEC00F008
:103220004DC0C9FF010EFFEC00F04CC0C9FF010EFC
:10323000FFEC00F04FC0C9FF010EFFEC00F04EC0E4
:10324000C9FF010EFFEC00F051C0C9FF010EFFECF9
:1032500000F050C0C9FF010EFFEC00F053C0C9FFE1
:10326000010EFFEC00F052C0C9FF010EFFEC00F0B0
:1032700055C0C9FF010EFFEC00F054C0C9FF010E9C
:10328000FFEC00F08282120E7525146E000E76217E
:10329000156EF80E026E036815C005F014501AEC96
:1032A00001F0D8A45BEF19F0732B000E7423756B3B
:1032B000766B8CEF19F0120E7525146E000E7621C8
:1032C000156E14C002F015C003F0046A020E056EFC
:1032D00038EC01F006C014F007C015F0F80E026ECD
:1032E000010E036E15C005F014501AEC01F0D8A4BD
:1032F00088EF19F0080E7525146E000E7621156EF4
:10330000120E1424756F000E1520766F8CEF19F0D5
:10331000120E7527000E762388EF1BF06B800400D9
:103320006BA094EF19F0FBD7D00E6F6E04006DA068
:103330009BEF19F0FBD7020EFFEC00F03B0E6F6E17
:1033400004006DA0A5EF19F0FBD7020EFFEC00F012
:103350006B8004006BA0AEEF19F0FBD7D10E6F6E3F
:1033600004006DA0B5EF19F0FBD7020EFFEC00F0E2
:103370006B8604006DB0BEEF19F0FBD76B886B9ABB
:103380006FCF45F0050EFFEC00F06B8604006DB0CA
:10339000CBEF19F0FBD76B886B9A6FCF44F0050E1B
:1033A000FFEC00F06B8604006DB0D8EF19F0FBD78E
:1033B0006B886B9A6FCF47F0050EFFEC00F06B86C1
:1033C00004006DB0E5EF19F0FBD76B886B9A6FCFF7
:1033D00046F0050EFFEC00F06B8604006DB0F2EFD6
:1033E00019F0FBD76B886B9A6FCF49F0050EFFEC95
:1033F00000F06B8604006DB0FFEF19F0FBD76B880F
:103400006B8A6FCF48F0030EFFEC00F06B84040072
:103410006BA40CEF1AF0FBD7030EFFEC00F06B80EF
:1034200004006BA015EF1AF0FBD7D00E6F6E0400EE
:103430006DA01CEF1AF0FBD7020EFFEC00F0430E5C
:103440006F6E04006DA026EF1AF0FBD7020EFFECA2
:1034500000F06B8004006BA02FEF1AF0FBD7D10EA9
:103460006F6E04006DA036EF1AF0FBD7020EFFEC72
:1034700000F06B8604006DB03FEF1AF0FBD76B884D
:103480006B9A6FCF4BF0050EFFEC00F06B860400DB
:103490006DB04CEF1AF0FBD76B886B9A6FCF4AF088
:1034A000050EFFEC00F06B8604006DB059EF1AF0CA
:1034B000FBD76B886B9A6FCF4DF0050EFFEC00F0D9
:1034C0006B8604006DB066EF1AF0FBD76B886B9AC1
:1034D0006FCF4CF0050EFFEC00F06B8604006DB072
:1034E00073EF1AF0FBD76B886B9A6FCF4FF0050E16
:1034F000FFEC00F06B8604006DB080EF1AF0FBD794
:103500006B886B8A6FCF4EF0030EFFEC00F06B847C
:1035100004006BA48DEF1AF0FBD7030EFFEC00F054
:103520008292060EC96E010EFFEC00F08282010E3F
:10353000FFEC00F08292120EC96E010EFFEC00F05B
:1035400074C0C9FF010EFFEC00F073C0C9FF010E8B
:10355000FFEC00F076C0C9FF010EFFEC00F075C073
:10356000C9FF010EFFEC00F045C0C9FF010EFFECE2
:1035700000F044C0C9FF010EFFEC00F047C0C9FFD6
:10358000010EFFEC00F046C0C9FF010EFFEC00F099
:1035900049C0C9FF010EFFEC00F048C0C9FF010E91
:1035A000FFEC00F04BC0C9FF010EFFEC00F04AC079
:1035B000C9FF010EFFEC00F04DC0C9FF010EFFEC8A
:1035C00000F04CC0C9FF010EFFEC00F04FC0C9FF76
:1035D000010EFFEC00F04EC0C9FF010EFFEC00F041
:1035E00082820C0E7525146E000E7621156EF80E73
:1035F000026E036815C005F014501AEC01F0D8A44F
:1036000009EF1BF0732B000E7423756B766B88EF3C
:103610001BF00C0E7525146E000E7621156E14C06D
:1036200002F015C003F0046A020E056E38EC01F0DA
:1036300006C014F007C015F0F80E026E010E036EFE
:1036400015C005F014501AEC01F0D8A436EF1BF0A9
:10365000080E7525146E000E7621156E0C0E1424BE
:10366000756F000E1520766F88EF1BF0120E752512
:10367000146E000E7621156E14C002F015C003F012
:10368000046A020E056E38EC01F006C014F007C0A3
:1036900015F014C002F015C003F0010E056EF80E0F
:1036A0000AEC01F0146E24C002F025C003F040C003
:1036B00004F041C005F038EC01F0166E03C017F0BD
:1036C00016C002F017C003F0056A0A0E0AEC01F0FA
:1036D000166E14C002F016502CEC01F0166E176E28
:1036E000040016501710D8B484EF1BF0080E75258F
:1036F000146E000E7621156E120E1424756F000ED6
:103700001520766F88EF1BF00C0E7527000E7623C0
:10371000829E612B000E6223100044EC16F0A9EF8C
:103720001BF044EC16F0939E44EC16F0810E1E6ED6
:103730000F0E206E800E1C6E060E016E0C0E3AEC03
:1037400000F044EC16F0938E44EC16F00A0EF2EC06
:1037500000F044EC16F0120044EC16F0939E44EC9A
:1037600016F0810E1E6E0F0E206E800E1C6E060E61
:10377000016E0E0E3AEC00F044EC16F0938E44EC21
:1037800016F0120044EC16F0939E44EC16F0810EF5
:103790001E6E0F0E206E800E1C6E060E016E0F0E3A
:1037A0003AEC00F044EC16F0938E44EC16F0120064
:1037B00044EC16F0939E44EC16F0810E1E6E0F0E34
:1037C000206E800E1C6E060E016E100E3AEC00F09C
:1037D000400E3AEC00F044EC16F0938E44EC16F0F8
:1037E000120044EC16F0939E44EC16F0810E1E6E0F
:1037F0000F0E206E800E1C6E060E016E100E3AEC3F
:1038000000F0540E3AEC00F044EC16F0938E44ECC9
:1038100016F0120044EC16F0939E44EC16F0810E64
:103820001E6E0F0E206E800E1C6E060E016E100EA8
:103830003AEC00F0680E3AEC00F044EC16F0938E8F
:1038400044EC16F0120044EC16F0939E44EC16F093
:10385000810E1E6E0F0E206E800E1C6E060E016E07
:10386000100E3AEC00F07C0E3AEC00F044EC16F04E
:08387000938E44EC16F01200E7
:020000040030CA
:03000100081F3F96
:02000500BD81BB
:060008000FC00FE00F40E5
:00000001FF
