:020000040000FA
:0400000077EF01F0A5
:020008001200E4
:0800180012000A6EF80BE8303B
:10002000E830E830E926D8B0EA2AD1EC00F00A6ED0
:10003000EF1474EF01F0076A066E018E270E056E4D
:10004000100E0CD8030E056EE80E08D8056A640E73
:1000500005D8056A0A0E02D806500BD0046E075068
:10006000036E0650026E38EC01F0E866019E01BE98
:100070001200300F086E20C0EAFF20C0E2FF1E50C1
:10008000E96E120FE16E090E096ED89007D808329A
:10009000092EFCD7D88002D874EF01F001A60BD04E
:1000A000EF501C1001A41C18EF6EE7501C10D8A0D4
:1000B0001C18E76E0AD0EF501C10D8A01C1801B411
:1000C0001C18EF6E1C1CE71600D00134060BEA0F5B
:1000D000F66EF76A000EF722F86A0900F550036E13
:1000E0000800F550000000EF01F0019D033D0064A1
:1000F0000D0120C0EAFF1EC0E9FF0E50026E0F5036
:10010000036E046A056A040020D80CE3E86A04065A
:10011000055AF9E20206035A17E3780E046E010E3F
:10012000056EF1D729D80A6A080E056E26D80DD8B3
:10013000D8B00A3E0432052EF9D70DAA0A6A0DBAC4
:10014000049E1BD8D88004501200120EE9261C50C1
:10015000EF121EC0E9FFEF140DBC1C18FF0F1200B8
:10016000D96E0B0603E2D88074EF01F06EEC01F05B
:10017000D8A01200DE6EF5D7018C0D501F0B000FBA
:10018000036E0C50100FD8B0032A01AC00EF01F041
:10019000019CD8900332E830D8900332E83000EF69
:1001A00001F0010E0AB0E8440AB2E8440AB2E84499
:1001B0000AB4E8381200A66AA680A850A94AAA2A5A
:1001C00074EF01F0E86AA86EA66AA684550EA76EC1
:1001D000AA0EA76EA682A6B2FED7A694A94AAA2AFC
:1001E00074EF01F0056A046EE86A0406055AD8A0A7
:1001F00074EF01F0030E036EE70E02D8F5D7036A21
:10020000FD0F026E01D00206040000D0E86A035A16
:10021000FAE21200046E020E0FD0046E030E0CD030
:10022000056A046E010E08D0046E060E05D0046E39
:10023000040E02D0046E050E0A6E0550035C02E146
:100240000450025C040ED8B0010ED8B4020E0A1499
:10025000D8A4FF0E74EF01F0E866FF0E0214D8A4D4
:10026000FF0E74EF01F00210D8A4FF0E74EF01F03E
:10027000076A066A100E086E033406360736045005
:10028000065E0550075A05E204500626055007226F
:10029000D89002360336082EEFD7025074EF01F0E3
:1002A00004500802F3CF06F0F4CF07F0055009021E
:1002B000F3CF02F0F4CF03F00802F3500726F45016
:1002C0000222E86A032204500902F3500726F45080
:1002D0000222E86A0322065074EF01F0E96EFB6A1D
:1002E0001350FA6E1250F96E000104001200E80E6D
:1002F000D36E800ED26E400E9B6EF26A616A0F0161
:10030000386B396B3A6B010E966E00019488938AB4
:100310009388938293849380938E948E938C938608
:1003200094909290929294929496949A92968290AB
:10033000809080928082030E056EE80E54DF8092DA
:10034000939E810E1E6E0F0E206E800E1C6E060E8A
:10035000016E0C0E8FDE0A0E45DF810E1E6E0F0E33
:10036000206E800E1C6E060E016E0E0E83DE100EC9
:1003700081DE400E7FDE440E7DDE650E7BDE760E76
:1003800079DE380E77DE200E75DE4D0E73DE500EF0
:1003900071DE550E6FDE2D0E6DDE330E6BDE410EFF
:1003A00069DE2D0E67DE330E65DE420E63DE2D0E36
:1003B00061DE330E5FDE430E5DDE2D0E5BDE330E3F
:1003C00059DE440E57DE810E1E6E0F0E206E800E1B
:1003D0001C6E060E016E100E4DDE540E4BDE320EFC
:1003E00049DE2F0E47DE310E45DE390E43DE2F0E7D
:1003F00041DE320E3FDE300E3DDE310E3BDE380E8A
:1004000039DE938E040081AA0AEF02F00300640E25
:10041000E9DEF8D7FA0EE6DE8280010E056E2C0EBC
:10042000E2DE82900A0EEBDE8080010E056E2C0E5D
:10043000DADE80900A0EE3DE8082010E056E2C0E5D
:10044000D2DE80920A0EDBDE82800A0ED8DE828245
:10045000010ED5DE8286010ED2DE829A010ECFDE3B
:100460008182010ECCDE8184010EC9DE8096F5EC1E
:1004700008F058EC04F0EFEC08F0C9EC10F064EC74
:100480000EF00A0EAFDE0FEC1DF082806DEF02F071
:10049000939E810E1E6E0F0E206E800E1C6E060E39
:1004A000016E100E3AEC00F0400E3AEC00F0530EE4
:1004B0003AEC00F0540E3AEC00F0410E3AEC00F049
:1004C0004E0E3AEC00F0440E3AEC00F0420E3AECDC
:1004D00000F0590E3AEC00F0938E040081BA56EF0A
:1004E00004F082909FEF02F0939E810E1E6E0F0E1D
:1004F000206E800E1C6E060E016E100E3AEC00F09F
:10050000400E3AEC00F0520E3AEC00F0550E3AEC88
:1005100000F04E0E3AEC00F0200E3AEC00F0540ED3
:100520003AEC00F0450E3AEC00F0530E3AEC00F0D5
:10053000540E3AEC00F03F0E3AEC00F0938E070EAA
:10054000056ED00E50DE040081BA00EF04F080800A
:10055000EAEF02F0939E810E1E6E0F0E206E800E4B
:100560001C6E060E016E100E3AEC00F0400E3AECD6
:1005700000F0530E3AEC00F0450E3AEC00F04E0E4F
:100580003AEC00F0440E3AEC00F0200E3AEC00F0A9
:10059000440E3AEC00F0410E3AEC00F0540E3AEC06
:1005A00000F0410E3AEC00F0200E3AEC00F0540E50
:1005B0003AEC00F04F0E3AEC00F0200E3AEC00F06E
:1005C000500E3AEC00F0430E3AEC00F03F0E3AECDD
:1005D00000F0938E070E056ED00E05DE040081BA82
:1005E000A6EF03F0010E0BDE8082010E08DE809084
:1005F0003AEF03F0939E810E1E6E0F0E206E800E5A
:100600001C6E060E016E100E3AEC00F0400E3AEC35
:1006100000F0420E3AEC00F0550E3AEC00F04C0EB1
:100620003AEC00F04B0E3AEC00F0200E3AEC00F001
:10063000450E3AEC00F0520E3AEC00F0410E3AEC66
:1006400000F0530E3AEC00F0450E3AEC00F03F0E8D
:100650003AEC00F0200E3AEC00F0200E3AEC00F0FC
:10066000200E3AEC00F0200E3AEC00F0200E3AECAE
:1006700000F0938E070E056ED00EF3EC00F0040030
:1006800081BA4BEF03F0809282808080E1EC0BF026
:100690003DD6A4EF03F08082828080909EEF03F02D
:1006A0000FEC1DF0939E810E1E6E0F0E206E800EBD
:1006B0001C6E060E016E100E3AEC00F0400E3AEC85
:1006C00000F0420E3AEC00F0550E3AEC00F04C0E01
:1006D0003AEC00F04B0E3AEC00F0200E3AEC00F051
:1006E000450E3AEC00F0520E3AEC00F0410E3AECB6
:1006F00000F0530E3AEC00F0490E3AEC00F04E0ECA
:100700003AEC00F0470E3AEC00F0200E3AEC00F024
:10071000200E3AEC00F0200E3AEC00F0200E3AECFD
:1007200000F0200E3AEC00F0200E3AEC00F0200E23
:100730003AEC00F0200E3AEC00F0938EC0EC0AF098
:100740000FEC1DF0809266D6FEEF03F08290808061
:10075000F8EF03F00FEC1DF0939E810E1E6E0F0E4E
:10076000206E800E1C6E060E016E100E3AEC00F02C
:10077000400E3AEC00F0530E3AEC00F0450E3AEC25
:1007800000F04E0E3AEC00F0440E3AEC00F0490E48
:100790003AEC00F04E0E3AEC00F0470E3AEC00F066
:1007A000200E3AEC00F0440E3AEC00F0410E3AEC28
:1007B00000F0540E3AEC00F0410E3AEC00F0200E3E
:1007C0003AEC00F0540E3AEC00F04F0E3AEC00F028
:1007D000200E3AEC00F0500E3AEC00F0430E3AECEA
:1007E00000F0200E3AEC00F0200E3AEC00F0938E70
:1007F000E3EC15F00FEC1DF080900CD656EF04F0F2
:1008000050EF04F00FEC1DF0939E810E1E6E0F0E44
:10081000206E800E1C6E060E016E100E3AEC00F07B
:10082000400E3AEC00F0520E3AEC00F0550E3AEC65
:1008300000F04E0E3AEC00F04E0E3AEC00F0490E8D
:100840003AEC00F04E0E3AEC00F0470E3AEC00F0B5
:10085000200E3AEC00F0540E3AEC00F0450E3AEC63
:1008600000F0530E3AEC00F0540E3AEC00F0200E7B
:100870003AEC00F0200E3AEC00F0200E3AEC00F0DA
:10088000200E3AEC00F0200E3AEC00F0200E3AEC8C
:1008900000F0200E3AEC00F0200E3AEC00F0938EBF
:1008A0002CEC18F00FEC1DF00FEC1DF045EF02F0F2
:1008B00093849382100E6D6E280E6C6E6B6A696A5B
:1008C000110E6E6E67EC04F06EEC04F012006B809B
:1008D00004006BA06DEF04F0FBD712006B840400E2
:1008E0006BA474EF04F0FBD71200F1DF7AC06FFF46
:1008F00004006DA07DEF04F0FBD7020EFFEC00F0CA
:1009000079C06FFF04006DA087EF04F0FBD7020EE3
:10091000FFEC00F078C06FFF010EFFEC00F0040068
:100920006DA094EF04F0FBD7020EFFEC00F0D6DFD1
:100930001200CDDFD00E6F6E04006DA0A1EF04F0A9
:10094000FBD7020EFFEC00F03B0E6F6E04006DA0B3
:10095000ABEF04F0FBD7020EFFEC00F0B8DFD10ED6
:100960006F6E04006DA0B6EF04F0FBD7020EFFEC33
:1009700000F06B8604006DB0BFEF04F0FBD76B880E
:100980006B9A6FCF43F0050EFFEC00F06B8604000E
:100990006DB0CCEF04F0FBD76B886B9A6FCF42F051
:1009A000050EFFEC00F06B8604006DB0D9EF04F08B
:1009B000FBD76B886B9A6FCF45F0050EFFEC00F00C
:1009C0006B8604006DB0E6EF04F0FBD76B886B9A82
:1009D0006FCF44F0050EFFEC00F06B8604006DB0A5
:1009E000F3EF04F0FBD76B886B9A6FCF47F0050EDF
:1009F000FFEC00F06B8604006DB000EF05F0FBD754
:100A00006B886B8A6FCF46F0030EFFEC00F066DF59
:100A1000E0EC0BF05CDFD00E6F6E04006DA012EF07
:100A200005F0FBD7020EFFEC00F0430E6F6E0400E2
:100A30006DA01CEF05F0FBD7020EFFEC00F047DFC6
:100A4000D10E6F6E04006DA027EF05F0FBD7020EEC
:100A5000FFEC00F06B8604006DB030EF05F0FBD7C3
:100A60006B886B9A6FCF49F0050EFFEC00F06B8638
:100A700004006DB03DEF05F0FBD76B886B9A6FCF2C
:100A800048F0050EFFEC00F06B8604006DB04AEFF5
:100A900005F0FBD76B886B9A6FCF4BF0050EFFEC20
:100AA00000F06B8604006DB057EF05F0FBD76B8844
:100AB0006B9A6FCF4AF0050EFFEC00F06B860400D6
:100AC0006DB064EF05F0FBD76B886B9A6FCF4DF07C
:100AD000050EFFEC00F06B8604006DB071EF05F0C1
:100AE000FBD76B886B8A6FCF4CF0030EFFEC00F0E6
:100AF000F5DEE0EC0BF0EBDE180E6F6E04006DA07F
:100B000083EF05F0FBD7020EFFEC00F0030E6F6ED3
:100B100004006DA08DEF05F0FBD7020EFFEC00F096
:100B2000D6DE190E6F6E04006DA098EF05F0FBD7AE
:100B3000020EFFEC00F06B8604006DB0A1EF05F033
:100B4000FBD76B886B9A6FCF4EF0050EFFEC00F071
:100B50006B8604006DB0AEEF05F0FBD76B886B9A27
:100B60006FCF4FF0050EFFEC00F06B8604006DB008
:100B7000BBEF05F0FBD76B886B9A6FCF50F0050E7B
:100B8000FFEC00F06B8604006DB0C8EF05F0FBD7FA
:100B90006B886B9A6FCF51F0050EFFEC00F06B86FF
:100BA00004006DB0D5EF05F0FBD76B886B9A6FCF63
:100BB00052F0050EFFEC00F06B8604006DB0E2EF22
:100BC00005F0FBD76B886B8A6FCF53F0030EFFECF9
:100BD00000F084DEE0EC0BF0180E7A6F0A0E796FED
:100BE000110E786F82DE120072DED00E6F6E04007E
:100BF0006DA0FCEF05F0FBD7020EFFEC00F03B0E02
:100C00006F6E04006DA006EF06F0FBD7020EFFEC3E
:100C100000F05DDED10E6F6E04006DA011EF06F0E6
:100C2000FBD7020EFFEC00F06B8604006DB01AEFEC
:100C300006F0FBD76B886B9A6FCF43F0050EFFEC85
:100C400000F06B8604006DB027EF06F0FBD76B88D1
:100C50006B9A6FCF42F0050EFFEC00F06B8604003C
:100C60006DB034EF06F0FBD76B886B9A6FCF45F011
:100C7000050EFFEC00F06B8604006DB041EF06F04E
:100C8000FBD76B886B9A6FCF44F0050EFFEC00F03A
:100C90006B8604006DB04EEF06F0FBD76B886B9A45
:100CA0006FCF47F0050EFFEC00F06B8604006DB0CF
:100CB0005BEF06F0FBD76B886B8A6FCF46F0030EB5
:100CC000FFEC00F00BDEE0EC0BF001DED00E6F6EFF
:100CD00004006DA06DEF06F0FBD7020EFFEC00F0F4
:100CE000430E6F6E04006DA077EF06F0FBD7020E87
:100CF000FFEC00F067EC04F0D10E6F6E04006DA005
:100D000083EF06F0FBD7020EFFEC00F06B860400C9
:100D10006DB08CEF06F0FBD76B886B9A6FCF49F004
:100D2000050EFFEC00F06B8604006DB099EF06F045
:100D3000FBD76B886B9A6FCF48F0050EFFEC00F085
:100D40006B8604006DB0A6EF06F0FBD76B886B9A3C
:100D50006FCF4BF0050EFFEC00F06B8604006DB01A
:100D6000B3EF06F0FBD76B886B9A6FCF4AF0050E96
:100D7000FFEC00F06B8604006DB0C0EF06F0FBD70F
:100D80006B886B9A6FCF4DF0050EFFEC00F06B8611
:100D900004006DB0CDEF06F0FBD76B886B8A6FCF88
:100DA0004CF0030EFFEC00F06EEC04F0120035EC9A
:100DB00007F074EC07F0B6EC07F045EC08F0D00E45
:100DC0007A6F6B0E796F800E786F75EC04F0640E9D
:100DD000F2EC00F0D00E7A6F6B0E796F010E786F27
:100DE00075EC04F0D00E7A6F6C0E796F786B75EC41
:100DF00004F0D00E7A6F1A0E796F73C078F075EC2C
:100E000004F0D00E7A6F1B0E796F74C078F075EC19
:100E100004F0D00E7A6F1C0E796F5DC078F075EC1F
:100E200004F0D00E7A6F1D0E796F5CC078F075EC0F
:100E300004F0D00E7A6F370E796F120E786F75EC62
:100E400004F0D00E7A6F380E796F010E786F75EC62
:100E500004F00A0EF2EC00F0D00E7A6F0A0E796FF1
:100E6000110E786F75EC04F01200020E026E036A28
:100E700027C005F026501AEC01F0D8A444EF07F083
:100E80005D985D9673EF07F0040E026E036A27C04B
:100E900005F026501AEC01F0D8A453EF07F05D9846
:100EA0005D8673EF07F0080E026E036A27C005F037
:100EB00026501AEC01F0D8A462EF07F05D885D9629
:100EC00073EF07F0100E026E036A27C005F026507C
:100ED0001AEC01F0D8A471EF07F05D885D8673EF1E
:100EE00007F05D885D961200FA0E026E036A35C047
:100EF00005F034501AEC01F0D8A483EF07F0749990
:100F00007497B5EF07F0F40E026E010E036E35C054
:100F100005F034501AEC01F0D8A493EF07F074995F
:100F20007487B5EF07F0E80E026E030E036E35C04E
:100F300005F034501AEC01F0D8A4A3EF07F074893F
:100F40007497B5EF07F0D00E026E070E036E35C032
:100F500005F034501AEC01F0D8A4B3EF07F074890F
:100F60007487B5EF07F0749974871200050E026E4E
:100F7000036A23C005F022501AEC01F0D8A4C7EF91
:100F800007F05C865C845C825C9044EF08F00A0E9B
:100F9000026E036A23C005F022501AEC01F0D8A4B7
:100FA000D8EF07F05C865C845C925C8044EF08F0CC
:100FB000140E026E036A23C005F022501AEC01F0F1
:100FC000D8A4E9EF07F05C865C845C925C9044EF07
:100FD00008F0290E026E036A23C005F022501AECB5
:100FE00001F0D8A4FAEF07F05C865C945C825C8028
:100FF00044EF08F05C0E026E036A23C005F0225035
:101000001AEC01F0D8A40BEF08F05C865C945C82CB
:101010005C9044EF08F0B80E026E036A23C005F03E
:1010200022501AEC01F0D8A41CEF08F05C865C9406
:101030005C925C8044EF08F0CC0E026E010E036EF1
:1010400023C005F022501AEC01F0D8A42EEF08F0CE
:101050005C865C945C925C9044EF08F06A0E026ED1
:10106000040E036E23C005F022501AEC01F0D8A440
:1010700040EF08F05C965C945C925C9044EF08F062
:101080005C865C945C825C901200050E026E036AC2
:1010900033C005F032501AEC01F0D8A457EF08F035
:1010A00074837481738573837391EEEF08F00A0E75
:1010B000026E036A33C005F032501AEC01F0D8A476
:1010C00069EF08F074837481738573937381EEEF15
:1010D00008F0140E026E036A33C005F032501AECA9
:1010E00001F0D8A47BEF08F0748374817385739347
:1010F0007391EEEF08F0290E026E036A33C005F01B
:1011000032501AEC01F0D8A48DEF08F0748374818A
:10111000739573837381EEEF08F05C0E026E036AC1
:1011200033C005F032501AEC01F0D8A49FEF08F05C
:1011300074837481739573837391EEEF08F0B80E26
:10114000026E036A33C005F032501AEC01F0D8A4E5
:10115000B1EF08F074837481739573937381EEEF2C
:1011600008F0FA0E026E036A33C005F032501AEC32
:1011700001F0D8A4C3EF08F074837481739573935E
:101180007391EEEF08F0100E026E0E0E036E33C078
:1011900005F032501AEC01F0D8A4D6EF08F07493A1
:1011A0007481739573937391EEEF08F0600E026E85
:1011B000220E036E33C005F032501AEC01F0D8A4B1
:1011C000E9EF08F074937491739573937391EEEF54
:1011D00008F0748374817395738373911200C76AE6
:1011E000300EC66E100ECB6E120055EC15F08292CA
:1011F000060EC96E010EFFEC00F08282010EFFECBC
:1012000000F08292010EC96E010EFFEC00F0C96A77
:10121000010EFFEC00F0C96A010EFFEC00F0C00EF9
:10122000C96E010EFFEC00F08282030E056EE80E1F
:10123000F3EC00F012008292060EC96E010EFFEC74
:1012400000F08282010EFFEC00F08292120EC96E55
:10125000010EFFEC00F070C0C9FF010EFFEC00F0C2
:101260006FC0C9FF010EFFEC00F072C0C9FF010E94
:10127000FFEC00F071C0C9FF010EFFEC00F043C0AD
:10128000C9FF010EFFEC00F042C0C9FF010EFFECE8
:1012900000F045C0C9FF010EFFEC00F044C0C9FFDB
:1012A000010EFFEC00F047C0C9FF010EFFEC00F09B
:1012B00046C0C9FF010EFFEC00F049C0C9FF010E96
:1012C000FFEC00F048C0C9FF010EFFEC00F04BC07E
:1012D000C9FF010EFFEC00F04AC0C9FF010EFFEC90
:1012E00000F04DC0C9FF010EFFEC00F04CC0C9FF7B
:1012F000010EFFEC00F082820C0E7127000E7223AB
:1013000012008292060EC96E010EFFEC00F082827E
:10131000010EFFEC00F08292120EC96E010EFFEC7E
:1013200000F070C0C9FF010EFFEC00F06FC0C9FFF4
:10133000010EFFEC00F072C0C9FF010EFFEC00F0DF
:1013400071C0C9FF010EFFEC00F043C0C9FF010EE0
:10135000FFEC00F042C0C9FF010EFFEC00F045C0F9
:10136000C9FF010EFFEC00F044C0C9FF010EFFEC05
:1013700000F047C0C9FF010EFFEC00F046C0C9FFF6
:10138000010EFFEC00F049C0C9FF010EFFEC00F0B8
:1013900048C0C9FF010EFFEC00F04BC0C9FF010EB1
:1013A000FFEC00F04AC0C9FF010EFFEC00F04DC099
:1013B000C9FF010EFFEC00F04CC0C9FF010EFFECAD
:1013C00000F04FC0C9FF010EFFEC00F04EC0C9FF96
:1013D000010EFFEC00F051C0C9FF010EFFEC00F060
:1013E00050C0C9FF010EFFEC00F053C0C9FF010E51
:1013F000FFEC00F052C0C9FF010EFFEC00F082824A
:10140000120E7127000E72231200E9DE366A376A67
:1014100036C002F037C003F0056AFB0E11EC01F094
:10142000D8A41FEF0AF03650970FE96E020E37204E
:10143000EA6EEF6A362A000E3722D8A0E9D7366A5C
:10144000376A36C002F037C003F0056AFB0E11ECB4
:1014500001F0D8A438EF0AF03650930FE96E030E6E
:101460003720EA6EEF6A362A000E3722D8A0E9D775
:101470008292010EFFEC00F0130EC96E010EFFEC1C
:1014800000F066C0C9FF010EFFEC00F065C0C9FFA7
:10149000010EFFEC00F068C0C9FF010EFFEC00F088
:1014A00067C0C9FF010EFFEC00F0366A376A36C02C
:1014B00002F037C003F0056AFB0E11EC01F0D8A46E
:1014C00076EF0AF0C96A010EFFEC00F03650970F74
:1014D000E96E020E3720EA6EC9CFEFFF010EFFEC76
:1014E00000F0362A000E3722D8A0E1D7366A376AD4
:1014F00036C002F037C003F0056AFB0E11EC01F0B4
:10150000D8A497EF0AF0C96A010EFFEC00F036503C
:10151000930FE96E030E3720EA6EC9CFEFFF010E7D
:10152000FFEC00F0362A000E3722D8A0E1D78282E5
:101530006751FF08146EFF0E6855156E14C002F057
:1015400015C003F0020E056E000E17EC01F0D8A4D2
:10155000B0EF0AF0000E6727020E6823BFEF0AF013
:10156000652B000E66236751FF08146EFF0E685549
:10157000156E1450FF08676F010E1554686F120046
:101580008292060EC96E010EFFEC00F082828292FA
:10159000600EC96E010EFFEC00F08282270E056E10
:1015A000100EF3EC00F0270E056E100EF3EC00F0B9
:1015B000270E056E100EF3EC00F0270E056E100ED0
:1015C000F3EC00F0270E056E100EF3EC00F0406A0D
:1015D000416A1200756B0400020E755DD8B0AFEF62
:1015E0000BF0040075510008D8A402EF0BF081C085
:1015F00002F0036A100E046E056A38EC01F0766F93
:101600000CEF0BF081C002F0036A100E046E056A45
:1016100038EC01F006C076F0040076510008D8A43A
:1016200016EF0BF0300E826FAAEF0BF0040076512C
:101630000108D8A420EF0BF0310E826FAAEF0BF057
:10164000040076510208D8A42AEF0BF0320E826F04
:10165000AAEF0BF0040076510308D8A434EF0BF086
:10166000330E826FAAEF0BF0040076510408D8A461
:101670003EEF0BF0340E826FAAEF0BF004007651B0
:101680000508D8A448EF0BF0350E826FAAEF0BF0D7
:10169000040076510608D8A452EF0BF0360E826F84
:1016A000AAEF0BF0040076510708D8A45CEF0BF00A
:1016B000370E826FAAEF0BF0040076510808D8A409
:1016C00066EF0BF0380E826FAAEF0BF00400765134
:1016D0000908D8A470EF0BF0390E826FAAEF0BF057
:1016E000040076510A08D8A47AEF0BF0410E826FFD
:1016F000AAEF0BF0040076510B08D8A484EF0BF08E
:10170000420E826FAAEF0BF0040076510C08D8A4A9
:101710008EEF0BF0430E826FAAEF0BF004007651B0
:101720000D08D8A498EF0BF0440E826FAAEF0BF0CF
:10173000040076510E08D8A4A2EF0BF0450E826F7C
:10174000AAEF0BF0040076510F08D8A4AAEF0BF013
:10175000460E826FB0EC0BF0752BD8A03CD7120070
:10176000949E829E020EFFEC00F0E0EC0BF0E0ECA9
:101770000BF05E6A0400080E5E5CD8B0D3EF0BF08D
:10178000820EE96EEA6A5E50000F0DEC00F0D8B4EC
:10179000829ED8A4828E020EFFEC00F0E0EC0BF0EB
:1017A0005E2AD8A0E7D7030EFFEC00F0828E020E6F
:1017B000FFEC00F0E0EC0BF0E0EC0BF0948E12008C
:1017C000120025EF0CF00FEC1DF0939E810E1E6EA3
:1017D0000F0E206E800E1C6E060E016E100E3AEC7F
:1017E00000F0400E3AEC00F0570E3AEC00F0410EDB
:1017F0003AEC00F0490E3AEC00F0540E3AEC00F0EE
:10180000490E3AEC00F04E0E3AEC00F0470E3AEC7E
:1018100000F0200E3AEC00F0460E3AEC00F04F0ECD
:101820003AEC00F0520E3AEC00F0200E3AEC00F0E8
:10183000440E3AEC00F0410E3AEC00F0540E3AEC53
:1018400000F0410E3AEC00F0938E810E1E6E0F0EEA
:10185000206E010E1C6E060E0C6E0D6A100E0E6EC2
:10186000270E0F6E79EC00F0D8A08FEF0FF05A081A
:10187000D8A4F8D71C0E0B6EF20E126E136ADA6A39
:10188000830EB0EC00F0D8A08FEF0FF0766BD1ECA8
:101890000FF077C008F0096A046A100E056E50EC6C
:1018A00001F0246E07C025F0010E766FD1EC0FF029
:1018B00077C008F0096A046A010E056E50EC01F069
:1018C000146E07C015F01450242615502522020E60
:1018D000766FD1EC0FF077C008F0096A100E046E35
:1018E000056A50EC01F0146E07C015F01450242660
:1018F00015502522030E766FD1EC0FF07751242678
:10190000E86A2522040E766FD1EC0FF077C008F05C
:10191000096A046A100E056E50EC01F03E6E07C0B5
:101920003FF0050E766FD1EC0FF077C008F0096A32
:10193000046A010E056E50EC01F0146E07C015F03C
:1019400014503E2615503F22060E766FD1EC0FF054
:1019500077C008F0096A100E046E056A50EC01F0B9
:10196000146E07C015F014503E2615503F22070E86
:10197000766FD1EC0FF077513E26E86A3F22080ED1
:10198000766FD1EC0FF077C008F0096A046A100E88
:10199000056E50EC01F06B6F07C06CF0090E766FAE
:1019A000D1EC0FF077C008F0096A046A010E056EE9
:1019B00050EC01F0146E07C015F014506B27155051
:1019C0006C230A0E766FD1EC0FF077C008F0096A2D
:1019D000100E046E056A50EC01F0146E07C015F08D
:1019E00014506B2715506C230B0E766FD1EC0FF053
:1019F00077516B27E86A6C230C0E766FD1EC0FF0F1
:101A000077C008F0096A046A100E056E50EC01F008
:101A1000266E07C027F00D0E766FD1EC0FF077C061
:101A200008F0096A046A010E056E50EC01F0146EAC
:101A300007C015F014502626155027220E0E766F7B
:101A4000D1EC0FF077C008F0096A100E046E056A39
:101A500050EC01F0146E07C015F0145026261550F6
:101A600027220F0E766FD1EC0FF077512626E86A09
:101A70002722100E766FD1EC0FF077C008F0096ABC
:101A8000046A100E056E50EC01F0346E07C035F09C
:101A9000110E766FD1EC0FF077C008F0096A046A76
:101AA000010E056E50EC01F0146E07C015F01450D5
:101AB000342615503522120E766FD1EC0FF077C018
:101AC00008F0096A100E046E056A50EC01F0146EFD
:101AD00007C015F01450342615503522130E766FBA
:101AE000D1EC0FF077513426E86A3522140E766F68
:101AF000D1EC0FF077C008F0096A046A100E056E89
:101B000050EC01F0226E07C023F0150E766FD1EC79
:101B10000FF077C008F0096A046A010E056E50ECF8
:101B200001F0146E07C015F0145022261550232220
:101B3000160E766FD1EC0FF077C008F0096A100E20
:101B4000046E056A50EC01F0146E07C015F01450D5
:101B5000222615502322170E766FD1EC0FF0775105
:101B60002226E86A2322180E766FD1EC0FF077C098
:101B700008F0096A046A100E056E50EC01F0326E2E
:101B800007C033F0190E766FD1EC0FF077C008F074
:101B9000096A046A010E056E50EC01F0146E07C06C
:101BA00015F014503226155033221A0E766FD1ECF0
:101BB0000FF077C008F0096A100E046E056A50EC49
:101BC00001F0146E07C015F0145032261550332260
:101BD0001B0E766FD1EC0FF077513226E86A332274
:101BE000A96AAA6A2450E3EC00F02550E3EC00F067
:101BF0000A0EF2EC00F0020EA96EAA6A3E50E3EC67
:101C000000F03F50E3EC00F00A0EF2EC00F0040E9E
:101C1000A96EAA6A6B51E3EC00F06C51E3EC00F0A2
:101C20000A0EF2EC00F0060EA96EAA6A2650E3EC4A
:101C300000F02750E3EC00F00A0EF2EC00F0080E82
:101C4000A96EAA6A3450E3EC00F03550E3EC00F0E2
:101C50000A0EF2EC00F00A0EA96EAA6A2250E3EC1A
:101C600000F02350E3EC00F00A0EF2EC00F00C0E52
:101C7000A96EAA6A3250E3EC00F03350E3EC00F0B6
:101C80000A0EF2EC00F0010E366E376A36C002F032
:101C900037C003F0056A040E11EC01F0D8A462EF1E
:101CA0000EF08280010E056E5E0EF3EC00F0829065
:101CB000010E056E5E0EF3EC00F0362A000E3722A0
:101CC000D8A0E4D780901200246A256A3E6A3F6A51
:101CD0006B6B6C6B266A276A346A356A226A236AE0
:101CE000326A336AA96AAA6ADBEC00F0246EDBEC84
:101CF00000F0256E0A0EF2EC00F0020EA96EAA6A40
:101D0000DBEC00F03E6EDBEC00F03F6E0A0EF2EC16
:101D100000F0040EA96EAA6ADBEC00F06B6FDBEC3E
:101D200000F06C6F0A0EF2EC00F0060EA96EAA6AC3
:101D3000DBEC00F0266EDBEC00F0276E0A0EF2EC16
:101D400000F0080EA96EAA6ADBEC00F0346EDBEC42
:101D500000F0356E0A0EF2EC00F00A0EA96EAA6AC7
:101D6000DBEC00F0226EDBEC00F0236E0A0EF2ECEE
:101D700000F00C0EA96EAA6ADBEC00F0326EDBEC10
:101D800000F0336E0A0EF2EC00F00FEC1DF002686A
:101D9000036825C005F024501AEC01F0D8A4D4EF54
:101DA0000EF0780E246E256A026803683FC005F0C5
:101DB0003E501AEC01F0D8A4E1EF0EF0780E3E6E22
:101DC0003F6A026803686CC005F06B511AEC01F0C1
:101DD000D8A4EEEF0EF0050E6B6F6C6B0268036813
:101DE00027C005F026501AEC01F0D8A4FBEF0EF046
:101DF000080E266E276A0268036835C005F0345065
:101E00001AEC01F0D8A409EF0FF0E80E346E030EBF
:101E1000356E0268036823C005F022501AEC01F009
:101E2000D8A416EF0FF05C0E226E236A02680368D6
:101E300033C005F032501AEC01F0D8A423EF0FF0B4
:101E40005C0E326E336A12003FDF7CC082F0B0EC71
:101E50000BF0050EFFEC00F025C082F0B0EC0BF0AB
:101E6000050EFFEC00F024C082F0B0EC0BF0050E84
:101E7000FFEC00F03FC082F0B0EC0BF0050EFFEC81
:101E800000F03EC082F0B0EC0BF0050EFFEC00F06D
:101E90006CC082F0B0EC0BF0050EFFEC00F06BC0F4
:101EA00082F0B0EC0BF0050EFFEC00F027C082F0E2
:101EB000B0EC0BF0050EFFEC00F026C082F0B0ECA9
:101EC0000BF0050EFFEC00F035C082F0B0EC0BF02B
:101ED000050EFFEC00F034C082F0B0EC0BF0050E04
:101EE000FFEC00F023C082F0B0EC0BF0050EFFEC2D
:101EF00000F022C082F0B0EC0BF0050EFFEC00F019
:101F000033C082F0B0EC0BF0050EFFEC00F032C0F5
:101F100082F0B0EC0BF0050EFFEC00F012008290A6
:101F2000010E366E376A36C002F037C003F0056A1C
:101F3000040E11EC01F0D8A4AFEF0FF08082010E77
:101F4000056E5E0EF3EC00F08092010E056E5E0EE3
:101F5000F3EC00F0362A000E3722D8A0E4D78290A6
:101F6000010E366E376A36C002F037C003F0056ADC
:101F7000040E11EC01F0D8A4CFEF0FF08082010E17
:101F8000056E5E0EF3EC00F08092010E056E5E0EA3
:101F9000F3EC00F0362A000E3722D8A0E4D7809068
:101FA0001200146A156A7651830FE96E000EEA6A10
:101FB000EA22EFCF14F0300E026E036A15C005F06E
:101FC00014501AEC01F0D8A4E9EF0FF0776BC8EFCA
:101FD00010F0310E026E036A15C005F014501AECB1
:101FE00001F0D8A4F8EF0FF0010E776FC8EF10F0F2
:101FF000320E026E036A15C005F014501AEC01F09F
:10200000D8A407EF10F0020E776FC8EF10F0330E70
:10201000026E036A15C005F014501AEC01F0D8A442
:1020200016EF10F0030E776FC8EF10F0340E026E4B
:10203000036A15C005F014501AEC01F0D8A425EF7E
:1020400010F0040E776FC8EF10F0350E026E036AC1
:1020500015C005F014501AEC01F0D8A434EF10F0BC
:10206000050E776FC8EF10F0360E026E036A15C0CA
:1020700005F014501AEC01F0D8A443EF10F0060E4E
:10208000776FC8EF10F0370E026E036A15C005F0C7
:1020900014501AEC01F0D8A452EF10F0070E776F2D
:1020A000C8EF10F0380E026E036A15C005F0145028
:1020B0001AEC01F0D8A461EF10F0080E776FC8EFAA
:1020C00010F0390E026E036A15C005F014501AECB8
:1020D00001F0D8A470EF10F0090E776FC8EF10F080
:1020E000410E026E036A15C005F014501AEC01F09F
:1020F000D8A47FEF10F00A0E776FC8EF10F0420EF1
:10210000026E036A15C005F014501AEC01F0D8A451
:102110008EEF10F00B0E776FC8EF10F0430E026ECB
:10212000036A15C005F014501AEC01F0D8A49DEF15
:1021300010F00C0E776FC8EF10F0440E026E036AB9
:1021400015C005F014501AEC01F0D8A4ACEF10F053
:102150000D0E776FC8EF10F0450E026E036A15C0C2
:1021600005F014501AEC01F0D8A4BBEF10F00E0EDD
:10217000776FC8EF10F0460E026E036A15C005F0C7
:1021800014501AEC01F0D8A4C8EF10F00F0E776FBE
:10219000120055EC15F0F40E406E010E416E40C079
:1021A00002F041C003F0056AF80E0DEC01F0D8A46E
:1021B0005AEF11F040509F0FE96E000E4120EA6E79
:1021C000EFCF14F01450FF08D8A4E868FF0A146E8B
:1021D0004028166E000E4120176E16509F0FE96EB4
:1021E000000E1720EA6EEFCF16F01650FF08D8A4A5
:1021F000E868FF0A166E14C002F016502CEC01F0CD
:10220000166E176E020E4024186E000E4120196ED5
:1022100018509F0FE96E000E1920EA6EEFCF18F0EC
:102220001850FF08D8A4E868FF0A186E1650171057
:10223000026E18502CEC01F0186E196E030E40243B
:102240001A6E000E41201B6E1A509F0FE96E000E91
:102250001B20EA6EEFCF1AF01A50FF08D8A4E868E6
:10226000FF0A1A6E18501910026E1A502CEC01F069
:102270001A6E1B6E04001A501B10D8B456EF11F0E2
:1022800040C002F041C003F0056A030E14EC01F0F7
:10229000D8A451EF11F0040E405E000E415A53EFE6
:1022A00011F0EAEF11F07BD758EF11F0EAEF11F0DF
:1022B000EAEF11F0FC0E405C146E000E4158156EF2
:1022C00014509B0FE96E010E1520EA6EEFCF14F04B
:1022D0001450FF08D8A4E868FF0A146E4028166E50
:1022E000000E4120176EFC0E165E000E175A165097
:1022F0009B0FE96E010E1720EA6EEFCF16F0165015
:10230000FF08D8A4E868FF0A166E14C002F0165041
:102310002CEC01F0166E176E020E4024186E000EA3
:102320004120196EFC0E185E000E195A18509B0FB2
:10233000E96E010E1920EA6EEFCF18F01850FF0871
:10234000D8A4E868FF0A186E16501710026E1850CD
:102350002CEC01F0186E196E030E40241A6E000E5C
:1023600041201B6EFC0E1A5E000E1B5A1A509B0F6A
:10237000E96E010E1B20EA6EEFCF1AF01A50FF082B
:10238000D8A4E868FF0A1A6E18501910026E1A5085
:102390002CEC01F01A6E1B6E04001A501B10D8B4FE
:1023A000E8EF11F040C002F041C003F0056A030EEF
:1023B00014EC01F0D8A4E3EF11F0040E405E000E1F
:1023C000415AE5EF11F0EAEF11F0E9D6EAEF11F02A
:1023D000EAEF11F024C002F025C003F03EC004F083
:1023E0003FC005F038EC01F006C014F007C015F04E
:1023F0000A0E026E036A15C005F014501AEC01F0C3
:10240000D8A41EEF12F06BC008F06CC009F024C015
:1024100004F025C005F050EC01F0146E07C015F073
:1024200014C002F015C003F0280E046E056A38ECE3
:1024300001F0636F03C064F03CEF12F06BC008F072
:102440006CC009F024C004F025C005F050EC01F088
:10245000146E07C015F014C002F015C003F01C0E76
:10246000046E056A38EC01F0146E03C015F01428F0
:10247000636F000E1520646F40C002F041C003F08E
:10248000056A000E0AEC01F0146E9F51FF08D8A4F3
:10249000E868FF0A166E14C002F016502CEC01F02A
:1024A000166E176E040016501710D8B47EEF12F097
:1024B000716B020E726F6F6B706B7CEF12F0939EFC
:1024C000810E1E6E0F0E206E800E1C6E060E016EAB
:1024D000100E3AEC00F0540E3AEC00F070C007F029
:1024E0006F511CEC00F02C0E3AEC00F072C007F0BB
:1024F00071511CEC00F0938EE1EF14F040C002F03B
:1025000041C003F0056AFB0E0DEC01F0D8A4B6EF54
:1025100013F040509F0FE96E000E4120EA6EEFCF9E
:1025200070F04028146E000E4120156E14509F0F5D
:10253000E96E000E1520EA6EEFCF6FF0020E402418
:10254000146E000E4120156E14509F0FE96E000EA0
:102550001520EA6EEFCF72F0030E4024146E000EC9
:102560004120156E14509F0FE96E000E1520EA6E83
:10257000EFCF71F0D9EF12F0939E810E1E6E0F0E09
:10258000206E800E1C6E060E016E100E3AEC00F0EE
:10259000540E3AEC00F070C007F06F511CEC00F0E4
:1025A0002C0E3AEC00F072C007F071511CEC00F0F8
:1025B000938E040E4026000E41227151FF08146EC6
:1025C000FF0E7255156E63C008F064C009F0046A0E
:1025D000020E056E50EC01F0166E07C017F014C025
:1025E00002F015C003F017C005F0165014EC01F00E
:1025F000D8A40DEF13F063C008F064C009F0046ABA
:10260000020E056E50EC01F0146E07C015F0145068
:10261000712715507223B4EF13F07151FF08146E37
:10262000FF0E7255156E63C008F064C009F0046AAD
:10263000020E056E50EC01F0166E07C017F016C0C2
:1026400002F017C003F00468056838EC01F006C01A
:1026500016F007C017F014C002F015C003F017C041
:1026600005F0165014EC01F0D8A470EF13F063C01D
:1026700008F064C009F0046A020E056E50EC01F027
:10268000146E07C015F014C002F015C003F0046802
:10269000056838EC01F0146E03C015F014506F2774
:1026A0001550702363C008F064C009F0046A020E7C
:1026B000056E50EC01F0146E07C015F014C002F066
:1026C00015C003F00468056838EC01F006C014F08A
:1026D00007C015F01450712715507223B4EF13F092
:1026E00063C008F064C009F0046A020E056E50EC85
:1026F00001F0146E07C015F014C002F015C003F00D
:102700000468056838EC01F0146E03C015F06F51D1
:1027100014267051152214286F6F000E1520706F4B
:1027200063C008F064C009F0046A020E056E50EC44
:1027300001F0146E07C015F014C002F015C003F0CC
:102740000468056838EC01F006C014F007C015F005
:102750007151FF08166EFF0E7255176E1650145CFD
:10276000716F17501558726FE1EF14F040509B0FC6
:10277000E96E010E4120EA6EEFCF70F04028146E32
:10278000000E4120156E14509B0FE96E010E1520AE
:10279000EA6EEFCF6FF0020E4024146E000E41205F
:1027A000156E14509B0FE96E010E1520EA6EEFCFE7
:1027B00072F0030E4024146E000E4120156E14506A
:1027C0009B0FE96E010E1520EA6EEFCF71F006EF58
:1027D00014F0939E810E1E6E0F0E206E800E1C6EE6
:1027E000060E016E100E3AEC00F0540E3AEC00F0BA
:1027F00070C007F06F511CEC00F02C0E3AEC00F0AA
:1028000072C007F071511CEC00F0938E040E40264C
:10281000000E41227151FF08146EFF0E7255156EA5
:1028200063C008F064C009F0046A020E056E50EC43
:1028300001F0166E07C017F014C002F015C003F0C7
:1028400017C005F0165014EC01F0D8A43AEF14F0BC
:1028500063C008F064C009F0046A020E056E50EC13
:1028600001F0146E07C015F0145071271550722333
:10287000E1EF14F07151FF08146EFF0E7255156EE2
:1028800063C008F064C009F0046A020E056E50ECE3
:1028900001F0166E07C017F016C002F017C003F063
:1028A0000468056838EC01F006C016F007C017F0A0
:1028B00014C002F015C003F017C005F0165014EC58
:1028C00001F0D8A49DEF14F063C008F064C009F0D3
:1028D000046A020E056E50EC01F0146E07C015F08C
:1028E00014C002F015C003F00468056838EC01F06C
:1028F000146E03C015F014506F271550702363C079
:1029000008F064C009F0046A020E056E50EC01F094
:10291000146E07C015F014C002F015C003F004686F
:10292000056838EC01F006C014F007C015F014502B
:10293000712715507223E1EF14F063C008F064C0F2
:1029400009F0046A020E056E50EC01F0146E07C027
:1029500015F014C002F015C003F00468056838ECE7
:1029600001F0146E03C015F06F511426705115223A
:1029700014286F6F000E1520706F63C008F064C0DC
:1029800009F0046A020E056E50EC01F0146E07C0E7
:1029900015F014C002F015C003F00468056838ECA7
:1029A00001F006C014F007C015F07151FF08166E53
:1029B000FF0E7255176E1650145C716F1750155834
:1029C000726F13EF15F0939E810E1E6E0F0E206E28
:1029D000800E1C6E060E016E100E3AEC00F0680EB2
:1029E0003AEC00F041C007F040501CEC00F0810EC2
:1029F0001E6E0F0E206E800E1C6E060E016E100EE7
:102A00003AEC00F07C0E3AEC00F070C007F06F5129
:102A10001CEC00F02C0E3AEC00F072C007F0715183
:102A20001CEC00F0938E070E056ED00EF3EC00F058
:102A300012008292060EC96E010EFFEC00F0828237
:102A4000010EFFEC00F08292120EC96E010EFFEC37
:102A500000F0C96A010EFFEC00F0C96A010EFFEC3C
:102A600000F041C0C9FF010EFFEC00F040C0C9FFFB
:102A7000010EFFEC00F070C0C9FF010EFFEC00F08A
:102A80006FC0C9FF010EFFEC00F072C0C9FF010E5C
:102A9000FFEC00F071C0C9FF010EFFEC00F0828274
:102AA000040E4026000E412212008292130EC96EBF
:102AB000010EFFEC00F0C96A010EFFEC00F0C96ADC
:102AC000010EFFEC00F0C96A010EFFEC00F0C96ACC
:102AD000010EFFEC00F0366A376A36C002F037C0EC
:102AE00003F0056AFB0E11EC01F0D8A489EF15F094
:102AF000C96A010EFFEC00F036509F0FE96E000E20
:102B00003720EA6EC9CFEFFF362A000E3722D8A051
:102B1000E4D7366A376A36C002F037C003F0056A78
:102B2000FB0E11EC01F0D8A4A7EF15F0C96A010E55
:102B3000FFEC00F036509B0FE96E010E3720EA6E75
:102B4000C9CFEFFF362A000E3722D8A0E4D7828201
:102B50001200ABDF366A376A36C002F037C003F0C6
:102B6000056AFB0E11EC01F0D8A4C6EF15F0365043
:102B70009F0FE96E000E3720EA6EEFCF81F0EAEC8E
:102B80000AF0362A000E3722D8A0E6D7366A376A0E
:102B900036C002F037C003F0056AFB0E11EC01F0FD
:102BA000D8A4E2EF15F036509B0FE96E010E3720E6
:102BB000EA6EEFCF81F0EAEC0AF0362A000E3722F7
:102BC000D8A0E6D71200656B666B676B020E686F64
:102BD00024C002F025C003F03EC004F03FC005F061
:102BE00038EC01F0146E03C015F00A0E026E036A91
:102BF00015C005F014501AEC01F0D8A427EF16F018
:102C000024C002F025C003F00A0E046E056A38ECF9
:102C100001F0146E03C015F06BC008F06CC009F031
:102C200014C004F015C005F050EC01F0146E07C09C
:102C300015F014C002F015C003F0040E046E056A0E
:102C400038EC01F0636F03C064F051EF16F024C05C
:102C500002F025C003F0040E046E056A38EC01F0A2
:102C6000146E03C015F06BC008F06CC009F014C0FE
:102C700004F015C005F050EC01F0146E07C015F01B
:102C800014C002F015C003F0070E046E056A38EC9C
:102C900001F0146E03C015F01428636F000E1520A8
:102CA000646F026A036A41C005F040501AEC01F0FB
:102CB000D8A4C7EF16F0A5EF16F00FEC1DF0939E09
:102CC000810E1E6E0F0E206E800E1C6E060E016EA3
:102CD000100E3AEC00F0540E3AEC00F04E0E3AECC6
:102CE00000F04F0E3AEC00F0200E3AEC00F0540EDB
:102CF0003AEC00F0450E3AEC00F0530E3AEC00F0DE
:102D0000540E3AEC00F0200E3AEC00F0440E3AEC8F
:102D100000F0410E3AEC00F0540E3AEC00F0410E97
:102D20003AEC00F0200E3AEC00F0460E3AEC00F0DF
:102D30004F0E3AEC00F0550E3AEC00F04E0E3AEC25
:102D400000F0440E3AEC00F0938E010E3C6E3D6AAA
:102D50003CC002F03DC003F0056A050E11EC01F025
:102D6000D8A4C4EF16F08082010E056EF40EF3ECC9
:102D700000F08092010E056EF40EF3EC00F03C2A98
:102D8000000E3D22D8A0E4D780900BEF18F0010E82
:102D9000366E376A36C002F037C003F0056A320E6D
:102DA00011EC01F0D8A4DDEF16F0826BB0EC0BF063
:102DB000362A000E3722D8A0EDD740C002F041C01D
:102DC00003F0040E046E056A38EC01F07C6FFCEF32
:102DD00016F0939E810E1E6E0F0E206E800E1C6EDE
:102DE000060E016E100E3AEC00F0680E3AEC00F0A0
:102DF0007C511BEC00F0938E24EC0FF0406A416A8A
:102E000054DE010E6D6F6E6B6DC002F06EC003F08C
:102E10007C5110EC01F0D8A40BEF18F040C002F088
:102E200041C003F0056AF80E11EC01F0D8A44CEF94
:102E300017F040509F0FE96E000E4120EA6EEFCF71
:102E400066F04028146E000E4120156E14509F0F3E
:102E5000E96E000E1520EA6EEFCF65F0020E4024F9
:102E6000146E000E4120156E14509F0FE96E000E77
:102E70001520EA6EEFCF68F0030E4024146E000EAA
:102E80004120156E14509F0FE96E000E1520EA6E5A
:102E9000EFCF67F07DEF17F040509B0FE96E010E0A
:102EA0004120EA6EEFCF66F04028146E000E4120FC
:102EB000156E14509B0FE96E010E1520EA6EEFCFD0
:102EC00065F0020E4024146E000E4120156E145061
:102ED0009B0FE96E010E1520EA6EEFCF68F0030E2E
:102EE0004024146E000E4120156E14509B0FE96EA5
:102EF000010E1520EA6EEFCF67F09EEF17F00FEC92
:102F00001DF0939E810E1E6E0F0E206E800E1C6EA5
:102F1000060E016E100E3AEC00F0680E3AEC00F06E
:102F200066C007F065511CEC00F02C0E3AEC00F086
:102F300068C007F067511CEC00F0938E366A376A60
:102F400036C002F037C003F0056A090E11EC01F03B
:102F5000D8A4B4EF17F036C082F0B0EC0BF0362AEC
:102F6000000E3722D8A0ECD7010E2E6E2F6A2EC08D
:102F700002F02FC003F064C005F0635111EC01F0C2
:102F8000D8A402EF18F005EC0AF0366A376A36C0AA
:102F900002F037C003F0056AFB0E11EC01F0D8A473
:102FA000E1EF17F03650970FE96E020E3720EA6E08
:102FB000EFCF82F0B0EC0BF0362A000E3722D8A00B
:102FC000E6D7366A376A36C002F037C003F0056AC2
:102FD000FB0E11EC01F0D8A4FDEF17F03650930F63
:102FE000E96E030E3720EA6EEFCF82F0B0EC0BF003
:102FF000362A000E3722D8A0E6D72E2A000E2F221E
:10300000D8A0B5D7040E4026000E41226D2B000E2D
:103010006E23D8A0F9D6809012008280020E056E31
:10302000EE0EF3EC00F08290FA0EF2EC00F08082EB
:10303000020E056EEE0EF3EC00F08092FA0EF2EC4A
:1030400000F08080020E056EEE0EF3EC00F0809032
:10305000FA0EF2EC00F01200D7EC06F019EC15F0C5
:103060000A0EF2EC00F0D9DF80827E6BF28E04D083
:10307000F2BE1200A1EF18F0FBDFA00EF26EF8DF37
:10308000010E616F626BF4DF010E5A6E5B6AF0DF56
:10309000949EEEDF800ED56EEBDF61C002F062C061
:1030A00003F06CC005F06B5111EC01F0D8A472EF85
:1030B00018F0DEDF5AC002F05BC003F025C005F057
:1030C000245011EC01F0D8A468EF18F0D1DFF2D74A
:1030D000CFDF010E5A6E5B6ACBDF612B000E6223DD
:1030E000C7DFDBD7948ED56A71C002F072C003F0DF
:1030F000046A020E056E38EC01F006C014F007C039
:1031000015F01450FF08286E010E1554296E285032
:103110007127295072230268036872C005F071514B
:103120001AEC01F0D8A49CEF18F0716B726B6F2B46
:10313000000E70239FEF18F0712B000E7223809207
:1031400012007D0ED76EDF0ED66EF294828E829EB6
:1031500024C002F025C003F03EC004F03FC005F0DB
:1031600038EC01F0146E03C015F05AC002F05BC0D9
:1031700003F014C004F015C005F038EC01F006C0EF
:1031800014F007C015F014C002F015C003F0056A72
:10319000010E0AEC01F0146E24C002F025C003F009
:1031A0003FC005F03E500AEC01F0166E14C002F06C
:1031B000165033EC01F0166E176E040016501710FF
:1031C000D8B421EF1BF06B8004006BA0E9EF18F07E
:1031D000FBD7D00E6F6E04006DA0F0EF18F0FBD798
:1031E000020EFFEC00F03B0E6F6E04006DA0FAEFD4
:1031F00018F0FBD7020EFFEC00F06B8004006BA010
:1032000003EF19F0FBD7D10E6F6E04006DA00AEF2B
:1032100019F0FBD7020EFFEC00F06B8604006DB0D6
:1032200013EF19F0FBD76B886B9A6FCF43F0050E45
:10323000FFEC00F06B8604006DB020EF19F0FBD7B7
:103240006B886B9A6FCF42F0050EFFEC00F06B8637
:1032500004006DB02DEF19F0FBD76B886B9A6FCF20
:1032600045F0050EFFEC00F06B8604006DB03AEF00
:1032700019F0FBD76B886B9A6FCF44F0050EFFEC0B
:1032800000F06B8604006DB047EF19F0FBD76B8838
:103290006B9A6FCF47F0050EFFEC00F06B860400D1
:1032A0006DB054EF19F0FBD76B886B8A6FCF46F087
:1032B000030EFFEC00F06B8404006BA461EF19F0C7
:1032C000FBD7030EFFEC00F06B8004006BA06AEFED
:1032D00019F0FBD7D00E6F6E04006DA071EF19F0DE
:1032E000FBD7020EFFEC00F0430E6F6E04006DA0E2
:1032F0007BEF19F0FBD7020EFFEC00F06B800400AF
:103300006BA084EF19F0FBD7D10E6F6E04006DA097
:103310008BEF19F0FBD7020EFFEC00F06B86040078
:103320006DB094EF19F0FBD76B886B9A6FCF49F0B3
:10333000050EFFEC00F06B8604006DB0A1EF19F0F4
:10334000FBD76B886B9A6FCF48F0050EFFEC00F04F
:103350006B8604006DB0AEEF19F0FBD76B886B9AEB
:103360006FCF4BF0050EFFEC00F06B8604006DB0E4
:10337000BBEF19F0FBD76B886B9A6FCF4AF0050E45
:10338000FFEC00F06B8604006DB0C8EF19F0FBD7BE
:103390006B886B9A6FCF4DF0050EFFEC00F06B86DB
:1033A00004006DB0D5EF19F0FBD76B886B8A6FCF37
:1033B0004CF0030EFFEC00F06B8404006BA4E2EF12
:1033C00019F0FBD7030EFFEC00F06B8004006BA03C
:1033D000EBEF19F0FBD7180E6F6E04006DA0F2EF43
:1033E00019F0FBD7020EFFEC00F0030E6F6E040025
:1033F0006DA0FCEF19F0FBD7020EFFEC00F06B8024
:1034000004006BA005EF1AF0FBD7190E6F6E0400D5
:103410006DA00CEF1AF0FBD7020EFFEC00F06B86EC
:1034200004006DB015EF1AF0FBD76B886B9A6FCF65
:103430004EF0050EFFEC00F06B8604006DB022EF3D
:103440001AF0FBD76B886B9A6FCF4FF0050EFFEC2D
:1034500000F06B8604006DB02FEF1AF0FBD76B887D
:103460006B9A6FCF50F0050EFFEC00F06B860400F6
:103470006DB03CEF1AF0FBD76B886B9A6FCF51F0B1
:10348000050EFFEC00F06B8604006DB049EF1AF0FA
:10349000FBD76B886B9A6FCF52F0050EFFEC00F0F4
:1034A0006B8604006DB056EF1AF0FBD76B886B8A01
:1034B0006FCF53F0030EFFEC00F06B8404006BA49D
:1034C00063EF1AF0FBD7030EFFEC00F0180E7A6FD3
:1034D0000A0E796F110E786F6B8004006BA072EF8B
:1034E0001AF0FBD77AC06FFF04006DA079EF1AF0D5
:1034F000FBD7020EFFEC00F079C06FFF04006DA057
:1035000083EF1AF0FBD7020EFFEC00F078C06FFFDC
:10351000010EFFEC00F004006DA090EF1AF0FBD755
:10352000020EFFEC00F06B8404006BA499EF1AF01C
:10353000FBD7030EFFEC00F08292060EC96E010E5F
:10354000FFEC00F08282010EFFEC00F08292120E7E
:10355000C96E010EFFEC00F070C0C9FF010EFFEC58
:1035600000F06FC0C9FF010EFFEC00F072C0C9FF90
:10357000010EFFEC00F071C0C9FF010EFFEC00F07E
:1035800043C0C9FF010EFFEC00F042C0C9FF010EAD
:10359000FFEC00F045C0C9FF010EFFEC00F044C095
:1035A000C9FF010EFFEC00F047C0C9FF010EFFECA0
:1035B00000F046C0C9FF010EFFEC00F049C0C9FF92
:1035C000010EFFEC00F048C0C9FF010EFFEC00F057
:1035D0004BC0C9FF010EFFEC00F04AC0C9FF010E4D
:1035E000FFEC00F04DC0C9FF010EFFEC00F04CC035
:1035F000C9FF010EFFEC00F04FC0C9FF010EFFEC48
:1036000000F04EC0C9FF010EFFEC00F051C0C9FF31
:10361000010EFFEC00F050C0C9FF010EFFEC00F0FE
:1036200053C0C9FF010EFFEC00F052C0C9FF010EEC
:10363000FFEC00F08282120E7127000E722388EFD9
:103640001CF06B8004006BA027EF1BF0FBD7D00EA3
:103650006F6E04006DA02EEF1BF0FBD7020EFFEC87
:1036600000F03B0E6F6E04006DA038EF1BF0FBD72F
:10367000020EFFEC00F06B8004006BA041EF1BF02A
:10368000FBD7D10E6F6E04006DA048EF1BF0FBD787
:10369000020EFFEC00F06B8604006DB051EF1BF0E2
:1036A000FBD76B886B9A6FCF43F0050EFFEC00F0F1
:1036B0006B8604006DB05EEF1BF0FBD76B886B9AD6
:1036C0006FCF42F0050EFFEC00F06B8604006DB08A
:1036D0006BEF1BF0FBD76B886B9A6FCF45F0050E35
:1036E000FFEC00F06B8604006DB078EF1BF0FBD7A9
:1036F0006B886B9A6FCF44F0050EFFEC00F06B8681
:1037000004006DB085EF1BF0FBD76B886B9A6FCF11
:1037100047F0050EFFEC00F06B8604006DB092EFF1
:103720001BF0FBD76B886B8A6FCF46F0030EFFEC64
:1037300000F06B8404006BA49FEF1BF0FBD7030E1B
:10374000FFEC00F06B8004006BA0A8EF1BF0FBD730
:10375000D00E6F6E04006DA0AFEF1BF0FBD7020E12
:10376000FFEC00F0430E6F6E04006DA0B9EF1BF08C
:10377000FBD7020EFFEC00F06B8004006BA0C2EFE1
:103780001BF0FBD7D10E6F6E04006DA0C9EF1BF0CC
:10379000FBD7020EFFEC00F06B8604006DB0D2EF99
:1037A0001BF0FBD76B886B9A6FCF49F0050EFFECCF
:1037B00000F06B8604006DB0DFEF1BF0FBD76B8869
:1037C0006B9A6FCF48F0050EFFEC00F06B8604009B
:1037D0006DB0ECEF1BF0FBD76B886B9A6FCF4BF0A3
:1037E000050EFFEC00F06B8604006DB0F9EF1BF0E6
:1037F000FBD76B886B9A6FCF4AF0050EFFEC00F099
:103800006B8604006DB006EF1CF0FBD76B886B9ADB
:103810006FCF4DF0050EFFEC00F06B8604006DB02D
:1038200013EF1CF0FBD76B886B8A6FCF4CF0030E45
:10383000FFEC00F06B8404006BA420EF1CF0FBD7BE
:10384000030EFFEC00F08292060EC96E010EFFEC33
:1038500000F08282010EFFEC00F08292120EC96E1F
:10386000010EFFEC00F070C0C9FF010EFFEC00F08C
:103870006FC0C9FF010EFFEC00F072C0C9FF010E5E
:10388000FFEC00F071C0C9FF010EFFEC00F043C077
:10389000C9FF010EFFEC00F042C0C9FF010EFFECB2
:1038A00000F045C0C9FF010EFFEC00F044C0C9FFA5
:1038B000010EFFEC00F047C0C9FF010EFFEC00F065
:1038C00046C0C9FF010EFFEC00F049C0C9FF010E60
:1038D000FFEC00F048C0C9FF010EFFEC00F04BC048
:1038E000C9FF010EFFEC00F04AC0C9FF010EFFEC5A
:1038F00000F04DC0C9FF010EFFEC00F04CC0C9FF45
:10390000010EFFEC00F082820C0E7127000E722374
:103910007E511B08D8A4E868FF0A146E24C002F088
:1039200025C003F03FC005F03E500AEC01F0166ED2
:1039300014C002F016502CEC01F0166E176E040045
:1039400016501710D8B4C3EF1CF0070E7125146E73
:10395000000E7221156E0268036815C005F0145040
:103960001AEC01F0D8A4BCEF1CF0716B726B6F2BDA
:10397000000E7023C0EF1CF0080E7127000E72239A
:103980007E6B0BEF1DF07E512708D8A4E868FF0A74
:10399000146E24C002F025C003F03EC004F03FC006
:1039A00005F038EC01F0166E03C017F016C002F0F7
:1039B00017C003F0056A0A0E0AEC01F0166E14C077
:1039C00002F016502CEC01F0166E176E0400165023
:1039D0001710D8B40AEF1DF0070E7125146E000EF3
:1039E0007221156E0268036815C005F014501AECB8
:1039F00001F0D8A403EF1DF0716B726B6F2B000EFA
:103A0000702307EF1DF0080E7127000E72237E6BE6
:103A10000BEF1DF07E2B5A2A000E5B22100038ECB3
:103A200018F02BEF1DF038EC18F0939E38EC18F0DE
:103A3000810E1E6E0F0E206E800E1C6E060E016E25
:103A40000C0E3AEC00F038EC18F0938E38EC18F0CD
:103A50000A0EF2EC00F038EC18F0120038EC18F016
:103A6000939E38EC18F0810E1E6E0F0E206E800EA5
:103A70001C6E060E016E0E0E3AEC00F038EC18F0DB
:103A8000938E38EC18F0120038EC18F0939E38EC56
:103A900018F0810E1E6E0F0E206E800E1C6E060E2C
:103AA000016E0F0E3AEC00F038EC18F0938E38EC03
:103AB00018F0120038EC18F0939E38EC18F0810ED4
:103AC0001E6E0F0E206E800E1C6E060E016E100E06
:103AD0003AEC00F0400E3AEC00F038EC18F0938E1F
:103AE00038EC18F0120038EC18F0939E38EC18F00F
:103AF000810E1E6E0F0E206E800E1C6E060E016E65
:103B0000100E3AEC00F0540E3AEC00F038EC18F0DD
:103B1000938E38EC18F0120038EC18F0939E38ECC5
:103B200018F0810E1E6E0F0E206E800E1C6E060E9B
:103B3000016E100E3AEC00F0680E3AEC00F038EC32
:103B400018F0938E38EC18F0120038EC18F0939EB1
:103B500038EC18F0810E1E6E0F0E206E800E1C6E5B
:103B6000060E016E100E3AEC00F07C0E3AEC00F0FE
:0C3B700038EC18F0938E38EC18F01200BE
:020000040030CA
:03000100081F3F96
:02000500BD81BB
:060008000FC00FE00F40E5
:00000001FF
