:020000040000FA
:0400000077EF01F0A5
:020008001200E4
:0800180012000A6EF80BE8303B
:10002000E830E830E926D8B0EA2AD1EC00F00A6ED0
:10003000EF1474EF01F0076A066E018E270E056E4D
:10004000100E0CD8030E056EE80E08D8056A640E73
:1000500005D8056A0A0E02D806500BD0046E075068
:10006000036E0650026E38EC01F0E866019E01BE98
:100070001200300F086E20C0EAFF20C0E2FF1E50C1
:10008000E96E120FE16E090E096ED89007D808329A
:10009000092EFCD7D88002D874EF01F001A60BD04E
:1000A000EF501C1001A41C18EF6EE7501C10D8A0D4
:1000B0001C18E76E0AD0EF501C10D8A01C1801B411
:1000C0001C18EF6E1C1CE71600D00134060BEA0F5B
:1000D000F66EF76A000EF722F86A0900F550036E13
:1000E0000800F550000000EF01F0019D033D0064A1
:1000F0000D0120C0EAFF1EC0E9FF0E50026E0F5036
:10010000036E046A056A040020D80CE3E86A04065A
:10011000055AF9E20206035A17E3780E046E010E3F
:10012000056EF1D729D80A6A080E056E26D80DD8B3
:10013000D8B00A3E0432052EF9D70DAA0A6A0DBAC4
:10014000049E1BD8D88004501200120EE9261C50C1
:10015000EF121EC0E9FFEF140DBC1C18FF0F1200B8
:10016000D96E0B0603E2D88074EF01F06EEC01F05B
:10017000D8A01200DE6EF5D7018C0D501F0B000FBA
:10018000036E0C50100FD8B0032A01AC00EF01F041
:10019000019CD8900332E830D8900332E83000EF69
:1001A00001F0010E0AB0E8440AB2E8440AB2E84499
:1001B0000AB4E8381200A66AA680A850A94AAA2A5A
:1001C00074EF01F0E86AA86EA66AA684550EA76EC1
:1001D000AA0EA76EA682A6B2FED7A694A94AAA2AFC
:1001E00074EF01F0056A046EE86A0406055AD8A0A7
:1001F00074EF01F0030E036EE70E02D8F5D7036A21
:10020000FD0F026E01D00206040000D0E86A035A16
:10021000FAE21200046E020E0FD0046E030E0CD030
:10022000056A046E010E08D0046E060E05D0046E39
:10023000040E02D0046E050E0A6E0550035C02E146
:100240000450025C040ED8B0010ED8B4020E0A1499
:10025000D8A4FF0E74EF01F0E866FF0E0214D8A4D4
:10026000FF0E74EF01F00210D8A4FF0E74EF01F03E
:10027000076A066A100E086E033406360736045005
:10028000065E0550075A05E204500626055007226F
:10029000D89002360336082EEFD7025074EF01F0E3
:1002A00004500802F3CF06F0F4CF07F0055009021E
:1002B000F3CF02F0F4CF03F00802F3500726F45016
:1002C0000222E86A032204500902F3500726F45080
:1002D0000222E86A0322065074EF01F0E96EFB6A1D
:1002E0001350FA6E1250F96E000104001200E80E6D
:1002F000D36E800ED26E400E9B6EF26A616A0F0161
:10030000386B396B3A6B010E966E22902292000187
:100310005FEC14F09488938A9388938293849380FB
:10032000938E948E938C93869490929092929492C2
:100330009496949A92968290809080928082030EF6
:10034000056EE80E50DF8092939E810E1E6E0F0E9A
:10035000206E800E1C6E060E016E0C0E8BDE0A0ED9
:1003600041DF810E1E6E0F0E206E800E1C6E060E7B
:10037000016E0E0E7FDE100E7DDE400E7BDE440E23
:1003800079DE650E77DE760E75DE310E73DE330EA6
:1003900071DE4D0E6FDE500E6DDE550E6BDE2D0ED6
:1003A00069DE350E67DE410E65DE2D0E63DE350E2D
:1003B00061DE420E5FDE2D0E5DDE350E5BDE430E2E
:1003C00059DE2D0E57DE350E55DE440E53DE810EFE
:1003D0001E6E0F0E206E800E1C6E060E016E100E2D
:1003E00049DE540E47DE330E45DE2F0E43DE320E5D
:1003F00041DE310E3FDE2F0E3DDE320E3BDE300E93
:1004000039DE310E37DE380E35DE938E040081AAD8
:100410000EEF02F00300640EE5DEF8D7FA0EE2DE1E
:100420008280010E056E2C0EDEDE82900A0EE7DE63
:100430008080010E056E2C0ED6DE80900A0EDFDE67
:100440008082010E056E2C0ECEDE80920A0ED7DE63
:1004500082800A0ED4DE8282010ED1DE8286010EF7
:10046000CEDE829A010ECBDE8182010EC8DE81844F
:10047000010EC5DE80964AEC07F0F5EC04F044EC82
:1004800007F0C4EC08F0D2EC10F0DAEC08F0A8ECBD
:100490000EF063EC0CF00A0EA5DE82EC19F022805F
:1004A000828078EF02F0939E810E1E6E0F0E206EFA
:1004B000800E1C6E060E016E100E3AEC00F0400E1F
:1004C0003AEC00F0530E3AEC00F0540E3AEC00F027
:1004D000410E3AEC00F04E0E3AEC00F0440E3AECCD
:1004E00000F0420E3AEC00F0590E3AEC00F0938E18
:1004F000040081BAF3EF04F08290AAEF02F0939E19
:10050000810E1E6E0F0E206E800E1C6E060E016E8A
:10051000100E3AEC00F0400E3AEC00F0520E3AECBD
:1005200000F0550E3AEC00F04E0E3AEC00F0200EC2
:100530003AEC00F0540E3AEC00F0450E3AEC00F0C4
:10054000530E3AEC00F0540E3AEC00F03F0E3AEC49
:1005500000F0938E070E056ED00E45DE040081BAC2
:100560009BEF04F08080F5EF02F0939E810E1E6EEB
:100570000F0E206E800E1C6E060E016E100E3AECF1
:1005800000F0400E3AEC00F0530E3AEC00F0450E4D
:100590003AEC00F04E0E3AEC00F0440E3AEC00F06B
:1005A000200E3AEC00F0440E3AEC00F0410E3AEC2A
:1005B00000F0540E3AEC00F0410E3AEC00F0200E40
:1005C0003AEC00F0540E3AEC00F04F0E3AEC00F02A
:1005D000200E3AEC00F0500E3AEC00F0430E3AECEC
:1005E00000F03F0E3AEC00F0938E070E056ED00E31
:1005F000F3EC00F0040081BA40EF04F0010EFFECD0
:1006000000F08082010EFFEC00F0809051EF03F0CB
:10061000939E810E1E6E0F0E206E800E1C6E060EB7
:10062000016E100E3AEC00F0400E3AEC00F0450E70
:100630003AEC00F0520E3AEC00F0410E3AEC00F0C9
:10064000530E3AEC00F0450E3AEC00F03F0E3AEC57
:1006500000F0200E3AEC00F0200E3AEC00F0200EF4
:100660003AEC00F0200E3AEC00F0200E3AEC00F0EC
:10067000200E3AEC00F0200E3AEC00F0200E3AEC9E
:1006800000F0200E3AEC00F0200E3AEC00F0200EC4
:100690003AEC00F0200E3AEC00F0200E3AEC00F0BC
:1006A000938E070E056ED00EF3EC00F0040081BAB5
:1006B00062EF03F0809282808080E0EC09F02AD61D
:1006C0003EEF04F0808282808090BBEF03F082ECEA
:1006D00019F0939E810E1E6E0F0E206E800E1C6E02
:1006E000060E016E100E3AEC00F0400E3AEC00F0EF
:1006F000530E3AEC00F0450E3AEC00F0430E3AECA3
:1007000000F0540E3AEC00F04F0E3AEC00F0520EAE
:100710003AEC00F0200E3AEC00F0450E3AEC00F016
:10072000520E3AEC00F0410E3AEC00F0530E3AEC67
:1007300000F0450E3AEC00F03F0E3AEC00F0200ECF
:100740003AEC00F0200E3AEC00F0200E3AEC00F00B
:10075000200E3AEC00F0200E3AEC00F0200E3AECBD
:1007600000F0200E3AEC00F0200E3AEC00F0200EE3
:100770003AEC00F0938E040081BAC0EF03F0FBD78F
:1007800082903D6A3E6A3DC002F03EC003F0056AB9
:100790000C0E11EC01F0D8A437EF04F0040081BA7C
:1007A00028EF04F022EF04F082EC19F0939E810E02
:1007B0001E6E0F0E206E800E1C6E060E016E100E49
:1007C0003AEC00F0400E3AEC00F0420E3AEC00F049
:1007D000550E3AEC00F04C0E3AEC00F04B0E3AECB1
:1007E00000F0200E3AEC00F0450E3AEC00F0520E0C
:1007F0003AEC00F0410E3AEC00F0530E3AEC00F007
:10080000490E3AEC00F04E0E3AEC00F0470E3AEC8E
:1008100000F03F0E3AEC00F0200E3AEC00F0200E13
:100820003AEC00F0200E3AEC00F0200E3AEC00F02A
:10083000200E3AEC00F0200E3AEC00F0200E3AECDC
:1008400000F0938E8280808289EC08F03BEF04F008
:1008500080827D0EF2EC00F0809280807D0EF2ECC2
:1008600000F080903D2A000E3E22D8A08CD78280D6
:10087000808217EC08F080920EEF02F099EF04F0FE
:100880008290808092EF04F082EC19F0939E810EAA
:100890001E6E0F0E206E800E1C6E060E016E100E68
:1008A0003AEC00F0400E3AEC00F0530E3AEC00F057
:1008B000450E3AEC00F04E0E3AEC00F0440E3AECE5
:1008C00000F0490E3AEC00F04E0E3AEC00F0470E04
:1008D0003AEC00F0200E3AEC00F0440E3AEC00F056
:1008E000410E3AEC00F0540E3AEC00F0410E3AECB6
:1008F00000F0200E3AEC00F0540E3AEC00F04F0EEF
:100900003AEC00F0200E3AEC00F0500E3AEC00F019
:10091000430E3AEC00F0200E3AEC00F0200E3AECD8
:1009200000F0938E0EEC11F082EC19F080900EEF37
:1009300002F0F3EF04F0EBEF04F082EC19F0939E79
:10094000810E1E6E0F0E206E800E1C6E060E016E46
:10095000100E3AEC00F0400E3AEC00F0520E3AEC79
:1009600000F0550E3AEC00F04E0E3AEC00F04E0E50
:100970003AEC00F0490E3AEC00F04E0E3AEC00F082
:10098000470E3AEC00F0200E3AEC00F0540E3AEC30
:1009900000F0450E3AEC00F0530E3AEC00F0540E25
:1009A0003AEC00F0200E3AEC00F0200E3AEC00F0A9
:1009B000200E3AEC00F0200E3AEC00F0200E3AEC5B
:1009C00000F0200E3AEC00F0200E3AEC00F0200E81
:1009D0003AEC00F0938E62EC14F082EC19F082ECA9
:1009E00019F00EEF02F050EF02F093849382100E94
:1009F0006D6E280E6C6E6B6A696A110E6E6E04EC79
:100A000005F00BEC05F012006B8004006BA00AEF00
:100A100005F0FBD712006B8404006BA411EF05F006
:100A2000FBD71200F1DF83C06FFF04006DA01AEF47
:100A300005F0FBD7020EFFEC00F082C06FFF040050
:100A40006DA024EF05F0FBD7020EFFEC00F081C093
:100A50006FFF010EFFEC00F004006DA031EF05F018
:100A6000FBD7020EFFEC00F0D6DF12008AEC05F097
:100A7000C9EC05F00BEC06F09AEC06F0D00E836F93
:100A80006B0E826F800E816FCDDF640EF2EC00F092
:100A9000D00E836F6B0E826F010E816FC3DFD00E9D
:100AA000836F6C0E826F816BBDDFD00E836F1A0E69
:100AB000826F7CC081F0B6DFD00E836F1B0E826F19
:100AC0007DC081F0AFDFD00E836F1C0E826F5EC0E1
:100AD00081F0A8DFD00E836F1D0E826F5DC081F0A4
:100AE000A1DFD00E836F370E826F120E816F9ADFF7
:100AF000D00E836F380E826F010E816F93DF0A0E66
:100B0000F2EC00F0D00E836F0A0E826F110E816F2F
:100B100089DF1200020E026E036A28C005F027501A
:100B20001AEC01F0D8A499EF05F05E985E96C8EF34
:100B300005F0040E026E036A28C005F027501AEC77
:100B400001F0D8A4A8EF05F05E985E86C8EF05F026
:100B5000080E026E036A28C005F027501AEC01F057
:100B6000D8A4B7EF05F05E885E96C8EF05F0100ECA
:100B7000026E036A28C005F027501AEC01F0D8A4D1
:100B8000C6EF05F05E885E86C8EF05F05E885E966B
:100B90001200FA0E026E036A3CC005F03B501AECDC
:100BA00001F0D8A4D8EF05F07D997D970AEF06F003
:100BB000F40E026E010E036E3CC005F03B501AECC1
:100BC00001F0D8A4E8EF05F07D997D870AEF06F0E3
:100BD000E80E026E030E036E3CC005F03B501AECAB
:100BE00001F0D8A4F8EF05F07D897D970AEF06F0B3
:100BF000D00E026E070E036E3CC005F03B501AEC9F
:100C000001F0D8A408EF06F07D897D870AEF06F091
:100C10007D997D871200050E026E036A24C005F0DF
:100C200023501AEC01F0D8A41CEF06F05D865D8419
:100C30005D825D9099EF06F00A0E026E036A24C091
:100C400005F023501AEC01F0D8A42DEF06F05D86D4
:100C50005D845D925D8099EF06F0140E026E036A6A
:100C600024C005F023501AEC01F0D8A43EEF06F0A2
:100C70005D865D845D925D9099EF06F0290E026EAF
:100C8000036A24C005F023501AEC01F0D8A44FEFFA
:100C900006F05D865D945D825D8099EF06F05C0EE6
:100CA000026E036A24C005F023501AEC01F0D8A4A8
:100CB00060EF06F05D865D945D825D9099EF06F0D1
:100CC000B80E026E036A24C005F023501AEC01F03E
:100CD000D8A471EF06F05D865D945D925D8099EF1A
:100CE00006F0CC0E026E010E036E24C005F02350F8
:100CF0001AEC01F0D8A483EF06F05D865D945D9256
:100D00005D9099EF06F06A0E026E040E036E24C029
:100D100005F023501AEC01F0D8A495EF06F05D968B
:100D20005D945D925D9099EF06F05D865D945D82C5
:100D30005D901200050E026E036A3AC005F039504C
:100D40001AEC01F0D8A4ACEF06F07D837D817C85A0
:100D50007C837C9143EF07F00A0E026E036A3AC06F
:100D600005F039501AEC01F0D8A4BEEF06F07D83EF
:100D70007D817C857C937C8143EF07F0140E026EAD
:100D8000036A3AC005F039501AEC01F0D8A4D0EF4C
:100D900006F07D837D817C857C937C9143EF07F019
:100DA000290E026E036A3AC005F039501AEC01F0C0
:100DB000D8A4E2EF06F07D837D817C957C837C81E5
:100DC00043EF07F05C0E026E036A3AC005F039503B
:100DD0001AEC01F0D8A4F4EF06F07D837D817C95B8
:100DE0007C837C9143EF07F0B80E026E036A3AC031
:100DF00005F039501AEC01F0D8A406EF07F07D8316
:100E00007D817C957C937C8143EF07F0FA0E026E26
:100E1000036A3AC005F039501AEC01F0D8A418EF73
:100E200007F07D837D817C957C937C9143EF07F077
:100E3000100E026E0E0E036E3AC005F039501AEC19
:100E400001F0D8A42BEF07F07D937D817C957C93F6
:100E50007C9143EF07F0600E026E220E036E3AC0E3
:100E600005F039501AEC01F0D8A43EEF07F07D935D
:100E70007D917C957C937C9143EF07F07D837D8110
:100E80007C957C837C911200C76A300EC66E100E72
:100E9000CB6E12007CEC10F08292060EC96E010E31
:100EA000FFEC00F08282010EFFEC00F08292010E56
:100EB000C96E010EFFEC00F0C96A010EFFEC00F0F4
:100EC000C96A010EFFEC00F0C00EC96E010EFFEC06
:100ED00000F08282030E056EE80EF3EC00F01200C3
:100EE000D3DF3D6A3E6A3DC002F03EC003F0056AB2
:100EF000FB0E11EC01F0D8A48AEF07F03D50A10FD2
:100F0000E96E020E3E20EA6EEF6A3D2A000E3E2296
:100F1000D8A0E9D73D6A3E6A3DC002F03EC003F06A
:100F2000056AFB0E11EC01F0D8A4A3EF07F03D50C9
:100F30009D0FE96E030E3E20EA6EEF6A3D2A000E19
:100F40003E22D8A0E9D78292130EC96E010EFFECA3
:100F500000F06BC0C9FF010EFFEC00F06AC0C9FFD2
:100F6000010EFFEC00F06DC0C9FF010EFFEC00F0B8
:100F70006CC0C9FF010EFFEC00F03D6A3E6A3DC047
:100F800002F03EC003F0056AFB0E11EC01F0D8A49C
:100F9000DEEF07F0C96A010EFFEC00F03D50A10F33
:100FA000E96E020E3E20EA6EC9CFEFFF010EFFECA4
:100FB00000F03D2A000E3E22D8A0E1D73D6A3E6AED
:100FC0003DC002F03EC003F0056AFB0E11EC01F0DB
:100FD000D8A4FFEF07F0C96A010EFFEC00F03D5006
:100FE0009D0FE96E030E3E20EA6EC9CFEFFF010EA2
:100FF000FFEC00F03D2A000E3E22D8A0E1D782820D
:10100000026AFE0E036E6DC005F06C511AEC01F021
:10101000D8A412EF08F06A2B000E6B236C6B6D6B7B
:1010200016EF08F0000E6C27020E6D2312007629D1
:10103000336E000E7721346E27DF3D6A3E6A3DC075
:1010400002F03EC003F034C005F0335011EC01F063
:10105000D8A486EF08F03DC008F03EC009F0040EA9
:10106000046E056A50EC01F06A6F07C06BF06C6BA0
:101070006D6B8292010EFFEC00F0060EC96E010E40
:10108000FFEC00F08282010EFFEC00F08292D80E9D
:10109000C96E010EFFEC00F06BC0C9FF010EFFEC42
:1010A00000F06AC0C9FF010EFFEC00F06DC0C9FF7F
:1010B000010EFFEC00F0828288810400D89688A19E
:1010C000D886D8B681EF08F08292010EFFEC00F0CE
:1010D000050EC96E010EFFEC00F0C96A010EFFECAF
:1010E00000F0C9CF88F0010EFFEC00F0828288C0CA
:1010F0008BF0E6EC08F0DAEC08F0320EF2EC00F0DF
:10110000DCD73D2A000E3E22D8A099D7476A486A0C
:101110001200BADE8292060EC96E010EFFEC00F0DC
:101120008282010EFFEC00F08292600EC96E010E09
:10113000FFEC00F08282030E056EE80EF3EC00F087
:1011400088810400D89688A1D886D8B6C1EF08F067
:101150008292050EC96E010EFFEC00F0C96A010E05
:10116000FFEC00F0C9CF88F0828288C08BF0E6ECFB
:1011700008F0DAEC08F0030E056EE80EF3EC00F070
:10118000E0D7476A486A12003D6A3E6A3DC002F0F5
:101190003EC003F0056A0A0E11EC01F0D8A4D9EFA5
:1011A00008F08C6BACEC09F03D2A000E3E22D8A072
:1011B000EDD712000D0E8C6FACEC09F0010EF2ECC5
:1011C00000F00A0E8C6FACEC09F012007E6B04008C
:1011D000020E7E5DD8B0ABEF09F004007E5100082E
:1011E000D8A4FEEF08F08BC002F0036A100E046E64
:1011F000056A38EC01F07F6F08EF09F08BC002F050
:10120000036A100E046E056A38EC01F006C07FF028
:1012100004007F510008D8A412EF09F0300E8C6F43
:10122000A6EF09F004007F510108D8A41CEF09F0D3
:10123000310E8C6FA6EF09F004007F510208D8A48C
:1012400026EF09F0320E8C6FA6EF09F004007F51F3
:101250000308D8A430EF09F0330E8C6FA6EF09F025
:1012600004007F510408D8A43AEF09F0340E8C6FC3
:10127000A6EF09F004007F510508D8A444EF09F057
:10128000350E8C6FA6EF09F004007F510608D8A434
:101290004EEF09F0360E8C6FA6EF09F004007F5177
:1012A0000708D8A458EF09F0370E8C6FA6EF09F0A5
:1012B00004007F510808D8A462EF09F0380E8C6F43
:1012C000A6EF09F004007F510908D8A46CEF09F0DB
:1012D000390E8C6FA6EF09F004007F510A08D8A4DC
:1012E00076EF09F0410E8C6FA6EF09F004007F51F4
:1012F0000B08D8A480EF09F0420E8C6FA6EF09F01E
:1013000004007F510C08D8A48AEF09F0430E8C6FBB
:10131000A6EF09F004007F510D08D8A494EF09F05E
:10132000440E8C6FA6EF09F004007F510E08D8A47C
:101330009EEF09F0450E8C6FA6EF09F004007F5177
:101340000F08D8A4A6EF09F0460E8C6FACEC09F09C
:101350007E2BD8A03CD71200949E829E020EFFECFA
:1013600000F0DFEC09F0DFEC09F05F6A0400080E22
:101370005F5CD8B0CFEF09F08C0EE96EEA6A5F507F
:10138000000F0DEC00F0D8B4829ED8A4828E020E1D
:10139000FFEC00F0DFEC09F05F2AD8A0E7D7030EDE
:1013A000FFEC00F0828E020EFFEC00F0DFEC09F0A3
:1013B000DFEC09F0948E020EFFEC00F01200120038
:1013C00024EF0AF082EC19F0939E810E1E6E0F0E30
:1013D000206E800E1C6E060E016E100E3AEC00F0B0
:1013E000400E3AEC00F0570E3AEC00F0410E3AECA9
:1013F00000F0490E3AEC00F0540E3AEC00F0490EC1
:101400003AEC00F04E0E3AEC00F0470E3AEC00F0E9
:10141000200E3AEC00F0460E3AEC00F04F0E3AEC9B
:1014200000F0520E3AEC00F0200E3AEC00F0440EC0
:101430003AEC00F0410E3AEC00F0540E3AEC00F0B9
:10144000410E3AEC00F0938E810E1E6E0F0E206E50
:10145000010E1C6E540E0C6E0D6A100E0E6E270ED1
:101460000F6E79EC00F0D8A08EEF0DF05A08D8A4DA
:10147000F8D71C0E0B6EF20E126E136ADA6A8D0E1E
:10148000B0EC00F0D8A08EEF0DF07F6BB0EC0DF05B
:1014900080C008F0096A046A100E056E50EC01F075
:1014A000256E07C026F0010E7F6FB0EC0DF080C0F6
:1014B00008F0096A046A010E056E50EC01F0146E22
:1014C00007C015F01450252615502622020E7F6FF6
:1014D000B0EC0DF080C008F0096A100E046E056AC9
:1014E00050EC01F0146E07C015F01450252615506D
:1014F0002622030E7F6FB0EC0DF080512526E86A9E
:101500002622040E7F6FB0EC0DF080C008F0096A4F
:10151000046A100E056E50EC01F0456E07C046F0EF
:10152000050E7F6FB0EC0DF080C008F0096A046A08
:10153000010E056E50EC01F0146E07C015F014504A
:10154000452615504622060E7F6FB0EC0DF080C088
:1015500008F0096A100E046E056A50EC01F0146E72
:1015600007C015F01450452615504622070E7F6F10
:10157000B0EC0DF080514526E86A4622080E7F6FD8
:10158000B0EC0DF080C008F0096A046A100E056E18
:1015900050EC01F0706F07C071F0090E7F6FB0EC76
:1015A0000DF080C008F0096A046A010E056E50EC67
:1015B00001F0146E07C015F01450702715507123F8
:1015C0000A0E7F6FB0EC0DF080C008F0096A100EB3
:1015D000046E056A50EC01F0146E07C015F014504B
:1015E0007027155071230B0E7F6FB0EC0DF08051FA
:1015F0007027E86A71230C0E7F6FB0EC0DF080C08D
:1016000008F0096A046A100E056E50EC01F0276EAE
:1016100007C028F00D0E7F6FB0EC0DF080C008F011
:10162000096A046A010E056E50EC01F0146E07C0E1
:1016300015F014502726155028220E0E7F6FB0EC9F
:101640000DF080C008F0096A100E046E056A50ECB7
:1016500001F0146E07C015F01450272615502822EB
:101660000F0E7F6FB0EC0DF080512726E86A28221C
:10167000100E7F6FB0EC0DF080C008F0096A046AAC
:10168000100E056E50EC01F03B6E07C03CF0110EE1
:101690007F6FB0EC0DF080C008F0096A046A010E9B
:1016A000056E50EC01F0146E07C015F014503B2687
:1016B00015503C22120E7F6FB0EC0DF080C008F088
:1016C000096A100E046E056A50EC01F0146E07C032
:1016D00015F014503B2615503C22130E7F6FB0ECD2
:1016E0000DF080513B26E86A3C22140E7F6FB0EC6F
:1016F0000DF080C008F0096A046A100E056E50EC07
:1017000001F0236E07C024F0150E7F6FB0EC0DF0D2
:1017100080C008F0096A046A010E056E50EC01F001
:10172000146E07C015F01450232615502422160EEF
:101730007F6FB0EC0DF080C008F0096A100E046EE7
:10174000056A50EC01F0146E07C015F01450232602
:1017500015502422170E7F6FB0EC0DF08051232618
:10176000E86A2422180E7F6FB0EC0DF080C008F0FC
:10177000096A046A100E056E50EC01F0396E07C05C
:101780003AF0190E7F6FB0EC0DF080C008F0096AD6
:10179000046A010E056E50EC01F0146E07C015F0DE
:1017A0001450392615503A221A0E7F6FB0EC0DF006
:1017B00080C008F0096A100E046E056A50EC01F052
:1017C000146E07C015F01450392615503A221B0E1E
:1017D0007F6FB0EC0DF080513926E86A3A22A96A91
:1017E000AA6A2550E3EC00F02650E3EC00F00A0E64
:1017F000F2EC00F0020EA96EAA6A4550E3EC00F08C
:101800004650E3EC00F00A0EF2EC00F0040EA96E74
:10181000AA6A7051E3EC00F07151E3EC00F00A0E9B
:10182000F2EC00F0060EA96EAA6A2750E3EC00F075
:101830002850E3EC00F00A0EF2EC00F0080EA96E5E
:10184000AA6A3B50E3EC00F03C50E3EC00F00A0ED7
:10185000F2EC00F00A0EA96EAA6A2350E3EC00F045
:101860002450E3EC00F00A0EF2EC00F00C0EA96E2E
:10187000AA6A3950E3EC00F03A50E3EC00F00A0EAB
:10188000F2EC00F0010E3D6E3E6A3DC002F03EC03B
:1018900003F0056A040E11EC01F0D8A461EF0CF01E
:1018A0008280010E056E5E0EF3EC00F08290010E58
:1018B000056E5E0EF3EC00F03D2A000E3E22D8A02D
:1018C000E4D780901200256A266A456A466A706BE2
:1018D000716B276A286A3B6A3C6A236A246A396A00
:1018E0003A6AA96AAA6ADBEC00F0256EDBEC00F02C
:1018F000266E0A0EF2EC00F0020EA96EAA6ADBEC6C
:1019000000F0456EDBEC00F0466E0A0EF2EC00F0E3
:10191000040EA96EAA6ADBEC00F0706FDBEC00F03D
:10192000716F0A0EF2EC00F0060EA96EAA6ADBECEB
:1019300000F0276EDBEC00F0286E0A0EF2EC00F0EF
:10194000080EA96EAA6ADBEC00F03B6EDBEC00F03F
:101950003C6E0A0EF2EC00F00A0EA96EAA6ADBECED
:1019600000F0236EDBEC00F0246E0A0EF2EC00F0C7
:101970000C0EA96EAA6ADBEC00F0396EDBEC00F00D
:101980003A6E0A0EF2EC00F082EC19F0026803687D
:1019900026C005F025501AEC01F0D8A4D3EF0CF0C6
:1019A0003C0E256E266A0268036846C005F0455065
:1019B0001AEC01F0D8A4E0EF0CF03C0E456E466A3C
:1019C0000268036871C005F070511AEC01F0D8A4E8
:1019D000EDEF0CF0050E706F716B0268036828C0A4
:1019E00005F027501AEC01F0D8A4FAEF0CF0080E1D
:1019F000276E286A026803683CC005F03B501AEC69
:101A000001F0D8A408EF0DF0E80E3B6E030E3C6E1B
:101A10000268036824C005F023501AEC01F0D8A432
:101A200015EF0DF05C0E236E246A026803683AC05D
:101A300005F039501AEC01F0D8A422EF0DF05C0E3D
:101A4000396E3A6A12003FDF85C08CF0ACEC09F0C9
:101A5000050EFFEC00F026C08CF0ACEC09F0050E92
:101A6000FFEC00F025C08CF0ACEC09F0050EFFECAB
:101A700000F046C08CF0ACEC09F0050EFFEC00F075
:101A800045C08CF0ACEC09F0050EFFEC00F071C025
:101A90008CF0ACEC09F0050EFFEC00F070C08CF09F
:101AA000ACEC09F0050EFFEC00F028C08CF0ACECBB
:101AB00009F0050EFFEC00F027C08CF0ACEC09F04B
:101AC000050EFFEC00F03CC08CF0ACEC09F0050E0C
:101AD000FFEC00F03BC08CF0ACEC09F0050EFFEC25
:101AE00000F024C08CF0ACEC09F0050EFFEC00F027
:101AF00023C08CF0ACEC09F0050EFFEC00F03AC00E
:101B00008CF0ACEC09F0050EFFEC00F039C08CF065
:101B1000ACEC09F0050EFFEC00F012008290010E13
:101B20003D6E3E6A3DC002F03EC003F0056A040E01
:101B300011EC01F0D8A4AEEF0DF08082010E056E1D
:101B40005E0EF3EC00F08092010E056E5E0EF3EC7B
:101B500000F03D2A000E3E22D8A0E4D7809012006B
:101B6000146A156A7F518D0FE96E000EEA6AEA2247
:101B7000EFCF14F0300E026E036A15C005F014505A
:101B80001AEC01F0D8A4C8EF0DF0806BA7EF0EF0AF
:101B9000310E026E036A15C005F014501AEC01F004
:101BA000D8A4D7EF0DF0010E806FA7EF0EF0320E24
:101BB000026E036A15C005F014501AEC01F0D8A4A7
:101BC000E6EF0DF0020E806FA7EF0EF0330E026EFF
:101BD000036A15C005F014501AEC01F0D8A4F5EF13
:101BE0000DF0030E806FA7EF0EF0340E026E036A45
:101BF00015C005F014501AEC01F0D8A404EF0EF053
:101C0000040E806FA7EF0EF0350E026E036A15C04A
:101C100005F014501AEC01F0D8A413EF0EF0050EE5
:101C2000806FA7EF0EF0360E026E036A15C005F046
:101C300014501AEC01F0D8A422EF0EF0060E806FBB
:101C4000A7EF0EF0370E026E036A15C005F01450B0
:101C50001AEC01F0D8A431EF0EF0070E806FA7EF59
:101C60000EF0380E026E036A15C005F014501AEC1F
:101C700001F0D8A440EF0EF0080E806FA7EF0EF031
:101C8000390E026E036A15C005F014501AEC01F00B
:101C9000D8A44FEF0EF0090E806FA7EF0EF0410EA3
:101CA000026E036A15C005F014501AEC01F0D8A4B6
:101CB0005EEF0EF00A0E806FA7EF0EF0420E026E7E
:101CC000036A15C005F014501AEC01F0D8A46DEFAA
:101CD0000EF00B0E806FA7EF0EF0430E026E036A3C
:101CE00015C005F014501AEC01F0D8A47CEF0EF0EA
:101CF0000C0E806FA7EF0EF0440E026E036A15C043
:101D000005F014501AEC01F0D8A48BEF0EF00D0E74
:101D1000806FA7EF0EF0450E026E036A15C005F046
:101D200014501AEC01F0D8A49AEF0EF00E0E806F4A
:101D3000A7EF0EF0460E026E036A15C005F01450B0
:101D40001AEC01F0D8A4A7EF0EF00F0E806F12006E
:101D50007CEC10F0F40E476E010E486E47C002F0A6
:101D600048C003F0056AF80E0DEC01F0D8A475EF39
:101D70000FF04750A90FE96E000E4820EA6EEFCF32
:101D800014F01450FF08D8A4E868FF0A146E47281E
:101D9000166E000E4820176E1650A90FE96E000E41
:101DA0001720EA6EEFCF16F01650FF08D8A4E868A7
:101DB000FF0A166E14C002F016502CEC01F0166EDD
:101DC000176E020E4724186E000E4820196E185028
:101DD000A90FE96E000E1920EA6EEFCF18F0185027
:101DE000FF08D8A4E868FF0A186E16501710026E94
:101DF00018502CEC01F0186E196E030E47241A6E61
:101E0000000E48201B6E1A50A90FE96E000E1B2011
:101E1000EA6EEFCF1AF01A50FF08D8A4E868FF0A5C
:101E20001A6E18501910026E1A502CEC01F01A6E2E
:101E30001B6E04001A501B10D8B43CEF0FF047C0C3
:101E400002F048C003F0056A030E14EC01F0D8A4B8
:101E500030EF0FF0040E475E000E485A39EF0FF0D6
:101E6000766B776B786B020E796F476A486A3DEF45
:101E700010F074D773EF0FF04750A90FE96E000E02
:101E80004820EA6EEFCF77F04728146E000E482006
:101E9000156E1450A90FE96E000E1520EA6EEFCFF3
:101EA00076F0020E4724146E000E4820156E145072
:101EB000A90FE96E000E1520EA6EEFCF79F0030E40
:101EC0004724146E000E4820156E1450A90FE96EB9
:101ED000000E1520EA6EEFCF78F0040E4726000EB4
:101EE00048223DEF10F03DEF10F0FC0E475C146E01
:101EF000000E4858156E1450A50FE96E010E1520FE
:101F0000EA6EEFCF14F01450FF08D8A4E868FF0A77
:101F1000146E4728166E000E4820176EFC0E165ED3
:101F2000000E175A1650A50FE96E010E1720EA6E23
:101F3000EFCF16F01650FF08D8A4E868FF0A166E17
:101F400014C002F016502CEC01F0166E176E020E43
:101F50004724186E000E4820196EFC0E185E000E05
:101F6000195A1850A50FE96E010E1920EA6EEFCF2D
:101F700018F01850FF08D8A4E868FF0A186E165029
:101F80001710026E18502CEC01F0186E196E030E2B
:101F900047241A6E000E48201B6EFC0E1A5E000EBF
:101FA0001B5A1A50A50FE96E010E1B20EA6EEFCFE7
:101FB0001AF01A50FF08D8A4E868FF0A1A6E1850E1
:101FC0001910026E1A502CEC01F01A6E1B6E0400F0
:101FD0001A501B10D8B4F4EF0FF0040E475E000E39
:101FE000485ABCD63DEF10F0FC0E475C146E000E54
:101FF0004858156E1450A50FE96E010E1520EA6EB3
:10200000EFCF77F04728146E000E4820156EFC0EB7
:10201000145E000E155A1450A50FE96E010E15201E
:10202000EA6EEFCF76F0020E4724146E000E4820C1
:10203000156EFC0E145E000E155A1450A50FE96EB5
:10204000010E1520EA6EEFCF79F0030E4724146ECF
:10205000000E4820156EFC0E145E000E155A14502A
:10206000A50FE96E010E1520EA6EEFCF78F0040E91
:102070004726000E48223DEF10F0120044EC07F016
:102080008292060EC96E010EFFEC00F08282010EF4
:10209000FFEC00F08292120EC96E010EFFEC00F010
:1020A000C96A010EFFEC00F0C96A010EFFEC00F0F6
:1020B00048C0C9FF010EFFEC00F047C0C9FF010E88
:1020C000FFEC00F077C0C9FF010EFFEC00F076C016
:1020D000C9FF010EFFEC00F079C0C9FF010EFFEC53
:1020E00000F078C0C9FF010EFFEC00F08282040E00
:1020F0004726000E4822120044EC07F08292130E8D
:10210000C96E010EFFEC00F0C96A010EFFEC00F091
:10211000C96A010EFFEC00F0C96A010EFFEC00F085
:10212000C96A010EFFEC00F03D6A3E6A3DC002F054
:102130003EC003F0056AFB0E11EC01F0D8A4B2EF2B
:1021400010F0C96A010EFFEC00F03D50A90FE96ED6
:10215000000E3E20EA6EC9CFEFFF3D2A000E3E2260
:10216000D8A0E4D73D6A3E6A3DC002F03EC003F00D
:10217000056AFB0E11EC01F0D8A4D0EF10F0C96A8B
:10218000010EFFEC00F03D50A50FE96E010E3E2060
:10219000EA6EC9CFEFFF3D2A000E3E22D8A0E4D759
:1021A00082821200A9DF3D6A3E6A3DC002F03EC055
:1021B00003F0056AFB0E11EC01F0D8A4EFEF10F06C
:1021C0003D50A90FE96E000E3E20EA6EEFCF8BF076
:1021D000E6EC08F03D2A000E3E22D8A0E6D73D6A84
:1021E0003E6A3DC002F03EC003F0056AFB0E11ECF2
:1021F00001F0D8A40BEF11F03D50A50FE96E010ED0
:102200003E20EA6EEFCF8BF0E6EC08F03D2A000EA0
:102210003E22D8A0E6D7DAEC08F01200A8EC0EF0C7
:102220006A6B6B6B6C6B020E6D6F026A036A48C05F
:1022300005F047501AEC01F0D8A48BEF11F069EFCC
:1022400011F082EC19F0939E810E1E6E0F0E206E1F
:10225000800E1C6E060E016E100E3AEC00F0540E4D
:102260003AEC00F04E0E3AEC00F04F0E3AEC00F073
:10227000200E3AEC00F0540E3AEC00F0450E3AEC29
:1022800000F0530E3AEC00F0540E3AEC00F0200E41
:102290003AEC00F0440E3AEC00F0410E3AEC00F05B
:1022A000540E3AEC00F0410E3AEC00F0200E3AECFD
:1022B00000F0460E3AEC00F04F0E3AEC00F0550EEE
:1022C0003AEC00F04E0E3AEC00F0440E3AEC00F01E
:1022D000938E010E436E446A43C002F044C003F083
:1022E000056A050E11EC01F0D8A488EF11F0808288
:1022F000010E056EF40EF3EC00F08092010E056EF7
:10230000F40EF3EC00F0432A000E4422D8A0E4D7E8
:1023100080908DEF13F0010E3D6E3E6A3DC002F0DD
:102320003EC003F0056A320E11EC01F0D8A4A1EF13
:1023300011F08C6BACEC09F03D2A000E3E22D8A0C7
:10234000EDD747C002F048C003F0040E046E056AE2
:1023500038EC01F0856FC0EF11F0939E810E1E6E78
:102360000F0E206E800E1C6E060E016E100E3AECE3
:1023700000F0680E3AEC00F085511BEC00F0938EF3
:1023800023EC0DF0476A486AB7DE010E726F736B7B
:1023900072C002F073C003F0855110EC01F0D8A4B4
:1023A0008DEF13F0026A036A48C005F047501AEC3B
:1023B00001F0D8A414EF12F06A6B6B6B6C6B020E19
:1023C0006D6F4750A90FE96E000E4820EA6EEFCFFF
:1023D00030F04728146E000E4820156E1450A90FD7
:1023E000E96E000E1520EA6EEFCF2FF0020E4724A3
:1023F000146E000E4820156E1450A90FE96E000EE1
:102400001520EA6EEFCF32F0030E4724146E000E53
:102410004820156E1450A90FE96E000E1520EA6EC3
:10242000EFCF31F0F1EF12F047C002F048C003F0F7
:10243000056AF80E11EC01F0D8A489EF12F0040E31
:10244000475C146E000E4858156E1450A90FE96EC3
:10245000000E1520EA6EEFCF6BF0030E475C146E92
:10246000000E4858156E1450A90FE96E000E152085
:10247000EA6EEFCF6AF0020E475C146E000E485809
:10248000156E1450A90FE96E000E1520EA6EEFCFFD
:102490006DF04704146E000E4858156E1450A90FC5
:1024A000E96E000E1520EA6EEFCF6CF04750A90FD1
:1024B000E96E000E4820EA6EEFCF30F04728146E28
:1024C000000E4820156E1450A90FE96E000E15205D
:1024D000EA6EEFCF2FF0020E4724146E000E482054
:1024E000156E1450A90FE96E000E1520EA6EEFCF9D
:1024F00032F0030E4724146E000E4820156E14505F
:10250000A90FE96E000E1520EA6EEFCF31F0F1EF62
:1025100012F0040E475C146E000E4858156E1450ED
:10252000A50FE96E010E1520EA6EEFCF6BF0030EDA
:10253000475C146E000E4858156E1450A50FE96ED6
:10254000010E1520EA6EEFCF6AF0020E475C146EA2
:10255000000E4858156E1450A50FE96E010E152097
:10256000EA6EEFCF6DF04704146E000E4858156EFA
:102570001450A50FE96E010E1520EA6EEFCF6CF036
:102580004750A50FE96E010E4820EA6EEFCF30F0FC
:102590004728146E000E4820156E1450A50FE96EE2
:1025A000010E1520EA6EEFCF2FF0020E4724146EB5
:1025B000000E4820156E1450A50FE96E010E15206F
:1025C000EA6EEFCF32F0030E4724146E000E48205F
:1025D000156E1450A50FE96E010E1520EA6EEFCFAF
:1025E00031F012EF13F082EC19F0939E810E1E6E03
:1025F0000F0E206E800E1C6E060E016E100E3AEC51
:1026000000F0680E3AEC00F06BC007F06A511CEC69
:1026100000F02C0E3AEC00F06DC007F06C511CEC91
:1026200000F0938E3D6A3E6A3DC002F03EC003F06A
:10263000056A090E11EC01F0D8A428EF13F03DC093
:102640008CF0ACEC09F03D2A000E3E22D8A0ECD76D
:102650006AC002F06BC003F030C005F02F5017ECD9
:1026600001F0146E6CC002F06DC003F032C005F0D2
:10267000315017EC01F0166E14C002F0165033EC16
:1026800001F0166E176E040016501710D8B484EFC0
:1026900013F070EC07F03D6A3E6A3DC002F03EC0A8
:1026A00003F0056AFB0E11EC01F0D8A467EF13F0FC
:1026B0003D50A10FE96E020E3E20EA6EEFCF8CF086
:1026C000ACEC09F03D2A000E3E22D8A0E6D73D6AC8
:1026D0003E6A3DC002F03EC003F0056AFB0E11ECFD
:1026E00001F0D8A483EF13F03D509D0FE96E030E67
:1026F0003E20EA6EEFCF8CF0ACEC09F03D2A000EE4
:102700003E22D8A0E6D7A4D7040E4726000E4822C2
:10271000722B000E7323D8A03BD6809012008280CB
:10272000020E056EEE0EF3EC00F08290FA0EF2EC63
:1027300000F08082020E056EEE0EF3EC00F0809247
:10274000FA0EF2EC00F08080020E056EEE0EF3EC55
:1027500000F08090FA0EF2EC00F012003C0E026ED7
:10276000036A26C005F025501AEC01F0D8A4C1EF89
:1027700013F0810E896F950E746F810E756F3CEFAB
:1027800014F0780E026E036A26C005F025501AEC8C
:1027900001F0D8A4D4EF13F0800E896FFD0E746F92
:1027A000800E756F3CEF14F0F00E026E036A26C0C7
:1027B00005F025501AEC01F0D8A4E7EF13F0800ED5
:1027C000896FD70E746F3F0E756F3CEF14F0E00EFB
:1027D000026E010E036E26C005F025501AEC01F0C2
:1027E000D8A4FBEF13F0800E896F550E746F1F0E87
:1027F000756F3CEF14F0F40E026E010E036E26C0EE
:1028000005F025501AEC01F0D8A40EEF14F0800E5C
:10281000896F74691D0E756F3CEF14F0C00E026E67
:10282000030E036E26C005F025501AEC01F0D8A463
:1028300022EF14F0800E896F080E746F0F0E756F03
:102840003CEF14F0E80E026E030E036E26C005F096
:1028500025501AEC01F0D8A436EF14F0800E896FE1
:10286000690E746F0E0E756F3CEF14F0800E896F59
:10287000FD0E746F800E756F7451FF08146EFF0E9D
:102880007555156E14C002F015C003F0046A010EF0
:10289000056E38EC01F0D76E7451FF08146EFF0E10
:1028A0007555156E14C002F015C003F0046A010ED0
:1028B000056E38EC01F006C0D6FFF2941200D56A1E
:1028C000F294120036EC05F049DF29DF8082876B35
:1028D000F28E04D0F2BE1200DBEF14F0FBDFA00E8C
:1028E000F26EF8DF010E666F676BF4DF010E646F46
:1028F000656BF0DF949EEEDF89C0D5FFEBDF2282AF
:10290000E9DF66C002F067C003F071C005F07051E6
:1029100011EC01F0D8A4A3EF14F0DCDF64C002F0E6
:1029200065C003F026C005F0255011EC01F0D8A4D5
:102930009CEF14F0CFDFF2D7010E646F656B662B4E
:10294000000E6723DED72292948EB9DF78C002F0A2
:1029500079C003F0046A020E056E38EC01F006C07F
:1029600014F007C015F01450FF08296E010E15541D
:102970002A6E295078272A5079230268036879C083
:1029800005F078511AEC01F0D8A4CEEF14F0786B72
:10299000796B762B000E7723D1EF14F0782B000E95
:1029A00079230A0EF2EC00F03EEC10F00A0EF2EC85
:1029B00000F0809212007451FF08146EFF0E7555DE
:1029C000156E14C002F015C003F0046A010E056E06
:1029D00038EC01F0D76E7451FF08146EFF0E755578
:1029E000156E14C002F015C003F0046A010E056EE6
:1029F00038EC01F006C0D6FFF294E86A22B0E8682D
:102A0000146EE86A22B2E868166E14C002F016501E
:102A10002CEC01F0166E176E040016501710D8B487
:102A200081EF19F0828E25C002F026C003F045C068
:102A300004F046C005F038EC01F0146E03C015F048
:102A400064C002F065C003F014C004F015C005F0C6
:102A500038EC01F006C014F007C015F014C002F005
:102A600015C003F0056A010E0AEC01F0146E25C0D2
:102A700002F026C003F046C005F045500AEC01F014
:102A8000166E14C002F0165033EC01F0166E176E7D
:102A9000040016501710D8B4D1EF17F06B80040063
:102AA0006BA054EF15F0FBD7D00E6F6E04006DA035
:102AB0005BEF15F0FBD7020EFFEC00F03B0E6F6EE4
:102AC00004006DA065EF15F0FBD7020EFFEC00F0DF
:102AD0006B8004006BA06EEF15F0FBD7D10E6F6E0C
:102AE00004006DA075EF15F0FBD7020EFFEC00F0AF
:102AF0006B8604006DB07EEF15F0FBD76B886B9A88
:102B00006FCF4AF0050EFFEC00F06B8604006DB04D
:102B10008BEF15F0FBD76B886B9A6FCF49F0050EE2
:102B2000FFEC00F06B8604006DB098EF15F0FBD75A
:102B30006B886B9A6FCF4CF0050EFFEC00F06B8644
:102B400004006DB0A5EF15F0FBD76B886B9A6FCFC3
:102B50004BF0050EFFEC00F06B8604006DB0B2EF99
:102B600015F0FBD76B886B9A6FCF4EF0050EFFEC1C
:102B700000F06B8604006DB0BFEF15F0FBD76B88DB
:102B80006B8A6FCF4DF0030EFFEC00F06B840400F6
:102B90006BA4CCEF15F0FBD7030EFFEC00F06B80BD
:102BA00004006BA0D5EF15F0FBD7D00E6F6E0400BC
:102BB0006DA0DCEF15F0FBD7020EFFEC00F0430E2A
:102BC0006F6E04006DA0E6EF15F0FBD7020EFFEC70
:102BD00000F06B8004006BA0EFEF15F0FBD7D10E77
:102BE0006F6E04006DA0F6EF15F0FBD7020EFFEC40
:102BF00000F06B8604006DB0FFEF15F0FBD76B881B
:102C00006B9A6FCF50F0050EFFEC00F06B8604005E
:102C10006DB00CEF16F0FBD76B886B9A6FCF4FF04F
:102C2000050EFFEC00F06B8604006DB019EF16F096
:102C3000FBD76B886B9A6FCF52F0050EFFEC00F05C
:102C40006B8604006DB026EF16F0FBD76B886B9A8D
:102C50006FCF51F0050EFFEC00F06B8604006DB0F5
:102C600033EF16F0FBD76B886B9A6FCF54F0050EDD
:102C7000FFEC00F06B8604006DB040EF16F0FBD760
:102C80006B886B8A6FCF53F0030EFFEC00F06B8400
:102C900004006BA44DEF16F0FBD7030EFFEC00F021
:102CA0006B8004006BA056EF16F0FBD7180E6F6E0A
:102CB00004006DA05DEF16F0FBD7020EFFEC00F0F4
:102CC000030E6F6E04006DA067EF16F0FBD7020EC7
:102CD000FFEC00F06B8004006BA070EF16F0FBD7E8
:102CE000190E6F6E04006DA077EF16F0FBD7020E81
:102CF000FFEC00F06B8604006DB080EF16F0FBD7A0
:102D00006B886B9A6FCF55F0050EFFEC00F06B8669
:102D100004006DB08DEF16F0FBD76B886B9A6FCF08
:102D200056F0050EFFEC00F06B8604006DB09AEFD4
:102D300016F0FBD76B886B9A6FCF57F0050EFFEC40
:102D400000F06B8604006DB0A7EF16F0FBD76B8820
:102D50006B9A6FCF58F0050EFFEC00F06B86040005
:102D60006DB0B4EF16F0FBD76B886B9A6FCF59F04C
:102D7000050EFFEC00F06B8604006DB0C1EF16F09D
:102D8000FBD76B886B8A6FCF5AF0030EFFEC00F015
:102D90006B8404006BA4CEEF16F0FBD7030EFFECA0
:102DA00000F0180E836F0A0E826F110E816F6B8018
:102DB00004006BA0DDEF16F0FBD783C06FFF0400AB
:102DC0006DA0E4EF16F0FBD7020EFFEC00F082C01E
:102DD0006FFF04006DA0EEEF16F0FBD7020EFFECC4
:102DE00000F081C06FFF010EFFEC00F004006DA049
:102DF000FBEF16F0FBD7020EFFEC00F06B84040033
:102E00006BA404EF17F0FBD7030EFFEC00F08292E7
:102E1000060EC96E010EFFEC00F08282010EFFEC7F
:102E200000F08292120EC96E010EFFEC00F077C026
:102E3000C9FF010EFFEC00F076C0C9FF010EFFECE8
:102E400000F079C0C9FF010EFFEC00F078C0C9FFA7
:102E5000010EFFEC00F04AC0C9FF010EFFEC00F0CC
:102E600049C0C9FF010EFFEC00F04CC0C9FF010EC4
:102E7000FFEC00F04BC0C9FF010EFFEC00F04EC0AC
:102E8000C9FF010EFFEC00F04DC0C9FF010EFFECC1
:102E900000F050C0C9FF010EFFEC00F04FC0C9FFA9
:102EA000010EFFEC00F052C0C9FF010EFFEC00F074
:102EB00051C0C9FF010EFFEC00F054C0C9FF010E64
:102EC000FFEC00F053C0C9FF010EFFEC00F056C04C
:102ED000C9FF010EFFEC00F055C0C9FF010EFFEC69
:102EE00000F058C0C9FF010EFFEC00F057C0C9FF49
:102EF000010EFFEC00F05AC0C9FF010EFFEC00F01C
:102F000059C0C9FF010EFFEC00F08282120E782535
:102F1000146E000E7921156EF80E026E036815C04E
:102F200005F014501AEC01F0D8A49EEF17F0762BA0
:102F3000000E7723786B796BCFEF17F0120E7825A0
:102F4000146E000E7921156E14C002F015C003F046
:102F5000046A020E056E38EC01F006C014F007C0DA
:102F600015F0F80E026E010E036E15C005F0145038
:102F70001AEC01F0D8A4CBEF17F0080E7825146EE8
:102F8000000E7921156E120E1424786F000E152094
:102F9000796FCFEF17F0120E7827000E79237DEFAF
:102FA00019F06B8004006BA0D7EF17F0FBD7D00EA1
:102FB0006F6E04006DA0DEEF17F0FBD7020EFFEC82
:102FC00000F03B0E6F6E04006DA0E8EF17F0FBD72A
:102FD000020EFFEC00F06B8004006BA0F1EF17F025
:102FE000FBD7D10E6F6E04006DA0F8EF17F0FBD782
:102FF000020EFFEC00F06B8604006DB001EF18F0DC
:10300000FBD76B886B9A6FCF4AF0050EFFEC00F090
:103010006B8604006DB00EEF18F0FBD76B886B9ACF
:103020006FCF49F0050EFFEC00F06B8604006DB029
:103030001BEF18F0FBD76B886B9A6FCF4CF0050E27
:10304000FFEC00F06B8604006DB028EF18F0FBD7A2
:103050006B886B9A6FCF4BF0050EFFEC00F06B8620
:1030600004006DB035EF18F0FBD76B886B9A6FCF0B
:103070004EF0050EFFEC00F06B8604006DB042EFE1
:1030800018F0FBD76B886B8A6FCF4DF0030EFFEC07
:1030900000F06B8404006BA44FEF18F0FBD7030E15
:1030A000FFEC00F06B8004006BA058EF18F0FBD72A
:1030B000D00E6F6E04006DA05FEF18F0FBD7020E0C
:1030C000FFEC00F0430E6F6E04006DA069EF18F086
:1030D000FBD7020EFFEC00F06B8004006BA072EFD8
:1030E00018F0FBD7D10E6F6E04006DA079EF18F0C9
:1030F000FBD7020EFFEC00F06B8604006DB082EF90
:1031000018F0FBD76B886B9A6FCF50F0050EFFEC71
:1031100000F06B8604006DB08FEF18F0FBD76B8862
:103120006B9A6FCF4FF0050EFFEC00F06B8604003A
:103130006DB09CEF18F0FBD76B886B9A6FCF52F095
:10314000050EFFEC00F06B8604006DB0A9EF18F0DF
:10315000FBD76B886B9A6FCF51F0050EFFEC00F038
:103160006B8604006DB0B6EF18F0FBD76B886B9AD6
:103170006FCF54F0050EFFEC00F06B8604006DB0CD
:10318000C3EF18F0FBD76B886B8A6FCF53F0030E39
:10319000FFEC00F06B8404006BA4D0EF18F0FBD7B9
:1031A000030EFFEC00F08292060EC96E010EFFECDA
:1031B00000F08282010EFFEC00F08292120EC96EC6
:1031C000010EFFEC00F077C0C9FF010EFFEC00F02C
:1031D00076C0C9FF010EFFEC00F079C0C9FF010EF7
:1031E000FFEC00F078C0C9FF010EFFEC00F04AC010
:1031F000C9FF010EFFEC00F049C0C9FF010EFFEC52
:1032000000F04CC0C9FF010EFFEC00F04BC0C9FF3D
:10321000010EFFEC00F04EC0C9FF010EFFEC00F004
:103220004DC0C9FF010EFFEC00F050C0C9FF010EF8
:10323000FFEC00F04FC0C9FF010EFFEC00F052C0E0
:10324000C9FF010EFFEC00F051C0C9FF010EFFECF9
:1032500000F054C0C9FF010EFFEC00F053C0C9FFDD
:10326000010EFFEC00F082820C0E7825146E000E29
:103270007921156EF80E026E036815C005F0145022
:103280001AEC01F0D8A44CEF19F0762B000E77233E
:10329000786B796B7DEF19F00C0E7825146E000EAB
:1032A0007921156E14C002F015C003F0046A020EF5
:1032B000056E38EC01F006C014F007C015F0F80EEA
:1032C000026E010E036E15C005F014501AEC01F0E9
:1032D000D8A479EF19F0080E7825146E000E792124
:1032E000156E0C0E1424786F000E1520796F7DEF8B
:1032F00019F00C0E7827000E7923829E642B000EA5
:10330000652310006AEC14F09EEF19F06AEC14F0DB
:10331000939E6AEC14F0810E1E6E0F0E206E800ECE
:103320001C6E060E016E0C0E3AEC00F06AEC14F006
:10333000938E6AEC14F00A0EF2EC00F06AEC14F0D2
:1033400012006AEC14F0939E6AEC14F0810E1E6E6B
:103350000F0E206E800E1C6E060E016E0E0E3AECE5
:1033600000F06AEC14F0938E6AEC14F012006AEC30
:1033700014F0939E6AEC14F0810E1E6E0F0E206EF8
:10338000800E1C6E060E016E0F0E3AEC00F06AEC19
:1033900014F0938E6AEC14F012006AEC14F0939E11
:1033A0006AEC14F0810E1E6E0F0E206E800E1C6EE5
:1033B000060E016E100E3AEC00F0400E3AEC00F0F2
:1033C0006AEC14F0938E6AEC14F012006AEC14F0BC
:1033D000939E6AEC14F0810E1E6E0F0E206E800E0E
:1033E0001C6E060E016E100E3AEC00F0540E3AEC14
:1033F00000F06AEC14F0938E6AEC14F012006AECA0
:1034000014F0939E6AEC14F0810E1E6E0F0E206E67
:10341000800E1C6E060E016E100E3AEC00F0680E67
:103420003AEC00F06AEC14F0938E6AEC14F012009F
:103430006AEC14F0939E6AEC14F0810E1E6E0F0E6F
:10344000206E800E1C6E060E016E100E3AEC00F01F
:103450007C0E3AEC00F06AEC14F0938E6AEC14F0F7
:02346000120058
:020000040030CA
:03000100081F3F96
:02000500BD81BB
:060008000FC00FE00F40E5
:00000001FF
