:020000040000FA
:0400000077EF01F0A5
:020008001200E4
:0800180012000A6EF80BE8303B
:10002000E830E830E926D8B0EA2AD1EC00F00A6ED0
:10003000EF1474EF01F0076A066E018E270E056E4D
:10004000100E0CD8030E056EE80E08D8056A640E73
:1000500005D8056A0A0E02D806500BD0046E075068
:10006000036E0650026E38EC01F0E866019E01BE98
:100070001200300F086E20C0EAFF20C0E2FF1E50C1
:10008000E96E120FE16E090E096ED89007D808329A
:10009000092EFCD7D88002D874EF01F001A60BD04E
:1000A000EF501C1001A41C18EF6EE7501C10D8A0D4
:1000B0001C18E76E0AD0EF501C10D8A01C1801B411
:1000C0001C18EF6E1C1CE71600D00134060BEA0F5B
:1000D000F66EF76A000EF722F86A0900F550036E13
:1000E0000800F550000000EF01F0019D033D0064A1
:1000F0000D0120C0EAFF1EC0E9FF0E50026E0F5036
:10010000036E046A056A040020D80CE3E86A04065A
:10011000055AF9E20206035A17E3780E046E010E3F
:10012000056EF1D729D80A6A080E056E26D80DD8B3
:10013000D8B00A3E0432052EF9D70DAA0A6A0DBAC4
:10014000049E1BD8D88004501200120EE9261C50C1
:10015000EF121EC0E9FFEF140DBC1C18FF0F1200B8
:10016000D96E0B0603E2D88074EF01F06EEC01F05B
:10017000D8A01200DE6EF5D7018C0D501F0B000FBA
:10018000036E0C50100FD8B0032A01AC00EF01F041
:10019000019CD8900332E830D8900332E83000EF69
:1001A00001F0010E0AB0E8440AB2E8440AB2E84499
:1001B0000AB4E8381200A66AA680A850A94AAA2A5A
:1001C00074EF01F0E86AA86EA66AA684550EA76EC1
:1001D000AA0EA76EA682A6B2FED7A694A94AAA2AFC
:1001E00074EF01F0056A046EE86A0406055AD8A0A7
:1001F00074EF01F0030E036EE70E02D8F5D7036A21
:10020000FD0F026E01D00206040000D0E86A035A16
:10021000FAE21200046E020E0FD0046E030E0CD030
:10022000056A046E010E08D0046E060E05D0046E39
:10023000040E02D0046E050E0A6E0550035C02E146
:100240000450025C040ED8B0010ED8B4020E0A1499
:10025000D8A4FF0E74EF01F0E866FF0E0214D8A4D4
:10026000FF0E74EF01F00210D8A4FF0E74EF01F03E
:10027000076A066A100E086E033406360736045005
:10028000065E0550075A05E204500626055007226F
:10029000D89002360336082EEFD7025074EF01F0E3
:1002A00004500802F3CF06F0F4CF07F0055009021E
:1002B000F3CF02F0F4CF03F00802F3500726F45016
:1002C0000222E86A032204500902F3500726F45080
:1002D0000222E86A0322065074EF01F0E96EFB6A1D
:1002E0001350FA6E1250F96E000104001200E80E6D
:1002F000D36E800ED26E400E9B6EF26A616A0F0161
:10030000386B396B3A6B010E966E00019488938AB4
:100310009388938293849380938E948E938C938608
:1003200094909290929294929496949A92968290AB
:10033000809080928082030E056EE80E54DF8092DA
:10034000939E810E1E6E0F0E206E800E1C6E060E8A
:10035000016E0C0E8FDE0A0E45DF810E1E6E0F0E33
:10036000206E800E1C6E060E016E0E0E83DE100EC9
:1003700081DE400E7FDE440E7DDE650E7BDE760E76
:1003800079DE310E77DE310E75DE4D0E73DE500EE6
:1003900071DE550E6FDE2D0E6DDE350E6BDE410EFD
:1003A00069DE2D0E67DE350E65DE420E63DE2D0E34
:1003B00061DE350E5FDE430E5DDE2D0E5BDE350E3B
:1003C00059DE440E57DE810E1E6E0F0E206E800E1B
:1003D0001C6E060E016E100E4DDE540E4BDE330EFB
:1003E00049DE2F0E47DE340E45DE2F0E43DE320E81
:1003F00041DE300E3FDE310E3DDE380E3BDE938EA9
:10040000040081AA08EF02F00300640EEBDEF8D7C7
:10041000FA0EE8DE8280010E056E2C0EE4DE82907C
:100420000A0EEDDE8080010E056E2C0EDCDE809063
:100430000A0EE5DE8082010E056E2C0ED4DE80925F
:100440000A0EDDDE82800A0EDADE8282010ED7DE3F
:100450008286010ED4DE829A010ED1DE8182010EE7
:10046000CEDE8184010ECBDE809638EC07F0E3EC23
:1004700004F032EC07F0A9EC0EF064EC0CF00A0E7C
:10048000B1DE1AEC1CF082806BEF02F0939E810EBD
:100490001E6E0F0E206E800E1C6E060E016E100E6C
:1004A0003AEC00F0400E3AEC00F0530E3AEC00F05B
:1004B000540E3AEC00F0410E3AEC00F04E0E3AECDD
:1004C00000F0440E3AEC00F0420E3AEC00F0590E07
:1004D0003AEC00F0938E040081BAE1EF04F08290D0
:1004E0009DEF02F0939E810E1E6E0F0E206E800E09
:1004F0001C6E060E016E100E3AEC00F0400E3AEC47
:1005000000F0520E3AEC00F0550E3AEC00F04E0EB0
:100510003AEC00F0200E3AEC00F0540E3AEC00F009
:10052000450E3AEC00F0530E3AEC00F0540E3AEC63
:1005300000F03F0E3AEC00F0938E070E056ED00EE1
:1005400052DE040081BA8BEF04F08080E8EF02F005
:10055000939E810E1E6E0F0E206E800E1C6E060E78
:10056000016E100E3AEC00F0400E3AEC00F0530E23
:100570003AEC00F0450E3AEC00F04E0E3AEC00F08A
:10058000440E3AEC00F0200E3AEC00F0440E3AEC47
:1005900000F0410E3AEC00F0540E3AEC00F0410E3F
:1005A0003AEC00F0200E3AEC00F0540E3AEC00F079
:1005B0004F0E3AEC00F0200E3AEC00F0500E3AEC00
:1005C00000F0430E3AEC00F03F0E3AEC00F0938E50
:1005D000070E056ED00E07DE040081BA30EF04F07E
:1005E000010E0DDE8082010E0ADE809041EF03F0E5
:1005F000939E810E1E6E0F0E206E800E1C6E060ED8
:10060000016E100E3AEC00F0400E3AEC00F0450E90
:100610003AEC00F0520E3AEC00F0410E3AEC00F0E9
:10062000530E3AEC00F0450E3AEC00F03F0E3AEC77
:1006300000F0200E3AEC00F0200E3AEC00F0200E14
:100640003AEC00F0200E3AEC00F0200E3AEC00F00C
:10065000200E3AEC00F0200E3AEC00F0200E3AECBE
:1006600000F0200E3AEC00F0200E3AEC00F0200EE4
:100670003AEC00F0200E3AEC00F0200E3AEC00F0DC
:10068000938E070E056ED00EF3EC00F0040081BAD5
:1006900052EF03F0809282808080E1EC09F036D640
:1006A0002EEF04F0808282808090ABEF03F01AEC92
:1006B0001CF0939E810E1E6E0F0E206E800E1C6E1F
:1006C000060E016E100E3AEC00F0400E3AEC00F00F
:1006D000530E3AEC00F0450E3AEC00F0430E3AECC3
:1006E00000F0540E3AEC00F04F0E3AEC00F0520ECF
:1006F0003AEC00F0200E3AEC00F0450E3AEC00F037
:10070000520E3AEC00F0410E3AEC00F0530E3AEC87
:1007100000F0450E3AEC00F03F0E3AEC00F0200EEF
:100720003AEC00F0200E3AEC00F0200E3AEC00F02B
:10073000200E3AEC00F0200E3AEC00F0200E3AECDD
:1007400000F0200E3AEC00F0200E3AEC00F0200E03
:100750003AEC00F0938E040081BAB0EF03F0FBD7BF
:100760008290386A396A38C002F039C003F0056AED
:100770000C0E11EC01F0D8A427EF04F0040081BAAC
:1007800018EF04F012EF04F01AEC1CF0939E810EA7
:100790001E6E0F0E206E800E1C6E060E016E100E69
:1007A0003AEC00F0400E3AEC00F0420E3AEC00F069
:1007B000550E3AEC00F04C0E3AEC00F04B0E3AECD1
:1007C00000F0200E3AEC00F0450E3AEC00F0520E2C
:1007D0003AEC00F0410E3AEC00F0530E3AEC00F027
:1007E000490E3AEC00F04E0E3AEC00F0470E3AECAF
:1007F00000F03F0E3AEC00F0200E3AEC00F0200E34
:100800003AEC00F0200E3AEC00F0200E3AEC00F04A
:10081000200E3AEC00F0200E3AEC00F0200E3AECFC
:1008200000F0938E8280808296EC08F02BEF04F02B
:1008300080827D0EF2EC00F0809280807D0EF2ECE2
:1008400000F08090382A000E3922D8A08CD7828000
:10085000808220EC08F0809208EF02F089EF04F02B
:100860008290808082EF04F01AEC1CF0939E810E3F
:100870001E6E0F0E206E800E1C6E060E016E100E88
:100880003AEC00F0400E3AEC00F0530E3AEC00F077
:10089000450E3AEC00F04E0E3AEC00F0440E3AEC05
:1008A00000F0490E3AEC00F04E0E3AEC00F0470E24
:1008B0003AEC00F0200E3AEC00F0440E3AEC00F076
:1008C000410E3AEC00F0540E3AEC00F0410E3AECD6
:1008D00000F0200E3AEC00F0540E3AEC00F04F0E0F
:1008E0003AEC00F0200E3AEC00F0500E3AEC00F03A
:1008F000430E3AEC00F0200E3AEC00F0200E3AECF9
:1009000000F0938EC9EC13F01AEC1CF0809008EF05
:1009100002F0E1EF04F0DBEF04F01AEC1CF0939E20
:10092000810E1E6E0F0E206E800E1C6E060E016E66
:10093000100E3AEC00F0400E3AEC00F0520E3AEC99
:1009400000F0550E3AEC00F04E0E3AEC00F04E0E70
:100950003AEC00F0490E3AEC00F04E0E3AEC00F0A2
:10096000470E3AEC00F0200E3AEC00F0540E3AEC50
:1009700000F0450E3AEC00F0530E3AEC00F0540E45
:100980003AEC00F0200E3AEC00F0200E3AEC00F0C9
:10099000200E3AEC00F0200E3AEC00F0200E3AEC7B
:1009A00000F0200E3AEC00F0200E3AEC00F0200EA1
:1009B0003AEC00F0938EC4EC16F01AEC1CF01AEC32
:1009C0001CF043EF02F093849382100E6D6E280E9C
:1009D0006C6E6B6A696A110E6E6EF2EC04F0F9ECE3
:1009E00004F012006B8004006BA0F8EF04F0FBD75A
:1009F00012006B8404006BA4FFEF04F0FBD712001D
:100A0000F1DF7EC06FFF04006DA008EF05F0FBD79B
:100A1000020EFFEC00F07DC06FFF04006DA012EF2E
:100A200005F0FBD7020EFFEC00F07CC06FFF010E5B
:100A3000FFEC00F004006DA01FEF05F0FBD7020EE5
:100A4000FFEC00F0D6DF120078EC05F0B7EC05F013
:100A5000F9EC05F088EC06F0D00E7E6F6B0E7D6F22
:100A6000800E7C6FCDDF640EF2EC00F0D00E7E6F56
:100A70006B0E7D6F010E7C6FC3DFD00E7E6F6C0E30
:100A80007D6F7C6BBDDFD00E7E6F1A0E7D6F77C0E1
:100A90007CF0B6DFD00E7E6F1B0E7D6F78C07CF0D1
:100AA000AFDFD00E7E6F1C0E7D6F5DC07CF0A8DFC7
:100AB000D00E7E6F1D0E7D6F5CC07CF0A1DFD00E6E
:100AC0007E6F370E7D6F120E7C6F9ADFD00E7E6FB9
:100AD000380E7D6F010E7C6F93DF0A0EF2EC00F092
:100AE000D00E7E6F0A0E7D6F110E7C6F89DF1200B3
:100AF000020E026E036A27C005F026501AEC01F0C0
:100B0000D8A487EF05F05D985D96B6EF05F0040E6A
:100B1000026E036A27C005F026501AEC01F0D8A433
:100B200096EF05F05D985D86B6EF05F0080E026E53
:100B3000036A27C005F026501AEC01F0D8A4A5EFEF
:100B400005F05D885D96B6EF05F0100E026E036A43
:100B500027C005F026501AEC01F0D8A4B4EF05F038
:100B60005D885D86B6EF05F05D885D961200FA0E31
:100B7000026E036A37C005F036501AEC01F0D8A4B3
:100B8000C6EF05F078997897F8EF05F0F40E026E4D
:100B9000010E036E37C005F036501AEC01F0D8A4F0
:100BA000D6EF05F078997887F8EF05F0E80E026E39
:100BB000030E036E37C005F036501AEC01F0D8A4CE
:100BC000E6EF05F078897897F8EF05F0D00E026E21
:100BD000070E036E37C005F036501AEC01F0D8A4AA
:100BE000F6EF05F078897887F8EF05F0789978873F
:100BF0001200050E026E036A23C005F022501AECA3
:100C000001F0D8A40AEF06F05C865C845C825C90FC
:100C100087EF06F00A0E026E036A23C005F0225029
:100C20001AEC01F0D8A41BEF06F05C865C845C92A1
:100C30005C8087EF06F0140E026E036A23C005F095
:100C400022501AEC01F0D8A42CEF06F05C865C84EC
:100C50005C925C9087EF06F0290E026E036A23C057
:100C600005F022501AEC01F0D8A43DEF06F05C86A6
:100C70005C945C825C8087EF06F05C0E026E036A17
:100C800023C005F022501AEC01F0D8A44EEF06F074
:100C90005C865C945C825C9087EF06F0B80E026E16
:100CA000036A23C005F022501AEC01F0D8A45FEFCC
:100CB00006F05C865C945C925C8087EF06F0CC0E5C
:100CC000026E010E036E23C005F022501AEC01F0F3
:100CD000D8A471EF06F05C865C945C925C9087EF20
:100CE00006F06A0E026E040E036E23C005F0225059
:100CF0001AEC01F0D8A483EF06F05C965C945C9249
:100D00005C9087EF06F05C865C945C825C901200DD
:100D1000050E026E036A35C005F034501AEC01F07E
:100D2000D8A49AEF06F078837881778577837791D6
:100D300031EF07F00A0E026E036A35C005F0345039
:100D40001AEC01F0D8A4ACEF06F0788378817785AF
:100D50007793778131EF07F0140E026E036A35C086
:100D600005F034501AEC01F0D8A4BEEF06F07883F9
:100D7000788177857793779131EF07F0290E026EAE
:100D8000036A35C005F034501AEC01F0D8A4D0EF56
:100D900006F07883788177957783778131EF07F054
:100DA0005C0E026E036A35C005F034501AEC01F097
:100DB000D8A4E2EF06F078837881779577837791EE
:100DC00031EF07F0B80E026E036A35C005F03450FB
:100DD0001AEC01F0D8A4F4EF06F0788378817795C7
:100DE0007793778131EF07F0FA0E026E036A35C010
:100DF00005F034501AEC01F0D8A406EF07F0788320
:100E0000788177957793779131EF07F0100E026E26
:100E10000E0E036E35C005F034501AEC01F0D8A464
:100E200019EF07F07893788177957793779131EF81
:100E300007F0600E026E220E036E35C005F03450CE
:100E40001AEC01F0D8A42CEF07F0789378917795FD
:100E50007793779131EF07F078837881779577836F
:100E600077911200C76A300EC66E100ECB6E12005C
:100E700037EC13F08292060EC96E0400C7B042EF41
:100E800007F0FBD78282010EFFEC00F08292010E88
:100E9000C96E0400C7B04EEF07F0FBD7C96A040063
:100EA000C7B054EF07F0FBD7C96A0400C7B05AEFC8
:100EB00007F0FBD7C00EC96E0400C7B061EF07F0A2
:100EC000FBD78282030E056EE80EF3EC00F01200F1
:100ED000C9DF386A396A38C002F039C003F0056AE0
:100EE000FB0E11EC01F0D8A482EF07F038509C0FF4
:100EF000E96E020E3920EA6EEF6A382A000E3922B6
:100F0000D8A0E9D7386A396A38C002F039C003F08E
:100F1000056AFB0E11EC01F0D8A49BEF07F03850E6
:100F2000980FE96E030E3920EA6EEF6A382A000E38
:100F30003922D8A0E9D78292130EC96E010EFFECB8
:100F400000F068C0C9FF010EFFEC00F067C0C9FFE8
:100F5000010EFFEC00F06AC0C9FF010EFFEC00F0CB
:100F600069C0C9FF010EFFEC00F0386A396A38C069
:100F700002F039C003F0056AFB0E11EC01F0D8A4B1
:100F8000D6EF07F0C96A010EFFEC00F038509C0F55
:100F9000E96E020E3920EA6EC9CFEFFF010EFFECB9
:100FA00000F0382A000E3922D8A0E1D7386A396A11
:100FB00038C002F039C003F0056AFB0E11EC01F0F5
:100FC000D8A4F7EF07F0C96A010EFFEC00F0385023
:100FD000980FE96E030E3920EA6EC9CFEFFF010EBC
:100FE000FFEC00F0382A000E3922D8A0E1D7828227
:100FF0006951FF08146EFF0E6A55156E14C002F099
:1010000015C003F0020E056E000E17EC01F0D8A417
:1010100010EF08F0000E6927020E6A231FEF08F098
:10102000672B000E68236951FF08146EFF0E6A5586
:10103000156E1450FF08696F010E15546A6F120087
:1010400073C002F074C003F0040E046E056A38EC3D
:1010500001F0146E03C015F014282E6E000E15203A
:101060002F6E00DF386A396A38C002F039C003F0E9
:101070002FC005F02E5011EC01F0D8A493EF08F02A
:1010800038C008F039C009F0040E046E056A50EC4F
:1010900001F0676F07C068F0696B6A6B8292060E99
:1010A000C96E010EFFEC00F08282010EFFEC00F031
:1010B0008292D80EC96E010EFFEC00F068C0C9FF25
:1010C000010EFFEC00F067C0C9FF010EFFEC00F05D
:1010D0006AC0C9FF010EFFEC00F08282030E056EAC
:1010E000E80EF3EC00F083810400D89683A1D88643
:1010F000D8B68EEF08F08292050EC96E010EFFEC95
:1011000000F0C96A010EFFEC00F0C9CF83F08282C3
:10111000030E056EE80EF3EC00F0E6D7382A000E59
:101120003922D8A0A1D7426A436A12009BDE82927C
:10113000060EC96E010EFFEC00F082828292600EF4
:10114000C96E010EFFEC00F08282030E056EE80E00
:10115000F3EC00F083810400D89683A1D886D8B63A
:10116000C5EF08F08292050EC96E010EFFEC00F08B
:10117000C96A010EFFEC00F0C9CF83F08282030E32
:10118000056EE80EF3EC00F0E6D7426A436A1200FF
:10119000386A396A38C002F039C003F0056A0A0EAD
:1011A00011EC01F0D8A4DDEF08F0876BB0EC09F08A
:1011B000382A000E3922D8A0EDD712000D0E876F05
:1011C000B0EC09F0010EF2EC00F00A0E876FB0EC03
:1011D00009F01200796B0400020E795DD8B0AFEF10
:1011E00009F0040079510008D8A402EF09F086C084
:1011F00002F0036A100E046E056A38EC01F07A6F93
:101200000CEF09F086C002F0036A100E046E056A46
:1012100038EC01F006C07AF004007A510008D8A436
:1012200016EF09F0300E876FAAEF09F004007A512B
:101230000108D8A420EF09F0310E876FAAEF09F05A
:1012400004007A510208D8A42AEF09F0320E876F01
:10125000AAEF09F004007A510308D8A434EF09F08A
:10126000330E876FAAEF09F004007A510408D8A45E
:101270003EEF09F0340E876FAAEF09F004007A51AF
:101280000508D8A448EF09F0350E876FAAEF09F0DA
:1012900004007A510608D8A452EF09F0360E876F81
:1012A000AAEF09F004007A510708D8A45CEF09F00E
:1012B000370E876FAAEF09F004007A510808D8A406
:1012C00066EF09F0380E876FAAEF09F004007A5133
:1012D0000908D8A470EF09F0390E876FAAEF09F05A
:1012E00004007A510A08D8A47AEF09F0410E876FFA
:1012F000AAEF09F004007A510B08D8A484EF09F092
:10130000420E876FAAEF09F004007A510C08D8A4A6
:101310008EEF09F0430E876FAAEF09F004007A51AF
:101320000D08D8A498EF09F0440E876FAAEF09F0D2
:1013300004007A510E08D8A4A2EF09F0450E876F79
:10134000AAEF09F004007A510F08D8A4AAEF09F017
:10135000460E876FB0EC09F0792BD8A03CD712006D
:10136000949E829E020EFFEC00F0E0EC09F0E0ECAF
:1013700009F05E6A0400080E5E5CD8B0D3EF09F095
:10138000870EE96EEA6A5E50000F0DEC00F0D8B4EB
:10139000829ED8A4828E020EFFEC00F0E0EC09F0F1
:1013A0005E2AD8A0E7D7030EFFEC00F0828E020E73
:1013B000FFEC00F0E0EC09F0E0EC09F0948E120094
:1013C000120025EF0AF01AEC1CF0939E810E1E6E9F
:1013D0000F0E206E800E1C6E060E016E100E3AEC83
:1013E00000F0400E3AEC00F0570E3AEC00F0410EDF
:1013F0003AEC00F0490E3AEC00F0540E3AEC00F0F2
:10140000490E3AEC00F04E0E3AEC00F0470E3AEC82
:1014100000F0200E3AEC00F0460E3AEC00F04F0ED1
:101420003AEC00F0520E3AEC00F0200E3AEC00F0EC
:10143000440E3AEC00F0410E3AEC00F0540E3AEC57
:1014400000F0410E3AEC00F0938E810E1E6E0F0EEE
:10145000206E010E1C6E540E0C6E0D6A100E0E6E78
:10146000270E0F6E79EC00F0D8A08FEF0DF05A0820
:10147000D8A4F8D71C0E0B6EF20E126E136ADA6A3D
:10148000880EB0EC00F0D8A08FEF0DF07A6BB1ECC5
:101490000DF07BC008F0096A046A100E056E50EC6E
:1014A00001F0246E07C025F0010E7A6FB1EC0DF04B
:1014B0007BC008F0096A046A010E056E50EC01F069
:1014C000146E07C015F01450242615502522020E64
:1014D0007A6FB1EC0DF07BC008F0096A100E046E53
:1014E000056A50EC01F0146E07C015F01450242664
:1014F00015502522030E7A6FB1EC0DF07B51242696
:10150000E86A2522040E7A6FB1EC0DF07BC008F07A
:10151000096A046A100E056E50EC01F0406E07C0B7
:1015200041F0050E7A6FB1EC0DF07BC008F0096A4E
:10153000046A010E056E50EC01F0146E07C015F040
:101540001450402615504122060E7A6FB1EC0DF072
:101550007BC008F0096A100E046E056A50EC01F0B9
:10156000146E07C015F01450402615504122070E86
:101570007A6FB1EC0DF07B514026E86A4122080EEB
:101580007A6FB1EC0DF07BC008F0096A046A100EA6
:10159000056E50EC01F06D6F07C06EF0090E7A6FAA
:1015A000B1EC0DF07BC008F0096A046A010E056E0B
:1015B00050EC01F0146E07C015F014506D27155053
:1015C0006E230A0E7A6FB1EC0DF07BC008F0096A49
:1015D000100E046E056A50EC01F0146E07C015F091
:1015E00014506D2715506E230B0E7A6FB1EC0DF071
:1015F0007B516D27E86A6E230C0E7A6FB1EC0DF00B
:101600007BC008F0096A046A100E056E50EC01F008
:10161000266E07C027F00D0E7A6FB1EC0DF07BC07F
:1016200008F0096A046A010E056E50EC01F0146EB0
:1016300007C015F014502626155027220E0E7A6F7B
:10164000B1EC0DF07BC008F0096A100E046E056A5B
:1016500050EC01F0146E07C015F0145026261550FA
:1016600027220F0E7A6FB1EC0DF07B512626E86A27
:101670002722100E7A6FB1EC0DF07BC008F0096ADA
:10168000046A100E056E50EC01F0366E07C037F09C
:10169000110E7A6FB1EC0DF07BC008F0096A046A94
:1016A000010E056E50EC01F0146E07C015F01450D9
:1016B000362615503722120E7A6FB1EC0DF07BC032
:1016C00008F0096A100E046E056A50EC01F0146E01
:1016D00007C015F01450362615503722130E7A6FB6
:1016E000B1EC0DF07B513626E86A3722140E7A6F82
:1016F000B1EC0DF07BC008F0096A046A100E056EAB
:1017000050EC01F0226E07C023F0150E7A6FB1EC99
:101710000DF07BC008F0096A046A010E056E50ECFA
:1017200001F0146E07C015F0145022261550232224
:10173000160E7A6FB1EC0DF07BC008F0096A100E3E
:10174000046E056A50EC01F0146E07C015F01450D9
:10175000222615502322170E7A6FB1EC0DF07B5123
:101760002226E86A2322180E7A6FB1EC0DF07BC0B6
:1017700008F0096A046A100E056E50EC01F0346E30
:1017800007C035F0190E7A6FB1EC0DF07BC008F090
:10179000096A046A010E056E50EC01F0146E07C070
:1017A00015F014503426155035221A0E7A6FB1EC0C
:1017B0000DF07BC008F0096A100E046E056A50EC4B
:1017C00001F0146E07C015F0145034261550352260
:1017D0001B0E7A6FB1EC0DF07B513426E86A35228E
:1017E000A96AAA6A2450E3EC00F02550E3EC00F06B
:1017F0000A0EF2EC00F0020EA96EAA6A4050E3EC69
:1018000000F04150E3EC00F00A0EF2EC00F0040EA0
:10181000A96EAA6A6D51E3EC00F06E51E3EC00F0A2
:101820000A0EF2EC00F0060EA96EAA6A2650E3EC4E
:1018300000F02750E3EC00F00A0EF2EC00F0080E86
:10184000A96EAA6A3650E3EC00F03750E3EC00F0E2
:101850000A0EF2EC00F00A0EA96EAA6A2250E3EC1E
:1018600000F02350E3EC00F00A0EF2EC00F00C0E56
:10187000A96EAA6A3450E3EC00F03550E3EC00F0B6
:101880000A0EF2EC00F0010E386E396A38C002F030
:1018900039C003F0056A040E11EC01F0D8A462EF20
:1018A0000CF08280010E056E5E0EF3EC00F082906B
:1018B000010E056E5E0EF3EC00F0382A000E3922A0
:1018C000D8A0E4D780901200246A256A406A416A51
:1018D0006D6B6E6B266A276A366A376A226A236ADC
:1018E000346A356AA96AAA6ADBEC00F0246EDBEC84
:1018F00000F0256E0A0EF2EC00F0020EA96EAA6A44
:10190000DBEC00F0406EDBEC00F0416E0A0EF2EC16
:1019100000F0040EA96EAA6ADBEC00F06D6FDBEC40
:1019200000F06E6F0A0EF2EC00F0060EA96EAA6AC5
:10193000DBEC00F0266EDBEC00F0276E0A0EF2EC1A
:1019400000F0080EA96EAA6ADBEC00F0366EDBEC44
:1019500000F0376E0A0EF2EC00F00A0EA96EAA6AC9
:10196000DBEC00F0226EDBEC00F0236E0A0EF2ECF2
:1019700000F00C0EA96EAA6ADBEC00F0346EDBEC12
:1019800000F0356E0A0EF2EC00F01AEC1CF0026862
:10199000036825C005F024501AEC01F0D8A4D4EF58
:1019A0000CF0780E246E256A0268036841C005F0C9
:1019B00040501AEC01F0D8A4E1EF0CF0780E406E24
:1019C000416A026803686EC005F06D511AEC01F0BF
:1019D000D8A4EEEF0CF0050E6D6F6E6B0268036815
:1019E00027C005F026501AEC01F0D8A4FBEF0CF04C
:1019F000080E266E276A0268036837C005F0365065
:101A00001AEC01F0D8A409EF0DF0E80E366E030EC3
:101A1000376E0268036823C005F022501AEC01F00B
:101A2000D8A416EF0DF05C0E226E236A02680368DC
:101A300035C005F034501AEC01F0D8A423EF0DF0B6
:101A40005C0E346E356A12003FDF80C087F0B0EC68
:101A500009F0050EFFEC00F025C087F0B0EC09F0AE
:101A6000050EFFEC00F024C087F0B0EC09F0050E85
:101A7000FFEC00F041C087F0B0EC09F0050EFFEC80
:101A800000F040C087F0B0EC09F0050EFFEC00F06C
:101A90006EC087F0B0EC09F0050EFFEC00F06DC0F1
:101AA00087F0B0EC09F0050EFFEC00F027C087F0DE
:101AB000B0EC09F0050EFFEC00F026C087F0B0ECAA
:101AC00009F0050EFFEC00F037C087F0B0EC09F02C
:101AD000050EFFEC00F036C087F0B0EC09F0050E03
:101AE000FFEC00F023C087F0B0EC09F0050EFFEC2E
:101AF00000F022C087F0B0EC09F0050EFFEC00F01A
:101B000035C087F0B0EC09F0050EFFEC00F034C0F2
:101B100087F0B0EC09F0050EFFEC00F012008290A7
:101B2000010E386E396A38C002F039C003F0056A18
:101B3000040E11EC01F0D8A4AFEF0DF08082010E7D
:101B4000056E5E0EF3EC00F08092010E056E5E0EE7
:101B5000F3EC00F0382A000E3922D8A0E4D78090A8
:101B60001200146A156A7A51880FE96E000EEA6A4B
:101B7000EA22EFCF14F0300E026E036A15C005F0B2
:101B800014501AEC01F0D8A4C9EF0DF07B6BA8EF4C
:101B90000EF0310E026E036A15C005F014501AECF7
:101BA00001F0D8A4D8EF0DF0010E7B6FA8EF0EF076
:101BB000320E026E036A15C005F014501AEC01F0E3
:101BC000D8A4E7EF0DF0020E7B6FA8EF0EF0330EF6
:101BD000026E036A15C005F014501AEC01F0D8A487
:101BE000F6EF0DF0030E7B6FA8EF0EF0340E026ED1
:101BF000036A15C005F014501AEC01F0D8A405EFE3
:101C00000EF0040E7B6FA8EF0EF0350E026E036A25
:101C100015C005F014501AEC01F0D8A414EF0EF022
:101C2000050E7B6FA8EF0EF0360E026E036A15C02C
:101C300005F014501AEC01F0D8A423EF0EF0060EB4
:101C40007B6FA8EF0EF0370E026E036A15C005F029
:101C500014501AEC01F0D8A432EF0EF0070E7B6F8F
:101C6000A8EF0EF0380E026E036A15C005F014508E
:101C70001AEC01F0D8A441EF0EF0080E7B6FA8EF2C
:101C80000EF0390E026E036A15C005F014501AECFE
:101C900001F0D8A450EF0EF0090E7B6FA8EF0EF004
:101CA000410E026E036A15C005F014501AEC01F0E3
:101CB000D8A45FEF0EF00A0E7B6FA8EF0EF0420E75
:101CC000026E036A15C005F014501AEC01F0D8A496
:101CD0006EEF0EF00B0E7B6FA8EF0EF0430E026E50
:101CE000036A15C005F014501AEC01F0D8A47DEF7A
:101CF0000EF00C0E7B6FA8EF0EF0440E026E036A1E
:101D000015C005F014501AEC01F0D8A48CEF0EF0B9
:101D10000D0E7B6FA8EF0EF0450E026E036A15C024
:101D200005F014501AEC01F0D8A49BEF0EF00E0E43
:101D30007B6FA8EF0EF0460E026E036A15C005F029
:101D400014501AEC01F0D8A4A8EF0EF00F0E7B6F20
:101D5000120037EC13F0F40E426E010E436E42C0D7
:101D600002F043C003F0056AF80E0DEC01F0D8A4B0
:101D70003AEF0FF04250A40FE96E000E4320EA6ED6
:101D8000EFCF14F01450FF08D8A4E868FF0A146ECF
:101D90004228166E000E4320176E1650A40FE96EEF
:101DA000000E1720EA6EEFCF16F01650FF08D8A4E9
:101DB000E868FF0A166E14C002F016502CEC01F011
:101DC000166E176E020E4224186E000E4320196E16
:101DD0001850A40FE96E000E1920EA6EEFCF18F02C
:101DE0001850FF08D8A4E868FF0A186E165017109C
:101DF000026E18502CEC01F0186E196E030E42247E
:101E00001A6E000E43201B6E1A50A40FE96E000ECE
:101E10001B20EA6EEFCF1AF01A50FF08D8A4E8682A
:101E2000FF0A1A6E18501910026E1A502CEC01F0AD
:101E30001A6E1B6E04001A501B10D8B436EF0FF048
:101E400042C002F043C003F0056A030E14EC01F037
:101E5000D8A431EF0FF0040E425E000E435A33EF68
:101E60000FF0CAEF0FF07BD738EF0FF0CAEF0FF08B
:101E7000CAEF0FF0FC0E425C146E000E4358156E54
:101E80001450A00FE96E010E1520EA6EEFCF14F08A
:101E90001450FF08D8A4E868FF0A146E4228166E92
:101EA000000E4320176EFC0E165E000E175A1650D9
:101EB000A00FE96E010E1720EA6EEFCF16F0165054
:101EC000FF08D8A4E868FF0A166E14C002F0165086
:101ED0002CEC01F0166E176E020E4224186E000EE6
:101EE0004320196EFC0E185E000E195A1850A00FF0
:101EF000E96E010E1920EA6EEFCF18F01850FF08B6
:101F0000D8A4E868FF0A186E16501710026E185011
:101F10002CEC01F0186E196E030E42241A6E000E9E
:101F200043201B6EFC0E1A5E000E1B5A1A50A00FA7
:101F3000E96E010E1B20EA6EEFCF1AF01A50FF086F
:101F4000D8A4E868FF0A1A6E18501910026E1A50C9
:101F50002CEC01F01A6E1B6E04001A501B10D8B442
:101F6000C8EF0FF042C002F043C003F0056A030E51
:101F700014EC01F0D8A4C3EF0FF0040E425E000E83
:101F8000435AC5EF0FF0CAEF0FF0E9D6CAEF0FF0D2
:101F9000CAEF0FF024C002F025C003F040C004F0E7
:101FA00041C005F038EC01F006C014F007C015F090
:101FB0000A0E026E036A15C005F014501AEC01F007
:101FC000D8A4FEEF0FF06DC008F06EC009F024C079
:101FD00004F025C005F050EC01F0146E07C015F0B8
:101FE00014C002F015C003F0280E046E056A38EC28
:101FF00001F0656F03C066F01CEF10F06DC008F0D3
:102000006EC009F024C004F025C005F050EC01F0CA
:10201000146E07C015F014C002F015C003F01C0EBA
:10202000046E056A38EC01F0146E03C015F0142834
:10203000656F000E1520666F42C002F043C003F0CA
:10204000056A000E0AEC01F0146EA451FF08D8A432
:10205000E868FF0A166E14C002F016502CEC01F06E
:10206000166E176E040016501710D8B45EEF10F0FD
:10207000756B020E766F736B746B5CEF10F0939E52
:10208000810E1E6E0F0E206E800E1C6E060E016EEF
:10209000100E3AEC00F0540E3AEC00F074C007F069
:1020A00073511CEC00F02C0E3AEC00F076C007F0F7
:1020B00075511CEC00F0938EC1EF12F042C002F09B
:1020C00043C003F0056AFB0E0DEC01F0D8A496EFB7
:1020D00011F04250A40FE96E000E4320EA6EEFCFDC
:1020E00074F04228146E000E4320156E1450A40F95
:1020F000E96E000E1520EA6EEFCF73F0020E422457
:10210000146E000E4320156E1450A40FE96E000EDD
:102110001520EA6EEFCF76F0030E4224146E000E07
:102120004320156E1450A40FE96E000E1520EA6EC0
:10213000EFCF75F0B9EF10F0939E810E1E6E0F0E6B
:10214000206E800E1C6E060E016E100E3AEC00F032
:10215000540E3AEC00F074C007F073511CEC00F020
:102160002C0E3AEC00F076C007F075511CEC00F034
:10217000938E040E4226000E43227551FF08146E02
:10218000FF0E7655156E65C008F066C009F0046A4A
:10219000020E056E50EC01F0166E07C017F014C069
:1021A00002F015C003F017C005F0165014EC01F052
:1021B000D8A4EDEF10F065C008F066C009F0046A1D
:1021C000020E056E50EC01F0146E07C015F01450AD
:1021D00075271550762394EF11F07551FF08146E92
:1021E000FF0E7655156E65C008F066C009F0046AEA
:1021F000020E056E50EC01F0166E07C017F016C007
:1022000002F017C003F00468056838EC01F006C05E
:1022100016F007C017F014C002F015C003F017C085
:1022200005F0165014EC01F0D8A450EF11F065C081
:1022300008F066C009F0046A020E056E50EC01F069
:10224000146E07C015F014C002F015C003F0046846
:10225000056838EC01F0146E03C015F014507327B4
:102260001550742365C008F066C009F0046A020EB8
:10227000056E50EC01F0146E07C015F014C002F0AA
:1022800015C003F00468056838EC01F006C014F0CE
:1022900007C015F0145075271550762394EF11F0F0
:1022A00065C008F066C009F0046A020E056E50ECC5
:1022B00001F0146E07C015F014C002F015C003F051
:1022C0000468056838EC01F0146E03C015F0735112
:1022D0001426745115221428736F000E1520746F84
:1022E00065C008F066C009F0046A020E056E50EC85
:1022F00001F0146E07C015F014C002F015C003F011
:102300000468056838EC01F006C014F007C015F049
:102310007551FF08166EFF0E7655176E1650145C39
:10232000756F17501558766FC1EF12F04250A00F1D
:10233000E96E010E4320EA6EEFCF74F04228146E6E
:10234000000E4320156E1450A00FE96E010E1520EB
:10235000EA6EEFCF73F0020E4224146E000E43209B
:10236000156E1450A00FE96E010E1520EA6EEFCF26
:1023700076F0030E4224146E000E4320156E1450A6
:10238000A00FE96E010E1520EA6EEFCF75F0E6EFB3
:1023900011F0939E810E1E6E0F0E206E800E1C6E2D
:1023A000060E016E100E3AEC00F0540E3AEC00F0FE
:1023B00074C007F073511CEC00F02C0E3AEC00F0E6
:1023C00076C007F075511CEC00F0938E040E422687
:1023D000000E43227551FF08146EFF0E7655156EE0
:1023E00065C008F066C009F0046A020E056E50EC84
:1023F00001F0166E07C017F014C002F015C003F00C
:1024000017C005F0165014EC01F0D8A41AEF12F022
:1024100065C008F066C009F0046A020E056E50EC53
:1024200001F0146E07C015F014507527155076236F
:10243000C1EF12F07551FF08146EFF0E7655156E40
:1024400065C008F066C009F0046A020E056E50EC23
:1024500001F0166E07C017F016C002F017C003F0A7
:102460000468056838EC01F006C016F007C017F0E4
:1024700014C002F015C003F017C005F0165014EC9C
:1024800001F0D8A47DEF12F065C008F066C009F035
:10249000046A020E056E50EC01F0146E07C015F0D0
:1024A00014C002F015C003F00468056838EC01F0B0
:1024B000146E03C015F0145073271550742365C0B3
:1024C00008F066C009F0046A020E056E50EC01F0D7
:1024D000146E07C015F014C002F015C003F00468B4
:1024E000056838EC01F006C014F007C015F0145070
:1024F000752715507623C1EF12F065C008F066C04D
:1025000009F0046A020E056E50EC01F0146E07C06B
:1025100015F014C002F015C003F00468056838EC2B
:1025200001F0146E03C015F0735114267451152276
:102530001428736F000E1520746F65C008F066C014
:1025400009F0046A020E056E50EC01F0146E07C02B
:1025500015F014C002F015C003F00468056838ECEB
:1025600001F006C014F007C015F07551FF08166E93
:10257000FF0E7655176E1650145C756F1750155870
:10258000766FF3EF12F0939E810E1E6E0F0E206E8B
:10259000800E1C6E060E016E100E3AEC00F0680EF6
:1025A0003AEC00F043C007F042501CEC00F0810E02
:1025B0001E6E0F0E206E800E1C6E060E016E100E2B
:1025C0003AEC00F07C0E3AEC00F074C007F0735166
:1025D0001CEC00F02C0E3AEC00F076C007F07551C0
:1025E0001CEC00F0938E070E056ED00EF3EC00F09D
:1025F000120032EC07F08292060EC96E010EFFEC5B
:1026000000F08282010EFFEC00F08292120EC96E81
:10261000010EFFEC00F0C96A010EFFEC00F0C96A80
:10262000010EFFEC00F043C0C9FF010EFFEC00F00B
:1026300042C0C9FF010EFFEC00F074C0C9FF010EDB
:10264000FFEC00F073C0C9FF010EFFEC00F076C094
:10265000C9FF010EFFEC00F075C0C9FF010EFFECD1
:1026600000F08282040E4226000E4322120032EC59
:1026700007F08292130EC96E010EFFEC00F0C96ADA
:10268000010EFFEC00F0C96A010EFFEC00F0C96A10
:10269000010EFFEC00F0C96A010EFFEC00F0386A91
:1026A000396A38C002F039C003F0056AFB0E11EC3C
:1026B00001F0D8A46DEF13F0C96A010EFFEC00F031
:1026C0003850A40FE96E000E3920EA6EC9CFEFFF33
:1026D000382A000E3922D8A0E4D7386A396A38C0BF
:1026E00002F039C003F0056AFB0E11EC01F0D8A42A
:1026F0008BEF13F0C96A010EFFEC00F03850A00F09
:10270000E96E010E3920EA6EC9CFEFFF382A000EBC
:102710003922D8A0E4D782821200A9DF386A396A48
:1027200038C002F039C003F0056AFB0E11EC01F06D
:10273000D8A4AAEF13F03850A40FE96E000E392088
:10274000EA6EEFCF86F0EAEC08F0382A000E392264
:10275000D8A0E6D7386A396A38C002F039C003F029
:10276000056AFB0E11EC01F0D8A4C6EF13F0385047
:10277000A00FE96E010E3920EA6EEFCF86F0EAEC89
:1027800008F0382A000E3922D8A0E6D7DEEC08F08F
:102790001200676B686B696B020E6A6F24C002F0EF
:1027A00025C003F040C004F041C005F038EC01F052
:1027B000146E03C015F00A0E026E036A15C005F010
:1027C00014501AEC01F0D8A40DEF14F024C002F05C
:1027D00025C003F00A0E046E056A38EC01F0146E91
:1027E00003C015F06DC008F06EC009F014C004F00D
:1027F00015C005F050EC01F0146E07C015F014C0C0
:1028000002F015C003F0040E046E056A38EC01F006
:10281000656F03C066F037EF14F024C002F025C0E6
:1028200003F0040E046E056A38EC01F0146E03C068
:1028300015F06DC008F06EC009F014C004F015C0AA
:1028400005F050EC01F0146E07C015F014C002F052
:1028500015C003F0070E046E056A38EC01F0146E23
:1028600003C015F01428656F000E1520666F026A0C
:10287000036A43C005F042501AEC01F0D8A4ADEF52
:1028800014F08BEF14F01AEC1CF0939E810E1E6E68
:102890000F0E206E800E1C6E060E016E100E3AECAE
:1028A00000F0540E3AEC00F04E0E3AEC00F04F0EF1
:1028B0003AEC00F0200E3AEC00F0540E3AEC00F046
:1028C000450E3AEC00F0530E3AEC00F0540E3AECA0
:1028D00000F0200E3AEC00F0440E3AEC00F0410E0D
:1028E0003AEC00F0540E3AEC00F0410E3AEC00F0F5
:1028F000200E3AEC00F0460E3AEC00F04F0E3AECA7
:1029000000F0550E3AEC00F04E0E3AEC00F0440E9A
:102910003AEC00F0938E010E3E6E3F6A3EC002F02C
:102920003FC003F0056A050E11EC01F0D8A4AAEF30
:1029300014F08082010E056EF40EF3EC00F080922C
:10294000010E056EF40EF3EC00F03E2A000E3F225D
:10295000D8A0E4D78090F1EF15F0010E386E396AF7
:1029600038C002F039C003F0056A320E11EC01F0F4
:10297000D8A4C3EF14F0876BB0EC09F0382A000E2E
:102980003922D8A0EDD742C002F043C003F0040EB4
:10299000046E056A38EC01F0806FE2EF14F0939E4C
:1029A000810E1E6E0F0E206E800E1C6E060E016EC6
:1029B000100E3AEC00F0680E3AEC00F080511BEC7F
:1029C00000F0938E24EC0DF0426A436A50DE010E53
:1029D0006F6F706B6FC002F070C003F0805110EC2D
:1029E00001F0D8A4F1EF15F042C002F043C003F0AB
:1029F000056AF80E11EC01F0D8A432EF15F0425040
:102A0000A40FE96E000E4320EA6EEFCF68F0422873
:102A1000146E000E4320156E1450A40FE96E000EC4
:102A20001520EA6EEFCF67F0020E4224146E000EFE
:102A30004320156E1450A40FE96E000E1520EA6EA7
:102A4000EFCF6AF0030E4224146E000E4320156E81
:102A50001450A40FE96E000E1520EA6EEFCF69F056
:102A600063EF15F04250A00FE96E010E4320EA6EAD
:102A7000EFCF68F04228146E000E4320156E1450FC
:102A8000A00FE96E010E1520EA6EEFCF67F0020E7F
:102A90004224146E000E4320156E1450A00FE96EF0
:102AA000010E1520EA6EEFCF6AF0030E4224146E79
:102AB000000E4320156E1450A00FE96E010E152074
:102AC000EA6EEFCF69F084EF15F01AEC1CF0939EDC
:102AD000810E1E6E0F0E206E800E1C6E060E016E95
:102AE000100E3AEC00F0680E3AEC00F068C007F007
:102AF00067511CEC00F02C0E3AEC00F06AC007F0B5
:102B000069511CEC00F0938E386A396A38C002F0C3
:102B100039C003F0056A090E11EC01F0D8A49AEF50
:102B200015F038C087F0B0EC09F0382A000E3922D1
:102B3000D8A0ECD7010E306E316A30C002F031C03F
:102B400003F066C005F0655111EC01F0D8A4E8EF80
:102B500015F068EC07F0386A396A38C002F039C0FD
:102B600003F0056AFB0E11EC01F0D8A4C7EF15F0D5
:102B700038509C0FE96E020E3920EA6EEFCF87F0D5
:102B8000B0EC09F0382A000E3922D8A0E6D7386A0E
:102B9000396A38C002F039C003F0056AFB0E11EC47
:102BA00001F0D8A4E3EF15F03850980FE96E030E4A
:102BB0003920EA6EEFCF87F0B0EC09F0382A000E2A
:102BC0003922D8A0E6D7302A000E3122D8A0B5D7B6
:102BD000040E4226000E43226F2B000E7023D8A055
:102BE000F9D6809012008280020E056EEE0EF3EC94
:102BF00000F08290FA0EF2EC00F08082020E056E78
:102C0000EE0EF3EC00F08092FA0EF2EC00F0808011
:102C1000020E056EEE0EF3EC00F08090FA0EF2EC70
:102C200000F012003C0E026E036A25C005F024502D
:102C30001AEC01F0D8A425EF16F0810E846F9F0ED8
:102C4000716F810E726FA1EF16F0780E026E036A3B
:102C500025C005F024501AEC01F0D8A438EF16F086
:102C6000800E846FFD0E716F800E726FA1EF16F0F3
:102C7000F00E026E036A25C005F024501AEC01F034
:102C8000D8A44BEF16F0800E846FD90E716F3F0EF3
:102C9000726FA1EF16F0E00E026E010E036E25C0FA
:102CA00005F024501AEC01F0D8A45FEF16F0800E66
:102CB000846F540E716F1F0E726FA1EF16F0F40E39
:102CC000026E010E036E25C005F024501AEC01F0CF
:102CD000D8A473EF16F0800E846F080E716F1E0E6D
:102CE000726FA1EF16F0C00E026E030E036E25C0C8
:102CF00005F024501AEC01F0D8A487EF16F0800EEE
:102D0000846F080E716F0F0E726FA1EF16F0E80E50
:102D1000026E030E036E25C005F024501AEC01F07C
:102D2000D8A49BEF16F0800E846F690E716F0E0EA3
:102D3000726FA1EF16F0800E846FFD0E716F800E22
:102D4000726F7151FF08146EFF0E7255156E14C02C
:102D500002F015C003F0046A010E056E38EC01F0B4
:102D6000D76E7151FF08146EFF0E7255156E14C0A8
:102D700002F015C003F0046A010E056E38EC01F094
:102D800006C0D6FFF294120024EC05F0F9EC12F024
:102D90000A0EF2EC00F046DF26DF8082826BF28EB4
:102DA00004D0F2BE12003AEF17F0FBDFA00EF26E75
:102DB000F8DF010E636F646BF4DF010E616F626B0D
:102DC000F0DF949EEEDF84C0D5FFEBDF63C002F03E
:102DD00064C003F06EC005F06D5111EC01F0D8A491
:102DE0000BEF17F0DEDF61C002F062C003F025C018
:102DF00005F0245011EC01F0D8A401EF17F0D1DF59
:102E0000F2D7CFDF010E616F626BCBDF632B000E59
:102E10006423C7DFDBD7948ED56A75C002F076C015
:102E200003F0046A020E056E38EC01F006C014F0DF
:102E300007C015F01450FF08286E010E1554296EB6
:102E400028507527295076230268036876C005F05C
:102E500075511AEC01F0D8A435EF17F0756B766B4D
:102E6000732B000E742338EF17F0752B000E7623AA
:102E7000809212007151FF08146EFF0E7255156E8C
:102E800014C002F015C003F0046A010E056E38ECA0
:102E900001F0D76E7151FF08146EFF0E7255156E5A
:102EA00014C002F015C003F0046A010E056E38EC80
:102EB00001F006C0D6FFF294828E24C002F025C035
:102EC00003F040C004F041C005F038EC01F0146E8E
:102ED00003C015F061C002F062C003F014C004F03A
:102EE00015C005F038EC01F006C014F007C015F06D
:102EF00014C002F015C003F0056A010E0AEC01F0DF
:102F0000146E24C002F025C003F041C005F040500B
:102F10000AEC01F0166E14C002F0165033EC01F00A
:102F2000166E176E040016501710D8B41BEF1AF067
:102F30006B8004006BA09EEF17F0FBD7D00E6F6E76
:102F400004006DA0A5EF17F0FBD7020EFFEC00F018
:102F50003B0E6F6E04006DA0AFEF17F0FBD7020EB3
:102F6000FFEC00F06B8004006BA0B8EF17F0FBD70C
:102F7000D10E6F6E04006DA0BFEF17F0FBD7020EED
:102F8000FFEC00F06B8604006DB0C8EF17F0FBD7C4
:102F90006B886B9A6FCF45F0050EFFEC00F06B86E7
:102FA00004006DB0D5EF17F0FBD76B886B9A6FCF2D
:102FB00044F0050EFFEC00F06B8604006DB0E2EF0C
:102FC00017F0FBD76B886B9A6FCF47F0050EFFECBD
:102FD00000F06B8604006DB0EFEF17F0FBD76B8845
:102FE0006B9A6FCF46F0050EFFEC00F06B86040085
:102FF0006DB0FCEF17F0FBD76B886B9A6FCF49F081
:10300000050EFFEC00F06B8604006DB009EF18F0C0
:10301000FBD76B886B8A6FCF48F0030EFFEC00F094
:103020006B8404006BA416EF18F0FBD7030EFFECC3
:1030300000F06B8004006BA01FEF18F0FBD7D00EE0
:103040006F6E04006DA026EF18F0FBD7020EFFECA8
:1030500000F0430E6F6E04006DA030EF18F0FBD748
:10306000020EFFEC00F06B8004006BA039EF18F04B
:10307000FBD7D10E6F6E04006DA040EF18F0FBD7A8
:10308000020EFFEC00F06B8604006DB049EF18F003
:10309000FBD76B886B9A6FCF4BF0050EFFEC00F0FF
:1030A0006B8604006DB056EF18F0FBD76B886B9AF7
:1030B0006FCF4AF0050EFFEC00F06B8604006DB098
:1030C00063EF18F0FBD76B886B9A6FCF4DF0050E4E
:1030D000FFEC00F06B8604006DB070EF18F0FBD7CA
:1030E0006B886B9A6FCF4CF0050EFFEC00F06B868F
:1030F00004006DB07DEF18F0FBD76B886B9A6FCF33
:103100004FF0050EFFEC00F06B8604006DB08AEF07
:1031100018F0FBD76B886B8A6FCF4EF0030EFFEC75
:1031200000F06B8404006BA497EF18F0FBD7030E3C
:10313000FFEC00F06B8004006BA0A0EF18F0FBD751
:10314000180E6F6E04006DA0A7EF18F0FBD7020EEB
:10315000FFEC00F0030E6F6E04006DA0B1EF18F0ED
:10316000FBD7020EFFEC00F06B8004006BA0BAEFFF
:1031700018F0FBD7190E6F6E04006DA0C1EF18F0A8
:10318000FBD7020EFFEC00F06B8604006DB0CAEFB7
:1031900018F0FBD76B886B9A6FCF50F0050EFFECE1
:1031A00000F06B8604006DB0D7EF18F0FBD76B888A
:1031B0006B9A6FCF51F0050EFFEC00F06B860400A8
:1031C0006DB0E4EF18F0FBD76B886B9A6FCF52F0BD
:1031D000050EFFEC00F06B8604006DB0F1EF18F007
:1031E000FBD76B886B9A6FCF53F0050EFFEC00F0A6
:1031F0006B8604006DB0FEEF18F0FBD76B886B9AFE
:103200006FCF54F0050EFFEC00F06B8604006DB03C
:103210000BEF19F0FBD76B886B8A6FCF55F0030E5D
:10322000FFEC00F06B8404006BA418EF19F0FBD7DF
:10323000030EFFEC00F0180E7E6F0A0E7D6F110E6C
:103240007C6F6B8004006BA027EF19F0FBD77EC06A
:103250006FFF04006DA02EEF19F0FBD7020EFFECFC
:1032600000F07DC06FFF04006DA038EF19F0FBD7B0
:10327000020EFFEC00F07CC06FFF010EFFEC00F0CF
:1032800004006DA045EF19F0FBD7020EFFEC00F033
:103290006B8404006BA44EEF19F0FBD7030EFFEC18
:1032A00000F08292060EC96E010EFFEC00F08282E1
:1032B000010EFFEC00F08292120EC96E010EFFECBF
:1032C00000F074C0C9FF010EFFEC00F073C0C9FF2D
:1032D000010EFFEC00F076C0C9FF010EFFEC00F01C
:1032E00075C0C9FF010EFFEC00F045C0C9FF010E1B
:1032F000FFEC00F044C0C9FF010EFFEC00F047C036
:10330000C9FF010EFFEC00F046C0C9FF010EFFEC43
:1033100000F049C0C9FF010EFFEC00F048C0C9FF32
:10332000010EFFEC00F04BC0C9FF010EFFEC00F0F6
:103330004AC0C9FF010EFFEC00F04DC0C9FF010EED
:10334000FFEC00F04CC0C9FF010EFFEC00F04FC0D5
:10335000C9FF010EFFEC00F04EC0C9FF010EFFECEB
:1033600000F051C0C9FF010EFFEC00F050C0C9FFD2
:10337000010EFFEC00F053C0C9FF010EFFEC00F09E
:1033800052C0C9FF010EFFEC00F055C0C9FF010E8D
:10339000FFEC00F054C0C9FF010EFFEC00F0828288
:1033A000120E7525146E000E7621156EF80E026E43
:1033B000036815C005F014501AEC01F0D8A4E8EF2A
:1033C00019F0732B000E7423756B766B19EF1AF0DE
:1033D000120E7525146E000E7621156E14C002F0C3
:1033E00015C003F0046A020E056E38EC01F006C049
:1033F00014F007C015F0F80E026E010E036E15C032
:1034000005F014501AEC01F0D8A415EF1AF0080ECC
:103410007525146E000E7621156E120E1424756F2C
:10342000000E1520766F19EF1AF0120E7527000E98
:10343000762315EF1CF06B8004006BA021EF1AF0CF
:10344000FBD7D00E6F6E04006DA028EF1AF0FBD7EB
:10345000020EFFEC00F03B0E6F6E04006DA032EF29
:103460001AF0FBD7020EFFEC00F06B8004006BA09B
:103470003BEF1AF0FBD7D10E6F6E04006DA042EF48
:103480001AF0FBD7020EFFEC00F06B8604006DB063
:103490004BEF1AF0FBD76B886B9A6FCF45F0050E98
:1034A000FFEC00F06B8604006DB058EF1AF0FBD70C
:1034B0006B886B9A6FCF44F0050EFFEC00F06B86C3
:1034C00004006DB065EF1AF0FBD76B886B9A6FCF75
:1034D00047F0050EFFEC00F06B8604006DB072EF54
:1034E0001AF0FBD76B886B9A6FCF46F0050EFFEC96
:1034F00000F06B8604006DB07FEF1AF0FBD76B888D
:103500006B9A6FCF49F0050EFFEC00F06B8604005C
:103510006DB08CEF1AF0FBD76B886B8A6FCF48F0D9
:10352000030EFFEC00F06B8404006BA499EF1AF01B
:10353000FBD7030EFFEC00F06B8004006BA0A2EF42
:103540001AF0FBD7D00E6F6E04006DA0A9EF1AF031
:10355000FBD7020EFFEC00F0430E6F6E04006DA06F
:10356000B3EF1AF0FBD7020EFFEC00F06B80040003
:103570006BA0BCEF1AF0FBD7D10E6F6E04006DA0EC
:10358000C3EF1AF0FBD7020EFFEC00F06B860400CD
:103590006DB0CCEF1AF0FBD76B886B9A6FCF4BF006
:1035A000050EFFEC00F06B8604006DB0D9EF1AF049
:1035B000FBD76B886B9A6FCF4AF0050EFFEC00F0DB
:1035C0006B8604006DB0E6EF1AF0FBD76B886B9A40
:1035D0006FCF4DF0050EFFEC00F06B8604006DB070
:1035E000F3EF1AF0FBD76B886B9A6FCF4CF0050E98
:1035F000FFEC00F06B8604006DB000EF1BF0FBD712
:103600006B886B9A6FCF4FF0050EFFEC00F06B8666
:1036100004006DB00DEF1BF0FBD76B886B8A6FCF8A
:103620004EF0030EFFEC00F06B8404006BA41AEF65
:103630001BF0FBD7030EFFEC00F08292060EC96E62
:10364000010EFFEC00F08282010EFFEC00F082928E
:10365000120EC96E010EFFEC00F074C0C9FF010E1E
:10366000FFEC00F073C0C9FF010EFFEC00F076C064
:10367000C9FF010EFFEC00F075C0C9FF010EFFECA1
:1036800000F045C0C9FF010EFFEC00F044C0C9FFC7
:10369000010EFFEC00F047C0C9FF010EFFEC00F087
:1036A00046C0C9FF010EFFEC00F049C0C9FF010E82
:1036B000FFEC00F048C0C9FF010EFFEC00F04BC06A
:1036C000C9FF010EFFEC00F04AC0C9FF010EFFEC7C
:1036D00000F04DC0C9FF010EFFEC00F04CC0C9FF67
:1036E000010EFFEC00F04FC0C9FF010EFFEC00F02F
:1036F0004EC0C9FF010EFFEC00F082820C0E752552
:10370000146E000E7621156EF80E026E036815C059
:1037100005F014501AEC01F0D8A496EF1BF0732BAF
:10372000000E7423756B766B15EF1CF00C0E75256F
:10373000146E000E7621156E14C002F015C003F051
:10374000046A020E056E38EC01F006C014F007C0E2
:1037500015F0F80E026E010E036E15C005F0145040
:103760001AEC01F0D8A4C3EF1BF0080E7525146EF7
:10377000000E7621156E0C0E1424756F000E1520A8
:10378000766F15EF1CF0120E7525146E000E762163
:10379000156E14C002F015C003F0046A020E056E27
:1037A00038EC01F006C014F007C015F014C002F0A8
:1037B00015C003F0010E056EF80E0AEC01F0146E50
:1037C00024C002F025C003F040C004F041C005F061
:1037D00038EC01F0166E03C017F016C002F017C0E7
:1037E00003F0056A0A0E0AEC01F0166E14C002F02E
:1037F00016502CEC01F0166E176E040016501710C0
:10380000D8B411EF1CF0080E7525146E000E762149
:10381000156E120E1424756F000E1520766F15EFBD
:103820001CF00C0E7527000E7623829E612B000E75
:1038300062231000D1EC16F036EF1CF0D1EC16F03C
:10384000939ED1EC16F0810E1E6E0F0E206E800E30
:103850001C6E060E016E0C0E3AEC00F0D1EC16F068
:10386000938ED1EC16F00A0EF2EC00F0D1EC16F0CB
:103870001200D1EC16F0939ED1EC16F0810E1E6E64
:103880000F0E206E800E1C6E060E016E0E0E3AECB0
:1038900000F0D1EC16F0938ED1EC16F01200D1ECC2
:1038A00016F0939ED1EC16F0810E1E6E0F0E206E58
:1038B000800E1C6E060E016E0F0E3AEC00F0D1EC7D
:1038C00016F0938ED1EC16F01200D1EC16F0939E08
:1038D000D1EC16F0810E1E6E0F0E206E800E1C6E47
:1038E000060E016E100E3AEC00F0400E3AEC00F0BD
:1038F000D1EC16F0938ED1EC16F01200D1EC16F04C
:10390000939ED1EC16F0810E1E6E0F0E206E800E6F
:103910001C6E060E016E100E3AEC00F0540E3AECDE
:1039200000F0D1EC16F0938ED1EC16F01200D1EC31
:1039300016F0939ED1EC16F0810E1E6E0F0E206EC7
:10394000800E1C6E060E016E100E3AEC00F0680E32
:103950003AEC00F0D1EC16F0938ED1EC16F0120098
:10396000D1EC16F0939ED1EC16F0810E1E6E0F0E68
:10397000206E800E1C6E060E016E100E3AEC00F0EA
:103980007C0E3AEC00F0D1EC16F0938ED1EC16F0F0
:02399000120023
:020000040030CA
:03000100081F3F96
:02000500BD81BB
:060008000FC00FE00F40E5
:00000001FF
