:020000040000FA
:100000006CEF01F00A6EF80BE830E830E830E926D2
:10001000D8B0EA2AC6EC00F00A6EEF1469EF01F0DE
:10002000076A066E018E270E056E100E0CD8030EA1
:10003000056EE80E08D8056A640E05D8056A0A0E32
:1000400002D806500BD0046E0750036E0650026EA5
:100050002DEC01F0E866019E01BE1200300F086E23
:1000600020C0EAFF20C0E2FF1E50E96E120FE16ED1
:10007000090E096ED89007D80832092EFCD7D8800F
:1000800002D869EF01F001A60BD0EF501C1001A4BB
:100090001C18EF6EE7501C10D8A01C18E76E0AD091
:1000A000EF501C10D8A01C1801B41C18EF6E1C1CBB
:1000B000E71600D00134060BD40FF66EF76A000E77
:1000C000F722F86A0900F550036E0800F5500000A9
:1000D000F5EF00F0019D033D00640D0120C0EAFF33
:1000E0001EC0E9FF0E50026E0F50036E046A056ACF
:1000F000040020D80CE3E86A0406055AF9E2020677
:10010000035A17E3780E046E010E056EF1D729D855
:100110000A6A080E056E26D80DD8D8B00A3E0432F9
:10012000052EF9D70DAA0A6A0DBA049E1BD8D880ED
:1001300004501200120EE9261C50EF121EC0E9FFF7
:10014000EF140DBC1C18FF0F1200D96E0B0603E252
:10015000D88069EF01F063EC01F0D8A01200DE6EE8
:10016000F5D7018C0D501F0B000F036E0C50100FB4
:10017000D8B0032A01ACF5EF00F0019CD89003320F
:10018000E830D8900332E830F5EF00F0010E0AB005
:10019000E8440AB2E8440AB2E8440AB4E838120073
:1001A000A66AA680A850A94AAA2A69EF01F0E86ABF
:1001B000A86EA66AA684550EA76EAA0EA76EA68282
:1001C000A6B2FED7A694A94AAA2A69EF01F0056A49
:1001D000046EE86A0406055AD8A069EF01F0030E20
:1001E000036EE70E02D8F5D7036AFD0F026E01D049
:1001F0000206040000D0E86A035AFAE21200046E14
:10020000020E0FD0046E030E0CD0056A046E010EB0
:1002100008D0046E060E05D0046E040E02D0046EE3
:10022000050E0A6E0550035C02E10450025C040EE8
:10023000D8B0010ED8B4020E0A14D8A4FF0E69EF8C
:1002400001F0E866FF0E0214D8A4FF0E69EF01F07A
:100250000210D8A4FF0E69EF01F0076A066A100EBB
:10026000086E0334063607360450065E0550075AFA
:1002700005E20450062605500722D89002360336C0
:10028000082EEFD7025069EF01F004500802F3CFB7
:1002900006F0F4CF07F005500902F3CF02F0F4CFD7
:1002A00003F00802F3500726F4500222E86A032202
:1002B00004500902F3500726F4500222E86A032290
:1002C000065069EF01F0E96EFB6A1350FA6E1250A6
:1002D000F96E000104001200E80ED36E800ED26E9B
:1002E000400E9B6EF26A616A0F01386B396B3A6B94
:1002F000010E966E00019488938A9388938293846A
:100300009380938E948E938C9386949092909292F5
:1003100094929496949A9296829080908092808201
:10032000030E056EE80E54DF8092040081AA9BEF55
:1003300001F00300FAD7939E810E1E6E0F0E206E01
:10034000800E1C6E060E016E0C0E89DE0A0E3FDF5B
:10035000810E1E6E0F0E206E800E1C6E060E016E3C
:100360000E0E7DDE100E7BDE400E79DE440E77DE53
:10037000650E75DE760E73DE370E71DE200E6FDED3
:100380004D0E6DDE500E6BDE550E69DE2D0E67DEF6
:10039000330E65DE410E63DE2D0E61DE330E5FDE51
:1003A000420E5DDE2D0E5BDE330E59DE430E57DE50
:1003B0002D0E55DE330E53DE440E51DE810E1E6EC1
:1003C0000F0E206E800E1C6E060E016E100E47DEA4
:1003D000540E45DE320E43DE2F0E41DE300E3FDE80
:1003E000340E3DDE2F0E3BDE320E39DE300E37DEB0
:1003F000310E35DE380E33DE938EFA0EE8DE828063
:10040000010E056E2C0EE4DE82900A0EEDDE808079
:10041000010E056E2C0EDCDE80900A0EE5DE808279
:10042000010E056E2C0ED4DE80920A0EDDDE828077
:100430000A0EDADE8282010ED7DE8286010ED4DE5B
:10044000829A010ED1DE8182010ECEDE8184010E00
:10045000CBDE8096ECEC08F04FEC04F0E6EC08F014
:1004600057EC19F099EC10F053EC0EF00A0EAFDED9
:1004700057EC19F0828062EF02F0939E810E1E6E9F
:100480000F0E206E800E1C6E060E016E100E2FECED
:1004900000F0400E2FEC00F0530E2FEC00F0540E45
:1004A0002FEC00F0410E2FEC00F04E0E2FEC00F080
:1004B000440E2FEC00F0420E2FEC00F0590E2FEC02
:1004C00000F0938E040081BA4DEF04F0829094EF17
:1004D00002F0939E810E1E6E0F0E206E800E1C6E1B
:1004E000060E016E100E2FEC00F0400E2FEC00F007
:1004F000520E2FEC00F0550E2FEC00F04E0E2FECAC
:1005000000F0200E2FEC00F0540E2FEC00F0450E02
:100510002FEC00F0530E2FEC00F0540E2FEC00F0F7
:100520003F0E2FEC00F0938E070E056ED00E50DEBE
:10053000040081BAF7EF03F08080DFEF02F0939EB2
:10054000810E1E6E0F0E206E800E1C6E060E016E4A
:10055000100E2FEC00F0400E2FEC00F0530E2FEC9D
:1005600000F0450E2FEC00F04E0E2FEC00F0440E84
:100570002FEC00F0200E2FEC00F0440E2FEC00F0DA
:10058000410E2FEC00F0540E2FEC00F0410E2FEC3A
:1005900000F0200E2FEC00F0540E2FEC00F04F0E68
:1005A0002FEC00F0200E2FEC00F0500E2FEC00F09E
:1005B000430E2FEC00F03F0E2FEC00F0938E070E51
:1005C000056ED00E05DE040081BA9CEF03F0010E2B
:1005D0000BDE8082010E08DE80902FEF03F0939EE9
:1005E000810E1E6E0F0E206E800E1C6E060E016EAA
:1005F000100E2FEC00F0400E2FEC00F0420E2FEC0E
:1006000000F0550E2FEC00F04C0E2FEC00F04B0ECE
:100610002FEC00F0200E2FEC00F0450E2FEC00F038
:10062000520E2FEC00F0410E2FEC00F0530E2FEC89
:1006300000F0450E2FEC00F03F0E2FEC00F0200EE6
:100640002FEC00F0200E2FEC00F0200E2FEC00F02D
:10065000200E2FEC00F0200E2FEC00F0938E070EF2
:10066000056ED00EE8EC00F0040081BA40EF03F014
:10067000809282808080D2EC0BF03DD69AEF03F01E
:1006800080828280809093EF03F057EC19F0939E64
:10069000810E1E6E0F0E206E800E1C6E060E016EF9
:1006A000100E2FEC00F0400E2FEC00F0420E2FEC5D
:1006B00000F0550E2FEC00F04C0E2FEC00F04B0E1E
:1006C0002FEC00F0200E2FEC00F0450E2FEC00F088
:1006D000520E2FEC00F0410E2FEC00F0530E2FECD9
:1006E00000F0490E2FEC00F04E0E2FEC00F0470EFC
:1006F0002FEC00F0200E2FEC00F0200E2FEC00F07D
:10070000200E2FEC00F0200E2FEC00F0200E2FEC2E
:1007100000F0200E2FEC00F0200E2FEC00F0200E49
:100720002FEC00F0938EB7EC0AF057EC19F08092A2
:100730007BEF01F0F5EF03F082908080EEEF03F0A5
:1007400057EC19F0939E810E1E6E0F0E206E800ED8
:100750001C6E060E016E100E2FEC00F0400E2FECFA
:1007600000F0530E2FEC00F0450E2FEC00F04E0E73
:100770002FEC00F0440E2FEC00F0490E2FEC00F0AF
:100780004E0E2FEC00F0470E2FEC00F0200E2FEC59
:1007900000F0440E2FEC00F0410E2FEC00F0540E50
:1007A0002FEC00F0410E2FEC00F0200E2FEC00F0AB
:1007B000540E2FEC00F04F0E2FEC00F0200E2FEC1B
:1007C00000F0500E2FEC00F0430E2FEC00F0200E46
:1007D0002FEC00F0200E2FEC00F0938EB3EC15F010
:1007E00057EC19F080907BEF01F04DEF04F047EFEC
:1007F00004F057EC19F0939E810E1E6E0F0E206EC2
:10080000800E1C6E060E016E100E2FEC00F0400ED6
:100810002FEC00F0520E2FEC00F0550E2FEC00F0F4
:100820004E0E2FEC00F04E0E2FEC00F0490E2FEC88
:1008300000F04E0E2FEC00F0470E2FEC00F0200ED3
:100840002FEC00F0540E2FEC00F0450E2FEC00F0D2
:10085000530E2FEC00F0540E2FEC00F0200E2FEC76
:1008600000F0200E2FEC00F0200E2FEC00F0200EF8
:100870002FEC00F0200E2FEC00F0200E2FEC00F0FB
:10088000200E2FEC00F0200E2FEC00F0938EFBECEE
:1008900017F057EC19F057EC19F03AEF02F0938487
:1008A0009382100E6D6E280E6C6E6B6A696A110E63
:1008B0006E6E5EEC04F065EC04F012006B800400D8
:1008C0006BA064EF04F0FBD712006B8404006BA4F0
:1008D0006BEF04F0FBD71200F1DF78C06FFF04006C
:1008E0006DA074EF04F0FBD7020EF4EC00F077C0BB
:1008F0006FFF04006DA07EEF04F0FBD7020EF4EC56
:1009000000F076C06FFF010EF4EC00F004006DA063
:100910008BEF04F0FBD7020EF4EC00F0D6DF1200F0
:10092000CDDFD00E6F6E04006DA098EF04F0FBD702
:10093000020EF4EC00F03B0E6F6E04006DA0A2EF0F
:1009400004F0FBD7020EF4EC00F0B8DFD10E6F6EAE
:1009500004006DA0ADEF04F0FBD7020EF4EC00F044
:100960006B8604006DB0B6EF04F0FBD76B886B9A12
:100970006FCF41F0050EF4EC00F06B8604006DB013
:10098000C3EF04F0FBD76B886B9A6FCF40F0050E76
:10099000F4EC00F06B8604006DB0D0EF04F0FBD7F0
:1009A0006B886B9A6FCF43F0050EF4EC00F06B860A
:1009B00004006DB0DDEF04F0FBD76B886B9A6FCF4E
:1009C00042F0050EF4EC00F06B8604006DB0EAEF27
:1009D00004F0FBD76B886B9A6FCF45F0050EF4ECF3
:1009E00000F06B8604006DB0F7EF04F0FBD76B8866
:1009F0006B8A6FCF44F0030EF4EC00F066DFD1ECAD
:100A00000BF05CDFD00E6F6E04006DA009EF05F0F7
:100A1000FBD7020EF4EC00F0430E6F6E04006DA0E5
:100A200013EF05F0FBD7020EF4EC00F047DFD10E18
:100A30006F6E04006DA01EEF05F0FBD7020EF4EC04
:100A400000F06B8604006DB027EF05F0FBD76B88D4
:100A50006B9A6FCF47F0050EF4EC00F06B86040044
:100A60006DB034EF05F0FBD76B886B9A6FCF46F013
:100A7000050EF4EC00F06B8604006DB041EF05F05C
:100A8000FBD76B886B9A6FCF49F0050EF4EC00F042
:100A90006B8604006DB04EEF05F0FBD76B886B9A48
:100AA0006FCF48F0050EF4EC00F06B8604006DB0DB
:100AB0005BEF05F0FBD76B886B9A6FCF4BF0050EA1
:100AC000F4EC00F06B8604006DB068EF05F0FBD726
:100AD0006B886B8A6FCF4AF0030EF4EC00F0F5DE02
:100AE000D1EC0BF0EBDE180E6F6E04006DA07AEF08
:100AF00005F0FBD7020EF4EC00F0030E6F6E04005D
:100B00006DA084EF05F0FBD7020EF4EC00F0D6DE0A
:100B1000190E6F6E04006DA08FEF05F0FBD7020E6B
:100B2000F4EC00F06B8604006DB098EF05F0FBD795
:100B30006B886B9A6FCF4CF0050EF4EC00F06B866F
:100B400004006DB0A5EF05F0FBD76B886B9A6FCFF3
:100B50004DF0050EF4EC00F06B8604006DB0B2EFC2
:100B600005F0FBD76B886B9A6FCF4EF0050EF4EC57
:100B700000F06B8604006DB0BFEF05F0FBD76B880B
:100B80006B9A6FCF4FF0050EF4EC00F06B8604000B
:100B90006DB0CCEF05F0FBD76B886B9A6FCF50F040
:100BA000050EF4EC00F06B8604006DB0D9EF05F093
:100BB000FBD76B886B8A6FCF51F0030EF4EC00F01B
:100BC00084DED1EC0BF0180E786F0A0E776F110EE1
:100BD000766F82DE120072DED00E6F6E04006DA0A2
:100BE000F3EF05F0FBD7020EF4EC00F03B0E6F6E56
:100BF00004006DA0FDEF05F0FBD7020EF4EC00F051
:100C00005DDED10E6F6E04006DA008EF06F0FBD71D
:100C1000020EF4EC00F06B8604006DB011EF06F0EC
:100C2000FBD76B886B9A6FCF41F0050EF4EC00F0A8
:100C30006B8604006DB01EEF06F0FBD76B886B9AD5
:100C40006FCF40F0050EF4EC00F06B8604006DB041
:100C50002BEF06F0FBD76B886B9A6FCF43F0050E36
:100C6000F4EC00F06B8604006DB038EF06F0FBD7B3
:100C70006B886B9A6FCF42F0050EF4EC00F06B8638
:100C800004006DB045EF06F0FBD76B886B9A6FCF11
:100C900045F0050EF4EC00F06B8604006DB052EFE9
:100CA00006F0FBD76B886B8A6FCF44F0030EF4EC31
:100CB00000F00BDED1EC0BF001DED00E6F6E040005
:100CC0006DA064EF06F0FBD7020EF4EC00F0430ECB
:100CD0006F6E04006DA06EEF06F0FBD7020EF4EC11
:100CE00000F05EEC04F0D10E6F6E04006DA07AEFA0
:100CF00006F0FBD7020EF4EC00F06B8604006DB03A
:100D000083EF06F0FBD76B886B9A6FCF47F0050E29
:100D1000F4EC00F06B8604006DB090EF06F0FBD7AA
:100D20006B886B9A6FCF46F0050EF4EC00F06B8683
:100D300004006DB09DEF06F0FBD76B886B9A6FCF08
:100D400049F0050EF4EC00F06B8604006DB0AAEFDC
:100D500006F0FBD76B886B9A6FCF48F0050EF4EC6A
:100D600000F06B8604006DB0B7EF06F0FBD76B8820
:100D70006B9A6FCF4BF0050EF4EC00F06B8604001D
:100D80006DB0C4EF06F0FBD76B886B8A6FCF4AF06B
:100D9000030EF4EC00F065EC04F012002CEC07F00C
:100DA0006BEC07F0ADEC07F03CEC08F0D00E786F80
:100DB0006B0E776F800E766F6CEC04F0640EE7ECD0
:100DC00000F0D00E786F6B0E776F010E766F6CECC3
:100DD00004F0D00E786F6C0E776F766B6CEC04F0CD
:100DE000D00E786F1A0E776F71C076F06CEC04F04D
:100DF000D00E786F1B0E776F72C076F06CEC04F03B
:100E0000D00E786F1C0E776F5DC076F06CEC04F03E
:100E1000D00E786F1D0E776F5CC076F06CEC04F02E
:100E2000D00E786F370E776F120E766F6CEC04F081
:100E3000D00E786F380E776F010E766F6CEC04F081
:100E40000A0EE7EC00F0D00E786F0A0E776F110EE5
:100E5000766F6CEC04F01200020E026E036A27C07B
:100E600005F026500FEC01F0D8A43BEF07F05D9899
:100E70005D966AEF07F0040E026E036A27C005F064
:100E800026500FEC01F0D8A44AEF07F05D985D867C
:100E90006AEF07F0080E026E036A27C005F02650BD
:100EA0000FEC01F0D8A459EF07F05D885D966AEF6A
:100EB00007F0100E026E036A27C005F026500FECF3
:100EC00001F0D8A468EF07F05D885D866AEF07F04F
:100ED0005D885D961200FA0E026E036A35C005F059
:100EE00034500FEC01F0D8A47AEF07F072997297A2
:100EF000ACEF07F0F40E026E010E036E35C005F084
:100F000034500FEC01F0D8A48AEF07F07299728781
:100F1000ACEF07F0E80E026E030E036E35C005F06D
:100F200034500FEC01F0D8A49AEF07F07289729751
:100F3000ACEF07F0D00E026E070E036E35C005F061
:100F400034500FEC01F0D8A4AAEF07F07289728731
:100F5000ACEF07F0729972871200050E026E036AF9
:100F600023C005F022500FEC01F0D8A4BEEF07F02B
:100F70005C865C845C825C903BEF08F00A0E026E3B
:100F8000036A23C005F022500FEC01F0D8A4CFEF84
:100F900007F05C865C845C925C803BEF08F0140E8A
:100FA000026E036A23C005F022500FEC01F0D8A4B2
:100FB000E0EF07F05C865C845C925C903BEF08F0AD
:100FC000290E026E036A23C005F022500FEC01F0D7
:100FD000D8A4F1EF07F05C865C945C825C803BEF08
:100FE00008F05C0E026E036A23C005F022500FEC7D
:100FF00001F0D8A402EF08F05C865C945C825C90FF
:101000003BEF08F0B80E026E036A23C005F02250D1
:101010000FEC01F0D8A413EF08F05C865C945C92AE
:101020005C803BEF08F0CC0E026E010E036E23C015
:1010300005F022500FEC01F0D8A425EF08F05C86F3
:101040005C945C925C903BEF08F06A0E026E040EBA
:10105000036E23C005F022500FEC01F0D8A437EF47
:1010600008F05C965C945C925C903BEF08F05C86C8
:101070005C945C825C901200050E026E036A33C0C1
:1010800005F032500FEC01F0D8A44EEF08F0728357
:101090007281718571837191E5EF08F00A0E026E1D
:1010A000036A33C005F032500FEC01F0D8A460EFB2
:1010B00008F072837281718571937181E5EF08F098
:1010C000140E026E036A33C005F032500FEC01F0CB
:1010D000D8A472EF08F07283728171857193719157
:1010E000E5EF08F0290E026E036A33C005F03250B6
:1010F0000FEC01F0D8A484EF08F07283728171952F
:1011000071837181E5EF08F05C0E026E036A33C0F3
:1011100005F032500FEC01F0D8A496EF08F072837E
:101120007281719571837191E5EF08F0B80E026ECE
:10113000036A33C005F032500FEC01F0D8A4A8EFD9
:1011400008F072837281719571937181E5EF08F0F7
:10115000FA0E026E036A33C005F032500FEC01F054
:10116000D8A4BAEF08F0728372817195719371916E
:10117000E5EF08F0100E026E0E0E036E33C005F0A0
:1011800032500FEC01F0D8A4CDEF08F072937281C9
:10119000719571937191E5EF08F0600E026E220E69
:1011A000036E33C005F032500FEC01F0D8A4E0EF2D
:1011B00008F072937291719571937191E5EF08F057
:1011C000728372817195718371911200C76A300EBA
:1011D000C66E100ECB6E120025EC15F08292060E34
:1011E000C96E010EF4EC00F08282010EF4EC00F006
:1011F0008292010EC96E010EF4EC00F0C96A010E74
:10120000F4EC00F0C96A010EF4EC00F0C00EC96EF7
:10121000010EF4EC00F08282030E056EE80EE8EC9D
:1012200000F012008292060EC96E010EF4EC00F07E
:101230008282010EF4EC00F08292120EC96E010E51
:10124000F4EC00F06EC0C9FF010EF4EC00F06DC0CC
:10125000C9FF010EF4EC00F070C0C9FF010EF4EC00
:1012600000F06FC0C9FF010EF4EC00F041C0C9FFEF
:10127000010EF4EC00F040C0C9FF010EF4EC00F0E8
:1012800043C0C9FF010EF4EC00F042C0C9FF010EDB
:10129000F4EC00F045C0C9FF010EF4EC00F044C0CE
:1012A000C9FF010EF4EC00F047C0C9FF010EF4ECD9
:1012B00000F046C0C9FF010EF4EC00F049C0C9FFC0
:1012C000010EF4EC00F048C0C9FF010EF4EC00F090
:1012D0004BC0C9FF010EF4EC00F04AC0C9FF010E7B
:1012E000F4EC00F082820C0E6F27000E70231200C7
:1012F0008292060EC96E010EF4EC00F08282010E9D
:10130000F4EC00F08292120EC96E010EF4EC00F0C3
:101310006EC0C9FF010EF4EC00F06DC0C9FF010EF4
:10132000F4EC00F070C0C9FF010EF4EC00F06FC0E7
:10133000C9FF010EF4EC00F041C0C9FF010EF4EC4E
:1013400000F040C0C9FF010EF4EC00F043C0C9FF3B
:10135000010EF4EC00F042C0C9FF010EF4EC00F005
:1013600045C0C9FF010EF4EC00F044C0C9FF010EF6
:10137000F4EC00F047C0C9FF010EF4EC00F046C0E9
:10138000C9FF010EF4EC00F049C0C9FF010EF4ECF6
:1013900000F048C0C9FF010EF4EC00F04BC0C9FFDB
:1013A000010EF4EC00F04AC0C9FF010EF4EC00F0AD
:1013B0004DC0C9FF010EF4EC00F04CC0C9FF010E96
:1013C000F4EC00F04FC0C9FF010EF4EC00F04EC089
:1013D000C9FF010EF4EC00F051C0C9FF010EF4EC9E
:1013E00000F050C0C9FF010EF4EC00F08282120E32
:1013F0006F27000E70231200E9DE366A376A36C0A6
:1014000002F037C003F0056AFB0E06EC01F0D8A429
:1014100016EF0AF03650950FE96E020E3720EA6E8D
:10142000EF6A362A000E3722D8A0E9D7366A376A23
:1014300036C002F037C003F0056AFB0E06EC01F07F
:10144000D8A42FEF0AF03650910FE96E030E372023
:10145000EA6EEF6A362A000E3722D8A0E9D78292C8
:10146000010EF4EC00F0130EC96E010EF4EC00F066
:1014700064C0C9FF010EF4EC00F063C0C9FF010EA7
:10148000F4EC00F066C0C9FF010EF4EC00F065C09A
:10149000C9FF010EF4EC00F0366A376A36C002F07C
:1014A00037C003F0056AFB0E06EC01F0D8A46DEF1F
:1014B0000AF0C96A010EF4EC00F03650950FE96E9F
:1014C000020E3720EA6EC9CFEFFF010EF4EC00F0F8
:1014D000362A000E3722D8A0E1D7366A376A36C0DE
:1014E00002F037C003F0056AFB0E06EC01F0D8A449
:1014F0008EEF0AF0C96A010EF4EC00F03650910F3D
:10150000E96E030E3720EA6EC9CFEFFF010EF4EC4F
:1015100000F0362A000E3722D8A0E1D7828265512A
:10152000FF08146EFF0E6655156E14C002F015C04C
:1015300003F0020E056E000E0CEC01F0D8A4A7EF2C
:101540000AF0000E6527020E6623B6EF0AF0632B41
:10155000000E64236551FF08146EFF0E6655156E6C
:101560001450FF08656F010E1554666F12008292C9
:10157000060EC96E010EF4EC00F082828292600EBB
:10158000C96E010EF4EC00F08282270E056E100E7B
:10159000E8EC00F0270E056E100EE8EC00F0270EC8
:1015A000056E100EE8EC00F0270E056E100EE8EC4C
:1015B00000F0130E056E880EE8EC00F01200736B5D
:1015C0000400020E735DD8B0A4EF0BF00400735159
:1015D0000008D8A4F7EF0AF07FC002F0036A100EEB
:1015E000046E056A2DEC01F0746F01EF0BF07FC003
:1015F00002F0036A100E046E056A2DEC01F006C0BD
:1016000074F0040074510008D8A40BEF0BF0300EF6
:10161000806F9FEF0BF0040074510108D8A415EF00
:101620000BF0310E806F9FEF0BF004007451020835
:10163000D8A41FEF0BF0320E806F9FEF0BF0040069
:1016400074510308D8A429EF0BF0330E806F9FEF7D
:101650000BF0040074510408D8A433EF0BF0340EDF
:10166000806F9FEF0BF0040074510508D8A43DEF84
:101670000BF0350E806F9FEF0BF0040074510608DD
:10168000D8A447EF0BF0360E806F9FEF0BF00400ED
:1016900074510708D8A451EF0BF0370E806F9FEFFD
:1016A0000BF0040074510808D8A45BEF0BF0380E5F
:1016B000806F9FEF0BF0040074510908D8A465EF08
:1016C0000BF0390E806F9FEF0BF0040074510A0885
:1016D000D8A46FEF0BF0410E806F9FEF0BF004006A
:1016E00074510B08D8A479EF0BF0420E806F9FEF76
:1016F0000BF0040074510C08D8A483EF0BF0430ED8
:10170000806F9FEF0BF0040074510D08D8A48DEF8B
:101710000BF0440E806F9FEF0BF0040074510E0825
:10172000D8A497EF0BF0450E806F9FEF0BF00400ED
:1017300074510F08D8A49FEF0BF0460E806FA5ECF4
:101740000BF0732BD8A03CD71200949E829E020E01
:10175000F4EC00F0D1EC0BF05E6A0400080E5E5C65
:10176000D8B0C6EF0BF0800EE96EEA6A5E50000F4B
:1017700002EC00F0D8B4829ED8A4828E020EF4EC63
:1017800000F0D1EC0BF05E2AD8A0E7D7030EF4EC02
:1017900000F0828E020EF4EC00F0D1EC0BF0948E8F
:1017A0001200120016EF0CF057EC19F0939E810E08
:1017B0001E6E0F0E206E800E1C6E060E016E100E39
:1017C0002FEC00F0400E2FEC00F0570E2FEC00F045
:1017D000410E2FEC00F0490E2FEC00F0540E2FECD0
:1017E00000F0490E2FEC00F04E0E2FEC00F0470EEB
:1017F0002FEC00F0200E2FEC00F0460E2FEC00F046
:101800004F0E2FEC00F0520E2FEC00F0200E2FECBC
:1018100000F0440E2FEC00F0410E2FEC00F0540EBF
:101820002FEC00F0410E2FEC00F0938E810E1E6E17
:101830000F0E206E010E1C6E060E0C6E0D6A100E41
:101840000E6E270E0F6E6EEC00F0D8A07FEF0FF03B
:101850005A08D8A4F8D71C0E0B6EDC0E126E136A51
:10186000DA6A810EA5EC00F0D8A07FEF0FF0746B60
:10187000A1EC0FF075C008F0096A046A100E056E3D
:1018800045EC01F0246E07C025F0010E746FA1EC49
:101890000FF075C008F0096A046A010E056E45EC88
:1018A00001F0146E07C015F014502426155025229F
:1018B000020E746FA1EC0FF075C008F0096A100EEB
:1018C000046E056A45EC01F0146E07C015F0145063
:1018D000242615502522030E746FA1EC0FF07551CC
:1018E0002426E86A2522040E746FA1EC0FF075C05F
:1018F00008F0096A046A100E056E45EC01F03C6EB2
:1019000007C03DF0050E746FA1EC0FF075C008F034
:10191000096A046A010E056E45EC01F0146E07C0F9
:1019200015F014503C2615503D22060E746FA1ECA4
:101930000FF075C008F0096A100E046E056A45ECD8
:1019400001F0146E07C015F014503C2615503D22CE
:10195000070E746FA1EC0FF075513C26E86A3D222A
:10196000080E746FA1EC0FF075C008F0096A046AE4
:10197000100E056E45EC01F0696F07C06AF0090EA4
:10198000746FA1EC0FF075C008F0096A046A010ECB
:10199000056E45EC01F0146E07C015F01450692770
:1019A00015506A230A0E746FA1EC0FF075C008F091
:1019B000096A100E046E056A45EC01F0146E07C04A
:1019C00015F01450692715506A230B0E746FA1ECA3
:1019D0000FF075516927E86A6A230C0E746FA1EC49
:1019E0000FF075C008F0096A046A100E056E45EC28
:1019F00001F0266E07C027F00D0E746FA1EC0FF0FA
:101A000075C008F0096A046A010E056E45EC01F024
:101A1000146E07C015F014502626155027220E0EFE
:101A2000746FA1EC0FF075C008F0096A100E046E17
:101A3000056A45EC01F0146E07C015F01450262617
:101A4000155027220F0E746FA1EC0FF0755126264A
:101A5000E86A2722100E746FA1EC0FF075C008F031
:101A6000096A046A100E056E45EC01F0346E07C079
:101A700035F0110E746FA1EC0FF075C008F0096A13
:101A8000046A010E056E45EC01F0146E07C015F0F6
:101A90001450342615503522120E746FA1EC0FF03D
:101AA00075C008F0096A100E046E056A45EC01F075
:101AB000146E07C015F01450342615503522130E3D
:101AC000746FA1EC0FF075513426E86A3522140EBC
:101AD000746FA1EC0FF075C008F0096A046A100E6B
:101AE000056E45EC01F0226E07C023F0150E746FF1
:101AF000A1EC0FF075C008F0096A046A010E056ECA
:101B000045EC01F0146E07C015F014502226155054
:101B10002322160E746FA1EC0FF075C008F0096A4D
:101B2000100E046E056A45EC01F0146E07C015F046
:101B30001450222615502322170E746FA1EC0FF0BB
:101B400075512226E86A2322180E746FA1EC0FF05B
:101B500075C008F0096A046A100E056E45EC01F0C4
:101B6000326E07C033F0190E746FA1EC0FF075C020
:101B700008F0096A046A010E056E45EC01F0146E66
:101B800007C015F014503226155033221A0E746F08
:101B9000A1EC0FF075C008F0096A100E046E056A1A
:101BA00045EC01F0146E07C015F0145032261550A4
:101BB00033221B0E746FA1EC0FF075513226E86AC8
:101BC0003322A96AAA6A2450D8EC00F02550D8EC38
:101BD00000F00A0EE7EC00F0020EA96EAA6A3C5073
:101BE000D8EC00F03D50D8EC00F00A0EE7EC00F025
:101BF000040EA96EAA6A6951D8EC00F06A51D8ECBB
:101C000000F00A0EE7EC00F0060EA96EAA6A265054
:101C1000D8EC00F02750D8EC00F00A0EE7EC00F00A
:101C2000080EA96EAA6A3450D8EC00F03550D8ECF2
:101C300000F00A0EE7EC00F00A0EA96EAA6A225024
:101C4000D8EC00F02350D8EC00F00A0EE7EC00F0DE
:101C50000C0EA96EAA6A3250D8EC00F03350D8ECC2
:101C600000F00A0EE7EC00F0010E366E376A36C05F
:101C700002F037C003F0056A040E06EC01F0D8A4A8
:101C800053EF0EF08280010E056E5E0EE8EC00F060
:101C90008290010E056E5E0EE8EC00F0362A000E12
:101CA0003722D8A0E4D7246A256A3C6A3D6A696B6A
:101CB0006A6B266A276A346A356A226A236A326A3C
:101CC000336AA96AAA6AD0EC00F0246ED0EC00F066
:101CD000256E0A0EE7EC00F0020EA96EAA6AD0EC9F
:101CE00000F03C6ED0EC00F03D6E0A0EE7EC00F028
:101CF000040EA96EAA6AD0EC00F0696FD0EC00F077
:101D00006A6F0A0EE7EC00F0060EA96EAA6AD0EC24
:101D100000F0266ED0EC00F0276E0A0EE7EC00F023
:101D2000080EA96EAA6AD0EC00F0346ED0EC00F078
:101D3000356E0A0EE7EC00F00A0EA96EAA6AD0EC26
:101D400000F0226ED0EC00F0236E0A0EE7EC00F0FB
:101D50000C0EA96EAA6AD0EC00F0326ED0EC00F046
:101D6000336E0A0EE7EC00F057EC19F002680368D6
:101D700025C005F024500FEC01F0D8A4C4EF0EF0FC
:101D8000F40E246E010E256E026803683DC005F056
:101D90003C500FEC01F0D8A4D1EF0EF0320E3C6EA7
:101DA0003D6A026803686AC005F069510FEC01F0F2
:101DB000D8A4DEEF0EF01E0E696F6A6B026803682E
:101DC00027C005F026500FEC01F0D8A4EBEF0EF081
:101DD000080E266E276A0268036835C005F0345085
:101DE0000FEC01F0D8A4F9EF0EF0E80E346E030EFC
:101DF000356E0268036823C005F022500FEC01F035
:101E0000D8A406EF0FF05C0E226E236A0268036806
:101E100033C005F032500FEC01F0D8A413EF0FF0EF
:101E20005C0E326E336A12003EDF7AC080F0A5ECA1
:101E30000BF0050EF4EC00F025C080F0A5EC0BF0E3
:101E4000050EF4EC00F024C080F0A5EC0BF0050EBC
:101E5000F4EC00F03DC080F0A5EC0BF0050EF4ECC6
:101E600000F03CC080F0A5EC0BF0050EF4EC00F0A7
:101E70006AC080F0A5EC0BF0050EF4EC00F069C030
:101E800080F0A5EC0BF0050EF4EC00F027C080F01C
:101E9000A5EC0BF0050EF4EC00F026C080F0A5ECEC
:101EA0000BF0050EF4EC00F035C080F0A5EC0BF063
:101EB000050EF4EC00F034C080F0A5EC0BF0050E3C
:101EC000F4EC00F023C080F0A5EC0BF0050EF4EC70
:101ED00000F022C080F0A5EC0BF0050EF4EC00F051
:101EE00033C080F0A5EC0BF0050EF4EC00F032C02E
:101EF00080F0A5EC0BF0050EF4EC00F012008290DF
:101F0000010E366E376A36C002F037C003F0056A3C
:101F1000040E06EC01F0D8A49FEF0FF08082010EB2
:101F2000056E5E0EE8EC00F08092010E056E5E0E0E
:101F3000E8EC00F0362A000E3722D8A0E4D78090D3
:101F40001200146A156A7451810FE96E000EEA6A74
:101F5000EA22EFCF14F0300E026E036A15C005F0CE
:101F600014500FEC01F0D8A4B9EF0FF0756B98EF97
:101F700010F0310E026E036A15C005F014500FEC1C
:101F800001F0D8A4C8EF0FF0010E756F98EF10F0B4
:101F9000320E026E036A15C005F014500FEC01F00A
:101FA000D8A4D7EF0FF0020E756F98EF10F0330E34
:101FB000026E036A15C005F014500FEC01F0D8A4AE
:101FC000E6EF0FF0030E756F98EF10F0340E026E0F
:101FD000036A15C005F014500FEC01F0D8A4F5EF1A
:101FE0000FF0040E756F98EF10F0350E026E036A55
:101FF00015C005F014500FEC01F0D8A404EF10F058
:10200000050E756F98EF10F0360E026E036A15C05C
:1020100005F014500FEC01F0D8A413EF10F0060EE9
:10202000756F98EF10F0370E026E036A15C005F059
:1020300014500FEC01F0D8A422EF10F0070E756FCA
:1020400098EF10F0380E026E036A15C005F01450B8
:102050000FEC01F0D8A431EF10F0080E756F98EF77
:1020600010F0390E026E036A15C005F014500FEC23
:1020700001F0D8A440EF10F0090E756F98EF10F042
:10208000410E026E036A15C005F014500FEC01F00A
:10209000D8A44FEF10F00A0E756F98EF10F0420EB3
:1020A000026E036A15C005F014500FEC01F0D8A4BD
:1020B0005EEF10F00B0E756F98EF10F0430E026E8E
:1020C000036A15C005F014500FEC01F0D8A46DEFB1
:1020D00010F00C0E756F98EF10F0440E026E036A4C
:1020E00015C005F014500FEC01F0D8A47CEF10F0EF
:1020F0000D0E756F98EF10F0450E026E036A15C055
:1021000005F014500FEC01F0D8A48BEF10F00E0E78
:10211000756F98EF10F0460E026E036A15C005F059
:1021200014500FEC01F0D8A498EF10F00F0E756F5B
:10213000120025EC15F0F40E3E6E010E3F6E3EC00F
:1021400002F03FC003F0056AF80E02EC01F0D8A4DB
:102150002AEF11F03E509D0FE96E000E3F20EA6E0F
:10216000EFCF14F01450FF08D8A4E868FF0A146EEB
:102170003E28166E000E3F20176E16509D0FE96E1A
:10218000000E1720EA6EEFCF16F01650FF08D8A405
:10219000E868FF0A166E14C002F0165021EC01F038
:1021A000166E176E020E3E24186E000E3F20196E3A
:1021B00018509D0FE96E000E1920EA6EEFCF18F04F
:1021C0001850FF08D8A4E868FF0A186E16501710B8
:1021D000026E185021EC01F0186E196E030E3E24A9
:1021E0001A6E000E3F201B6E1A509D0FE96E000EF6
:1021F0001B20EA6EEFCF1AF01A50FF08D8A4E86847
:10220000FF0A1A6E18501910026E1A5021EC01F0D4
:102210001A6E1B6E04001A501B10D8B426EF11F072
:102220003EC002F03FC003F0056A030E09EC01F066
:10223000D8A421EF11F0040E3E5E000E3F5A23EFAA
:1022400011F0BAEF11F07BD728EF11F0BAEF11F0CF
:10225000BAEF11F0FC0E3E5C146E000E3F58156E86
:102260001450990FE96E010E1520EA6EEFCF14F0AD
:102270001450FF08D8A4E868FF0A146E3E28166EB2
:10228000000E3F20176EFC0E165E000E175A1650F9
:10229000990FE96E010E1720EA6EEFCF16F0165077
:1022A000FF08D8A4E868FF0A166E14C002F01650A2
:1022B00021EC01F0166E176E020E3E24186E000E11
:1022C0003F20196EFC0E185E000E195A1850990F17
:1022D000E96E010E1920EA6EEFCF18F01850FF08D2
:1022E000D8A4E868FF0A186E16501710026E18502E
:1022F00021EC01F0186E196E030E3E241A6E000ECA
:102300003F201B6EFC0E1A5E000E1B5A1A50990FCE
:10231000E96E010E1B20EA6EEFCF1AF01A50FF088B
:10232000D8A4E868FF0A1A6E18501910026E1A50E5
:1023300021EC01F01A6E1B6E04001A501B10D8B469
:10234000B8EF11F03EC002F03FC003F0056A030E83
:1023500009EC01F0D8A4B3EF11F0040E3E5E000EBC
:102360003F5AB5EF11F0BAEF11F0E9D6BAEF11F01C
:10237000BAEF11F024C002F025C003F03CC004F015
:102380003DC005F02DEC01F006C014F007C015F0BB
:102390000A0E026E036A15C005F014500FEC01F02E
:1023A000D8A4EEEF11F069C008F06AC009F024C0AB
:1023B00004F025C005F045EC01F0146E07C015F0DF
:1023C00014C002F015C003F0280E046E056A2DEC4F
:1023D00001F0616F03C062F00CEF12F069C008F009
:1023E0006AC009F024C004F025C005F045EC01F0F6
:1023F000146E07C015F014C002F015C003F01C0ED7
:10240000046E056A2DEC01F0146E03C015F014285B
:10241000616F000E1520626F3EC002F03FC003F0F6
:10242000056A000EFFEC00F0146E9D51FF08D8A461
:10243000E868FF0A166E14C002F0165021EC01F095
:10244000166E176E040016501710D8B44EEF12F027
:102450006F6B020E706F6D6B6E6B4CEF12F0939E94
:10246000810E1E6E0F0E206E800E1C6E060E016E0B
:10247000100E2FEC00F0540E2FEC00F06EC007F0A1
:102480006D5111EC00F02C0E2FEC00F070C007F035
:102490006F5111EC00F0938EB1EF14F03EC002F0DA
:1024A0003FC003F0056AFB0E02EC01F0D8A486EFF2
:1024B00013F03E509D0FE96E000E3F20EA6EEFCF05
:1024C0006EF03E28146E000E3F20156E14509D0FC6
:1024D000E96E000E1520EA6EEFCF6DF0020E3E247D
:1024E000146E000E3F20156E14509D0FE96E000E05
:1024F0001520EA6EEFCF70F0030E3E24146E000E2E
:102500003F20156E14509D0FE96E000E1520EA6EE7
:10251000EFCF6FF0A9EF12F0939E810E1E6E0F0E9B
:10252000206E800E1C6E060E016E100E2FEC00F059
:10253000540E2FEC00F06EC007F06D5111EC00F05E
:102540002C0E2FEC00F070C007F06F5111EC00F072
:10255000938E040E3E26000E3F226F51FF08146E2C
:10256000FF0E7055156E61C008F062C009F0046A74
:10257000020E056E45EC01F0166E07C017F014C090
:1025800002F015C003F017C005F0165009EC01F079
:10259000D8A4DDEF12F061C008F062C009F0046A4F
:1025A000020E056E45EC01F0146E07C015F01450D4
:1025B0006F271550702384EF13F06F51FF08146ECE
:1025C000FF0E7055156E61C008F062C009F0046A14
:1025D000020E056E45EC01F0166E07C017F016C02E
:1025E00002F017C003F0046805682DEC01F006C086
:1025F00016F007C017F014C002F015C003F017C0A2
:1026000005F0165009EC01F0D8A440EF13F061C0BA
:1026100008F062C009F0046A020E056E45EC01F094
:10262000146E07C015F014C002F015C003F0046862
:1026300005682DEC01F0146E03C015F014506D27E1
:1026400015506E2361C008F062C009F0046A020EE2
:10265000056E45EC01F0146E07C015F014C002F0D1
:1026600015C003F0046805682DEC01F006C014F0F5
:1026700007C015F014506F271550702384EF13F026
:1026800061C008F062C009F0046A020E056E45ECF4
:1026900001F0146E07C015F014C002F015C003F06D
:1026A000046805682DEC01F0146E03C015F06D513F
:1026B00014266E51152214286D6F000E15206E6FB2
:1026C00061C008F062C009F0046A020E056E45ECB4
:1026D00001F0146E07C015F014C002F015C003F02D
:1026E000046805682DEC01F006C014F007C015F071
:1026F0006F51FF08166EFF0E7055176E1650145C62
:102700006F6F17501558706FB1EF14F03E50990F5E
:10271000E96E010E3F20EA6EEFCF6EF03E28146E98
:10272000000E3F20156E1450990FE96E010E152012
:10273000EA6EEFCF6DF0020E3E24146E000E3F20C5
:10274000156E1450990FE96E010E1520EA6EEFCF49
:1027500070F0030E3E24146E000E3F20156E1450D0
:10276000990FE96E010E1520EA6EEFCF6FF0D6EFEC
:1027700013F0939E810E1E6E0F0E206E800E1C6E47
:10278000060E016E100E2FEC00F0540E2FEC00F030
:102790006EC007F06D5111EC00F02C0E2FEC00F024
:1027A00070C007F06F5111EC00F0938E040E3E26BE
:1027B000000E3F226F51FF08146EFF0E7055156E0C
:1027C00061C008F062C009F0046A020E056E45ECB3
:1027D00001F0166E07C017F014C002F015C003F028
:1027E00017C005F0165009EC01F0D8A40AEF14F058
:1027F00061C008F062C009F0046A020E056E45EC83
:1028000001F0146E07C015F014506F271550702397
:10281000B1EF14F06F51FF08146EFF0E7055156E76
:1028200061C008F062C009F0046A020E056E45EC52
:1028300001F0166E07C017F016C002F017C003F0C3
:10284000046805682DEC01F006C016F007C017F00B
:1028500014C002F015C003F017C005F0165009ECC3
:1028600001F0D8A46DEF14F061C008F062C009F067
:10287000046A020E056E45EC01F0146E07C015F0F7
:1028800014C002F015C003F0046805682DEC01F0D7
:10289000146E03C015F014506D2715506E2361C0DF
:1028A00008F062C009F0046A020E056E45EC01F002
:1028B000146E07C015F014C002F015C003F00468D0
:1028C00005682DEC01F006C014F007C015F0145097
:1028D0006F2715507023B1EF14F061C008F062C08B
:1028E00009F0046A020E056E45EC01F0146E07C093
:1028F00015F014C002F015C003F0046805682DEC53
:1029000001F0146E03C015F06D5114266E5115229E
:1029100014286D6F000E15206E6F61C008F062C044
:1029200009F0046A020E056E45EC01F0146E07C052
:1029300015F014C002F015C003F0046805682DEC12
:1029400001F006C014F007C015F06F51FF08166EB5
:10295000FF0E7055176E1650145C6F6F1750155898
:10296000706FE3EF14F0939E810E1E6E0F0E206EBB
:10297000800E1C6E060E016E100E2FEC00F0680E1D
:102980002FEC00F03FC007F03E5011EC00F0810E3C
:102990001E6E0F0E206E800E1C6E060E016E100E47
:1029A0002FEC00F07C0E2FEC00F06EC007F06D51A4
:1029B00011EC00F02C0E2FEC00F070C007F06F51FE
:1029C00011EC00F0938E070E056ED00EE8EC00F0CF
:1029D00012008292060EC96E010EF4EC00F08282A3
:1029E000010EF4EC00F08292120EC96E010EF4ECAE
:1029F00000F0C96A010EF4EC00F0C96A010EF4ECB3
:102A000000F03FC0C9FF010EF4EC00F03EC0C9FF6A
:102A1000010EF4EC00F06EC0C9FF010EF4EC00F002
:102A20006DC0C9FF010EF4EC00F070C0C9FF010ECB
:102A3000F4EC00F06FC0C9FF010EF4EC00F08282EC
:102A4000040E3E26000E3F2212008292130EC96E23
:102A5000010EF4EC00F0C96A010EF4EC00F0C96A52
:102A6000010EF4EC00F0C96A010EF4EC00F0C96A42
:102A7000010EF4EC00F0366A376A36C002F037C057
:102A800003F0056AFB0E06EC01F0D8A459EF15F02F
:102A9000C96A010EF4EC00F036509D0FE96E000E8D
:102AA0003720EA6EC9CFEFFF362A000E3722D8A0B2
:102AB000E4D7366A376A36C002F037C003F0056AD9
:102AC000FB0E06EC01F0D8A477EF15F0C96A010EF1
:102AD000F4EC00F03650990FE96E010E3720EA6EE3
:102AE000C9CFEFFF362A000E3722D8A0E4D7828262
:102AF0001200ABDF366A376A36C002F037C003F027
:102B0000056AFB0E06EC01F0D8A496EF15F03650DE
:102B10009D0FE96E000E3720EA6EEFCF7FF0DFECFD
:102B20000AF0362A000E3722D8A0E6D7366A376A6E
:102B300036C002F037C003F0056AFB0E06EC01F068
:102B4000D8A4B2EF15F03650990FE96E010E372078
:102B5000EA6EEFCF7FF0DFEC0AF0362A000E372264
:102B6000D8A0E6D71200636B646B656B020E666FCC
:102B700024C002F025C003F03CC004F03DC005F0C5
:102B80002DEC01F0146E03C015F00A0E026E036AFC
:102B900015C005F014500FEC01F0D8A4F7EF15F0B4
:102BA00024C002F025C003F00A0E046E056A2DEC65
:102BB00001F0146E03C015F069C008F06AC009F096
:102BC00014C004F015C005F045EC01F0146E07C008
:102BD00015F014C002F015C003F0040E046E056A6F
:102BE0002DEC01F0616F03C062F021EF16F024C0FC
:102BF00002F025C003F0040E046E056A2DEC01F00E
:102C0000146E03C015F069C008F06AC009F014C062
:102C100004F015C005F045EC01F0146E07C015F086
:102C200014C002F015C003F0070E046E056A2DEC07
:102C300001F0146E03C015F01428616F000E15200A
:102C4000626F026A036A3FC005F03E500FEC01F06C
:102C5000D8A497EF16F075EF16F057EC19F0939E85
:102C6000810E1E6E0F0E206E800E1C6E060E016E03
:102C7000100E2FEC00F0540E2FEC00F04E0E2FEC47
:102C800000F04F0E2FEC00F0200E2FEC00F0540E51
:102C90002FEC00F0450E2FEC00F0530E2FEC00F05F
:102CA000540E2FEC00F0200E2FEC00F0440E2FEC11
:102CB00000F0410E2FEC00F0540E2FEC00F0410E0E
:102CC0002FEC00F0200E2FEC00F0460E2FEC00F061
:102CD0004F0E2FEC00F0550E2FEC00F04E0E2FECA7
:102CE00000F0440E2FEC00F0938E010E3A6E3B6A1A
:102CF0003AC002F03BC003F0056A050E06EC01F095
:102D0000D8A494EF16F08082010E056EF40EE8EC64
:102D100000F08092010E056EF40EE8EC00F03A2A05
:102D2000000E3B22D8A0E4D71200DBEF17F0010E13
:102D3000366E376A36C002F037C003F0056A320ECD
:102D400006EC01F0D8A4ADEF16F0806BA5EC0BF00B
:102D5000362A000E3722D8A0EDD73EC002F03FC081
:102D600003F0040E046E056A2DEC01F07A6FCCEFCF
:102D700016F0939E810E1E6E0F0E206E800E1C6E3E
:102D8000060E016E100E2FEC00F0680E2FEC00F016
:102D90007A5110EC00F0938E14EC0FF03E6A3F6A0B
:102DA00054DE010E6B6F6C6B6BC002F06CC003F0F5
:102DB0007A5105EC01F0D8A4DBEF17F03EC002F029
:102DC0003FC003F0056AF80E06EC01F0D8A41CEF32
:102DD00017F03E509D0FE96E000E3F20EA6EEFCFD8
:102DE00064F03E28146E000E3F20156E14509D0FA7
:102DF000E96E000E1520EA6EEFCF63F0020E3E245E
:102E0000146E000E3F20156E14509D0FE96E000EDB
:102E10001520EA6EEFCF66F0030E3E24146E000E0E
:102E20003F20156E14509D0FE96E000E1520EA6EBE
:102E3000EFCF65F04DEF17F03E50990FE96E010EA0
:102E40003F20EA6EEFCF64F03E28146E000E3F2064
:102E5000156E1450990FE96E010E1520EA6EEFCF32
:102E600063F0020E3E24146E000E3F20156E1450C7
:102E7000990FE96E010E1520EA6EEFCF66F0030E92
:102E80003E24146E000E3F20156E1450990FE96E0B
:102E9000010E1520EA6EEFCF65F06EEF17F057ECDC
:102EA00019F0939E810E1E6E0F0E206E800E1C6E0A
:102EB000060E016E100E2FEC00F0680E2FEC00F0E5
:102EC00064C007F0635111EC00F02C0E2FEC00F001
:102ED00066C007F0655111EC00F0938E366A376AD0
:102EE00036C002F037C003F0056A090E06EC01F0A7
:102EF000D8A484EF17F036C080F0A5EC0BF0362A8A
:102F0000000E3722D8A0ECD7010E2E6E2F6A2EC0ED
:102F100002F02FC003F062C005F0615106EC01F031
:102F2000D8A4D2EF17F0FCEC09F0366A376A36C045
:102F300002F037C003F0056AFB0E06EC01F0D8A4DE
:102F4000B1EF17F03650950FE96E020E3720EA6E9A
:102F5000EFCF80F0A5EC0BF0362A000E3722D8A078
:102F6000E6D7366A376A36C002F037C003F0056A22
:102F7000FB0E06EC01F0D8A4CDEF17F03650910F00
:102F8000E96E030E3720EA6EEFCF80F0A5EC0BF070
:102F9000362A000E3722D8A0E6D72E2A000E2F227E
:102FA000D8A0B5D7040E3E26000E3F226B2B000E94
:102FB0006C23D8A0F9D612008280020E056EEE0EA8
:102FC000E8EC00F08290FA0EE7EC00F08082020E4E
:102FD000056EEE0EE8EC00F08092FA0EE7EC00F0E1
:102FE0008080020E056EEE0EE8EC00F08090FA0E86
:102FF000E7EC00F01200CEEC06F0E9EC14F00A0E5B
:10300000E7EC00F0D9DF80827C6B24C002F025C0A1
:1030100003F00A0E046E056A2DEC01F0146E03C075
:1030200015F0100E026E270E036E14C004F015C0CA
:1030300005F02DEC01F0146E03C015F014C008F07B
:1030400015C009F00A0E046E056A45EC01F0146E15
:1030500007C015F0E80E145C2C6E030E15582D6E8B
:10306000010E5A6E5B6A5AC002F05BC003F06AC080
:1030700005F0695106EC01F0D8A42AEF19F0010E11
:10308000586E596A58C002F059C003F025C005F0C7
:10309000245006EC01F0D8A425EF19F024C002F06A
:1030A00025C003F03CC004F03DC005F02DEC01F05C
:1030B000146E03C015F058C002F059C003F014C0DC
:1030C00004F015C005F02DEC01F006C014F007C0A7
:1030D00015F014C002F015C003F0056A010EFFECF4
:1030E00000F0146E24C002F025C003F03DC005F0CE
:1030F0003C50FFEC00F0166E14C002F0165028ECA5
:1031000001F0166E176E040016501710D8B48FEF2A
:1031100018F090EC04F078EC09F098EF18F0EBEC74
:1031200005F012EC09F0010E036E4F0EF5EC00F005
:103130007C511B08D8A4E868FF0A146E24C002F072
:1031400025C003F03DC005F03C50FFEC00F0166ECA
:1031500014C002F0165021EC01F0166E176E040038
:1031600016501710D8B4D3EF18F0070E6F25146E51
:10317000000E7021156E0268036815C005F014502A
:103180000FEC01F0D8A4CCEF18F06F6B706B6D2BC7
:10319000000E6E23D0EF18F0080E6F27000E70237C
:1031A0007C6B1BEF19F07C512708D8A4E868FF0A54
:1031B000146E24C002F025C003F03CC004F03DC0F2
:1031C00005F02DEC01F0166E03C017F016C002F0EA
:1031D00017C003F0056A0A0EFFEC00F0166E14C06B
:1031E00002F0165021EC01F0166E176E0400165016
:1031F0001710D8B41AEF19F0070E6F25146E000ED1
:103200007021156E0268036815C005F014500FECAC
:1032100001F0D8A413EF19F06F6B706B6D2B000EDB
:103220006E2317EF19F0080E6F27000E70237C6BCA
:103230001BEF19F07C2B2DC003F02C50F5EC00F0A7
:10324000582A000E5922D8A01DD75A2A000E5B22F8
:10325000D8A009D76FC002F070C003F0046A020E54
:10326000056E2DEC01F006C014F007C015F01450E7
:10327000FF08286E010E1554296E28506F2729501B
:1032800070230268036870C005F06F510FEC01F005
:10329000D8A452EF19F06F6B706B6D2B000E6E237C
:1032A00055EF19F06F2B000E70238092120069EF1A
:1032B00019F0939E810E1E6E0F0E206E800E1C6EF6
:1032C000060E016E0C0E2FEC00F0938E0A0EE7EC4A
:1032D00000F01200939E810E1E6E0F0E206E800E67
:1032E0001C6E060E016E0E0E2FEC00F0938E120077
:1032F000939E810E1E6E0F0E206E800E1C6E060EAB
:10330000016E0F0E2FEC00F0938E1200939E810E33
:103310001E6E0F0E206E800E1C6E060E016E100EBD
:103320002FEC00F0400E2FEC00F0938E1200939ED5
:10333000810E1E6E0F0E206E800E1C6E060E016E2C
:10334000100E2FEC00F0540E2FEC00F0938E1200B4
:10335000939E810E1E6E0F0E206E800E1C6E060E4A
:10336000016E100E2FEC00F0680E2FEC00F0938E23
:103370001200939E810E1E6E0F0E206E800E1C6E2C
:10338000060E016E100E2FEC00F07C0E2FEC00F0FC
:04339000938E120006
:020000040030CA
:03000100081F3F96
:02000500BD81BB
:060008000FC00FE00F40E5
:00000001FF
